{
	"CryptoFairHero/HeroV1Game.sol": {
		"HeroV1Game": {
			"abi": [
				{
					"inputs": [
						{
							"internalType": "uint256",
							"name": "_gameId",
							"type": "uint256"
						},
						{
							"internalType": "uint256",
							"name": "_minJoinAmount",
							"type": "uint256"
						},
						{
							"internalType": "uint256",
							"name": "_minJoinPlayer",
							"type": "uint256"
						},
						{
							"internalType": "uint256",
							"name": "_guarantee",
							"type": "uint256"
						},
						{
							"internalType": "address",
							"name": "_creator",
							"type": "address"
						},
						{
							"internalType": "address",
							"name": "_charityAddress",
							"type": "address"
						},
						{
							"internalType": "address",
							"name": "_token",
							"type": "address"
						},
						{
							"internalType": "uint8",
							"name": "_charityPercentage",
							"type": "uint8"
						},
						{
							"internalType": "uint8",
							"name": "_referrPercentage",
							"type": "uint8"
						},
						{
							"internalType": "uint8",
							"name": "_drawPercentage",
							"type": "uint8"
						}
					],
					"stateMutability": "nonpayable",
					"type": "constructor"
				},
				{
					"anonymous": false,
					"inputs": [],
					"name": "Canceled",
					"type": "event"
				},
				{
					"anonymous": false,
					"inputs": [
						{
							"indexed": true,
							"internalType": "address",
							"name": "player",
							"type": "address"
						},
						{
							"indexed": false,
							"internalType": "uint256",
							"name": "amount",
							"type": "uint256"
						}
					],
					"name": "Charity",
					"type": "event"
				},
				{
					"anonymous": false,
					"inputs": [],
					"name": "Completed",
					"type": "event"
				},
				{
					"anonymous": false,
					"inputs": [
						{
							"indexed": true,
							"internalType": "address",
							"name": "user",
							"type": "address"
						},
						{
							"indexed": false,
							"internalType": "uint256",
							"name": "amount",
							"type": "uint256"
						}
					],
					"name": "Drawer",
					"type": "event"
				},
				{
					"anonymous": false,
					"inputs": [
						{
							"indexed": true,
							"internalType": "address",
							"name": "player",
							"type": "address"
						},
						{
							"indexed": false,
							"internalType": "uint256",
							"name": "amount",
							"type": "uint256"
						}
					],
					"name": "Join",
					"type": "event"
				},
				{
					"anonymous": false,
					"inputs": [
						{
							"indexed": false,
							"internalType": "address",
							"name": "account",
							"type": "address"
						}
					],
					"name": "Paused",
					"type": "event"
				},
				{
					"anonymous": false,
					"inputs": [
						{
							"indexed": true,
							"internalType": "address",
							"name": "user",
							"type": "address"
						},
						{
							"indexed": false,
							"internalType": "uint256",
							"name": "amount",
							"type": "uint256"
						}
					],
					"name": "Referrer",
					"type": "event"
				},
				{
					"anonymous": false,
					"inputs": [
						{
							"indexed": true,
							"internalType": "address",
							"name": "player",
							"type": "address"
						},
						{
							"indexed": false,
							"internalType": "uint256",
							"name": "amount",
							"type": "uint256"
						}
					],
					"name": "Refund",
					"type": "event"
				},
				{
					"anonymous": false,
					"inputs": [
						{
							"indexed": true,
							"internalType": "bytes32",
							"name": "role",
							"type": "bytes32"
						},
						{
							"indexed": true,
							"internalType": "bytes32",
							"name": "previousAdminRole",
							"type": "bytes32"
						},
						{
							"indexed": true,
							"internalType": "bytes32",
							"name": "newAdminRole",
							"type": "bytes32"
						}
					],
					"name": "RoleAdminChanged",
					"type": "event"
				},
				{
					"anonymous": false,
					"inputs": [
						{
							"indexed": true,
							"internalType": "bytes32",
							"name": "role",
							"type": "bytes32"
						},
						{
							"indexed": true,
							"internalType": "address",
							"name": "account",
							"type": "address"
						},
						{
							"indexed": true,
							"internalType": "address",
							"name": "sender",
							"type": "address"
						}
					],
					"name": "RoleGranted",
					"type": "event"
				},
				{
					"anonymous": false,
					"inputs": [
						{
							"indexed": true,
							"internalType": "bytes32",
							"name": "role",
							"type": "bytes32"
						},
						{
							"indexed": true,
							"internalType": "address",
							"name": "account",
							"type": "address"
						},
						{
							"indexed": true,
							"internalType": "address",
							"name": "sender",
							"type": "address"
						}
					],
					"name": "RoleRevoked",
					"type": "event"
				},
				{
					"anonymous": false,
					"inputs": [
						{
							"indexed": false,
							"internalType": "address",
							"name": "account",
							"type": "address"
						}
					],
					"name": "Unpaused",
					"type": "event"
				},
				{
					"anonymous": false,
					"inputs": [
						{
							"indexed": true,
							"internalType": "address",
							"name": "player",
							"type": "address"
						},
						{
							"indexed": false,
							"internalType": "uint256",
							"name": "amount",
							"type": "uint256"
						}
					],
					"name": "Winner",
					"type": "event"
				},
				{
					"inputs": [],
					"name": "DEFAULT_ADMIN_ROLE",
					"outputs": [
						{
							"internalType": "bytes32",
							"name": "",
							"type": "bytes32"
						}
					],
					"stateMutability": "view",
					"type": "function"
				},
				{
					"inputs": [],
					"name": "PAUSER_ROLE",
					"outputs": [
						{
							"internalType": "bytes32",
							"name": "",
							"type": "bytes32"
						}
					],
					"stateMutability": "view",
					"type": "function"
				},
				{
					"inputs": [],
					"name": "cancelGame",
					"outputs": [],
					"stateMutability": "nonpayable",
					"type": "function"
				},
				{
					"inputs": [],
					"name": "charity",
					"outputs": [
						{
							"internalType": "address",
							"name": "",
							"type": "address"
						}
					],
					"stateMutability": "view",
					"type": "function"
				},
				{
					"inputs": [],
					"name": "completeGame",
					"outputs": [],
					"stateMutability": "nonpayable",
					"type": "function"
				},
				{
					"inputs": [],
					"name": "creator",
					"outputs": [
						{
							"internalType": "address",
							"name": "",
							"type": "address"
						}
					],
					"stateMutability": "view",
					"type": "function"
				},
				{
					"inputs": [],
					"name": "drawGame",
					"outputs": [],
					"stateMutability": "nonpayable",
					"type": "function"
				},
				{
					"inputs": [],
					"name": "factory",
					"outputs": [
						{
							"internalType": "address",
							"name": "",
							"type": "address"
						}
					],
					"stateMutability": "view",
					"type": "function"
				},
				{
					"inputs": [],
					"name": "gameInfo",
					"outputs": [
						{
							"internalType": "uint256",
							"name": "id",
							"type": "uint256"
						},
						{
							"internalType": "uint256",
							"name": "minJoinAmount",
							"type": "uint256"
						},
						{
							"internalType": "uint256",
							"name": "minJoinPlayer",
							"type": "uint256"
						},
						{
							"internalType": "uint256",
							"name": "guarantee",
							"type": "uint256"
						},
						{
							"internalType": "uint256",
							"name": "_joinTotal",
							"type": "uint256"
						},
						{
							"internalType": "uint256",
							"name": "_charityTotal",
							"type": "uint256"
						},
						{
							"internalType": "uint256",
							"name": "_winnerReward",
							"type": "uint256"
						},
						{
							"internalType": "uint256",
							"name": "_referrerReward",
							"type": "uint256"
						},
						{
							"internalType": "uint8",
							"name": "charityPercentage",
							"type": "uint8"
						},
						{
							"internalType": "uint8",
							"name": "referrPercentage",
							"type": "uint8"
						},
						{
							"internalType": "uint8",
							"name": "drawPercentage",
							"type": "uint8"
						}
					],
					"stateMutability": "view",
					"type": "function"
				},
				{
					"inputs": [],
					"name": "getCharity",
					"outputs": [],
					"stateMutability": "nonpayable",
					"type": "function"
				},
				{
					"inputs": [],
					"name": "getGameStatus",
					"outputs": [
						{
							"internalType": "enum GameStatus",
							"name": "",
							"type": "uint8"
						},
						{
							"internalType": "uint256",
							"name": "",
							"type": "uint256"
						},
						{
							"internalType": "uint256",
							"name": "",
							"type": "uint256"
						},
						{
							"internalType": "uint256",
							"name": "",
							"type": "uint256"
						},
						{
							"internalType": "uint256",
							"name": "",
							"type": "uint256"
						},
						{
							"internalType": "uint256",
							"name": "",
							"type": "uint256"
						},
						{
							"internalType": "uint256",
							"name": "",
							"type": "uint256"
						}
					],
					"stateMutability": "view",
					"type": "function"
				},
				{
					"inputs": [
						{
							"internalType": "bool",
							"name": "force",
							"type": "bool"
						}
					],
					"name": "getGuarantee",
					"outputs": [],
					"stateMutability": "nonpayable",
					"type": "function"
				},
				{
					"inputs": [],
					"name": "getReferrerReward",
					"outputs": [],
					"stateMutability": "nonpayable",
					"type": "function"
				},
				{
					"inputs": [],
					"name": "getRefund",
					"outputs": [],
					"stateMutability": "nonpayable",
					"type": "function"
				},
				{
					"inputs": [
						{
							"internalType": "bytes32",
							"name": "role",
							"type": "bytes32"
						}
					],
					"name": "getRoleAdmin",
					"outputs": [
						{
							"internalType": "bytes32",
							"name": "",
							"type": "bytes32"
						}
					],
					"stateMutability": "view",
					"type": "function"
				},
				{
					"inputs": [],
					"name": "getWinnerReward",
					"outputs": [],
					"stateMutability": "nonpayable",
					"type": "function"
				},
				{
					"inputs": [
						{
							"internalType": "bytes32",
							"name": "role",
							"type": "bytes32"
						},
						{
							"internalType": "address",
							"name": "account",
							"type": "address"
						}
					],
					"name": "grantRole",
					"outputs": [],
					"stateMutability": "nonpayable",
					"type": "function"
				},
				{
					"inputs": [
						{
							"internalType": "bytes32",
							"name": "role",
							"type": "bytes32"
						},
						{
							"internalType": "address",
							"name": "account",
							"type": "address"
						}
					],
					"name": "hasRole",
					"outputs": [
						{
							"internalType": "bool",
							"name": "",
							"type": "bool"
						}
					],
					"stateMutability": "view",
					"type": "function"
				},
				{
					"inputs": [
						{
							"internalType": "uint256",
							"name": "_amount",
							"type": "uint256"
						},
						{
							"internalType": "address",
							"name": "_referrer",
							"type": "address"
						}
					],
					"name": "joinGame",
					"outputs": [],
					"stateMutability": "payable",
					"type": "function"
				},
				{
					"inputs": [],
					"name": "joinGas",
					"outputs": [
						{
							"internalType": "address",
							"name": "",
							"type": "address"
						}
					],
					"stateMutability": "view",
					"type": "function"
				},
				{
					"inputs": [],
					"name": "pauseGame",
					"outputs": [],
					"stateMutability": "nonpayable",
					"type": "function"
				},
				{
					"inputs": [],
					"name": "paused",
					"outputs": [
						{
							"internalType": "bool",
							"name": "",
							"type": "bool"
						}
					],
					"stateMutability": "view",
					"type": "function"
				},
				{
					"inputs": [
						{
							"internalType": "address",
							"name": "",
							"type": "address"
						}
					],
					"name": "playerTotal",
					"outputs": [
						{
							"internalType": "uint256",
							"name": "",
							"type": "uint256"
						}
					],
					"stateMutability": "view",
					"type": "function"
				},
				{
					"inputs": [
						{
							"internalType": "uint256",
							"name": "",
							"type": "uint256"
						}
					],
					"name": "players",
					"outputs": [
						{
							"internalType": "uint256",
							"name": "amount",
							"type": "uint256"
						},
						{
							"internalType": "address",
							"name": "addr",
							"type": "address"
						}
					],
					"stateMutability": "view",
					"type": "function"
				},
				{
					"inputs": [
						{
							"internalType": "address",
							"name": "",
							"type": "address"
						}
					],
					"name": "referrers",
					"outputs": [
						{
							"internalType": "uint256",
							"name": "",
							"type": "uint256"
						}
					],
					"stateMutability": "view",
					"type": "function"
				},
				{
					"inputs": [],
					"name": "refundGas",
					"outputs": [
						{
							"internalType": "address",
							"name": "",
							"type": "address"
						}
					],
					"stateMutability": "view",
					"type": "function"
				},
				{
					"inputs": [
						{
							"internalType": "bytes32",
							"name": "role",
							"type": "bytes32"
						},
						{
							"internalType": "address",
							"name": "account",
							"type": "address"
						}
					],
					"name": "renounceRole",
					"outputs": [],
					"stateMutability": "nonpayable",
					"type": "function"
				},
				{
					"inputs": [
						{
							"internalType": "bytes32",
							"name": "role",
							"type": "bytes32"
						},
						{
							"internalType": "address",
							"name": "account",
							"type": "address"
						}
					],
					"name": "revokeRole",
					"outputs": [],
					"stateMutability": "nonpayable",
					"type": "function"
				},
				{
					"inputs": [],
					"name": "startGame",
					"outputs": [],
					"stateMutability": "payable",
					"type": "function"
				},
				{
					"inputs": [
						{
							"internalType": "bytes4",
							"name": "interfaceId",
							"type": "bytes4"
						}
					],
					"name": "supportsInterface",
					"outputs": [
						{
							"internalType": "bool",
							"name": "",
							"type": "bool"
						}
					],
					"stateMutability": "view",
					"type": "function"
				},
				{
					"inputs": [],
					"name": "token",
					"outputs": [
						{
							"internalType": "address",
							"name": "",
							"type": "address"
						}
					],
					"stateMutability": "view",
					"type": "function"
				},
				{
					"inputs": [],
					"name": "unpauseGame",
					"outputs": [],
					"stateMutability": "nonpayable",
					"type": "function"
				},
				{
					"inputs": [],
					"name": "winner",
					"outputs": [
						{
							"internalType": "address",
							"name": "",
							"type": "address"
						}
					],
					"stateMutability": "view",
					"type": "function"
				}
			],
			"devdoc": {
				"events": {
					"Paused(address)": {
						"details": "Emitted when the pause is triggered by `account`."
					},
					"RoleAdminChanged(bytes32,bytes32,bytes32)": {
						"details": "Emitted when `newAdminRole` is set as ``role``'s admin role, replacing `previousAdminRole` `DEFAULT_ADMIN_ROLE` is the starting admin for all roles, despite {RoleAdminChanged} not being emitted signaling this. _Available since v3.1._"
					},
					"RoleGranted(bytes32,address,address)": {
						"details": "Emitted when `account` is granted `role`. `sender` is the account that originated the contract call, an admin role bearer except when using {AccessControl-_setupRole}."
					},
					"RoleRevoked(bytes32,address,address)": {
						"details": "Emitted when `account` is revoked `role`. `sender` is the account that originated the contract call:   - if using `revokeRole`, it is the admin role bearer   - if using `renounceRole`, it is the role bearer (i.e. `account`)"
					},
					"Unpaused(address)": {
						"details": "Emitted when the pause is lifted by `account`."
					}
				},
				"kind": "dev",
				"methods": {
					"getRoleAdmin(bytes32)": {
						"details": "Returns the admin role that controls `role`. See {grantRole} and {revokeRole}. To change a role's admin, use {_setRoleAdmin}."
					},
					"grantRole(bytes32,address)": {
						"details": "Grants `role` to `account`. If `account` had not been already granted `role`, emits a {RoleGranted} event. Requirements: - the caller must have ``role``'s admin role. May emit a {RoleGranted} event."
					},
					"hasRole(bytes32,address)": {
						"details": "Returns `true` if `account` has been granted `role`."
					},
					"paused()": {
						"details": "Returns true if the contract is paused, and false otherwise."
					},
					"renounceRole(bytes32,address)": {
						"details": "Revokes `role` from the calling account. Roles are often managed via {grantRole} and {revokeRole}: this function's purpose is to provide a mechanism for accounts to lose their privileges if they are compromised (such as when a trusted device is misplaced). If the calling account had been revoked `role`, emits a {RoleRevoked} event. Requirements: - the caller must be `account`. May emit a {RoleRevoked} event."
					},
					"revokeRole(bytes32,address)": {
						"details": "Revokes `role` from `account`. If `account` had been granted `role`, emits a {RoleRevoked} event. Requirements: - the caller must have ``role``'s admin role. May emit a {RoleRevoked} event."
					},
					"supportsInterface(bytes4)": {
						"details": "See {IERC165-supportsInterface}."
					}
				},
				"version": 1
			},
			"evm": {
				"assembly": "    /* \"CryptoFairHero/HeroV1Game.sol\":790:11383  contract HeroV1Game is AccessControl, Pausable, ReentrancyGuard {... */\n  mstore(0x40, 0x80)\n    /* \"CryptoFairHero/HeroV1Game.sol\":1896:3176  constructor(... */\n  callvalue\n  dup1\n  iszero\n  tag_1\n  jumpi\n  0x00\n  dup1\n  revert\ntag_1:\n  pop\n  mload(0x40)\n  sub(codesize, bytecodeSize)\n  dup1\n  bytecodeSize\n  dup4\n  codecopy\n  dup2\n  dup2\n  add\n  0x40\n  mstore\n  dup2\n  add\n  swap1\n  tag_2\n  swap2\n  swap1\n  tag_3\n  jump\t// in\ntag_2:\n    /* \"@openzeppelin/contracts@4.8.3/security/Pausable.sol\":1006:1011  false */\n  0x00\n    /* \"@openzeppelin/contracts@4.8.3/security/Pausable.sol\":996:1003  _paused */\n  0x01\n  0x00\n    /* \"@openzeppelin/contracts@4.8.3/security/Pausable.sol\":996:1011  _paused = false */\n  0x0100\n  exp\n  dup2\n  sload\n  dup2\n  0xff\n  mul\n  not\n  and\n  swap1\n  dup4\n  iszero\n  iszero\n  mul\n  or\n  swap1\n  sstore\n  pop\n    /* \"@openzeppelin/contracts@4.8.3/security/ReentrancyGuard.sol\":1716:1717  1 */\n  0x01\n    /* \"@openzeppelin/contracts@4.8.3/security/ReentrancyGuard.sol\":1821:1828  _status */\n  0x02\n    /* \"@openzeppelin/contracts@4.8.3/security/ReentrancyGuard.sol\":1821:1843  _status = _NOT_ENTERED */\n  dup2\n  swap1\n  sstore\n  pop\n    /* \"CryptoFairHero/HeroV1Game.sol\":2357:2360  100 */\n  0x64\n    /* \"CryptoFairHero/HeroV1Game.sol\":2336:2354  _charityPercentage */\n  dup4\n    /* \"CryptoFairHero/HeroV1Game.sol\":2336:2360  _charityPercentage % 100 */\n  tag_10\n  swap2\n  swap1\n  tag_11\n  jump\t// in\ntag_10:\n    /* \"CryptoFairHero/HeroV1Game.sol\":2315:2360  _charityPercentage = _charityPercentage % 100 */\n  swap3\n  pop\n    /* \"CryptoFairHero/HeroV1Game.sol\":2410:2413  100 */\n  0x64\n    /* \"CryptoFairHero/HeroV1Game.sol\":2390:2407  _referrPercentage */\n  dup3\n    /* \"CryptoFairHero/HeroV1Game.sol\":2390:2413  _referrPercentage % 100 */\n  tag_12\n  swap2\n  swap1\n  tag_11\n  jump\t// in\ntag_12:\n    /* \"CryptoFairHero/HeroV1Game.sol\":2370:2413  _referrPercentage = _referrPercentage % 100 */\n  swap2\n  pop\n    /* \"CryptoFairHero/HeroV1Game.sol\":2459:2462  100 */\n  0x64\n    /* \"CryptoFairHero/HeroV1Game.sol\":2441:2456  _drawPercentage */\n  dup2\n    /* \"CryptoFairHero/HeroV1Game.sol\":2441:2462  _drawPercentage % 100 */\n  tag_13\n  swap2\n  swap1\n  tag_11\n  jump\t// in\ntag_13:\n    /* \"CryptoFairHero/HeroV1Game.sol\":2423:2462  _drawPercentage = _drawPercentage % 100 */\n  swap1\n  pop\n    /* \"CryptoFairHero/HeroV1Game.sol\":2542:2557  _drawPercentage */\n  dup1\n    /* \"CryptoFairHero/HeroV1Game.sol\":2522:2539  _referrPercentage */\n  dup3\n    /* \"CryptoFairHero/HeroV1Game.sol\":2501:2519  _charityPercentage */\n  dup5\n    /* \"CryptoFairHero/HeroV1Game.sol\":2501:2539  _charityPercentage + _referrPercentage */\n  tag_14\n  swap2\n  swap1\n  tag_15\n  jump\t// in\ntag_14:\n    /* \"CryptoFairHero/HeroV1Game.sol\":2501:2557  _charityPercentage + _referrPercentage + _drawPercentage */\n  tag_16\n  swap2\n  swap1\n  tag_15\n  jump\t// in\ntag_16:\n    /* \"CryptoFairHero/HeroV1Game.sol\":2495:2557  100 > _charityPercentage + _referrPercentage + _drawPercentage */\n  0xff\n  and\n    /* \"CryptoFairHero/HeroV1Game.sol\":2495:2498  100 */\n  0x64\n    /* \"CryptoFairHero/HeroV1Game.sol\":2495:2557  100 > _charityPercentage + _referrPercentage + _drawPercentage */\n  gt\n    /* \"CryptoFairHero/HeroV1Game.sol\":2487:2558  require(100 > _charityPercentage + _referrPercentage + _drawPercentage) */\n  tag_17\n  jumpi\n  0x00\n  dup1\n  revert\ntag_17:\n    /* \"CryptoFairHero/HeroV1Game.sol\":2587:2597  msg.sender */\n  caller\n    /* \"CryptoFairHero/HeroV1Game.sol\":2577:2584  factory */\n  0x0c\n  0x00\n    /* \"CryptoFairHero/HeroV1Game.sol\":2577:2597  factory = msg.sender */\n  0x0100\n  exp\n  dup2\n  sload\n  dup2\n  0xffffffffffffffffffffffffffffffffffffffff\n  mul\n  not\n  and\n  swap1\n  dup4\n  0xffffffffffffffffffffffffffffffffffffffff\n  and\n  mul\n  or\n  swap1\n  sstore\n  pop\n    /* \"CryptoFairHero/HeroV1Game.sol\":2617:2625  _creator */\n  dup6\n    /* \"CryptoFairHero/HeroV1Game.sol\":2607:2614  creator */\n  0x0d\n  0x00\n    /* \"CryptoFairHero/HeroV1Game.sol\":2607:2625  creator = _creator */\n  0x0100\n  exp\n  dup2\n  sload\n  dup2\n  0xffffffffffffffffffffffffffffffffffffffff\n  mul\n  not\n  and\n  swap1\n  dup4\n  0xffffffffffffffffffffffffffffffffffffffff\n  and\n  mul\n  or\n  swap1\n  sstore\n  pop\n    /* \"CryptoFairHero/HeroV1Game.sol\":2645:2660  _charityAddress */\n  dup5\n    /* \"CryptoFairHero/HeroV1Game.sol\":2635:2642  charity */\n  0x10\n  0x00\n    /* \"CryptoFairHero/HeroV1Game.sol\":2635:2660  charity = _charityAddress */\n  0x0100\n  exp\n  dup2\n  sload\n  dup2\n  0xffffffffffffffffffffffffffffffffffffffff\n  mul\n  not\n  and\n  swap1\n  dup4\n  0xffffffffffffffffffffffffffffffffffffffff\n  and\n  mul\n  or\n  swap1\n  sstore\n  pop\n    /* \"CryptoFairHero/HeroV1Game.sol\":2689:2695  _token */\n  dup4\n    /* \"CryptoFairHero/HeroV1Game.sol\":2675:2695  address(0) != _token */\n  0xffffffffffffffffffffffffffffffffffffffff\n  and\n    /* \"CryptoFairHero/HeroV1Game.sol\":2683:2684  0 */\n  0x00\n    /* \"CryptoFairHero/HeroV1Game.sol\":2675:2695  address(0) != _token */\n  0xffffffffffffffffffffffffffffffffffffffff\n  and\n  eq\n    /* \"CryptoFairHero/HeroV1Game.sol\":2671:2736  if (address(0) != _token) {... */\n  tag_18\n  jumpi\n    /* \"CryptoFairHero/HeroV1Game.sol\":2719:2725  _token */\n  dup4\n    /* \"CryptoFairHero/HeroV1Game.sol\":2711:2716  token */\n  0x0e\n  0x00\n    /* \"CryptoFairHero/HeroV1Game.sol\":2711:2725  token = _token */\n  0x0100\n  exp\n  dup2\n  sload\n  dup2\n  0xffffffffffffffffffffffffffffffffffffffff\n  mul\n  not\n  and\n  swap1\n  dup4\n  0xffffffffffffffffffffffffffffffffffffffff\n  and\n  mul\n  or\n  swap1\n  sstore\n  pop\n    /* \"CryptoFairHero/HeroV1Game.sol\":2671:2736  if (address(0) != _token) {... */\ntag_18:\n    /* \"CryptoFairHero/HeroV1Game.sol\":2760:2778  GameStatus.Created */\n  0x00\n    /* \"CryptoFairHero/HeroV1Game.sol\":2746:2757  _gameStatus */\n  0x1a\n  0x00\n    /* \"CryptoFairHero/HeroV1Game.sol\":2746:2778  _gameStatus = GameStatus.Created */\n  0x0100\n  exp\n  dup2\n  sload\n  dup2\n  0xff\n  mul\n  not\n  and\n  swap1\n  dup4\n  0x05\n  dup2\n  gt\n  iszero\n  tag_19\n  jumpi\n  tag_20\n  tag_21\n  jump\t// in\ntag_20:\ntag_19:\n  mul\n  or\n  swap1\n  sstore\n  pop\n    /* \"CryptoFairHero/HeroV1Game.sol\":2800:3071  GameInfo(... */\n  mload(0x40)\n  dup1\n  0x0160\n  add\n  0x40\n  mstore\n  dup1\n    /* \"CryptoFairHero/HeroV1Game.sol\":2822:2829  _gameId */\n  dup12\n    /* \"CryptoFairHero/HeroV1Game.sol\":2800:3071  GameInfo(... */\n  dup2\n  mstore\n  0x20\n  add\n    /* \"CryptoFairHero/HeroV1Game.sol\":2843:2857  _minJoinAmount */\n  dup11\n    /* \"CryptoFairHero/HeroV1Game.sol\":2800:3071  GameInfo(... */\n  dup2\n  mstore\n  0x20\n  add\n    /* \"CryptoFairHero/HeroV1Game.sol\":2871:2885  _minJoinPlayer */\n  dup10\n    /* \"CryptoFairHero/HeroV1Game.sol\":2800:3071  GameInfo(... */\n  dup2\n  mstore\n  0x20\n  add\n    /* \"CryptoFairHero/HeroV1Game.sol\":2899:2909  _guarantee */\n  dup9\n    /* \"CryptoFairHero/HeroV1Game.sol\":2800:3071  GameInfo(... */\n  dup2\n  mstore\n  0x20\n  add\n    /* \"CryptoFairHero/HeroV1Game.sol\":2923:2924  0 */\n  0x00\n    /* \"CryptoFairHero/HeroV1Game.sol\":2800:3071  GameInfo(... */\n  dup2\n  mstore\n  0x20\n  add\n    /* \"CryptoFairHero/HeroV1Game.sol\":2938:2939  0 */\n  0x00\n    /* \"CryptoFairHero/HeroV1Game.sol\":2800:3071  GameInfo(... */\n  dup2\n  mstore\n  0x20\n  add\n    /* \"CryptoFairHero/HeroV1Game.sol\":2953:2954  0 */\n  0x00\n    /* \"CryptoFairHero/HeroV1Game.sol\":2800:3071  GameInfo(... */\n  dup2\n  mstore\n  0x20\n  add\n    /* \"CryptoFairHero/HeroV1Game.sol\":2968:2969  0 */\n  0x00\n    /* \"CryptoFairHero/HeroV1Game.sol\":2800:3071  GameInfo(... */\n  dup2\n  mstore\n  0x20\n  add\n    /* \"CryptoFairHero/HeroV1Game.sol\":2983:3001  _charityPercentage */\n  dup5\n    /* \"CryptoFairHero/HeroV1Game.sol\":2800:3071  GameInfo(... */\n  0xff\n  and\n  dup2\n  mstore\n  0x20\n  add\n    /* \"CryptoFairHero/HeroV1Game.sol\":3015:3032  _referrPercentage */\n  dup4\n    /* \"CryptoFairHero/HeroV1Game.sol\":2800:3071  GameInfo(... */\n  0xff\n  and\n  dup2\n  mstore\n  0x20\n  add\n    /* \"CryptoFairHero/HeroV1Game.sol\":3046:3061  _drawPercentage */\n  dup3\n    /* \"CryptoFairHero/HeroV1Game.sol\":2800:3071  GameInfo(... */\n  0xff\n  and\n  dup2\n  mstore\n  pop\n    /* \"CryptoFairHero/HeroV1Game.sol\":2789:2797  gameInfo */\n  0x03\n    /* \"CryptoFairHero/HeroV1Game.sol\":2789:3071  gameInfo = GameInfo(... */\n  0x00\n  dup3\n  add\n  mload\n  dup2\n  0x00\n  add\n  sstore\n  0x20\n  dup3\n  add\n  mload\n  dup2\n  0x01\n  add\n  sstore\n  0x40\n  dup3\n  add\n  mload\n  dup2\n  0x02\n  add\n  sstore\n  0x60\n  dup3\n  add\n  mload\n  dup2\n  0x03\n  add\n  sstore\n  0x80\n  dup3\n  add\n  mload\n  dup2\n  0x04\n  add\n  sstore\n  0xa0\n  dup3\n  add\n  mload\n  dup2\n  0x05\n  add\n  sstore\n  0xc0\n  dup3\n  add\n  mload\n  dup2\n  0x06\n  add\n  sstore\n  0xe0\n  dup3\n  add\n  mload\n  dup2\n  0x07\n  add\n  sstore\n  0x0100\n  dup3\n  add\n  mload\n  dup2\n  0x08\n  add\n  exp(0x0100, 0x00)\n  dup2\n  sload\n  dup2\n  0xff\n  mul\n  not\n  and\n  swap1\n  dup4\n  0xff\n  and\n  mul\n  or\n  swap1\n  sstore\n  pop\n  0x0120\n  dup3\n  add\n  mload\n  dup2\n  0x08\n  add\n  exp(0x0100, 0x01)\n  dup2\n  sload\n  dup2\n  0xff\n  mul\n  not\n  and\n  swap1\n  dup4\n  0xff\n  and\n  mul\n  or\n  swap1\n  sstore\n  pop\n  0x0140\n  dup3\n  add\n  mload\n  dup2\n  0x08\n  add\n  exp(0x0100, 0x02)\n  dup2\n  sload\n  dup2\n  0xff\n  mul\n  not\n  and\n  swap1\n  dup4\n  0xff\n  and\n  mul\n  or\n  swap1\n  sstore\n  pop\n  swap1\n  pop\n  pop\n    /* \"CryptoFairHero/HeroV1Game.sol\":3082:3124  _grantRole(DEFAULT_ADMIN_ROLE, address(0)) */\n  tag_22\n    /* \"@openzeppelin/contracts@4.8.3/access/AccessControl.sol\":2072:2076  0x00 */\n  0x00\n    /* \"CryptoFairHero/HeroV1Game.sol\":3093:3111  DEFAULT_ADMIN_ROLE */\n  dup1\n  shl\n    /* \"CryptoFairHero/HeroV1Game.sol\":3121:3122  0 */\n  0x00\n    /* \"CryptoFairHero/HeroV1Game.sol\":3082:3092  _grantRole */\n  shl(0x20, tag_23)\n    /* \"CryptoFairHero/HeroV1Game.sol\":3082:3124  _grantRole(DEFAULT_ADMIN_ROLE, address(0)) */\n  0x20\n  shr\n  jump\t// in\ntag_22:\n    /* \"CryptoFairHero/HeroV1Game.sol\":3134:3169  _grantRole(PAUSER_ROLE, msg.sender) */\n  tag_24\n    /* \"CryptoFairHero/HeroV1Game.sol\":899:923  keccak256(\"PAUSER_ROLE\") */\n  0x65d7a28e3265b37a6474929f336521b332c1681b933f6cb9f3376673440d862a\n    /* \"CryptoFairHero/HeroV1Game.sol\":3158:3168  msg.sender */\n  caller\n    /* \"CryptoFairHero/HeroV1Game.sol\":3134:3144  _grantRole */\n  shl(0x20, tag_23)\n    /* \"CryptoFairHero/HeroV1Game.sol\":3134:3169  _grantRole(PAUSER_ROLE, msg.sender) */\n  0x20\n  shr\n  jump\t// in\ntag_24:\n    /* \"CryptoFairHero/HeroV1Game.sol\":1896:3176  constructor(... */\n  pop\n  pop\n  pop\n  pop\n  pop\n  pop\n  pop\n  pop\n  pop\n  pop\n    /* \"CryptoFairHero/HeroV1Game.sol\":790:11383  contract HeroV1Game is AccessControl, Pausable, ReentrancyGuard {... */\n  jump(tag_25)\n    /* \"@openzeppelin/contracts@4.8.3/access/AccessControl.sol\":7461:7694  function _grantRole(bytes32 role, address account) internal virtual {... */\ntag_23:\n    /* \"@openzeppelin/contracts@4.8.3/access/AccessControl.sol\":7544:7566  hasRole(role, account) */\n  tag_27\n    /* \"@openzeppelin/contracts@4.8.3/access/AccessControl.sol\":7552:7556  role */\n  dup3\n    /* \"@openzeppelin/contracts@4.8.3/access/AccessControl.sol\":7558:7565  account */\n  dup3\n    /* \"@openzeppelin/contracts@4.8.3/access/AccessControl.sol\":7544:7551  hasRole */\n  shl(0x20, tag_28)\n    /* \"@openzeppelin/contracts@4.8.3/access/AccessControl.sol\":7544:7566  hasRole(role, account) */\n  0x20\n  shr\n  jump\t// in\ntag_27:\n    /* \"@openzeppelin/contracts@4.8.3/access/AccessControl.sol\":7539:7688  if (!hasRole(role, account)) {... */\n  tag_29\n  jumpi\n    /* \"@openzeppelin/contracts@4.8.3/access/AccessControl.sol\":7614:7618  true */\n  0x01\n    /* \"@openzeppelin/contracts@4.8.3/access/AccessControl.sol\":7582:7588  _roles */\n  0x00\n    /* \"@openzeppelin/contracts@4.8.3/access/AccessControl.sol\":7582:7594  _roles[role] */\n  dup1\n    /* \"@openzeppelin/contracts@4.8.3/access/AccessControl.sol\":7589:7593  role */\n  dup5\n    /* \"@openzeppelin/contracts@4.8.3/access/AccessControl.sol\":7582:7594  _roles[role] */\n  dup2\n  mstore\n  0x20\n  add\n  swap1\n  dup2\n  mstore\n  0x20\n  add\n  0x00\n  keccak256\n    /* \"@openzeppelin/contracts@4.8.3/access/AccessControl.sol\":7582:7602  _roles[role].members */\n  0x00\n  add\n    /* \"@openzeppelin/contracts@4.8.3/access/AccessControl.sol\":7582:7611  _roles[role].members[account] */\n  0x00\n    /* \"@openzeppelin/contracts@4.8.3/access/AccessControl.sol\":7603:7610  account */\n  dup4\n    /* \"@openzeppelin/contracts@4.8.3/access/AccessControl.sol\":7582:7611  _roles[role].members[account] */\n  0xffffffffffffffffffffffffffffffffffffffff\n  and\n  0xffffffffffffffffffffffffffffffffffffffff\n  and\n  dup2\n  mstore\n  0x20\n  add\n  swap1\n  dup2\n  mstore\n  0x20\n  add\n  0x00\n  keccak256\n  0x00\n    /* \"@openzeppelin/contracts@4.8.3/access/AccessControl.sol\":7582:7618  _roles[role].members[account] = true */\n  0x0100\n  exp\n  dup2\n  sload\n  dup2\n  0xff\n  mul\n  not\n  and\n  swap1\n  dup4\n  iszero\n  iszero\n  mul\n  or\n  swap1\n  sstore\n  pop\n    /* \"@openzeppelin/contracts@4.8.3/access/AccessControl.sol\":7664:7676  _msgSender() */\n  tag_30\n    /* \"@openzeppelin/contracts@4.8.3/access/AccessControl.sol\":7664:7674  _msgSender */\n  shl(0x20, tag_31)\n    /* \"@openzeppelin/contracts@4.8.3/access/AccessControl.sol\":7664:7676  _msgSender() */\n  0x20\n  shr\n  jump\t// in\ntag_30:\n    /* \"@openzeppelin/contracts@4.8.3/access/AccessControl.sol\":7637:7677  RoleGranted(role, account, _msgSender()) */\n  0xffffffffffffffffffffffffffffffffffffffff\n  and\n    /* \"@openzeppelin/contracts@4.8.3/access/AccessControl.sol\":7655:7662  account */\n  dup2\n    /* \"@openzeppelin/contracts@4.8.3/access/AccessControl.sol\":7637:7677  RoleGranted(role, account, _msgSender()) */\n  0xffffffffffffffffffffffffffffffffffffffff\n  and\n    /* \"@openzeppelin/contracts@4.8.3/access/AccessControl.sol\":7649:7653  role */\n  dup4\n    /* \"@openzeppelin/contracts@4.8.3/access/AccessControl.sol\":7637:7677  RoleGranted(role, account, _msgSender()) */\n  0x2f8788117e7eff1d82e926ec794901d17c78024a50270940304540a733656f0d\n  mload(0x40)\n  mload(0x40)\n  dup1\n  swap2\n  sub\n  swap1\n  log4\n    /* \"@openzeppelin/contracts@4.8.3/access/AccessControl.sol\":7539:7688  if (!hasRole(role, account)) {... */\ntag_29:\n    /* \"@openzeppelin/contracts@4.8.3/access/AccessControl.sol\":7461:7694  function _grantRole(bytes32 role, address account) internal virtual {... */\n  pop\n  pop\n  jump\t// out\n    /* \"@openzeppelin/contracts@4.8.3/access/AccessControl.sol\":2895:3040  function hasRole(bytes32 role, address account) public view virtual override returns (bool) {... */\ntag_28:\n    /* \"@openzeppelin/contracts@4.8.3/access/AccessControl.sol\":2981:2985  bool */\n  0x00\n    /* \"@openzeppelin/contracts@4.8.3/access/AccessControl.sol\":3004:3010  _roles */\n  dup1\n    /* \"@openzeppelin/contracts@4.8.3/access/AccessControl.sol\":3004:3016  _roles[role] */\n  0x00\n    /* \"@openzeppelin/contracts@4.8.3/access/AccessControl.sol\":3011:3015  role */\n  dup5\n    /* \"@openzeppelin/contracts@4.8.3/access/AccessControl.sol\":3004:3016  _roles[role] */\n  dup2\n  mstore\n  0x20\n  add\n  swap1\n  dup2\n  mstore\n  0x20\n  add\n  0x00\n  keccak256\n    /* \"@openzeppelin/contracts@4.8.3/access/AccessControl.sol\":3004:3024  _roles[role].members */\n  0x00\n  add\n    /* \"@openzeppelin/contracts@4.8.3/access/AccessControl.sol\":3004:3033  _roles[role].members[account] */\n  0x00\n    /* \"@openzeppelin/contracts@4.8.3/access/AccessControl.sol\":3025:3032  account */\n  dup4\n    /* \"@openzeppelin/contracts@4.8.3/access/AccessControl.sol\":3004:3033  _roles[role].members[account] */\n  0xffffffffffffffffffffffffffffffffffffffff\n  and\n  0xffffffffffffffffffffffffffffffffffffffff\n  and\n  dup2\n  mstore\n  0x20\n  add\n  swap1\n  dup2\n  mstore\n  0x20\n  add\n  0x00\n  keccak256\n  0x00\n  swap1\n  sload\n  swap1\n  0x0100\n  exp\n  swap1\n  div\n  0xff\n  and\n    /* \"@openzeppelin/contracts@4.8.3/access/AccessControl.sol\":2997:3033  return _roles[role].members[account] */\n  swap1\n  pop\n    /* \"@openzeppelin/contracts@4.8.3/access/AccessControl.sol\":2895:3040  function hasRole(bytes32 role, address account) public view virtual override returns (bool) {... */\n  swap3\n  swap2\n  pop\n  pop\n  jump\t// out\n    /* \"@openzeppelin/contracts@4.8.3/utils/Context.sol\":640:736  function _msgSender() internal view virtual returns (address) {... */\ntag_31:\n    /* \"@openzeppelin/contracts@4.8.3/utils/Context.sol\":693:700  address */\n  0x00\n    /* \"@openzeppelin/contracts@4.8.3/utils/Context.sol\":719:729  msg.sender */\n  caller\n    /* \"@openzeppelin/contracts@4.8.3/utils/Context.sol\":712:729  return msg.sender */\n  swap1\n  pop\n    /* \"@openzeppelin/contracts@4.8.3/utils/Context.sol\":640:736  function _msgSender() internal view virtual returns (address) {... */\n  swap1\n  jump\t// out\n    /* \"#utility.yul\":88:205   */\ntag_35:\n    /* \"#utility.yul\":197:198   */\n  0x00\n    /* \"#utility.yul\":194:195   */\n  dup1\n    /* \"#utility.yul\":187:199   */\n  revert\n    /* \"#utility.yul\":334:411   */\ntag_37:\n    /* \"#utility.yul\":371:378   */\n  0x00\n    /* \"#utility.yul\":400:405   */\n  dup2\n    /* \"#utility.yul\":389:405   */\n  swap1\n  pop\n    /* \"#utility.yul\":334:411   */\n  swap2\n  swap1\n  pop\n  jump\t// out\n    /* \"#utility.yul\":417:539   */\ntag_38:\n    /* \"#utility.yul\":490:514   */\n  tag_55\n    /* \"#utility.yul\":508:513   */\n  dup2\n    /* \"#utility.yul\":490:514   */\n  tag_37\n  jump\t// in\ntag_55:\n    /* \"#utility.yul\":483:488   */\n  dup2\n    /* \"#utility.yul\":480:515   */\n  eq\n    /* \"#utility.yul\":470:533   */\n  tag_56\n  jumpi\n    /* \"#utility.yul\":529:530   */\n  0x00\n    /* \"#utility.yul\":526:527   */\n  dup1\n    /* \"#utility.yul\":519:531   */\n  revert\n    /* \"#utility.yul\":470:533   */\ntag_56:\n    /* \"#utility.yul\":417:539   */\n  pop\n  jump\t// out\n    /* \"#utility.yul\":545:688   */\ntag_39:\n    /* \"#utility.yul\":602:607   */\n  0x00\n    /* \"#utility.yul\":633:639   */\n  dup2\n    /* \"#utility.yul\":627:640   */\n  mload\n    /* \"#utility.yul\":618:640   */\n  swap1\n  pop\n    /* \"#utility.yul\":649:682   */\n  tag_58\n    /* \"#utility.yul\":676:681   */\n  dup2\n    /* \"#utility.yul\":649:682   */\n  tag_38\n  jump\t// in\ntag_58:\n    /* \"#utility.yul\":545:688   */\n  swap3\n  swap2\n  pop\n  pop\n  jump\t// out\n    /* \"#utility.yul\":694:820   */\ntag_40:\n    /* \"#utility.yul\":731:738   */\n  0x00\n    /* \"#utility.yul\":771:813   */\n  0xffffffffffffffffffffffffffffffffffffffff\n    /* \"#utility.yul\":764:769   */\n  dup3\n    /* \"#utility.yul\":760:814   */\n  and\n    /* \"#utility.yul\":749:814   */\n  swap1\n  pop\n    /* \"#utility.yul\":694:820   */\n  swap2\n  swap1\n  pop\n  jump\t// out\n    /* \"#utility.yul\":826:922   */\ntag_41:\n    /* \"#utility.yul\":863:870   */\n  0x00\n    /* \"#utility.yul\":892:916   */\n  tag_61\n    /* \"#utility.yul\":910:915   */\n  dup3\n    /* \"#utility.yul\":892:916   */\n  tag_40\n  jump\t// in\ntag_61:\n    /* \"#utility.yul\":881:916   */\n  swap1\n  pop\n    /* \"#utility.yul\":826:922   */\n  swap2\n  swap1\n  pop\n  jump\t// out\n    /* \"#utility.yul\":928:1050   */\ntag_42:\n    /* \"#utility.yul\":1001:1025   */\n  tag_63\n    /* \"#utility.yul\":1019:1024   */\n  dup2\n    /* \"#utility.yul\":1001:1025   */\n  tag_41\n  jump\t// in\ntag_63:\n    /* \"#utility.yul\":994:999   */\n  dup2\n    /* \"#utility.yul\":991:1026   */\n  eq\n    /* \"#utility.yul\":981:1044   */\n  tag_64\n  jumpi\n    /* \"#utility.yul\":1040:1041   */\n  0x00\n    /* \"#utility.yul\":1037:1038   */\n  dup1\n    /* \"#utility.yul\":1030:1042   */\n  revert\n    /* \"#utility.yul\":981:1044   */\ntag_64:\n    /* \"#utility.yul\":928:1050   */\n  pop\n  jump\t// out\n    /* \"#utility.yul\":1056:1199   */\ntag_43:\n    /* \"#utility.yul\":1113:1118   */\n  0x00\n    /* \"#utility.yul\":1144:1150   */\n  dup2\n    /* \"#utility.yul\":1138:1151   */\n  mload\n    /* \"#utility.yul\":1129:1151   */\n  swap1\n  pop\n    /* \"#utility.yul\":1160:1193   */\n  tag_66\n    /* \"#utility.yul\":1187:1192   */\n  dup2\n    /* \"#utility.yul\":1160:1193   */\n  tag_42\n  jump\t// in\ntag_66:\n    /* \"#utility.yul\":1056:1199   */\n  swap3\n  swap2\n  pop\n  pop\n  jump\t// out\n    /* \"#utility.yul\":1205:1291   */\ntag_44:\n    /* \"#utility.yul\":1240:1247   */\n  0x00\n    /* \"#utility.yul\":1280:1284   */\n  0xff\n    /* \"#utility.yul\":1273:1278   */\n  dup3\n    /* \"#utility.yul\":1269:1285   */\n  and\n    /* \"#utility.yul\":1258:1285   */\n  swap1\n  pop\n    /* \"#utility.yul\":1205:1291   */\n  swap2\n  swap1\n  pop\n  jump\t// out\n    /* \"#utility.yul\":1297:1415   */\ntag_45:\n    /* \"#utility.yul\":1368:1390   */\n  tag_69\n    /* \"#utility.yul\":1384:1389   */\n  dup2\n    /* \"#utility.yul\":1368:1390   */\n  tag_44\n  jump\t// in\ntag_69:\n    /* \"#utility.yul\":1361:1366   */\n  dup2\n    /* \"#utility.yul\":1358:1391   */\n  eq\n    /* \"#utility.yul\":1348:1409   */\n  tag_70\n  jumpi\n    /* \"#utility.yul\":1405:1406   */\n  0x00\n    /* \"#utility.yul\":1402:1403   */\n  dup1\n    /* \"#utility.yul\":1395:1407   */\n  revert\n    /* \"#utility.yul\":1348:1409   */\ntag_70:\n    /* \"#utility.yul\":1297:1415   */\n  pop\n  jump\t// out\n    /* \"#utility.yul\":1421:1560   */\ntag_46:\n    /* \"#utility.yul\":1476:1481   */\n  0x00\n    /* \"#utility.yul\":1507:1513   */\n  dup2\n    /* \"#utility.yul\":1501:1514   */\n  mload\n    /* \"#utility.yul\":1492:1514   */\n  swap1\n  pop\n    /* \"#utility.yul\":1523:1554   */\n  tag_72\n    /* \"#utility.yul\":1548:1553   */\n  dup2\n    /* \"#utility.yul\":1523:1554   */\n  tag_45\n  jump\t// in\ntag_72:\n    /* \"#utility.yul\":1421:1560   */\n  swap3\n  swap2\n  pop\n  pop\n  jump\t// out\n    /* \"#utility.yul\":1566:3316   */\ntag_3:\n    /* \"#utility.yul\":1711:1717   */\n  0x00\n    /* \"#utility.yul\":1719:1725   */\n  dup1\n    /* \"#utility.yul\":1727:1733   */\n  0x00\n    /* \"#utility.yul\":1735:1741   */\n  dup1\n    /* \"#utility.yul\":1743:1749   */\n  0x00\n    /* \"#utility.yul\":1751:1757   */\n  dup1\n    /* \"#utility.yul\":1759:1765   */\n  0x00\n    /* \"#utility.yul\":1767:1773   */\n  dup1\n    /* \"#utility.yul\":1775:1781   */\n  0x00\n    /* \"#utility.yul\":1783:1789   */\n  dup1\n    /* \"#utility.yul\":1832:1835   */\n  0x0140\n    /* \"#utility.yul\":1820:1829   */\n  dup12\n    /* \"#utility.yul\":1811:1818   */\n  dup14\n    /* \"#utility.yul\":1807:1830   */\n  sub\n    /* \"#utility.yul\":1803:1836   */\n  slt\n    /* \"#utility.yul\":1800:1920   */\n  iszero\n  tag_74\n  jumpi\n    /* \"#utility.yul\":1839:1918   */\n  tag_75\n  tag_35\n  jump\t// in\ntag_75:\n    /* \"#utility.yul\":1800:1920   */\ntag_74:\n    /* \"#utility.yul\":1959:1960   */\n  0x00\n    /* \"#utility.yul\":1984:2048   */\n  tag_76\n    /* \"#utility.yul\":2040:2047   */\n  dup14\n    /* \"#utility.yul\":2031:2037   */\n  dup3\n    /* \"#utility.yul\":2020:2029   */\n  dup15\n    /* \"#utility.yul\":2016:2038   */\n  add\n    /* \"#utility.yul\":1984:2048   */\n  tag_39\n  jump\t// in\ntag_76:\n    /* \"#utility.yul\":1974:2048   */\n  swap11\n  pop\n    /* \"#utility.yul\":1930:2058   */\n  pop\n    /* \"#utility.yul\":2097:2099   */\n  0x20\n    /* \"#utility.yul\":2123:2187   */\n  tag_77\n    /* \"#utility.yul\":2179:2186   */\n  dup14\n    /* \"#utility.yul\":2170:2176   */\n  dup3\n    /* \"#utility.yul\":2159:2168   */\n  dup15\n    /* \"#utility.yul\":2155:2177   */\n  add\n    /* \"#utility.yul\":2123:2187   */\n  tag_39\n  jump\t// in\ntag_77:\n    /* \"#utility.yul\":2113:2187   */\n  swap10\n  pop\n    /* \"#utility.yul\":2068:2197   */\n  pop\n    /* \"#utility.yul\":2236:2238   */\n  0x40\n    /* \"#utility.yul\":2262:2326   */\n  tag_78\n    /* \"#utility.yul\":2318:2325   */\n  dup14\n    /* \"#utility.yul\":2309:2315   */\n  dup3\n    /* \"#utility.yul\":2298:2307   */\n  dup15\n    /* \"#utility.yul\":2294:2316   */\n  add\n    /* \"#utility.yul\":2262:2326   */\n  tag_39\n  jump\t// in\ntag_78:\n    /* \"#utility.yul\":2252:2326   */\n  swap9\n  pop\n    /* \"#utility.yul\":2207:2336   */\n  pop\n    /* \"#utility.yul\":2375:2377   */\n  0x60\n    /* \"#utility.yul\":2401:2465   */\n  tag_79\n    /* \"#utility.yul\":2457:2464   */\n  dup14\n    /* \"#utility.yul\":2448:2454   */\n  dup3\n    /* \"#utility.yul\":2437:2446   */\n  dup15\n    /* \"#utility.yul\":2433:2455   */\n  add\n    /* \"#utility.yul\":2401:2465   */\n  tag_39\n  jump\t// in\ntag_79:\n    /* \"#utility.yul\":2391:2465   */\n  swap8\n  pop\n    /* \"#utility.yul\":2346:2475   */\n  pop\n    /* \"#utility.yul\":2514:2517   */\n  0x80\n    /* \"#utility.yul\":2541:2605   */\n  tag_80\n    /* \"#utility.yul\":2597:2604   */\n  dup14\n    /* \"#utility.yul\":2588:2594   */\n  dup3\n    /* \"#utility.yul\":2577:2586   */\n  dup15\n    /* \"#utility.yul\":2573:2595   */\n  add\n    /* \"#utility.yul\":2541:2605   */\n  tag_43\n  jump\t// in\ntag_80:\n    /* \"#utility.yul\":2531:2605   */\n  swap7\n  pop\n    /* \"#utility.yul\":2485:2615   */\n  pop\n    /* \"#utility.yul\":2654:2657   */\n  0xa0\n    /* \"#utility.yul\":2681:2745   */\n  tag_81\n    /* \"#utility.yul\":2737:2744   */\n  dup14\n    /* \"#utility.yul\":2728:2734   */\n  dup3\n    /* \"#utility.yul\":2717:2726   */\n  dup15\n    /* \"#utility.yul\":2713:2735   */\n  add\n    /* \"#utility.yul\":2681:2745   */\n  tag_43\n  jump\t// in\ntag_81:\n    /* \"#utility.yul\":2671:2745   */\n  swap6\n  pop\n    /* \"#utility.yul\":2625:2755   */\n  pop\n    /* \"#utility.yul\":2794:2797   */\n  0xc0\n    /* \"#utility.yul\":2821:2885   */\n  tag_82\n    /* \"#utility.yul\":2877:2884   */\n  dup14\n    /* \"#utility.yul\":2868:2874   */\n  dup3\n    /* \"#utility.yul\":2857:2866   */\n  dup15\n    /* \"#utility.yul\":2853:2875   */\n  add\n    /* \"#utility.yul\":2821:2885   */\n  tag_43\n  jump\t// in\ntag_82:\n    /* \"#utility.yul\":2811:2885   */\n  swap5\n  pop\n    /* \"#utility.yul\":2765:2895   */\n  pop\n    /* \"#utility.yul\":2934:2937   */\n  0xe0\n    /* \"#utility.yul\":2961:3023   */\n  tag_83\n    /* \"#utility.yul\":3015:3022   */\n  dup14\n    /* \"#utility.yul\":3006:3012   */\n  dup3\n    /* \"#utility.yul\":2995:3004   */\n  dup15\n    /* \"#utility.yul\":2991:3013   */\n  add\n    /* \"#utility.yul\":2961:3023   */\n  tag_46\n  jump\t// in\ntag_83:\n    /* \"#utility.yul\":2951:3023   */\n  swap4\n  pop\n    /* \"#utility.yul\":2905:3033   */\n  pop\n    /* \"#utility.yul\":3072:3075   */\n  0x0100\n    /* \"#utility.yul\":3099:3161   */\n  tag_84\n    /* \"#utility.yul\":3153:3160   */\n  dup14\n    /* \"#utility.yul\":3144:3150   */\n  dup3\n    /* \"#utility.yul\":3133:3142   */\n  dup15\n    /* \"#utility.yul\":3129:3151   */\n  add\n    /* \"#utility.yul\":3099:3161   */\n  tag_46\n  jump\t// in\ntag_84:\n    /* \"#utility.yul\":3089:3161   */\n  swap3\n  pop\n    /* \"#utility.yul\":3043:3171   */\n  pop\n    /* \"#utility.yul\":3210:3213   */\n  0x0120\n    /* \"#utility.yul\":3237:3299   */\n  tag_85\n    /* \"#utility.yul\":3291:3298   */\n  dup14\n    /* \"#utility.yul\":3282:3288   */\n  dup3\n    /* \"#utility.yul\":3271:3280   */\n  dup15\n    /* \"#utility.yul\":3267:3289   */\n  add\n    /* \"#utility.yul\":3237:3299   */\n  tag_46\n  jump\t// in\ntag_85:\n    /* \"#utility.yul\":3227:3299   */\n  swap2\n  pop\n    /* \"#utility.yul\":3181:3309   */\n  pop\n    /* \"#utility.yul\":1566:3316   */\n  swap3\n  swap6\n  swap9\n  swap12\n  swap2\n  swap5\n  swap8\n  swap11\n  pop\n  swap3\n  swap6\n  swap9\n  pop\n  jump\t// out\n    /* \"#utility.yul\":3322:3502   */\ntag_47:\n    /* \"#utility.yul\":3370:3447   */\n  0x4e487b7100000000000000000000000000000000000000000000000000000000\n    /* \"#utility.yul\":3367:3368   */\n  0x00\n    /* \"#utility.yul\":3360:3448   */\n  mstore\n    /* \"#utility.yul\":3467:3471   */\n  0x12\n    /* \"#utility.yul\":3464:3465   */\n  0x04\n    /* \"#utility.yul\":3457:3472   */\n  mstore\n    /* \"#utility.yul\":3491:3495   */\n  0x24\n    /* \"#utility.yul\":3488:3489   */\n  0x00\n    /* \"#utility.yul\":3481:3496   */\n  revert\n    /* \"#utility.yul\":3508:3678   */\ntag_11:\n    /* \"#utility.yul\":3538:3539   */\n  0x00\n    /* \"#utility.yul\":3555:3573   */\n  tag_88\n    /* \"#utility.yul\":3571:3572   */\n  dup3\n    /* \"#utility.yul\":3555:3573   */\n  tag_44\n  jump\t// in\ntag_88:\n    /* \"#utility.yul\":3550:3573   */\n  swap2\n  pop\n    /* \"#utility.yul\":3587:3605   */\n  tag_89\n    /* \"#utility.yul\":3603:3604   */\n  dup4\n    /* \"#utility.yul\":3587:3605   */\n  tag_44\n  jump\t// in\ntag_89:\n    /* \"#utility.yul\":3582:3605   */\n  swap3\n  pop\n    /* \"#utility.yul\":3624:3625   */\n  dup3\n    /* \"#utility.yul\":3614:3649   */\n  tag_90\n  jumpi\n    /* \"#utility.yul\":3629:3647   */\n  tag_91\n  tag_47\n  jump\t// in\ntag_91:\n    /* \"#utility.yul\":3614:3649   */\ntag_90:\n    /* \"#utility.yul\":3670:3671   */\n  dup3\n    /* \"#utility.yul\":3667:3668   */\n  dup3\n    /* \"#utility.yul\":3663:3672   */\n  mod\n    /* \"#utility.yul\":3658:3672   */\n  swap1\n  pop\n    /* \"#utility.yul\":3508:3678   */\n  swap3\n  swap2\n  pop\n  pop\n  jump\t// out\n    /* \"#utility.yul\":3684:3864   */\ntag_48:\n    /* \"#utility.yul\":3732:3809   */\n  0x4e487b7100000000000000000000000000000000000000000000000000000000\n    /* \"#utility.yul\":3729:3730   */\n  0x00\n    /* \"#utility.yul\":3722:3810   */\n  mstore\n    /* \"#utility.yul\":3829:3833   */\n  0x11\n    /* \"#utility.yul\":3826:3827   */\n  0x04\n    /* \"#utility.yul\":3819:3834   */\n  mstore\n    /* \"#utility.yul\":3853:3857   */\n  0x24\n    /* \"#utility.yul\":3850:3851   */\n  0x00\n    /* \"#utility.yul\":3843:3858   */\n  revert\n    /* \"#utility.yul\":3870:4058   */\ntag_15:\n    /* \"#utility.yul\":3908:3911   */\n  0x00\n    /* \"#utility.yul\":3927:3945   */\n  tag_94\n    /* \"#utility.yul\":3943:3944   */\n  dup3\n    /* \"#utility.yul\":3927:3945   */\n  tag_44\n  jump\t// in\ntag_94:\n    /* \"#utility.yul\":3922:3945   */\n  swap2\n  pop\n    /* \"#utility.yul\":3959:3977   */\n  tag_95\n    /* \"#utility.yul\":3975:3976   */\n  dup4\n    /* \"#utility.yul\":3959:3977   */\n  tag_44\n  jump\t// in\ntag_95:\n    /* \"#utility.yul\":3954:3977   */\n  swap3\n  pop\n    /* \"#utility.yul\":4000:4001   */\n  dup3\n    /* \"#utility.yul\":3997:3998   */\n  dup3\n    /* \"#utility.yul\":3993:4002   */\n  add\n    /* \"#utility.yul\":3986:4002   */\n  swap1\n  pop\n    /* \"#utility.yul\":4023:4027   */\n  0xff\n    /* \"#utility.yul\":4018:4021   */\n  dup2\n    /* \"#utility.yul\":4015:4028   */\n  gt\n    /* \"#utility.yul\":4012:4051   */\n  iszero\n  tag_96\n  jumpi\n    /* \"#utility.yul\":4031:4049   */\n  tag_97\n  tag_48\n  jump\t// in\ntag_97:\n    /* \"#utility.yul\":4012:4051   */\ntag_96:\n    /* \"#utility.yul\":3870:4058   */\n  swap3\n  swap2\n  pop\n  pop\n  jump\t// out\n    /* \"#utility.yul\":4064:4244   */\ntag_21:\n    /* \"#utility.yul\":4112:4189   */\n  0x4e487b7100000000000000000000000000000000000000000000000000000000\n    /* \"#utility.yul\":4109:4110   */\n  0x00\n    /* \"#utility.yul\":4102:4190   */\n  mstore\n    /* \"#utility.yul\":4209:4213   */\n  0x21\n    /* \"#utility.yul\":4206:4207   */\n  0x04\n    /* \"#utility.yul\":4199:4214   */\n  mstore\n    /* \"#utility.yul\":4233:4237   */\n  0x24\n    /* \"#utility.yul\":4230:4231   */\n  0x00\n    /* \"#utility.yul\":4223:4238   */\n  revert\n    /* \"CryptoFairHero/HeroV1Game.sol\":790:11383  contract HeroV1Game is AccessControl, Pausable, ReentrancyGuard {... */\ntag_25:\n  dataSize(sub_0)\n  dup1\n  dataOffset(sub_0)\n  0x00\n  codecopy\n  0x00\n  return\nstop\n\nsub_0: assembly {\n        /* \"CryptoFairHero/HeroV1Game.sol\":790:11383  contract HeroV1Game is AccessControl, Pausable, ReentrancyGuard {... */\n      mstore(0x40, 0x80)\n      jumpi(tag_1, lt(calldatasize, 0x04))\n      shr(0xe0, calldataload(0x00))\n      dup1\n      0xa217fddf\n      gt\n      tag_35\n      jumpi\n      dup1\n      0xd84c1ac9\n      gt\n      tag_36\n      jumpi\n      dup1\n      0xe63ab1e9\n      gt\n      tag_37\n      jumpi\n      dup1\n      0xe63ab1e9\n      eq\n      tag_30\n      jumpi\n      dup1\n      0xe864e29b\n      eq\n      tag_31\n      jumpi\n      dup1\n      0xead00e02\n      eq\n      tag_32\n      jumpi\n      dup1\n      0xf71d96cb\n      eq\n      tag_33\n      jumpi\n      dup1\n      0xfc0c546a\n      eq\n      tag_34\n      jumpi\n      jump(tag_1)\n    tag_37:\n      dup1\n      0xd84c1ac9\n      eq\n      tag_26\n      jumpi\n      dup1\n      0xdb73bfce\n      eq\n      tag_27\n      jumpi\n      dup1\n      0xdfbf53ae\n      eq\n      tag_28\n      jumpi\n      dup1\n      0xe2218de0\n      eq\n      tag_29\n      jumpi\n      jump(tag_1)\n    tag_36:\n      dup1\n      0xd547741f\n      gt\n      tag_38\n      jumpi\n      dup1\n      0xd547741f\n      eq\n      tag_22\n      jumpi\n      dup1\n      0xd65ab5f2\n      eq\n      tag_23\n      jumpi\n      dup1\n      0xd6f5ef0e\n      eq\n      tag_24\n      jumpi\n      dup1\n      0xd72ad623\n      eq\n      tag_25\n      jumpi\n      jump(tag_1)\n    tag_38:\n      dup1\n      0xa217fddf\n      eq\n      tag_18\n      jumpi\n      dup1\n      0xb2d5ae44\n      eq\n      tag_19\n      jumpi\n      dup1\n      0xbbf24476\n      eq\n      tag_20\n      jumpi\n      dup1\n      0xc45a0155\n      eq\n      tag_21\n      jumpi\n      jump(tag_1)\n    tag_35:\n      dup1\n      0x499831f2\n      gt\n      tag_39\n      jumpi\n      dup1\n      0x6ac3afce\n      gt\n      tag_40\n      jumpi\n      dup1\n      0x6ac3afce\n      eq\n      tag_14\n      jumpi\n      dup1\n      0x7b51b4ad\n      eq\n      tag_15\n      jumpi\n      dup1\n      0x91d14854\n      eq\n      tag_16\n      jumpi\n      dup1\n      0x934aa023\n      eq\n      tag_17\n      jumpi\n      jump(tag_1)\n    tag_40:\n      dup1\n      0x499831f2\n      eq\n      tag_10\n      jumpi\n      dup1\n      0x4a3b68cc\n      eq\n      tag_11\n      jumpi\n      dup1\n      0x4f6d3aed\n      eq\n      tag_12\n      jumpi\n      dup1\n      0x5c975abb\n      eq\n      tag_13\n      jumpi\n      jump(tag_1)\n    tag_39:\n      dup1\n      0x305243d9\n      gt\n      tag_41\n      jumpi\n      dup1\n      0x305243d9\n      eq\n      tag_6\n      jumpi\n      dup1\n      0x30f95a56\n      eq\n      tag_7\n      jumpi\n      dup1\n      0x36568abe\n      eq\n      tag_8\n      jumpi\n      dup1\n      0x382396ee\n      eq\n      tag_9\n      jumpi\n      jump(tag_1)\n    tag_41:\n      dup1\n      0x01ffc9a7\n      eq\n      tag_2\n      jumpi\n      dup1\n      0x02d05d3f\n      eq\n      tag_3\n      jumpi\n      dup1\n      0x248a9ca3\n      eq\n      tag_4\n      jumpi\n      dup1\n      0x2f2ff15d\n      eq\n      tag_5\n      jumpi\n    tag_1:\n      0x00\n      dup1\n      revert\n        /* \"@openzeppelin/contracts@4.8.3/access/AccessControl.sol\":2606:2808  function supportsInterface(bytes4 interfaceId) public view virtual override returns (bool) {... */\n    tag_2:\n      callvalue\n      dup1\n      iszero\n      tag_42\n      jumpi\n      0x00\n      dup1\n      revert\n    tag_42:\n      pop\n      tag_43\n      0x04\n      dup1\n      calldatasize\n      sub\n      dup2\n      add\n      swap1\n      tag_44\n      swap2\n      swap1\n      tag_45\n      jump\t// in\n    tag_44:\n      tag_46\n      jump\t// in\n    tag_43:\n      mload(0x40)\n      tag_47\n      swap2\n      swap1\n      tag_48\n      jump\t// in\n    tag_47:\n      mload(0x40)\n      dup1\n      swap2\n      sub\n      swap1\n      return\n        /* \"CryptoFairHero/HeroV1Game.sol\":988:1010  address public creator */\n    tag_3:\n      callvalue\n      dup1\n      iszero\n      tag_49\n      jumpi\n      0x00\n      dup1\n      revert\n    tag_49:\n      pop\n      tag_50\n      tag_51\n      jump\t// in\n    tag_50:\n      mload(0x40)\n      tag_52\n      swap2\n      swap1\n      tag_53\n      jump\t// in\n    tag_52:\n      mload(0x40)\n      dup1\n      swap2\n      sub\n      swap1\n      return\n        /* \"@openzeppelin/contracts@4.8.3/access/AccessControl.sol\":4378:4507  function getRoleAdmin(bytes32 role) public view virtual override returns (bytes32) {... */\n    tag_4:\n      callvalue\n      dup1\n      iszero\n      tag_54\n      jumpi\n      0x00\n      dup1\n      revert\n    tag_54:\n      pop\n      tag_55\n      0x04\n      dup1\n      calldatasize\n      sub\n      dup2\n      add\n      swap1\n      tag_56\n      swap2\n      swap1\n      tag_57\n      jump\t// in\n    tag_56:\n      tag_58\n      jump\t// in\n    tag_55:\n      mload(0x40)\n      tag_59\n      swap2\n      swap1\n      tag_60\n      jump\t// in\n    tag_59:\n      mload(0x40)\n      dup1\n      swap2\n      sub\n      swap1\n      return\n        /* \"@openzeppelin/contracts@4.8.3/access/AccessControl.sol\":4803:4948  function grantRole(bytes32 role, address account) public virtual override onlyRole(getRoleAdmin(role)) {... */\n    tag_5:\n      callvalue\n      dup1\n      iszero\n      tag_61\n      jumpi\n      0x00\n      dup1\n      revert\n    tag_61:\n      pop\n      tag_62\n      0x04\n      dup1\n      calldatasize\n      sub\n      dup2\n      add\n      swap1\n      tag_63\n      swap2\n      swap1\n      tag_64\n      jump\t// in\n    tag_63:\n      tag_65\n      jump\t// in\n    tag_62:\n      stop\n        /* \"CryptoFairHero/HeroV1Game.sol\":3967:4094  function unpauseGame() external onlyRole(PAUSER_ROLE) whenPaused {... */\n    tag_6:\n      callvalue\n      dup1\n      iszero\n      tag_66\n      jumpi\n      0x00\n      dup1\n      revert\n    tag_66:\n      pop\n      tag_67\n      tag_68\n      jump\t// in\n    tag_67:\n      stop\n        /* \"CryptoFairHero/HeroV1Game.sol\":1190:1236  mapping(address => uint256) public playerTotal */\n    tag_7:\n      callvalue\n      dup1\n      iszero\n      tag_69\n      jumpi\n      0x00\n      dup1\n      revert\n    tag_69:\n      pop\n      tag_70\n      0x04\n      dup1\n      calldatasize\n      sub\n      dup2\n      add\n      swap1\n      tag_71\n      swap2\n      swap1\n      tag_72\n      jump\t// in\n    tag_71:\n      tag_73\n      jump\t// in\n    tag_70:\n      mload(0x40)\n      tag_74\n      swap2\n      swap1\n      tag_75\n      jump\t// in\n    tag_74:\n      mload(0x40)\n      dup1\n      swap2\n      sub\n      swap1\n      return\n        /* \"@openzeppelin/contracts@4.8.3/access/AccessControl.sol\":5912:6126  function renounceRole(bytes32 role, address account) public virtual override {... */\n    tag_8:\n      callvalue\n      dup1\n      iszero\n      tag_76\n      jumpi\n      0x00\n      dup1\n      revert\n    tag_76:\n      pop\n      tag_77\n      0x04\n      dup1\n      calldatasize\n      sub\n      dup2\n      add\n      swap1\n      tag_78\n      swap2\n      swap1\n      tag_64\n      jump\t// in\n    tag_78:\n      tag_79\n      jump\t// in\n    tag_77:\n      stop\n        /* \"CryptoFairHero/HeroV1Game.sol\":3183:3552  function getGameStatus() external view  returns (GameStatus, uint256, uint256, uint256, uint256, uint256, uint256) {... */\n    tag_9:\n      callvalue\n      dup1\n      iszero\n      tag_80\n      jumpi\n      0x00\n      dup1\n      revert\n    tag_80:\n      pop\n      tag_81\n      tag_82\n      jump\t// in\n    tag_81:\n      mload(0x40)\n      tag_83\n      swap8\n      swap7\n      swap6\n      swap5\n      swap4\n      swap3\n      swap2\n      swap1\n      tag_84\n      jump\t// in\n    tag_83:\n      mload(0x40)\n      dup1\n      swap2\n      sub\n      swap1\n      return\n        /* \"CryptoFairHero/HeroV1Game.sol\":3786:3953  function pauseGame() external onlyRole(PAUSER_ROLE) whenNotPaused {... */\n    tag_10:\n      callvalue\n      dup1\n      iszero\n      tag_85\n      jumpi\n      0x00\n      dup1\n      revert\n    tag_85:\n      pop\n      tag_86\n      tag_87\n      jump\t// in\n    tag_86:\n      stop\n        /* \"CryptoFairHero/HeroV1Game.sol\":1242:1286  mapping(address => uint256) public referrers */\n    tag_11:\n      callvalue\n      dup1\n      iszero\n      tag_88\n      jumpi\n      0x00\n      dup1\n      revert\n    tag_88:\n      pop\n      tag_89\n      0x04\n      dup1\n      calldatasize\n      sub\n      dup2\n      add\n      swap1\n      tag_90\n      swap2\n      swap1\n      tag_72\n      jump\t// in\n    tag_90:\n      tag_91\n      jump\t// in\n    tag_89:\n      mload(0x40)\n      tag_92\n      swap2\n      swap1\n      tag_75\n      jump\t// in\n    tag_92:\n      mload(0x40)\n      dup1\n      swap2\n      sub\n      swap1\n      return\n        /* \"CryptoFairHero/HeroV1Game.sol\":1126:1150  address public refundGas */\n    tag_12:\n      callvalue\n      dup1\n      iszero\n      tag_93\n      jumpi\n      0x00\n      dup1\n      revert\n    tag_93:\n      pop\n      tag_94\n      tag_95\n      jump\t// in\n    tag_94:\n      mload(0x40)\n      tag_96\n      swap2\n      swap1\n      tag_53\n      jump\t// in\n    tag_96:\n      mload(0x40)\n      dup1\n      swap2\n      sub\n      swap1\n      return\n        /* \"@openzeppelin/contracts@4.8.3/security/Pausable.sol\":1615:1699  function paused() public view virtual returns (bool) {... */\n    tag_13:\n      callvalue\n      dup1\n      iszero\n      tag_97\n      jumpi\n      0x00\n      dup1\n      revert\n    tag_97:\n      pop\n      tag_98\n      tag_99\n      jump\t// in\n    tag_98:\n      mload(0x40)\n      tag_100\n      swap2\n      swap1\n      tag_48\n      jump\t// in\n    tag_100:\n      mload(0x40)\n      dup1\n      swap2\n      sub\n      swap1\n      return\n        /* \"CryptoFairHero/HeroV1Game.sol\":7196:8259  function getGuarantee(bool force) external whenNotPaused nonReentrant {... */\n    tag_14:\n      callvalue\n      dup1\n      iszero\n      tag_101\n      jumpi\n      0x00\n      dup1\n      revert\n    tag_101:\n      pop\n      tag_102\n      0x04\n      dup1\n      calldatasize\n      sub\n      dup2\n      add\n      swap1\n      tag_103\n      swap2\n      swap1\n      tag_104\n      jump\t// in\n    tag_103:\n      tag_105\n      jump\t// in\n    tag_102:\n      stop\n        /* \"CryptoFairHero/HeroV1Game.sol\":6190:6735  function completeGame() external whenNotPaused {... */\n    tag_15:\n      callvalue\n      dup1\n      iszero\n      tag_106\n      jumpi\n      0x00\n      dup1\n      revert\n    tag_106:\n      pop\n      tag_107\n      tag_108\n      jump\t// in\n    tag_107:\n      stop\n        /* \"@openzeppelin/contracts@4.8.3/access/AccessControl.sol\":2895:3040  function hasRole(bytes32 role, address account) public view virtual override returns (bool) {... */\n    tag_16:\n      callvalue\n      dup1\n      iszero\n      tag_109\n      jumpi\n      0x00\n      dup1\n      revert\n    tag_109:\n      pop\n      tag_110\n      0x04\n      dup1\n      calldatasize\n      sub\n      dup2\n      add\n      swap1\n      tag_111\n      swap2\n      swap1\n      tag_64\n      jump\t// in\n    tag_111:\n      tag_112\n      jump\t// in\n    tag_110:\n      mload(0x40)\n      tag_113\n      swap2\n      swap1\n      tag_48\n      jump\t// in\n    tag_113:\n      mload(0x40)\n      dup1\n      swap2\n      sub\n      swap1\n      return\n        /* \"CryptoFairHero/HeroV1Game.sol\":1069:1091  address public charity */\n    tag_17:\n      callvalue\n      dup1\n      iszero\n      tag_114\n      jumpi\n      0x00\n      dup1\n      revert\n    tag_114:\n      pop\n      tag_115\n      tag_116\n      jump\t// in\n    tag_115:\n      mload(0x40)\n      tag_117\n      swap2\n      swap1\n      tag_53\n      jump\t// in\n    tag_117:\n      mload(0x40)\n      dup1\n      swap2\n      sub\n      swap1\n      return\n        /* \"@openzeppelin/contracts@4.8.3/access/AccessControl.sol\":2027:2076  bytes32 public constant DEFAULT_ADMIN_ROLE = 0x00 */\n    tag_18:\n      callvalue\n      dup1\n      iszero\n      tag_118\n      jumpi\n      0x00\n      dup1\n      revert\n    tag_118:\n      pop\n      tag_119\n      tag_120\n      jump\t// in\n    tag_119:\n      mload(0x40)\n      tag_121\n      swap2\n      swap1\n      tag_60\n      jump\t// in\n    tag_121:\n      mload(0x40)\n      dup1\n      swap2\n      sub\n      swap1\n      return\n        /* \"CryptoFairHero/HeroV1Game.sol\":9523:9893  function getRefund() external whenNotPaused {... */\n    tag_19:\n      callvalue\n      dup1\n      iszero\n      tag_122\n      jumpi\n      0x00\n      dup1\n      revert\n    tag_122:\n      pop\n      tag_123\n      tag_124\n      jump\t// in\n    tag_123:\n      stop\n        /* \"CryptoFairHero/HeroV1Game.sol\":1098:1120  address public joinGas */\n    tag_20:\n      callvalue\n      dup1\n      iszero\n      tag_125\n      jumpi\n      0x00\n      dup1\n      revert\n    tag_125:\n      pop\n      tag_126\n      tag_127\n      jump\t// in\n    tag_126:\n      mload(0x40)\n      tag_128\n      swap2\n      swap1\n      tag_53\n      jump\t// in\n    tag_128:\n      mload(0x40)\n      dup1\n      swap2\n      sub\n      swap1\n      return\n        /* \"CryptoFairHero/HeroV1Game.sol\":960:982  address public factory */\n    tag_21:\n      callvalue\n      dup1\n      iszero\n      tag_129\n      jumpi\n      0x00\n      dup1\n      revert\n    tag_129:\n      pop\n      tag_130\n      tag_131\n      jump\t// in\n    tag_130:\n      mload(0x40)\n      tag_132\n      swap2\n      swap1\n      tag_53\n      jump\t// in\n    tag_132:\n      mload(0x40)\n      dup1\n      swap2\n      sub\n      swap1\n      return\n        /* \"@openzeppelin/contracts@4.8.3/access/AccessControl.sol\":5228:5375  function revokeRole(bytes32 role, address account) public virtual override onlyRole(getRoleAdmin(role)) {... */\n    tag_22:\n      callvalue\n      dup1\n      iszero\n      tag_133\n      jumpi\n      0x00\n      dup1\n      revert\n    tag_133:\n      pop\n      tag_134\n      0x04\n      dup1\n      calldatasize\n      sub\n      dup2\n      add\n      swap1\n      tag_135\n      swap2\n      swap1\n      tag_64\n      jump\t// in\n    tag_135:\n      tag_136\n      jump\t// in\n    tag_134:\n      stop\n        /* \"CryptoFairHero/HeroV1Game.sol\":3558:3780  function startGame() external payable whenNotPaused {... */\n    tag_23:\n      tag_137\n      tag_138\n      jump\t// in\n    tag_137:\n      stop\n        /* \"CryptoFairHero/HeroV1Game.sol\":8304:8496  function getCharity() external whenNotPaused {... */\n    tag_24:\n      callvalue\n      dup1\n      iszero\n      tag_139\n      jumpi\n      0x00\n      dup1\n      revert\n    tag_139:\n      pop\n      tag_140\n      tag_141\n      jump\t// in\n    tag_140:\n      stop\n        /* \"CryptoFairHero/HeroV1Game.sol\":9076:9462  function getReferrerReward() external whenNotPaused {... */\n    tag_25:\n      callvalue\n      dup1\n      iszero\n      tag_142\n      jumpi\n      0x00\n      dup1\n      revert\n    tag_142:\n      pop\n      tag_143\n      tag_144\n      jump\t// in\n    tag_143:\n      stop\n        /* \"CryptoFairHero/HeroV1Game.sol\":6763:7130  function cancelGame() external whenNotPaused {... */\n    tag_26:\n      callvalue\n      dup1\n      iszero\n      tag_145\n      jumpi\n      0x00\n      dup1\n      revert\n    tag_145:\n      pop\n      tag_146\n      tag_147\n      jump\t// in\n    tag_146:\n      stop\n        /* \"CryptoFairHero/HeroV1Game.sol\":930:954  GameInfo public gameInfo */\n    tag_27:\n      callvalue\n      dup1\n      iszero\n      tag_148\n      jumpi\n      0x00\n      dup1\n      revert\n    tag_148:\n      pop\n      tag_149\n      tag_150\n      jump\t// in\n    tag_149:\n      mload(0x40)\n      tag_151\n      swap12\n      swap11\n      swap10\n      swap9\n      swap8\n      swap7\n      swap6\n      swap5\n      swap4\n      swap3\n      swap2\n      swap1\n      tag_152\n      jump\t// in\n    tag_151:\n      mload(0x40)\n      dup1\n      swap2\n      sub\n      swap1\n      return\n        /* \"CryptoFairHero/HeroV1Game.sol\":1042:1063  address public winner */\n    tag_28:\n      callvalue\n      dup1\n      iszero\n      tag_153\n      jumpi\n      0x00\n      dup1\n      revert\n    tag_153:\n      pop\n      tag_154\n      tag_155\n      jump\t// in\n    tag_154:\n      mload(0x40)\n      tag_156\n      swap2\n      swap1\n      tag_53\n      jump\t// in\n    tag_156:\n      mload(0x40)\n      dup1\n      swap2\n      sub\n      swap1\n      return\n        /* \"CryptoFairHero/HeroV1Game.sol\":5072:6184  function drawGame() external whenNotPaused {... */\n    tag_29:\n      callvalue\n      dup1\n      iszero\n      tag_157\n      jumpi\n      0x00\n      dup1\n      revert\n    tag_157:\n      pop\n      tag_158\n      tag_159\n      jump\t// in\n    tag_158:\n      stop\n        /* \"CryptoFairHero/HeroV1Game.sol\":861:923  bytes32 public constant PAUSER_ROLE = keccak256(\"PAUSER_ROLE\") */\n    tag_30:\n      callvalue\n      dup1\n      iszero\n      tag_160\n      jumpi\n      0x00\n      dup1\n      revert\n    tag_160:\n      pop\n      tag_161\n      tag_162\n      jump\t// in\n    tag_161:\n      mload(0x40)\n      tag_163\n      swap2\n      swap1\n      tag_60\n      jump\t// in\n    tag_163:\n      mload(0x40)\n      dup1\n      swap2\n      sub\n      swap1\n      return\n        /* \"CryptoFairHero/HeroV1Game.sol\":8526:9031  function getWinnerReward() external whenNotPaused {... */\n    tag_31:\n      callvalue\n      dup1\n      iszero\n      tag_164\n      jumpi\n      0x00\n      dup1\n      revert\n    tag_164:\n      pop\n      tag_165\n      tag_166\n      jump\t// in\n    tag_165:\n      stop\n        /* \"CryptoFairHero/HeroV1Game.sol\":4114:5054  function joinGame(uint256 _amount, address _referrer) external payable whenNotPaused {... */\n    tag_32:\n      tag_167\n      0x04\n      dup1\n      calldatasize\n      sub\n      dup2\n      add\n      swap1\n      tag_168\n      swap2\n      swap1\n      tag_169\n      jump\t// in\n    tag_168:\n      tag_170\n      jump\t// in\n    tag_167:\n      stop\n        /* \"CryptoFairHero/HeroV1Game.sol\":1157:1184  PlayerInfo[] public players */\n    tag_33:\n      callvalue\n      dup1\n      iszero\n      tag_171\n      jumpi\n      0x00\n      dup1\n      revert\n    tag_171:\n      pop\n      tag_172\n      0x04\n      dup1\n      calldatasize\n      sub\n      dup2\n      add\n      swap1\n      tag_173\n      swap2\n      swap1\n      tag_174\n      jump\t// in\n    tag_173:\n      tag_175\n      jump\t// in\n    tag_172:\n      mload(0x40)\n      tag_176\n      swap3\n      swap2\n      swap1\n      tag_177\n      jump\t// in\n    tag_176:\n      mload(0x40)\n      dup1\n      swap2\n      sub\n      swap1\n      return\n        /* \"CryptoFairHero/HeroV1Game.sol\":1016:1036  address public token */\n    tag_34:\n      callvalue\n      dup1\n      iszero\n      tag_178\n      jumpi\n      0x00\n      dup1\n      revert\n    tag_178:\n      pop\n      tag_179\n      tag_180\n      jump\t// in\n    tag_179:\n      mload(0x40)\n      tag_181\n      swap2\n      swap1\n      tag_53\n      jump\t// in\n    tag_181:\n      mload(0x40)\n      dup1\n      swap2\n      sub\n      swap1\n      return\n        /* \"@openzeppelin/contracts@4.8.3/access/AccessControl.sol\":2606:2808  function supportsInterface(bytes4 interfaceId) public view virtual override returns (bool) {... */\n    tag_46:\n        /* \"@openzeppelin/contracts@4.8.3/access/AccessControl.sol\":2691:2695  bool */\n      0x00\n        /* \"@openzeppelin/contracts@4.8.3/access/AccessControl.sol\":2729:2761  type(IAccessControl).interfaceId */\n      0x7965db0b00000000000000000000000000000000000000000000000000000000\n        /* \"@openzeppelin/contracts@4.8.3/access/AccessControl.sol\":2714:2761  interfaceId == type(IAccessControl).interfaceId */\n      not(0xffffffffffffffffffffffffffffffffffffffffffffffffffffffff)\n      and\n        /* \"@openzeppelin/contracts@4.8.3/access/AccessControl.sol\":2714:2725  interfaceId */\n      dup3\n        /* \"@openzeppelin/contracts@4.8.3/access/AccessControl.sol\":2714:2761  interfaceId == type(IAccessControl).interfaceId */\n      not(0xffffffffffffffffffffffffffffffffffffffffffffffffffffffff)\n      and\n      eq\n        /* \"@openzeppelin/contracts@4.8.3/access/AccessControl.sol\":2714:2801  interfaceId == type(IAccessControl).interfaceId || super.supportsInterface(interfaceId) */\n      dup1\n      tag_183\n      jumpi\n      pop\n        /* \"@openzeppelin/contracts@4.8.3/access/AccessControl.sol\":2765:2801  super.supportsInterface(interfaceId) */\n      tag_184\n        /* \"@openzeppelin/contracts@4.8.3/access/AccessControl.sol\":2789:2800  interfaceId */\n      dup3\n        /* \"@openzeppelin/contracts@4.8.3/access/AccessControl.sol\":2765:2788  super.supportsInterface */\n      tag_185\n        /* \"@openzeppelin/contracts@4.8.3/access/AccessControl.sol\":2765:2801  super.supportsInterface(interfaceId) */\n      jump\t// in\n    tag_184:\n        /* \"@openzeppelin/contracts@4.8.3/access/AccessControl.sol\":2714:2801  interfaceId == type(IAccessControl).interfaceId || super.supportsInterface(interfaceId) */\n    tag_183:\n        /* \"@openzeppelin/contracts@4.8.3/access/AccessControl.sol\":2707:2801  return interfaceId == type(IAccessControl).interfaceId || super.supportsInterface(interfaceId) */\n      swap1\n      pop\n        /* \"@openzeppelin/contracts@4.8.3/access/AccessControl.sol\":2606:2808  function supportsInterface(bytes4 interfaceId) public view virtual override returns (bool) {... */\n      swap2\n      swap1\n      pop\n      jump\t// out\n        /* \"CryptoFairHero/HeroV1Game.sol\":988:1010  address public creator */\n    tag_51:\n      0x0d\n      0x00\n      swap1\n      sload\n      swap1\n      0x0100\n      exp\n      swap1\n      div\n      0xffffffffffffffffffffffffffffffffffffffff\n      and\n      dup2\n      jump\t// out\n        /* \"@openzeppelin/contracts@4.8.3/access/AccessControl.sol\":4378:4507  function getRoleAdmin(bytes32 role) public view virtual override returns (bytes32) {... */\n    tag_58:\n        /* \"@openzeppelin/contracts@4.8.3/access/AccessControl.sol\":4452:4459  bytes32 */\n      0x00\n        /* \"@openzeppelin/contracts@4.8.3/access/AccessControl.sol\":4478:4484  _roles */\n      dup1\n        /* \"@openzeppelin/contracts@4.8.3/access/AccessControl.sol\":4478:4490  _roles[role] */\n      0x00\n        /* \"@openzeppelin/contracts@4.8.3/access/AccessControl.sol\":4485:4489  role */\n      dup4\n        /* \"@openzeppelin/contracts@4.8.3/access/AccessControl.sol\":4478:4490  _roles[role] */\n      dup2\n      mstore\n      0x20\n      add\n      swap1\n      dup2\n      mstore\n      0x20\n      add\n      0x00\n      keccak256\n        /* \"@openzeppelin/contracts@4.8.3/access/AccessControl.sol\":4478:4500  _roles[role].adminRole */\n      0x01\n      add\n      sload\n        /* \"@openzeppelin/contracts@4.8.3/access/AccessControl.sol\":4471:4500  return _roles[role].adminRole */\n      swap1\n      pop\n        /* \"@openzeppelin/contracts@4.8.3/access/AccessControl.sol\":4378:4507  function getRoleAdmin(bytes32 role) public view virtual override returns (bytes32) {... */\n      swap2\n      swap1\n      pop\n      jump\t// out\n        /* \"@openzeppelin/contracts@4.8.3/access/AccessControl.sol\":4803:4948  function grantRole(bytes32 role, address account) public virtual override onlyRole(getRoleAdmin(role)) {... */\n    tag_65:\n        /* \"@openzeppelin/contracts@4.8.3/access/AccessControl.sol\":4886:4904  getRoleAdmin(role) */\n      tag_187\n        /* \"@openzeppelin/contracts@4.8.3/access/AccessControl.sol\":4899:4903  role */\n      dup3\n        /* \"@openzeppelin/contracts@4.8.3/access/AccessControl.sol\":4886:4898  getRoleAdmin */\n      tag_58\n        /* \"@openzeppelin/contracts@4.8.3/access/AccessControl.sol\":4886:4904  getRoleAdmin(role) */\n      jump\t// in\n    tag_187:\n        /* \"@openzeppelin/contracts@4.8.3/access/AccessControl.sol\":2505:2521  _checkRole(role) */\n      tag_189\n        /* \"@openzeppelin/contracts@4.8.3/access/AccessControl.sol\":2516:2520  role */\n      dup2\n        /* \"@openzeppelin/contracts@4.8.3/access/AccessControl.sol\":2505:2515  _checkRole */\n      tag_190\n        /* \"@openzeppelin/contracts@4.8.3/access/AccessControl.sol\":2505:2521  _checkRole(role) */\n      jump\t// in\n    tag_189:\n        /* \"@openzeppelin/contracts@4.8.3/access/AccessControl.sol\":4916:4941  _grantRole(role, account) */\n      tag_192\n        /* \"@openzeppelin/contracts@4.8.3/access/AccessControl.sol\":4927:4931  role */\n      dup4\n        /* \"@openzeppelin/contracts@4.8.3/access/AccessControl.sol\":4933:4940  account */\n      dup4\n        /* \"@openzeppelin/contracts@4.8.3/access/AccessControl.sol\":4916:4926  _grantRole */\n      tag_193\n        /* \"@openzeppelin/contracts@4.8.3/access/AccessControl.sol\":4916:4941  _grantRole(role, account) */\n      jump\t// in\n    tag_192:\n        /* \"@openzeppelin/contracts@4.8.3/access/AccessControl.sol\":4803:4948  function grantRole(bytes32 role, address account) public virtual override onlyRole(getRoleAdmin(role)) {... */\n      pop\n      pop\n      pop\n      jump\t// out\n        /* \"CryptoFairHero/HeroV1Game.sol\":3967:4094  function unpauseGame() external onlyRole(PAUSER_ROLE) whenPaused {... */\n    tag_68:\n        /* \"CryptoFairHero/HeroV1Game.sol\":899:923  keccak256(\"PAUSER_ROLE\") */\n      0x65d7a28e3265b37a6474929f336521b332c1681b933f6cb9f3376673440d862a\n        /* \"@openzeppelin/contracts@4.8.3/access/AccessControl.sol\":2505:2521  _checkRole(role) */\n      tag_195\n        /* \"@openzeppelin/contracts@4.8.3/access/AccessControl.sol\":2516:2520  role */\n      dup2\n        /* \"@openzeppelin/contracts@4.8.3/access/AccessControl.sol\":2505:2515  _checkRole */\n      tag_190\n        /* \"@openzeppelin/contracts@4.8.3/access/AccessControl.sol\":2505:2521  _checkRole(role) */\n      jump\t// in\n    tag_195:\n        /* \"@openzeppelin/contracts@4.8.3/security/Pausable.sol\":1486:1502  _requirePaused() */\n      tag_197\n        /* \"@openzeppelin/contracts@4.8.3/security/Pausable.sol\":1486:1500  _requirePaused */\n      tag_198\n        /* \"@openzeppelin/contracts@4.8.3/security/Pausable.sol\":1486:1502  _requirePaused() */\n      jump\t// in\n    tag_197:\n        /* \"CryptoFairHero/HeroV1Game.sol\":4056:4067  _lastStatus */\n      0x1a\n      0x01\n      swap1\n      sload\n      swap1\n      0x0100\n      exp\n      swap1\n      div\n      0xff\n      and\n        /* \"CryptoFairHero/HeroV1Game.sol\":4042:4053  _gameStatus */\n      0x1a\n      0x00\n        /* \"CryptoFairHero/HeroV1Game.sol\":4042:4067  _gameStatus = _lastStatus */\n      0x0100\n      exp\n      dup2\n      sload\n      dup2\n      0xff\n      mul\n      not\n      and\n      swap1\n      dup4\n      0x05\n      dup2\n      gt\n      iszero\n      tag_200\n      jumpi\n      tag_201\n      tag_202\n      jump\t// in\n    tag_201:\n    tag_200:\n      mul\n      or\n      swap1\n      sstore\n      pop\n        /* \"CryptoFairHero/HeroV1Game.sol\":4077:4087  _unpause() */\n      tag_203\n        /* \"CryptoFairHero/HeroV1Game.sol\":4077:4085  _unpause */\n      tag_204\n        /* \"CryptoFairHero/HeroV1Game.sol\":4077:4087  _unpause() */\n      jump\t// in\n    tag_203:\n        /* \"CryptoFairHero/HeroV1Game.sol\":3967:4094  function unpauseGame() external onlyRole(PAUSER_ROLE) whenPaused {... */\n      pop\n      jump\t// out\n        /* \"CryptoFairHero/HeroV1Game.sol\":1190:1236  mapping(address => uint256) public playerTotal */\n    tag_73:\n      mstore(0x20, 0x14)\n      dup1\n      0x00\n      mstore\n      keccak256(0x00, 0x40)\n      0x00\n      swap2\n      pop\n      swap1\n      pop\n      sload\n      dup2\n      jump\t// out\n        /* \"@openzeppelin/contracts@4.8.3/access/AccessControl.sol\":5912:6126  function renounceRole(bytes32 role, address account) public virtual override {... */\n    tag_79:\n        /* \"@openzeppelin/contracts@4.8.3/access/AccessControl.sol\":6018:6030  _msgSender() */\n      tag_206\n        /* \"@openzeppelin/contracts@4.8.3/access/AccessControl.sol\":6018:6028  _msgSender */\n      tag_207\n        /* \"@openzeppelin/contracts@4.8.3/access/AccessControl.sol\":6018:6030  _msgSender() */\n      jump\t// in\n    tag_206:\n        /* \"@openzeppelin/contracts@4.8.3/access/AccessControl.sol\":6007:6030  account == _msgSender() */\n      0xffffffffffffffffffffffffffffffffffffffff\n      and\n        /* \"@openzeppelin/contracts@4.8.3/access/AccessControl.sol\":6007:6014  account */\n      dup2\n        /* \"@openzeppelin/contracts@4.8.3/access/AccessControl.sol\":6007:6030  account == _msgSender() */\n      0xffffffffffffffffffffffffffffffffffffffff\n      and\n      eq\n        /* \"@openzeppelin/contracts@4.8.3/access/AccessControl.sol\":5999:6082  require(account == _msgSender(), \"AccessControl: can only renounce roles for self\") */\n      tag_208\n      jumpi\n      mload(0x40)\n      0x08c379a000000000000000000000000000000000000000000000000000000000\n      dup2\n      mstore\n      0x04\n      add\n      tag_209\n      swap1\n      tag_210\n      jump\t// in\n    tag_209:\n      mload(0x40)\n      dup1\n      swap2\n      sub\n      swap1\n      revert\n    tag_208:\n        /* \"@openzeppelin/contracts@4.8.3/access/AccessControl.sol\":6093:6119  _revokeRole(role, account) */\n      tag_211\n        /* \"@openzeppelin/contracts@4.8.3/access/AccessControl.sol\":6105:6109  role */\n      dup3\n        /* \"@openzeppelin/contracts@4.8.3/access/AccessControl.sol\":6111:6118  account */\n      dup3\n        /* \"@openzeppelin/contracts@4.8.3/access/AccessControl.sol\":6093:6104  _revokeRole */\n      tag_212\n        /* \"@openzeppelin/contracts@4.8.3/access/AccessControl.sol\":6093:6119  _revokeRole(role, account) */\n      jump\t// in\n    tag_211:\n        /* \"@openzeppelin/contracts@4.8.3/access/AccessControl.sol\":5912:6126  function renounceRole(bytes32 role, address account) public virtual override {... */\n      pop\n      pop\n      jump\t// out\n        /* \"CryptoFairHero/HeroV1Game.sol\":3183:3552  function getGameStatus() external view  returns (GameStatus, uint256, uint256, uint256, uint256, uint256, uint256) {... */\n    tag_82:\n        /* \"CryptoFairHero/HeroV1Game.sol\":3232:3242  GameStatus */\n      0x00\n        /* \"CryptoFairHero/HeroV1Game.sol\":3244:3251  uint256 */\n      dup1\n        /* \"CryptoFairHero/HeroV1Game.sol\":3253:3260  uint256 */\n      0x00\n        /* \"CryptoFairHero/HeroV1Game.sol\":3262:3269  uint256 */\n      dup1\n        /* \"CryptoFairHero/HeroV1Game.sol\":3271:3278  uint256 */\n      0x00\n        /* \"CryptoFairHero/HeroV1Game.sol\":3280:3287  uint256 */\n      dup1\n        /* \"CryptoFairHero/HeroV1Game.sol\":3289:3296  uint256 */\n      0x00\n        /* \"CryptoFairHero/HeroV1Game.sol\":3329:3340  _gameStatus */\n      0x1a\n      0x00\n      swap1\n      sload\n      swap1\n      0x0100\n      exp\n      swap1\n      div\n      0xff\n      and\n        /* \"CryptoFairHero/HeroV1Game.sol\":3354:3361  players */\n      0x13\n        /* \"CryptoFairHero/HeroV1Game.sol\":3354:3368  players.length */\n      dup1\n      sload\n      swap1\n      pop\n        /* \"CryptoFairHero/HeroV1Game.sol\":3382:3392  _balance() */\n      tag_214\n        /* \"CryptoFairHero/HeroV1Game.sol\":3382:3390  _balance */\n      tag_215\n        /* \"CryptoFairHero/HeroV1Game.sol\":3382:3392  _balance() */\n      jump\t// in\n    tag_214:\n        /* \"CryptoFairHero/HeroV1Game.sol\":3406:3414  gameInfo */\n      0x03\n        /* \"CryptoFairHero/HeroV1Game.sol\":3406:3425  gameInfo._joinTotal */\n      0x04\n      add\n      sload\n        /* \"CryptoFairHero/HeroV1Game.sol\":3439:3447  gameInfo */\n      0x03\n        /* \"CryptoFairHero/HeroV1Game.sol\":3439:3461  gameInfo._charityTotal */\n      0x05\n      add\n      sload\n        /* \"CryptoFairHero/HeroV1Game.sol\":3475:3483  gameInfo */\n      0x03\n        /* \"CryptoFairHero/HeroV1Game.sol\":3475:3497  gameInfo._winnerReward */\n      0x06\n      add\n      sload\n        /* \"CryptoFairHero/HeroV1Game.sol\":3511:3519  gameInfo */\n      0x03\n        /* \"CryptoFairHero/HeroV1Game.sol\":3511:3535  gameInfo._referrerReward */\n      0x07\n      add\n      sload\n        /* \"CryptoFairHero/HeroV1Game.sol\":3308:3545  return (... */\n      swap7\n      pop\n      swap7\n      pop\n      swap7\n      pop\n      swap7\n      pop\n      swap7\n      pop\n      swap7\n      pop\n      swap7\n      pop\n        /* \"CryptoFairHero/HeroV1Game.sol\":3183:3552  function getGameStatus() external view  returns (GameStatus, uint256, uint256, uint256, uint256, uint256, uint256) {... */\n      swap1\n      swap2\n      swap3\n      swap4\n      swap5\n      swap6\n      swap7\n      jump\t// out\n        /* \"CryptoFairHero/HeroV1Game.sol\":3786:3953  function pauseGame() external onlyRole(PAUSER_ROLE) whenNotPaused {... */\n    tag_87:\n        /* \"CryptoFairHero/HeroV1Game.sol\":899:923  keccak256(\"PAUSER_ROLE\") */\n      0x65d7a28e3265b37a6474929f336521b332c1681b933f6cb9f3376673440d862a\n        /* \"@openzeppelin/contracts@4.8.3/access/AccessControl.sol\":2505:2521  _checkRole(role) */\n      tag_217\n        /* \"@openzeppelin/contracts@4.8.3/access/AccessControl.sol\":2516:2520  role */\n      dup2\n        /* \"@openzeppelin/contracts@4.8.3/access/AccessControl.sol\":2505:2515  _checkRole */\n      tag_190\n        /* \"@openzeppelin/contracts@4.8.3/access/AccessControl.sol\":2505:2521  _checkRole(role) */\n      jump\t// in\n    tag_217:\n        /* \"@openzeppelin/contracts@4.8.3/security/Pausable.sol\":1239:1258  _requireNotPaused() */\n      tag_219\n        /* \"@openzeppelin/contracts@4.8.3/security/Pausable.sol\":1239:1256  _requireNotPaused */\n      tag_220\n        /* \"@openzeppelin/contracts@4.8.3/security/Pausable.sol\":1239:1258  _requireNotPaused() */\n      jump\t// in\n    tag_219:\n        /* \"CryptoFairHero/HeroV1Game.sol\":3876:3887  _gameStatus */\n      0x1a\n      0x00\n      swap1\n      sload\n      swap1\n      0x0100\n      exp\n      swap1\n      div\n      0xff\n      and\n        /* \"CryptoFairHero/HeroV1Game.sol\":3862:3873  _lastStatus */\n      0x1a\n      0x01\n        /* \"CryptoFairHero/HeroV1Game.sol\":3862:3887  _lastStatus = _gameStatus */\n      0x0100\n      exp\n      dup2\n      sload\n      dup2\n      0xff\n      mul\n      not\n      and\n      swap1\n      dup4\n      0x05\n      dup2\n      gt\n      iszero\n      tag_222\n      jumpi\n      tag_223\n      tag_202\n      jump\t// in\n    tag_223:\n    tag_222:\n      mul\n      or\n      swap1\n      sstore\n      pop\n        /* \"CryptoFairHero/HeroV1Game.sol\":3911:3928  GameStatus.Paused */\n      0x03\n        /* \"CryptoFairHero/HeroV1Game.sol\":3897:3908  _gameStatus */\n      0x1a\n      0x00\n        /* \"CryptoFairHero/HeroV1Game.sol\":3897:3928  _gameStatus = GameStatus.Paused */\n      0x0100\n      exp\n      dup2\n      sload\n      dup2\n      0xff\n      mul\n      not\n      and\n      swap1\n      dup4\n      0x05\n      dup2\n      gt\n      iszero\n      tag_224\n      jumpi\n      tag_225\n      tag_202\n      jump\t// in\n    tag_225:\n    tag_224:\n      mul\n      or\n      swap1\n      sstore\n      pop\n        /* \"CryptoFairHero/HeroV1Game.sol\":3938:3946  _pause() */\n      tag_226\n        /* \"CryptoFairHero/HeroV1Game.sol\":3938:3944  _pause */\n      tag_227\n        /* \"CryptoFairHero/HeroV1Game.sol\":3938:3946  _pause() */\n      jump\t// in\n    tag_226:\n        /* \"CryptoFairHero/HeroV1Game.sol\":3786:3953  function pauseGame() external onlyRole(PAUSER_ROLE) whenNotPaused {... */\n      pop\n      jump\t// out\n        /* \"CryptoFairHero/HeroV1Game.sol\":1242:1286  mapping(address => uint256) public referrers */\n    tag_91:\n      mstore(0x20, 0x15)\n      dup1\n      0x00\n      mstore\n      keccak256(0x00, 0x40)\n      0x00\n      swap2\n      pop\n      swap1\n      pop\n      sload\n      dup2\n      jump\t// out\n        /* \"CryptoFairHero/HeroV1Game.sol\":1126:1150  address public refundGas */\n    tag_95:\n      0x12\n      0x00\n      swap1\n      sload\n      swap1\n      0x0100\n      exp\n      swap1\n      div\n      0xffffffffffffffffffffffffffffffffffffffff\n      and\n      dup2\n      jump\t// out\n        /* \"@openzeppelin/contracts@4.8.3/security/Pausable.sol\":1615:1699  function paused() public view virtual returns (bool) {... */\n    tag_99:\n        /* \"@openzeppelin/contracts@4.8.3/security/Pausable.sol\":1662:1666  bool */\n      0x00\n        /* \"@openzeppelin/contracts@4.8.3/security/Pausable.sol\":1685:1692  _paused */\n      0x01\n      0x00\n      swap1\n      sload\n      swap1\n      0x0100\n      exp\n      swap1\n      div\n      0xff\n      and\n        /* \"@openzeppelin/contracts@4.8.3/security/Pausable.sol\":1678:1692  return _paused */\n      swap1\n      pop\n        /* \"@openzeppelin/contracts@4.8.3/security/Pausable.sol\":1615:1699  function paused() public view virtual returns (bool) {... */\n      swap1\n      jump\t// out\n        /* \"CryptoFairHero/HeroV1Game.sol\":7196:8259  function getGuarantee(bool force) external whenNotPaused nonReentrant {... */\n    tag_105:\n        /* \"@openzeppelin/contracts@4.8.3/security/Pausable.sol\":1239:1258  _requireNotPaused() */\n      tag_230\n        /* \"@openzeppelin/contracts@4.8.3/security/Pausable.sol\":1239:1256  _requireNotPaused */\n      tag_220\n        /* \"@openzeppelin/contracts@4.8.3/security/Pausable.sol\":1239:1258  _requireNotPaused() */\n      jump\t// in\n    tag_230:\n        /* \"@openzeppelin/contracts@4.8.3/security/ReentrancyGuard.sol\":2261:2282  _nonReentrantBefore() */\n      tag_232\n        /* \"@openzeppelin/contracts@4.8.3/security/ReentrancyGuard.sol\":2261:2280  _nonReentrantBefore */\n      tag_233\n        /* \"@openzeppelin/contracts@4.8.3/security/ReentrancyGuard.sol\":2261:2282  _nonReentrantBefore() */\n      jump\t// in\n    tag_232:\n        /* \"CryptoFairHero/HeroV1Game.sol\":7307:7318  _gameStatus */\n      0x1a\n      0x00\n      swap1\n      sload\n      swap1\n      0x0100\n      exp\n      swap1\n      div\n      0xff\n      and\n        /* \"CryptoFairHero/HeroV1Game.sol\":7284:7318  GameStatus.Canceled == _gameStatus */\n      0x05\n      dup2\n      gt\n      iszero\n      tag_235\n      jumpi\n      tag_236\n      tag_202\n      jump\t// in\n    tag_236:\n    tag_235:\n        /* \"CryptoFairHero/HeroV1Game.sol\":7284:7303  GameStatus.Canceled */\n      0x04\n        /* \"CryptoFairHero/HeroV1Game.sol\":7284:7318  GameStatus.Canceled == _gameStatus */\n      0x05\n      dup2\n      gt\n      iszero\n      tag_237\n      jumpi\n      tag_238\n      tag_202\n      jump\t// in\n    tag_238:\n    tag_237:\n      eq\n        /* \"CryptoFairHero/HeroV1Game.sol\":7276:7319  require(GameStatus.Canceled == _gameStatus) */\n      tag_239\n      jumpi\n      0x00\n      dup1\n      revert\n    tag_239:\n        /* \"CryptoFairHero/HeroV1Game.sol\":7333:7338  force */\n      dup1\n        /* \"CryptoFairHero/HeroV1Game.sol\":7329:8253  if (force) {... */\n      iszero\n      tag_240\n      jumpi\n        /* \"CryptoFairHero/HeroV1Game.sol\":7354:7371  uint256 _refunded */\n      0x00\n        /* \"CryptoFairHero/HeroV1Game.sol\":7394:7403  uint256 i */\n      dup1\n        /* \"CryptoFairHero/HeroV1Game.sol\":7389:8055  for (uint256 i = 0; i < players.length; i++) {... */\n    tag_241:\n        /* \"CryptoFairHero/HeroV1Game.sol\":7413:7420  players */\n      0x13\n        /* \"CryptoFairHero/HeroV1Game.sol\":7413:7427  players.length */\n      dup1\n      sload\n      swap1\n      pop\n        /* \"CryptoFairHero/HeroV1Game.sol\":7409:7410  i */\n      dup2\n        /* \"CryptoFairHero/HeroV1Game.sol\":7409:7427  i < players.length */\n      lt\n        /* \"CryptoFairHero/HeroV1Game.sol\":7389:8055  for (uint256 i = 0; i < players.length; i++) {... */\n      iszero\n      tag_242\n      jumpi\n        /* \"CryptoFairHero/HeroV1Game.sol\":7452:7467  address _player */\n      0x00\n        /* \"CryptoFairHero/HeroV1Game.sol\":7470:7477  players */\n      0x13\n        /* \"CryptoFairHero/HeroV1Game.sol\":7478:7479  i */\n      dup3\n        /* \"CryptoFairHero/HeroV1Game.sol\":7470:7480  players[i] */\n      dup2\n      sload\n      dup2\n      lt\n      tag_244\n      jumpi\n      tag_245\n      tag_246\n      jump\t// in\n    tag_245:\n    tag_244:\n      swap1\n      0x00\n      mstore\n      keccak256(0x00, 0x20)\n      swap1\n      0x02\n      mul\n      add\n        /* \"CryptoFairHero/HeroV1Game.sol\":7470:7485  players[i].addr */\n      0x01\n      add\n      0x00\n      swap1\n      sload\n      swap1\n      0x0100\n      exp\n      swap1\n      div\n      0xffffffffffffffffffffffffffffffffffffffff\n      and\n        /* \"CryptoFairHero/HeroV1Game.sol\":7452:7485  address _player = players[i].addr */\n      swap1\n      pop\n        /* \"CryptoFairHero/HeroV1Game.sol\":7503:7518  uint256 _refund */\n      0x00\n        /* \"CryptoFairHero/HeroV1Game.sol\":7521:7532  playerTotal */\n      0x14\n        /* \"CryptoFairHero/HeroV1Game.sol\":7521:7541  playerTotal[_player] */\n      0x00\n        /* \"CryptoFairHero/HeroV1Game.sol\":7533:7540  _player */\n      dup4\n        /* \"CryptoFairHero/HeroV1Game.sol\":7521:7541  playerTotal[_player] */\n      0xffffffffffffffffffffffffffffffffffffffff\n      and\n      0xffffffffffffffffffffffffffffffffffffffff\n      and\n      dup2\n      mstore\n      0x20\n      add\n      swap1\n      dup2\n      mstore\n      0x20\n      add\n      0x00\n      keccak256\n      sload\n        /* \"CryptoFairHero/HeroV1Game.sol\":7503:7541  uint256 _refund = playerTotal[_player] */\n      swap1\n      pop\n        /* \"CryptoFairHero/HeroV1Game.sol\":7573:7574  0 */\n      0x00\n        /* \"CryptoFairHero/HeroV1Game.sol\":7563:7570  _refund */\n      dup2\n        /* \"CryptoFairHero/HeroV1Game.sol\":7563:7574  _refund > 0 */\n      gt\n        /* \"CryptoFairHero/HeroV1Game.sol\":7559:8041  if (_refund > 0) {... */\n      iszero\n      tag_248\n      jumpi\n        /* \"CryptoFairHero/HeroV1Game.sol\":7621:7622  0 */\n      0x00\n        /* \"CryptoFairHero/HeroV1Game.sol\":7598:7609  playerTotal */\n      0x14\n        /* \"CryptoFairHero/HeroV1Game.sol\":7598:7618  playerTotal[_player] */\n      0x00\n        /* \"CryptoFairHero/HeroV1Game.sol\":7610:7617  _player */\n      dup5\n        /* \"CryptoFairHero/HeroV1Game.sol\":7598:7618  playerTotal[_player] */\n      0xffffffffffffffffffffffffffffffffffffffff\n      and\n      0xffffffffffffffffffffffffffffffffffffffff\n      and\n      dup2\n      mstore\n      0x20\n      add\n      swap1\n      dup2\n      mstore\n      0x20\n      add\n      0x00\n      keccak256\n        /* \"CryptoFairHero/HeroV1Game.sol\":7598:7622  playerTotal[_player] = 0 */\n      dup2\n      swap1\n      sstore\n      pop\n        /* \"CryptoFairHero/HeroV1Game.sol\":7658:7665  _refund */\n      dup1\n        /* \"CryptoFairHero/HeroV1Game.sol\":7644:7654  _joinTotal */\n      0x16\n      0x00\n        /* \"CryptoFairHero/HeroV1Game.sol\":7644:7665  _joinTotal -= _refund */\n      dup3\n      dup3\n      sload\n      tag_249\n      swap2\n      swap1\n      tag_250\n      jump\t// in\n    tag_249:\n      swap3\n      pop\n      pop\n      dup2\n      swap1\n      sstore\n      pop\n        /* \"CryptoFairHero/HeroV1Game.sol\":7687:7700  bool _success */\n      0x00\n        /* \"CryptoFairHero/HeroV1Game.sol\":7703:7731  _sendValue(_player, _refund) */\n      tag_251\n        /* \"CryptoFairHero/HeroV1Game.sol\":7714:7721  _player */\n      dup4\n        /* \"CryptoFairHero/HeroV1Game.sol\":7723:7730  _refund */\n      dup4\n        /* \"CryptoFairHero/HeroV1Game.sol\":7703:7713  _sendValue */\n      tag_252\n        /* \"CryptoFairHero/HeroV1Game.sol\":7703:7731  _sendValue(_player, _refund) */\n      jump\t// in\n    tag_251:\n        /* \"CryptoFairHero/HeroV1Game.sol\":7687:7731  bool _success = _sendValue(_player, _refund) */\n      swap1\n      pop\n        /* \"CryptoFairHero/HeroV1Game.sol\":7757:7765  _success */\n      dup1\n        /* \"CryptoFairHero/HeroV1Game.sol\":7753:8023  if (_success) {... */\n      iszero\n      tag_253\n      jumpi\n        /* \"CryptoFairHero/HeroV1Game.sol\":7806:7813  _refund */\n      dup2\n        /* \"CryptoFairHero/HeroV1Game.sol\":7793:7813  _refunded += _refund */\n      dup6\n      tag_254\n      swap2\n      swap1\n      tag_255\n      jump\t// in\n    tag_254:\n      swap5\n      pop\n        /* \"CryptoFairHero/HeroV1Game.sol\":7851:7858  _player */\n      dup3\n        /* \"CryptoFairHero/HeroV1Game.sol\":7844:7868  Refund(_player, _refund) */\n      0xffffffffffffffffffffffffffffffffffffffff\n      and\n      0xbb28353e4598c3b9199101a66e0989549b659a59a54d2c27fbb183f1932c8e6d\n        /* \"CryptoFairHero/HeroV1Game.sol\":7860:7867  _refund */\n      dup4\n        /* \"CryptoFairHero/HeroV1Game.sol\":7844:7868  Refund(_player, _refund) */\n      mload(0x40)\n      tag_256\n      swap2\n      swap1\n      tag_75\n      jump\t// in\n    tag_256:\n      mload(0x40)\n      dup1\n      swap2\n      sub\n      swap1\n      log2\n        /* \"CryptoFairHero/HeroV1Game.sol\":7753:8023  if (_success) {... */\n      jump(tag_257)\n    tag_253:\n        /* \"CryptoFairHero/HeroV1Game.sol\":7946:7953  _refund */\n      dup2\n        /* \"CryptoFairHero/HeroV1Game.sol\":7923:7934  playerTotal */\n      0x14\n        /* \"CryptoFairHero/HeroV1Game.sol\":7923:7943  playerTotal[_player] */\n      0x00\n        /* \"CryptoFairHero/HeroV1Game.sol\":7935:7942  _player */\n      dup6\n        /* \"CryptoFairHero/HeroV1Game.sol\":7923:7943  playerTotal[_player] */\n      0xffffffffffffffffffffffffffffffffffffffff\n      and\n      0xffffffffffffffffffffffffffffffffffffffff\n      and\n      dup2\n      mstore\n      0x20\n      add\n      swap1\n      dup2\n      mstore\n      0x20\n      add\n      0x00\n      keccak256\n        /* \"CryptoFairHero/HeroV1Game.sol\":7923:7953  playerTotal[_player] = _refund */\n      dup2\n      swap1\n      sstore\n      pop\n        /* \"CryptoFairHero/HeroV1Game.sol\":7993:8000  _refund */\n      dup2\n        /* \"CryptoFairHero/HeroV1Game.sol\":7979:7989  _joinTotal */\n      0x16\n      0x00\n        /* \"CryptoFairHero/HeroV1Game.sol\":7979:8000  _joinTotal += _refund */\n      dup3\n      dup3\n      sload\n      tag_258\n      swap2\n      swap1\n      tag_255\n      jump\t// in\n    tag_258:\n      swap3\n      pop\n      pop\n      dup2\n      swap1\n      sstore\n      pop\n        /* \"CryptoFairHero/HeroV1Game.sol\":7753:8023  if (_success) {... */\n    tag_257:\n        /* \"CryptoFairHero/HeroV1Game.sol\":7576:8041  {... */\n      pop\n        /* \"CryptoFairHero/HeroV1Game.sol\":7559:8041  if (_refund > 0) {... */\n    tag_248:\n        /* \"CryptoFairHero/HeroV1Game.sol\":7434:8055  {... */\n      pop\n      pop\n        /* \"CryptoFairHero/HeroV1Game.sol\":7429:7432  i++ */\n      dup1\n      dup1\n      tag_259\n      swap1\n      tag_260\n      jump\t// in\n    tag_259:\n      swap2\n      pop\n      pop\n        /* \"CryptoFairHero/HeroV1Game.sol\":7389:8055  for (uint256 i = 0; i < players.length; i++) {... */\n      jump(tag_241)\n    tag_242:\n      pop\n        /* \"CryptoFairHero/HeroV1Game.sol\":8068:8134  _sendValueOrRevert(creator, _balance() - (_joinTotal - _refunded)) */\n      tag_261\n        /* \"CryptoFairHero/HeroV1Game.sol\":8087:8094  creator */\n      0x0d\n      0x00\n      swap1\n      sload\n      swap1\n      0x0100\n      exp\n      swap1\n      div\n      0xffffffffffffffffffffffffffffffffffffffff\n      and\n        /* \"CryptoFairHero/HeroV1Game.sol\":8123:8132  _refunded */\n      dup3\n        /* \"CryptoFairHero/HeroV1Game.sol\":8110:8120  _joinTotal */\n      sload(0x16)\n        /* \"CryptoFairHero/HeroV1Game.sol\":8110:8132  _joinTotal - _refunded */\n      tag_262\n      swap2\n      swap1\n      tag_250\n      jump\t// in\n    tag_262:\n        /* \"CryptoFairHero/HeroV1Game.sol\":8096:8106  _balance() */\n      tag_263\n        /* \"CryptoFairHero/HeroV1Game.sol\":8096:8104  _balance */\n      tag_215\n        /* \"CryptoFairHero/HeroV1Game.sol\":8096:8106  _balance() */\n      jump\t// in\n    tag_263:\n        /* \"CryptoFairHero/HeroV1Game.sol\":8096:8133  _balance() - (_joinTotal - _refunded) */\n      tag_264\n      swap2\n      swap1\n      tag_250\n      jump\t// in\n    tag_264:\n        /* \"CryptoFairHero/HeroV1Game.sol\":8068:8086  _sendValueOrRevert */\n      tag_265\n        /* \"CryptoFairHero/HeroV1Game.sol\":8068:8134  _sendValueOrRevert(creator, _balance() - (_joinTotal - _refunded)) */\n      jump\t// in\n    tag_261:\n        /* \"CryptoFairHero/HeroV1Game.sol\":7340:8145  {... */\n      pop\n        /* \"CryptoFairHero/HeroV1Game.sol\":7329:8253  if (force) {... */\n      jump(tag_266)\n    tag_240:\n        /* \"CryptoFairHero/HeroV1Game.sol\":8187:8188  0 */\n      0x00\n        /* \"CryptoFairHero/HeroV1Game.sol\":8173:8183  _joinTotal */\n      sload(0x16)\n        /* \"CryptoFairHero/HeroV1Game.sol\":8173:8188  _joinTotal <= 0 */\n      gt\n      iszero\n        /* \"CryptoFairHero/HeroV1Game.sol\":8165:8189  require(_joinTotal <= 0) */\n      tag_267\n      jumpi\n      0x00\n      dup1\n      revert\n    tag_267:\n        /* \"CryptoFairHero/HeroV1Game.sol\":8203:8242  _sendValueOrRevert(creator, _balance()) */\n      tag_268\n        /* \"CryptoFairHero/HeroV1Game.sol\":8222:8229  creator */\n      0x0d\n      0x00\n      swap1\n      sload\n      swap1\n      0x0100\n      exp\n      swap1\n      div\n      0xffffffffffffffffffffffffffffffffffffffff\n      and\n        /* \"CryptoFairHero/HeroV1Game.sol\":8231:8241  _balance() */\n      tag_269\n        /* \"CryptoFairHero/HeroV1Game.sol\":8231:8239  _balance */\n      tag_215\n        /* \"CryptoFairHero/HeroV1Game.sol\":8231:8241  _balance() */\n      jump\t// in\n    tag_269:\n        /* \"CryptoFairHero/HeroV1Game.sol\":8203:8221  _sendValueOrRevert */\n      tag_265\n        /* \"CryptoFairHero/HeroV1Game.sol\":8203:8242  _sendValueOrRevert(creator, _balance()) */\n      jump\t// in\n    tag_268:\n        /* \"CryptoFairHero/HeroV1Game.sol\":7329:8253  if (force) {... */\n    tag_266:\n        /* \"@openzeppelin/contracts@4.8.3/security/ReentrancyGuard.sol\":2303:2323  _nonReentrantAfter() */\n      tag_270\n        /* \"@openzeppelin/contracts@4.8.3/security/ReentrancyGuard.sol\":2303:2321  _nonReentrantAfter */\n      tag_271\n        /* \"@openzeppelin/contracts@4.8.3/security/ReentrancyGuard.sol\":2303:2323  _nonReentrantAfter() */\n      jump\t// in\n    tag_270:\n        /* \"CryptoFairHero/HeroV1Game.sol\":7196:8259  function getGuarantee(bool force) external whenNotPaused nonReentrant {... */\n      pop\n      jump\t// out\n        /* \"CryptoFairHero/HeroV1Game.sol\":6190:6735  function completeGame() external whenNotPaused {... */\n    tag_108:\n        /* \"@openzeppelin/contracts@4.8.3/security/Pausable.sol\":1239:1258  _requireNotPaused() */\n      tag_273\n        /* \"@openzeppelin/contracts@4.8.3/security/Pausable.sol\":1239:1256  _requireNotPaused */\n      tag_220\n        /* \"@openzeppelin/contracts@4.8.3/security/Pausable.sol\":1239:1258  _requireNotPaused() */\n      jump\t// in\n    tag_273:\n        /* \"CryptoFairHero/HeroV1Game.sol\":6276:6287  _gameStatus */\n      0x1a\n      0x00\n      swap1\n      sload\n      swap1\n      0x0100\n      exp\n      swap1\n      div\n      0xff\n      and\n        /* \"CryptoFairHero/HeroV1Game.sol\":6255:6287  GameStatus.Closed == _gameStatus */\n      0x05\n      dup2\n      gt\n      iszero\n      tag_275\n      jumpi\n      tag_276\n      tag_202\n      jump\t// in\n    tag_276:\n    tag_275:\n        /* \"CryptoFairHero/HeroV1Game.sol\":6255:6272  GameStatus.Closed */\n      0x02\n        /* \"CryptoFairHero/HeroV1Game.sol\":6255:6287  GameStatus.Closed == _gameStatus */\n      0x05\n      dup2\n      gt\n      iszero\n      tag_277\n      jumpi\n      tag_278\n      tag_202\n      jump\t// in\n    tag_278:\n    tag_277:\n      eq\n        /* \"CryptoFairHero/HeroV1Game.sol\":6247:6288  require(GameStatus.Closed == _gameStatus) */\n      tag_279\n      jumpi\n      0x00\n      dup1\n      revert\n    tag_279:\n        /* \"CryptoFairHero/HeroV1Game.sol\":6307:6322  uint256 _remain */\n      0x00\n        /* \"CryptoFairHero/HeroV1Game.sol\":6325:6335  _balance() */\n      tag_280\n        /* \"CryptoFairHero/HeroV1Game.sol\":6325:6333  _balance */\n      tag_215\n        /* \"CryptoFairHero/HeroV1Game.sol\":6325:6335  _balance() */\n      jump\t// in\n    tag_280:\n        /* \"CryptoFairHero/HeroV1Game.sol\":6307:6335  uint256 _remain = _balance() */\n      swap1\n      pop\n        /* \"CryptoFairHero/HeroV1Game.sol\":6374:6375  0 */\n      0x00\n        /* \"CryptoFairHero/HeroV1Game.sol\":6358:6371  _charityTotal */\n      sload(0x17)\n        /* \"CryptoFairHero/HeroV1Game.sol\":6358:6375  _charityTotal > 0 */\n      gt\n        /* \"CryptoFairHero/HeroV1Game.sol\":6354:6426  if (_charityTotal > 0) {... */\n      iszero\n      tag_281\n      jumpi\n        /* \"CryptoFairHero/HeroV1Game.sol\":6402:6415  _charityTotal */\n      sload(0x17)\n        /* \"CryptoFairHero/HeroV1Game.sol\":6391:6415  _remain -= _charityTotal */\n      dup2\n      tag_282\n      swap2\n      swap1\n      tag_250\n      jump\t// in\n    tag_282:\n      swap1\n      pop\n        /* \"CryptoFairHero/HeroV1Game.sol\":6354:6426  if (_charityTotal > 0) {... */\n    tag_281:\n        /* \"CryptoFairHero/HeroV1Game.sol\":6456:6457  0 */\n      0x00\n        /* \"CryptoFairHero/HeroV1Game.sol\":6440:6453  _winnerReward */\n      sload(0x18)\n        /* \"CryptoFairHero/HeroV1Game.sol\":6440:6457  _winnerReward > 0 */\n      gt\n        /* \"CryptoFairHero/HeroV1Game.sol\":6436:6508  if (_winnerReward > 0) {... */\n      iszero\n      tag_283\n      jumpi\n        /* \"CryptoFairHero/HeroV1Game.sol\":6484:6497  _winnerReward */\n      sload(0x18)\n        /* \"CryptoFairHero/HeroV1Game.sol\":6473:6497  _remain -= _winnerReward */\n      dup2\n      tag_284\n      swap2\n      swap1\n      tag_250\n      jump\t// in\n    tag_284:\n      swap1\n      pop\n        /* \"CryptoFairHero/HeroV1Game.sol\":6436:6508  if (_winnerReward > 0) {... */\n    tag_283:\n        /* \"CryptoFairHero/HeroV1Game.sol\":6540:6541  0 */\n      0x00\n        /* \"CryptoFairHero/HeroV1Game.sol\":6522:6537  _referrerReward */\n      sload(0x19)\n        /* \"CryptoFairHero/HeroV1Game.sol\":6522:6541  _referrerReward > 0 */\n      gt\n        /* \"CryptoFairHero/HeroV1Game.sol\":6518:6594  if (_referrerReward > 0) {... */\n      iszero\n      tag_285\n      jumpi\n        /* \"CryptoFairHero/HeroV1Game.sol\":6568:6583  _referrerReward */\n      sload(0x19)\n        /* \"CryptoFairHero/HeroV1Game.sol\":6557:6583  _remain -= _referrerReward */\n      dup2\n      tag_286\n      swap2\n      swap1\n      tag_250\n      jump\t// in\n    tag_286:\n      swap1\n      pop\n        /* \"CryptoFairHero/HeroV1Game.sol\":6518:6594  if (_referrerReward > 0) {... */\n    tag_285:\n        /* \"CryptoFairHero/HeroV1Game.sol\":6618:6638  GameStatus.Completed */\n      0x05\n        /* \"CryptoFairHero/HeroV1Game.sol\":6604:6615  _gameStatus */\n      0x1a\n      0x00\n        /* \"CryptoFairHero/HeroV1Game.sol\":6604:6638  _gameStatus = GameStatus.Completed */\n      0x0100\n      exp\n      dup2\n      sload\n      dup2\n      0xff\n      mul\n      not\n      and\n      swap1\n      dup4\n      0x05\n      dup2\n      gt\n      iszero\n      tag_287\n      jumpi\n      tag_288\n      tag_202\n      jump\t// in\n    tag_288:\n    tag_287:\n      mul\n      or\n      swap1\n      sstore\n      pop\n        /* \"CryptoFairHero/HeroV1Game.sol\":6653:6664  Completed() */\n      0xe06452d00b2b58f14a1fa6d499ea982ff93ea827ae700ea9ba03f4daddc94bc1\n      mload(0x40)\n      mload(0x40)\n      dup1\n      swap2\n      sub\n      swap1\n      log1\n        /* \"CryptoFairHero/HeroV1Game.sol\":6675:6711  _sendValueOrRevert(creator, _remain) */\n      tag_289\n        /* \"CryptoFairHero/HeroV1Game.sol\":6694:6701  creator */\n      0x0d\n      0x00\n      swap1\n      sload\n      swap1\n      0x0100\n      exp\n      swap1\n      div\n      0xffffffffffffffffffffffffffffffffffffffff\n      and\n        /* \"CryptoFairHero/HeroV1Game.sol\":6703:6710  _remain */\n      dup3\n        /* \"CryptoFairHero/HeroV1Game.sol\":6675:6693  _sendValueOrRevert */\n      tag_265\n        /* \"CryptoFairHero/HeroV1Game.sol\":6675:6711  _sendValueOrRevert(creator, _remain) */\n      jump\t// in\n    tag_289:\n        /* \"CryptoFairHero/HeroV1Game.sol\":6237:6735  {... */\n      pop\n        /* \"CryptoFairHero/HeroV1Game.sol\":6190:6735  function completeGame() external whenNotPaused {... */\n      jump\t// out\n        /* \"@openzeppelin/contracts@4.8.3/access/AccessControl.sol\":2895:3040  function hasRole(bytes32 role, address account) public view virtual override returns (bool) {... */\n    tag_112:\n        /* \"@openzeppelin/contracts@4.8.3/access/AccessControl.sol\":2981:2985  bool */\n      0x00\n        /* \"@openzeppelin/contracts@4.8.3/access/AccessControl.sol\":3004:3010  _roles */\n      dup1\n        /* \"@openzeppelin/contracts@4.8.3/access/AccessControl.sol\":3004:3016  _roles[role] */\n      0x00\n        /* \"@openzeppelin/contracts@4.8.3/access/AccessControl.sol\":3011:3015  role */\n      dup5\n        /* \"@openzeppelin/contracts@4.8.3/access/AccessControl.sol\":3004:3016  _roles[role] */\n      dup2\n      mstore\n      0x20\n      add\n      swap1\n      dup2\n      mstore\n      0x20\n      add\n      0x00\n      keccak256\n        /* \"@openzeppelin/contracts@4.8.3/access/AccessControl.sol\":3004:3024  _roles[role].members */\n      0x00\n      add\n        /* \"@openzeppelin/contracts@4.8.3/access/AccessControl.sol\":3004:3033  _roles[role].members[account] */\n      0x00\n        /* \"@openzeppelin/contracts@4.8.3/access/AccessControl.sol\":3025:3032  account */\n      dup4\n        /* \"@openzeppelin/contracts@4.8.3/access/AccessControl.sol\":3004:3033  _roles[role].members[account] */\n      0xffffffffffffffffffffffffffffffffffffffff\n      and\n      0xffffffffffffffffffffffffffffffffffffffff\n      and\n      dup2\n      mstore\n      0x20\n      add\n      swap1\n      dup2\n      mstore\n      0x20\n      add\n      0x00\n      keccak256\n      0x00\n      swap1\n      sload\n      swap1\n      0x0100\n      exp\n      swap1\n      div\n      0xff\n      and\n        /* \"@openzeppelin/contracts@4.8.3/access/AccessControl.sol\":2997:3033  return _roles[role].members[account] */\n      swap1\n      pop\n        /* \"@openzeppelin/contracts@4.8.3/access/AccessControl.sol\":2895:3040  function hasRole(bytes32 role, address account) public view virtual override returns (bool) {... */\n      swap3\n      swap2\n      pop\n      pop\n      jump\t// out\n        /* \"CryptoFairHero/HeroV1Game.sol\":1069:1091  address public charity */\n    tag_116:\n      0x10\n      0x00\n      swap1\n      sload\n      swap1\n      0x0100\n      exp\n      swap1\n      div\n      0xffffffffffffffffffffffffffffffffffffffff\n      and\n      dup2\n      jump\t// out\n        /* \"@openzeppelin/contracts@4.8.3/access/AccessControl.sol\":2027:2076  bytes32 public constant DEFAULT_ADMIN_ROLE = 0x00 */\n    tag_120:\n        /* \"@openzeppelin/contracts@4.8.3/access/AccessControl.sol\":2072:2076  0x00 */\n      0x00\n        /* \"@openzeppelin/contracts@4.8.3/access/AccessControl.sol\":2027:2076  bytes32 public constant DEFAULT_ADMIN_ROLE = 0x00 */\n      dup1\n      shl\n      dup2\n      jump\t// out\n        /* \"CryptoFairHero/HeroV1Game.sol\":9523:9893  function getRefund() external whenNotPaused {... */\n    tag_124:\n        /* \"@openzeppelin/contracts@4.8.3/security/Pausable.sol\":1239:1258  _requireNotPaused() */\n      tag_292\n        /* \"@openzeppelin/contracts@4.8.3/security/Pausable.sol\":1239:1256  _requireNotPaused */\n      tag_220\n        /* \"@openzeppelin/contracts@4.8.3/security/Pausable.sol\":1239:1258  _requireNotPaused() */\n      jump\t// in\n    tag_292:\n        /* \"CryptoFairHero/HeroV1Game.sol\":9608:9619  _gameStatus */\n      0x1a\n      0x00\n      swap1\n      sload\n      swap1\n      0x0100\n      exp\n      swap1\n      div\n      0xff\n      and\n        /* \"CryptoFairHero/HeroV1Game.sol\":9585:9619  GameStatus.Canceled == _gameStatus */\n      0x05\n      dup2\n      gt\n      iszero\n      tag_294\n      jumpi\n      tag_295\n      tag_202\n      jump\t// in\n    tag_295:\n    tag_294:\n        /* \"CryptoFairHero/HeroV1Game.sol\":9585:9604  GameStatus.Canceled */\n      0x04\n        /* \"CryptoFairHero/HeroV1Game.sol\":9585:9619  GameStatus.Canceled == _gameStatus */\n      0x05\n      dup2\n      gt\n      iszero\n      tag_296\n      jumpi\n      tag_297\n      tag_202\n      jump\t// in\n    tag_297:\n    tag_296:\n      eq\n        /* \"CryptoFairHero/HeroV1Game.sol\":9577:9626  require(GameStatus.Canceled == _gameStatus, \"E1\") */\n      tag_298\n      jumpi\n      mload(0x40)\n      0x08c379a000000000000000000000000000000000000000000000000000000000\n      dup2\n      mstore\n      0x04\n      add\n      tag_299\n      swap1\n      tag_300\n      jump\t// in\n    tag_299:\n      mload(0x40)\n      dup1\n      swap2\n      sub\n      swap1\n      revert\n    tag_298:\n        /* \"CryptoFairHero/HeroV1Game.sol\":9657:9658  0 */\n      0x00\n        /* \"CryptoFairHero/HeroV1Game.sol\":9644:9654  _joinTotal */\n      sload(0x16)\n        /* \"CryptoFairHero/HeroV1Game.sol\":9644:9658  _joinTotal > 0 */\n      gt\n        /* \"CryptoFairHero/HeroV1Game.sol\":9636:9665  require(_joinTotal > 0, \"E2\") */\n      tag_301\n      jumpi\n      mload(0x40)\n      0x08c379a000000000000000000000000000000000000000000000000000000000\n      dup2\n      mstore\n      0x04\n      add\n      tag_302\n      swap1\n      tag_303\n      jump\t// in\n    tag_302:\n      mload(0x40)\n      dup1\n      swap2\n      sub\n      swap1\n      revert\n    tag_301:\n        /* \"CryptoFairHero/HeroV1Game.sol\":9675:9685  uint256 _r */\n      0x00\n        /* \"CryptoFairHero/HeroV1Game.sol\":9688:9699  playerTotal */\n      0x14\n        /* \"CryptoFairHero/HeroV1Game.sol\":9688:9711  playerTotal[msg.sender] */\n      0x00\n        /* \"CryptoFairHero/HeroV1Game.sol\":9700:9710  msg.sender */\n      caller\n        /* \"CryptoFairHero/HeroV1Game.sol\":9688:9711  playerTotal[msg.sender] */\n      0xffffffffffffffffffffffffffffffffffffffff\n      and\n      0xffffffffffffffffffffffffffffffffffffffff\n      and\n      dup2\n      mstore\n      0x20\n      add\n      swap1\n      dup2\n      mstore\n      0x20\n      add\n      0x00\n      keccak256\n      sload\n        /* \"CryptoFairHero/HeroV1Game.sol\":9675:9711  uint256 _r = playerTotal[msg.sender] */\n      swap1\n      pop\n        /* \"CryptoFairHero/HeroV1Game.sol\":9734:9735  0 */\n      0x00\n        /* \"CryptoFairHero/HeroV1Game.sol\":9729:9731  _r */\n      dup2\n        /* \"CryptoFairHero/HeroV1Game.sol\":9729:9735  _r > 0 */\n      gt\n        /* \"CryptoFairHero/HeroV1Game.sol\":9721:9742  require(_r > 0, \"E3\") */\n      tag_304\n      jumpi\n      mload(0x40)\n      0x08c379a000000000000000000000000000000000000000000000000000000000\n      dup2\n      mstore\n      0x04\n      add\n      tag_305\n      swap1\n      tag_306\n      jump\t// in\n    tag_305:\n      mload(0x40)\n      dup1\n      swap2\n      sub\n      swap1\n      revert\n    tag_304:\n        /* \"CryptoFairHero/HeroV1Game.sol\":9766:9768  _r */\n      dup1\n        /* \"CryptoFairHero/HeroV1Game.sol\":9752:9762  _joinTotal */\n      0x16\n      0x00\n        /* \"CryptoFairHero/HeroV1Game.sol\":9752:9768  _joinTotal -= _r */\n      dup3\n      dup3\n      sload\n      tag_307\n      swap2\n      swap1\n      tag_250\n      jump\t// in\n    tag_307:\n      swap3\n      pop\n      pop\n      dup2\n      swap1\n      sstore\n      pop\n        /* \"CryptoFairHero/HeroV1Game.sol\":9804:9805  0 */\n      0x00\n        /* \"CryptoFairHero/HeroV1Game.sol\":9778:9789  playerTotal */\n      0x14\n        /* \"CryptoFairHero/HeroV1Game.sol\":9778:9801  playerTotal[msg.sender] */\n      0x00\n        /* \"CryptoFairHero/HeroV1Game.sol\":9790:9800  msg.sender */\n      caller\n        /* \"CryptoFairHero/HeroV1Game.sol\":9778:9801  playerTotal[msg.sender] */\n      0xffffffffffffffffffffffffffffffffffffffff\n      and\n      0xffffffffffffffffffffffffffffffffffffffff\n      and\n      dup2\n      mstore\n      0x20\n      add\n      swap1\n      dup2\n      mstore\n      0x20\n      add\n      0x00\n      keccak256\n        /* \"CryptoFairHero/HeroV1Game.sol\":9778:9805  playerTotal[msg.sender] = 0 */\n      dup2\n      swap1\n      sstore\n      pop\n        /* \"CryptoFairHero/HeroV1Game.sol\":9827:9837  msg.sender */\n      caller\n        /* \"CryptoFairHero/HeroV1Game.sol\":9820:9842  Refund(msg.sender, _r) */\n      0xffffffffffffffffffffffffffffffffffffffff\n      and\n      0xbb28353e4598c3b9199101a66e0989549b659a59a54d2c27fbb183f1932c8e6d\n        /* \"CryptoFairHero/HeroV1Game.sol\":9839:9841  _r */\n      dup3\n        /* \"CryptoFairHero/HeroV1Game.sol\":9820:9842  Refund(msg.sender, _r) */\n      mload(0x40)\n      tag_308\n      swap2\n      swap1\n      tag_75\n      jump\t// in\n    tag_308:\n      mload(0x40)\n      dup1\n      swap2\n      sub\n      swap1\n      log2\n        /* \"CryptoFairHero/HeroV1Game.sol\":9852:9886  _sendValueOrRevert(msg.sender, _r) */\n      tag_309\n        /* \"CryptoFairHero/HeroV1Game.sol\":9871:9881  msg.sender */\n      caller\n        /* \"CryptoFairHero/HeroV1Game.sol\":9883:9885  _r */\n      dup3\n        /* \"CryptoFairHero/HeroV1Game.sol\":9852:9870  _sendValueOrRevert */\n      tag_265\n        /* \"CryptoFairHero/HeroV1Game.sol\":9852:9886  _sendValueOrRevert(msg.sender, _r) */\n      jump\t// in\n    tag_309:\n        /* \"CryptoFairHero/HeroV1Game.sol\":9567:9893  {... */\n      pop\n        /* \"CryptoFairHero/HeroV1Game.sol\":9523:9893  function getRefund() external whenNotPaused {... */\n      jump\t// out\n        /* \"CryptoFairHero/HeroV1Game.sol\":1098:1120  address public joinGas */\n    tag_127:\n      0x11\n      0x00\n      swap1\n      sload\n      swap1\n      0x0100\n      exp\n      swap1\n      div\n      0xffffffffffffffffffffffffffffffffffffffff\n      and\n      dup2\n      jump\t// out\n        /* \"CryptoFairHero/HeroV1Game.sol\":960:982  address public factory */\n    tag_131:\n      0x0c\n      0x00\n      swap1\n      sload\n      swap1\n      0x0100\n      exp\n      swap1\n      div\n      0xffffffffffffffffffffffffffffffffffffffff\n      and\n      dup2\n      jump\t// out\n        /* \"@openzeppelin/contracts@4.8.3/access/AccessControl.sol\":5228:5375  function revokeRole(bytes32 role, address account) public virtual override onlyRole(getRoleAdmin(role)) {... */\n    tag_136:\n        /* \"@openzeppelin/contracts@4.8.3/access/AccessControl.sol\":5312:5330  getRoleAdmin(role) */\n      tag_310\n        /* \"@openzeppelin/contracts@4.8.3/access/AccessControl.sol\":5325:5329  role */\n      dup3\n        /* \"@openzeppelin/contracts@4.8.3/access/AccessControl.sol\":5312:5324  getRoleAdmin */\n      tag_58\n        /* \"@openzeppelin/contracts@4.8.3/access/AccessControl.sol\":5312:5330  getRoleAdmin(role) */\n      jump\t// in\n    tag_310:\n        /* \"@openzeppelin/contracts@4.8.3/access/AccessControl.sol\":2505:2521  _checkRole(role) */\n      tag_312\n        /* \"@openzeppelin/contracts@4.8.3/access/AccessControl.sol\":2516:2520  role */\n      dup2\n        /* \"@openzeppelin/contracts@4.8.3/access/AccessControl.sol\":2505:2515  _checkRole */\n      tag_190\n        /* \"@openzeppelin/contracts@4.8.3/access/AccessControl.sol\":2505:2521  _checkRole(role) */\n      jump\t// in\n    tag_312:\n        /* \"@openzeppelin/contracts@4.8.3/access/AccessControl.sol\":5342:5368  _revokeRole(role, account) */\n      tag_314\n        /* \"@openzeppelin/contracts@4.8.3/access/AccessControl.sol\":5354:5358  role */\n      dup4\n        /* \"@openzeppelin/contracts@4.8.3/access/AccessControl.sol\":5360:5367  account */\n      dup4\n        /* \"@openzeppelin/contracts@4.8.3/access/AccessControl.sol\":5342:5353  _revokeRole */\n      tag_212\n        /* \"@openzeppelin/contracts@4.8.3/access/AccessControl.sol\":5342:5368  _revokeRole(role, account) */\n      jump\t// in\n    tag_314:\n        /* \"@openzeppelin/contracts@4.8.3/access/AccessControl.sol\":5228:5375  function revokeRole(bytes32 role, address account) public virtual override onlyRole(getRoleAdmin(role)) {... */\n      pop\n      pop\n      pop\n      jump\t// out\n        /* \"CryptoFairHero/HeroV1Game.sol\":3558:3780  function startGame() external payable whenNotPaused {... */\n    tag_138:\n        /* \"@openzeppelin/contracts@4.8.3/security/Pausable.sol\":1239:1258  _requireNotPaused() */\n      tag_316\n        /* \"@openzeppelin/contracts@4.8.3/security/Pausable.sol\":1239:1256  _requireNotPaused */\n      tag_220\n        /* \"@openzeppelin/contracts@4.8.3/security/Pausable.sol\":1239:1258  _requireNotPaused() */\n      jump\t// in\n    tag_316:\n        /* \"CryptoFairHero/HeroV1Game.sol\":3650:3661  _gameStatus */\n      0x1a\n      0x00\n      swap1\n      sload\n      swap1\n      0x0100\n      exp\n      swap1\n      div\n      0xff\n      and\n        /* \"CryptoFairHero/HeroV1Game.sol\":3628:3661  GameStatus.Created == _gameStatus */\n      0x05\n      dup2\n      gt\n      iszero\n      tag_318\n      jumpi\n      tag_319\n      tag_202\n      jump\t// in\n    tag_319:\n    tag_318:\n        /* \"CryptoFairHero/HeroV1Game.sol\":3628:3646  GameStatus.Created */\n      0x00\n        /* \"CryptoFairHero/HeroV1Game.sol\":3628:3661  GameStatus.Created == _gameStatus */\n      0x05\n      dup2\n      gt\n      iszero\n      tag_320\n      jumpi\n      tag_321\n      tag_202\n      jump\t// in\n    tag_321:\n    tag_320:\n      eq\n        /* \"CryptoFairHero/HeroV1Game.sol\":3628:3686  GameStatus.Created == _gameStatus && msg.sender == creator */\n      dup1\n      iszero\n      tag_322\n      jumpi\n      pop\n        /* \"CryptoFairHero/HeroV1Game.sol\":3679:3686  creator */\n      0x0d\n      0x00\n      swap1\n      sload\n      swap1\n      0x0100\n      exp\n      swap1\n      div\n      0xffffffffffffffffffffffffffffffffffffffff\n      and\n        /* \"CryptoFairHero/HeroV1Game.sol\":3665:3686  msg.sender == creator */\n      0xffffffffffffffffffffffffffffffffffffffff\n      and\n        /* \"CryptoFairHero/HeroV1Game.sol\":3665:3675  msg.sender */\n      caller\n        /* \"CryptoFairHero/HeroV1Game.sol\":3665:3686  msg.sender == creator */\n      0xffffffffffffffffffffffffffffffffffffffff\n      and\n      eq\n        /* \"CryptoFairHero/HeroV1Game.sol\":3628:3686  GameStatus.Created == _gameStatus && msg.sender == creator */\n    tag_322:\n        /* \"CryptoFairHero/HeroV1Game.sol\":3620:3687  require(GameStatus.Created == _gameStatus && msg.sender == creator) */\n      tag_323\n      jumpi\n      0x00\n      dup1\n      revert\n    tag_323:\n        /* \"CryptoFairHero/HeroV1Game.sol\":3697:3734  _getValueOrRevert(gameInfo.guarantee) */\n      tag_324\n        /* \"CryptoFairHero/HeroV1Game.sol\":3715:3723  gameInfo */\n      0x03\n        /* \"CryptoFairHero/HeroV1Game.sol\":3715:3733  gameInfo.guarantee */\n      dup1\n      add\n      sload\n        /* \"CryptoFairHero/HeroV1Game.sol\":3697:3714  _getValueOrRevert */\n      tag_325\n        /* \"CryptoFairHero/HeroV1Game.sol\":3697:3734  _getValueOrRevert(gameInfo.guarantee) */\n      jump\t// in\n    tag_324:\n      pop\n        /* \"CryptoFairHero/HeroV1Game.sol\":3758:3773  GameStatus.Open */\n      0x01\n        /* \"CryptoFairHero/HeroV1Game.sol\":3744:3755  _gameStatus */\n      0x1a\n      0x00\n        /* \"CryptoFairHero/HeroV1Game.sol\":3744:3773  _gameStatus = GameStatus.Open */\n      0x0100\n      exp\n      dup2\n      sload\n      dup2\n      0xff\n      mul\n      not\n      and\n      swap1\n      dup4\n      0x05\n      dup2\n      gt\n      iszero\n      tag_326\n      jumpi\n      tag_327\n      tag_202\n      jump\t// in\n    tag_327:\n    tag_326:\n      mul\n      or\n      swap1\n      sstore\n      pop\n        /* \"CryptoFairHero/HeroV1Game.sol\":3558:3780  function startGame() external payable whenNotPaused {... */\n      jump\t// out\n        /* \"CryptoFairHero/HeroV1Game.sol\":8304:8496  function getCharity() external whenNotPaused {... */\n    tag_141:\n        /* \"@openzeppelin/contracts@4.8.3/security/Pausable.sol\":1239:1258  _requireNotPaused() */\n      tag_329\n        /* \"@openzeppelin/contracts@4.8.3/security/Pausable.sol\":1239:1256  _requireNotPaused */\n      tag_220\n        /* \"@openzeppelin/contracts@4.8.3/security/Pausable.sol\":1239:1258  _requireNotPaused() */\n      jump\t// in\n    tag_329:\n        /* \"CryptoFairHero/HeroV1Game.sol\":8383:8384  0 */\n      0x00\n        /* \"CryptoFairHero/HeroV1Game.sol\":8367:8380  _charityTotal */\n      sload(0x17)\n        /* \"CryptoFairHero/HeroV1Game.sol\":8367:8384  _charityTotal > 0 */\n      gt\n        /* \"CryptoFairHero/HeroV1Game.sol\":8359:8385  require(_charityTotal > 0) */\n      tag_331\n      jumpi\n      0x00\n      dup1\n      revert\n    tag_331:\n        /* \"CryptoFairHero/HeroV1Game.sol\":8395:8405  uint256 _c */\n      0x00\n        /* \"CryptoFairHero/HeroV1Game.sol\":8408:8421  _charityTotal */\n      sload(0x17)\n        /* \"CryptoFairHero/HeroV1Game.sol\":8395:8421  uint256 _c = _charityTotal */\n      swap1\n      pop\n        /* \"CryptoFairHero/HeroV1Game.sol\":8447:8448  0 */\n      0x00\n        /* \"CryptoFairHero/HeroV1Game.sol\":8431:8444  _charityTotal */\n      0x17\n        /* \"CryptoFairHero/HeroV1Game.sol\":8431:8448  _charityTotal = 0 */\n      dup2\n      swap1\n      sstore\n      pop\n        /* \"CryptoFairHero/HeroV1Game.sol\":8458:8489  _sendValueOrRevert(charity, _c) */\n      tag_332\n        /* \"CryptoFairHero/HeroV1Game.sol\":8477:8484  charity */\n      0x10\n      0x00\n      swap1\n      sload\n      swap1\n      0x0100\n      exp\n      swap1\n      div\n      0xffffffffffffffffffffffffffffffffffffffff\n      and\n        /* \"CryptoFairHero/HeroV1Game.sol\":8486:8488  _c */\n      dup3\n        /* \"CryptoFairHero/HeroV1Game.sol\":8458:8476  _sendValueOrRevert */\n      tag_265\n        /* \"CryptoFairHero/HeroV1Game.sol\":8458:8489  _sendValueOrRevert(charity, _c) */\n      jump\t// in\n    tag_332:\n        /* \"CryptoFairHero/HeroV1Game.sol\":8349:8496  {... */\n      pop\n        /* \"CryptoFairHero/HeroV1Game.sol\":8304:8496  function getCharity() external whenNotPaused {... */\n      jump\t// out\n        /* \"CryptoFairHero/HeroV1Game.sol\":9076:9462  function getReferrerReward() external whenNotPaused {... */\n    tag_144:\n        /* \"@openzeppelin/contracts@4.8.3/security/Pausable.sol\":1239:1258  _requireNotPaused() */\n      tag_334\n        /* \"@openzeppelin/contracts@4.8.3/security/Pausable.sol\":1239:1256  _requireNotPaused */\n      tag_220\n        /* \"@openzeppelin/contracts@4.8.3/security/Pausable.sol\":1239:1258  _requireNotPaused() */\n      jump\t// in\n    tag_334:\n        /* \"CryptoFairHero/HeroV1Game.sol\":9171:9182  _gameStatus */\n      0x1a\n      0x00\n      swap1\n      sload\n      swap1\n      0x0100\n      exp\n      swap1\n      div\n      0xff\n      and\n        /* \"CryptoFairHero/HeroV1Game.sol\":9147:9182  GameStatus.Completed == _gameStatus */\n      0x05\n      dup2\n      gt\n      iszero\n      tag_336\n      jumpi\n      tag_337\n      tag_202\n      jump\t// in\n    tag_337:\n    tag_336:\n        /* \"CryptoFairHero/HeroV1Game.sol\":9147:9167  GameStatus.Completed */\n      0x05\n        /* \"CryptoFairHero/HeroV1Game.sol\":9147:9182  GameStatus.Completed == _gameStatus */\n      dup1\n      dup2\n      gt\n      iszero\n      tag_338\n      jumpi\n      tag_339\n      tag_202\n      jump\t// in\n    tag_339:\n    tag_338:\n      eq\n        /* \"CryptoFairHero/HeroV1Game.sol\":9147:9218  GameStatus.Completed == _gameStatus || GameStatus.Closed == _gameStatus */\n      dup1\n      tag_340\n      jumpi\n      pop\n        /* \"CryptoFairHero/HeroV1Game.sol\":9207:9218  _gameStatus */\n      0x1a\n      0x00\n      swap1\n      sload\n      swap1\n      0x0100\n      exp\n      swap1\n      div\n      0xff\n      and\n        /* \"CryptoFairHero/HeroV1Game.sol\":9186:9218  GameStatus.Closed == _gameStatus */\n      0x05\n      dup2\n      gt\n      iszero\n      tag_341\n      jumpi\n      tag_342\n      tag_202\n      jump\t// in\n    tag_342:\n    tag_341:\n        /* \"CryptoFairHero/HeroV1Game.sol\":9186:9203  GameStatus.Closed */\n      0x02\n        /* \"CryptoFairHero/HeroV1Game.sol\":9186:9218  GameStatus.Closed == _gameStatus */\n      0x05\n      dup2\n      gt\n      iszero\n      tag_343\n      jumpi\n      tag_344\n      tag_202\n      jump\t// in\n    tag_344:\n    tag_343:\n      eq\n        /* \"CryptoFairHero/HeroV1Game.sol\":9147:9218  GameStatus.Completed == _gameStatus || GameStatus.Closed == _gameStatus */\n    tag_340:\n        /* \"CryptoFairHero/HeroV1Game.sol\":9138:9226  require((GameStatus.Completed == _gameStatus || GameStatus.Closed == _gameStatus), \"E1\") */\n      tag_345\n      jumpi\n      mload(0x40)\n      0x08c379a000000000000000000000000000000000000000000000000000000000\n      dup2\n      mstore\n      0x04\n      add\n      tag_346\n      swap1\n      tag_300\n      jump\t// in\n    tag_346:\n      mload(0x40)\n      dup1\n      swap2\n      sub\n      swap1\n      revert\n    tag_345:\n        /* \"CryptoFairHero/HeroV1Game.sol\":9262:9263  0 */\n      0x00\n        /* \"CryptoFairHero/HeroV1Game.sol\":9244:9259  _referrerReward */\n      sload(0x19)\n        /* \"CryptoFairHero/HeroV1Game.sol\":9244:9263  _referrerReward > 0 */\n      gt\n        /* \"CryptoFairHero/HeroV1Game.sol\":9236:9270  require(_referrerReward > 0, \"E2\") */\n      tag_347\n      jumpi\n      mload(0x40)\n      0x08c379a000000000000000000000000000000000000000000000000000000000\n      dup2\n      mstore\n      0x04\n      add\n      tag_348\n      swap1\n      tag_303\n      jump\t// in\n    tag_348:\n      mload(0x40)\n      dup1\n      swap2\n      sub\n      swap1\n      revert\n    tag_347:\n        /* \"CryptoFairHero/HeroV1Game.sol\":9280:9290  uint256 _r */\n      0x00\n        /* \"CryptoFairHero/HeroV1Game.sol\":9293:9302  referrers */\n      0x15\n        /* \"CryptoFairHero/HeroV1Game.sol\":9293:9314  referrers[msg.sender] */\n      0x00\n        /* \"CryptoFairHero/HeroV1Game.sol\":9303:9313  msg.sender */\n      caller\n        /* \"CryptoFairHero/HeroV1Game.sol\":9293:9314  referrers[msg.sender] */\n      0xffffffffffffffffffffffffffffffffffffffff\n      and\n      0xffffffffffffffffffffffffffffffffffffffff\n      and\n      dup2\n      mstore\n      0x20\n      add\n      swap1\n      dup2\n      mstore\n      0x20\n      add\n      0x00\n      keccak256\n      sload\n        /* \"CryptoFairHero/HeroV1Game.sol\":9280:9314  uint256 _r = referrers[msg.sender] */\n      swap1\n      pop\n        /* \"CryptoFairHero/HeroV1Game.sol\":9337:9338  0 */\n      0x00\n        /* \"CryptoFairHero/HeroV1Game.sol\":9332:9334  _r */\n      dup2\n        /* \"CryptoFairHero/HeroV1Game.sol\":9332:9338  _r > 0 */\n      gt\n        /* \"CryptoFairHero/HeroV1Game.sol\":9324:9345  require(_r > 0, \"E3\") */\n      tag_349\n      jumpi\n      mload(0x40)\n      0x08c379a000000000000000000000000000000000000000000000000000000000\n      dup2\n      mstore\n      0x04\n      add\n      tag_350\n      swap1\n      tag_306\n      jump\t// in\n    tag_350:\n      mload(0x40)\n      dup1\n      swap2\n      sub\n      swap1\n      revert\n    tag_349:\n        /* \"CryptoFairHero/HeroV1Game.sol\":9374:9376  _r */\n      dup1\n        /* \"CryptoFairHero/HeroV1Game.sol\":9355:9370  _referrerReward */\n      0x19\n      0x00\n        /* \"CryptoFairHero/HeroV1Game.sol\":9355:9376  _referrerReward -= _r */\n      dup3\n      dup3\n      sload\n      tag_351\n      swap2\n      swap1\n      tag_250\n      jump\t// in\n    tag_351:\n      swap3\n      pop\n      pop\n      dup2\n      swap1\n      sstore\n      pop\n        /* \"CryptoFairHero/HeroV1Game.sol\":9410:9411  0 */\n      0x00\n        /* \"CryptoFairHero/HeroV1Game.sol\":9386:9395  referrers */\n      0x15\n        /* \"CryptoFairHero/HeroV1Game.sol\":9386:9407  referrers[msg.sender] */\n      0x00\n        /* \"CryptoFairHero/HeroV1Game.sol\":9396:9406  msg.sender */\n      caller\n        /* \"CryptoFairHero/HeroV1Game.sol\":9386:9407  referrers[msg.sender] */\n      0xffffffffffffffffffffffffffffffffffffffff\n      and\n      0xffffffffffffffffffffffffffffffffffffffff\n      and\n      dup2\n      mstore\n      0x20\n      add\n      swap1\n      dup2\n      mstore\n      0x20\n      add\n      0x00\n      keccak256\n        /* \"CryptoFairHero/HeroV1Game.sol\":9386:9411  referrers[msg.sender] = 0 */\n      dup2\n      swap1\n      sstore\n      pop\n        /* \"CryptoFairHero/HeroV1Game.sol\":9421:9455  _sendValueOrRevert(msg.sender, _r) */\n      tag_352\n        /* \"CryptoFairHero/HeroV1Game.sol\":9440:9450  msg.sender */\n      caller\n        /* \"CryptoFairHero/HeroV1Game.sol\":9452:9454  _r */\n      dup3\n        /* \"CryptoFairHero/HeroV1Game.sol\":9421:9439  _sendValueOrRevert */\n      tag_265\n        /* \"CryptoFairHero/HeroV1Game.sol\":9421:9455  _sendValueOrRevert(msg.sender, _r) */\n      jump\t// in\n    tag_352:\n        /* \"CryptoFairHero/HeroV1Game.sol\":9128:9462  {... */\n      pop\n        /* \"CryptoFairHero/HeroV1Game.sol\":9076:9462  function getReferrerReward() external whenNotPaused {... */\n      jump\t// out\n        /* \"CryptoFairHero/HeroV1Game.sol\":6763:7130  function cancelGame() external whenNotPaused {... */\n    tag_147:\n        /* \"@openzeppelin/contracts@4.8.3/security/Pausable.sol\":1239:1258  _requireNotPaused() */\n      tag_354\n        /* \"@openzeppelin/contracts@4.8.3/security/Pausable.sol\":1239:1256  _requireNotPaused */\n      tag_220\n        /* \"@openzeppelin/contracts@4.8.3/security/Pausable.sol\":1239:1258  _requireNotPaused() */\n      jump\t// in\n    tag_354:\n        /* \"CryptoFairHero/HeroV1Game.sol\":6845:6856  _gameStatus */\n      0x1a\n      0x00\n      swap1\n      sload\n      swap1\n      0x0100\n      exp\n      swap1\n      div\n      0xff\n      and\n        /* \"CryptoFairHero/HeroV1Game.sol\":6826:6856  GameStatus.Open == _gameStatus */\n      0x05\n      dup2\n      gt\n      iszero\n      tag_356\n      jumpi\n      tag_357\n      tag_202\n      jump\t// in\n    tag_357:\n    tag_356:\n        /* \"CryptoFairHero/HeroV1Game.sol\":6826:6841  GameStatus.Open */\n      0x01\n        /* \"CryptoFairHero/HeroV1Game.sol\":6826:6856  GameStatus.Open == _gameStatus */\n      0x05\n      dup2\n      gt\n      iszero\n      tag_358\n      jumpi\n      tag_359\n      tag_202\n      jump\t// in\n    tag_359:\n    tag_358:\n      eq\n        /* \"CryptoFairHero/HeroV1Game.sol\":6826:6899  GameStatus.Open == _gameStatus && players.length < gameInfo.minJoinPlayer */\n      dup1\n      iszero\n      tag_360\n      jumpi\n      pop\n        /* \"CryptoFairHero/HeroV1Game.sol\":6877:6885  gameInfo */\n      0x03\n        /* \"CryptoFairHero/HeroV1Game.sol\":6877:6899  gameInfo.minJoinPlayer */\n      0x02\n      add\n      sload\n        /* \"CryptoFairHero/HeroV1Game.sol\":6860:6867  players */\n      0x13\n        /* \"CryptoFairHero/HeroV1Game.sol\":6860:6874  players.length */\n      dup1\n      sload\n      swap1\n      pop\n        /* \"CryptoFairHero/HeroV1Game.sol\":6860:6899  players.length < gameInfo.minJoinPlayer */\n      lt\n        /* \"CryptoFairHero/HeroV1Game.sol\":6826:6899  GameStatus.Open == _gameStatus && players.length < gameInfo.minJoinPlayer */\n    tag_360:\n        /* \"CryptoFairHero/HeroV1Game.sol\":6826:6924  GameStatus.Open == _gameStatus && players.length < gameInfo.minJoinPlayer && msg.sender == creator */\n      dup1\n      iszero\n      tag_361\n      jumpi\n      pop\n        /* \"CryptoFairHero/HeroV1Game.sol\":6917:6924  creator */\n      0x0d\n      0x00\n      swap1\n      sload\n      swap1\n      0x0100\n      exp\n      swap1\n      div\n      0xffffffffffffffffffffffffffffffffffffffff\n      and\n        /* \"CryptoFairHero/HeroV1Game.sol\":6903:6924  msg.sender == creator */\n      0xffffffffffffffffffffffffffffffffffffffff\n      and\n        /* \"CryptoFairHero/HeroV1Game.sol\":6903:6913  msg.sender */\n      caller\n        /* \"CryptoFairHero/HeroV1Game.sol\":6903:6924  msg.sender == creator */\n      0xffffffffffffffffffffffffffffffffffffffff\n      and\n      eq\n        /* \"CryptoFairHero/HeroV1Game.sol\":6826:6924  GameStatus.Open == _gameStatus && players.length < gameInfo.minJoinPlayer && msg.sender == creator */\n    tag_361:\n        /* \"CryptoFairHero/HeroV1Game.sol\":6818:6925  require(GameStatus.Open == _gameStatus && players.length < gameInfo.minJoinPlayer && msg.sender == creator) */\n      tag_362\n      jumpi\n      0x00\n      dup1\n      revert\n    tag_362:\n        /* \"CryptoFairHero/HeroV1Game.sol\":6958:6977  GameStatus.Canceled */\n      0x04\n        /* \"CryptoFairHero/HeroV1Game.sol\":6944:6955  _gameStatus */\n      0x1a\n      0x00\n        /* \"CryptoFairHero/HeroV1Game.sol\":6944:6977  _gameStatus = GameStatus.Canceled */\n      0x0100\n      exp\n      dup2\n      sload\n      dup2\n      0xff\n      mul\n      not\n      and\n      swap1\n      dup4\n      0x05\n      dup2\n      gt\n      iszero\n      tag_363\n      jumpi\n      tag_364\n      tag_202\n      jump\t// in\n    tag_364:\n    tag_363:\n      mul\n      or\n      swap1\n      sstore\n      pop\n        /* \"CryptoFairHero/HeroV1Game.sol\":6992:7002  Canceled() */\n      0x1afb0ae590df277bcb3a37f88612725bf1f7df4755792b1548a7efe77985ff77\n      mload(0x40)\n      mload(0x40)\n      dup1\n      swap2\n      sub\n      swap1\n      log1\n        /* \"CryptoFairHero/HeroV1Game.sol\":7035:7036  0 */\n      0x00\n        /* \"CryptoFairHero/HeroV1Game.sol\":7017:7032  _referrerReward */\n      sload(0x19)\n        /* \"CryptoFairHero/HeroV1Game.sol\":7017:7036  _referrerReward > 0 */\n      gt\n        /* \"CryptoFairHero/HeroV1Game.sol\":7013:7124  if (_referrerReward > 0) {... */\n      iszero\n      tag_365\n      jumpi\n        /* \"CryptoFairHero/HeroV1Game.sol\":7070:7071  0 */\n      0x00\n        /* \"CryptoFairHero/HeroV1Game.sol\":7052:7067  _referrerReward */\n      0x19\n        /* \"CryptoFairHero/HeroV1Game.sol\":7052:7071  _referrerReward = 0 */\n      dup2\n      swap1\n      sstore\n      pop\n        /* \"CryptoFairHero/HeroV1Game.sol\":7112:7113  0 */\n      0x00\n        /* \"CryptoFairHero/HeroV1Game.sol\":7085:7093  gameInfo */\n      0x03\n        /* \"CryptoFairHero/HeroV1Game.sol\":7085:7109  gameInfo._referrerReward */\n      0x07\n      add\n        /* \"CryptoFairHero/HeroV1Game.sol\":7085:7113  gameInfo._referrerReward = 0 */\n      dup2\n      swap1\n      sstore\n      pop\n        /* \"CryptoFairHero/HeroV1Game.sol\":7013:7124  if (_referrerReward > 0) {... */\n    tag_365:\n        /* \"CryptoFairHero/HeroV1Game.sol\":6763:7130  function cancelGame() external whenNotPaused {... */\n      jump\t// out\n        /* \"CryptoFairHero/HeroV1Game.sol\":930:954  GameInfo public gameInfo */\n    tag_150:\n      0x03\n      dup1\n      0x00\n      add\n      sload\n      swap1\n      dup1\n      0x01\n      add\n      sload\n      swap1\n      dup1\n      0x02\n      add\n      sload\n      swap1\n      dup1\n      0x03\n      add\n      sload\n      swap1\n      dup1\n      0x04\n      add\n      sload\n      swap1\n      dup1\n      0x05\n      add\n      sload\n      swap1\n      dup1\n      0x06\n      add\n      sload\n      swap1\n      dup1\n      0x07\n      add\n      sload\n      swap1\n      dup1\n      0x08\n      add\n      0x00\n      swap1\n      sload\n      swap1\n      0x0100\n      exp\n      swap1\n      div\n      0xff\n      and\n      swap1\n      dup1\n      0x08\n      add\n      0x01\n      swap1\n      sload\n      swap1\n      0x0100\n      exp\n      swap1\n      div\n      0xff\n      and\n      swap1\n      dup1\n      0x08\n      add\n      0x02\n      swap1\n      sload\n      swap1\n      0x0100\n      exp\n      swap1\n      div\n      0xff\n      and\n      swap1\n      pop\n      dup12\n      jump\t// out\n        /* \"CryptoFairHero/HeroV1Game.sol\":1042:1063  address public winner */\n    tag_155:\n      0x0f\n      0x00\n      swap1\n      sload\n      swap1\n      0x0100\n      exp\n      swap1\n      div\n      0xffffffffffffffffffffffffffffffffffffffff\n      and\n      dup2\n      jump\t// out\n        /* \"CryptoFairHero/HeroV1Game.sol\":5072:6184  function drawGame() external whenNotPaused {... */\n    tag_159:\n        /* \"@openzeppelin/contracts@4.8.3/security/Pausable.sol\":1239:1258  _requireNotPaused() */\n      tag_367\n        /* \"@openzeppelin/contracts@4.8.3/security/Pausable.sol\":1239:1256  _requireNotPaused */\n      tag_220\n        /* \"@openzeppelin/contracts@4.8.3/security/Pausable.sol\":1239:1258  _requireNotPaused() */\n      jump\t// in\n    tag_367:\n        /* \"CryptoFairHero/HeroV1Game.sol\":5152:5163  _gameStatus */\n      0x1a\n      0x00\n      swap1\n      sload\n      swap1\n      0x0100\n      exp\n      swap1\n      div\n      0xff\n      and\n        /* \"CryptoFairHero/HeroV1Game.sol\":5133:5163  GameStatus.Open == _gameStatus */\n      0x05\n      dup2\n      gt\n      iszero\n      tag_369\n      jumpi\n      tag_370\n      tag_202\n      jump\t// in\n    tag_370:\n    tag_369:\n        /* \"CryptoFairHero/HeroV1Game.sol\":5133:5148  GameStatus.Open */\n      0x01\n        /* \"CryptoFairHero/HeroV1Game.sol\":5133:5163  GameStatus.Open == _gameStatus */\n      0x05\n      dup2\n      gt\n      iszero\n      tag_371\n      jumpi\n      tag_372\n      tag_202\n      jump\t// in\n    tag_372:\n    tag_371:\n      eq\n        /* \"CryptoFairHero/HeroV1Game.sol\":5133:5207  GameStatus.Open == _gameStatus && players.length >= gameInfo.minJoinPlayer */\n      dup1\n      iszero\n      tag_373\n      jumpi\n      pop\n        /* \"CryptoFairHero/HeroV1Game.sol\":5185:5193  gameInfo */\n      0x03\n        /* \"CryptoFairHero/HeroV1Game.sol\":5185:5207  gameInfo.minJoinPlayer */\n      0x02\n      add\n      sload\n        /* \"CryptoFairHero/HeroV1Game.sol\":5167:5174  players */\n      0x13\n        /* \"CryptoFairHero/HeroV1Game.sol\":5167:5181  players.length */\n      dup1\n      sload\n      swap1\n      pop\n        /* \"CryptoFairHero/HeroV1Game.sol\":5167:5207  players.length >= gameInfo.minJoinPlayer */\n      lt\n      iszero\n        /* \"CryptoFairHero/HeroV1Game.sol\":5133:5207  GameStatus.Open == _gameStatus && players.length >= gameInfo.minJoinPlayer */\n    tag_373:\n        /* \"CryptoFairHero/HeroV1Game.sol\":5125:5208  require(GameStatus.Open == _gameStatus && players.length >= gameInfo.minJoinPlayer) */\n      tag_374\n      jumpi\n      0x00\n      dup1\n      revert\n    tag_374:\n        /* \"CryptoFairHero/HeroV1Game.sol\":5304:5307  100 */\n      0x64\n        /* \"CryptoFairHero/HeroV1Game.sol\":5274:5282  gameInfo */\n      0x03\n        /* \"CryptoFairHero/HeroV1Game.sol\":5274:5300  gameInfo.charityPercentage */\n      0x08\n      add\n      0x00\n      swap1\n      sload\n      swap1\n      0x0100\n      exp\n      swap1\n      div\n      0xff\n      and\n        /* \"CryptoFairHero/HeroV1Game.sol\":5261:5300  _joinTotal * gameInfo.charityPercentage */\n      0xff\n      and\n        /* \"CryptoFairHero/HeroV1Game.sol\":5261:5271  _joinTotal */\n      sload(0x16)\n        /* \"CryptoFairHero/HeroV1Game.sol\":5261:5300  _joinTotal * gameInfo.charityPercentage */\n      tag_375\n      swap2\n      swap1\n      tag_376\n      jump\t// in\n    tag_375:\n        /* \"CryptoFairHero/HeroV1Game.sol\":5260:5307  (_joinTotal * gameInfo.charityPercentage) / 100 */\n      tag_377\n      swap2\n      swap1\n      tag_378\n      jump\t// in\n    tag_377:\n        /* \"CryptoFairHero/HeroV1Game.sol\":5244:5257  _charityTotal */\n      0x17\n        /* \"CryptoFairHero/HeroV1Game.sol\":5244:5307  _charityTotal = (_joinTotal * gameInfo.charityPercentage) / 100 */\n      dup2\n      swap1\n      sstore\n        /* \"CryptoFairHero/HeroV1Game.sol\":5219:5227  gameInfo */\n      0x03\n        /* \"CryptoFairHero/HeroV1Game.sol\":5219:5241  gameInfo._charityTotal */\n      0x05\n      add\n        /* \"CryptoFairHero/HeroV1Game.sol\":5219:5307  gameInfo._charityTotal = _charityTotal = (_joinTotal * gameInfo.charityPercentage) / 100 */\n      dup2\n      swap1\n      sstore\n      pop\n        /* \"CryptoFairHero/HeroV1Game.sol\":5352:5371  uint256 _drawReward */\n      0x00\n        /* \"CryptoFairHero/HeroV1Game.sol\":5415:5418  100 */\n      0x64\n        /* \"CryptoFairHero/HeroV1Game.sol\":5388:5396  gameInfo */\n      0x03\n        /* \"CryptoFairHero/HeroV1Game.sol\":5388:5411  gameInfo.drawPercentage */\n      0x08\n      add\n      0x02\n      swap1\n      sload\n      swap1\n      0x0100\n      exp\n      swap1\n      div\n      0xff\n      and\n        /* \"CryptoFairHero/HeroV1Game.sol\":5375:5411  _joinTotal * gameInfo.drawPercentage */\n      0xff\n      and\n        /* \"CryptoFairHero/HeroV1Game.sol\":5375:5385  _joinTotal */\n      sload(0x16)\n        /* \"CryptoFairHero/HeroV1Game.sol\":5375:5411  _joinTotal * gameInfo.drawPercentage */\n      tag_379\n      swap2\n      swap1\n      tag_376\n      jump\t// in\n    tag_379:\n        /* \"CryptoFairHero/HeroV1Game.sol\":5374:5418  (_joinTotal * gameInfo.drawPercentage) / 100 */\n      tag_380\n      swap2\n      swap1\n      tag_378\n      jump\t// in\n    tag_380:\n        /* \"CryptoFairHero/HeroV1Game.sol\":5352:5418  uint256 _drawReward = (_joinTotal * gameInfo.drawPercentage) / 100 */\n      swap1\n      pop\n        /* \"CryptoFairHero/HeroV1Game.sol\":5448:5463  uint256 _random */\n      0x00\n        /* \"CryptoFairHero/HeroV1Game.sol\":5466:5487  getRandom(_joinTotal) */\n      tag_381\n        /* \"CryptoFairHero/HeroV1Game.sol\":5476:5486  _joinTotal */\n      sload(0x16)\n        /* \"CryptoFairHero/HeroV1Game.sol\":5466:5475  getRandom */\n      tag_382\n        /* \"CryptoFairHero/HeroV1Game.sol\":5466:5487  getRandom(_joinTotal) */\n      jump\t// in\n    tag_381:\n        /* \"CryptoFairHero/HeroV1Game.sol\":5448:5487  uint256 _random = getRandom(_joinTotal) */\n      swap1\n      pop\n        /* \"CryptoFairHero/HeroV1Game.sol\":5499:5511  uint256 _sum */\n      0x00\n        /* \"CryptoFairHero/HeroV1Game.sol\":5531:5540  uint256 i */\n      dup1\n        /* \"CryptoFairHero/HeroV1Game.sol\":5526:6178  for (uint256 i = 0; i < players.length; i++) {... */\n    tag_383:\n        /* \"CryptoFairHero/HeroV1Game.sol\":5550:5557  players */\n      0x13\n        /* \"CryptoFairHero/HeroV1Game.sol\":5550:5564  players.length */\n      dup1\n      sload\n      swap1\n      pop\n        /* \"CryptoFairHero/HeroV1Game.sol\":5546:5547  i */\n      dup2\n        /* \"CryptoFairHero/HeroV1Game.sol\":5546:5564  i < players.length */\n      lt\n        /* \"CryptoFairHero/HeroV1Game.sol\":5526:6178  for (uint256 i = 0; i < players.length; i++) {... */\n      iszero\n      tag_384\n      jumpi\n        /* \"CryptoFairHero/HeroV1Game.sol\":5585:5610  PlayerInfo memory _player */\n      0x00\n        /* \"CryptoFairHero/HeroV1Game.sol\":5613:5620  players */\n      0x13\n        /* \"CryptoFairHero/HeroV1Game.sol\":5621:5622  i */\n      dup3\n        /* \"CryptoFairHero/HeroV1Game.sol\":5613:5623  players[i] */\n      dup2\n      sload\n      dup2\n      lt\n      tag_386\n      jumpi\n      tag_387\n      tag_246\n      jump\t// in\n    tag_387:\n    tag_386:\n      swap1\n      0x00\n      mstore\n      keccak256(0x00, 0x20)\n      swap1\n      0x02\n      mul\n      add\n        /* \"CryptoFairHero/HeroV1Game.sol\":5585:5623  PlayerInfo memory _player = players[i] */\n      mload(0x40)\n      dup1\n      0x40\n      add\n      0x40\n      mstore\n      swap1\n      dup2\n      0x00\n      dup3\n      add\n      sload\n      dup2\n      mstore\n      0x20\n      add\n      0x01\n      dup3\n      add\n      0x00\n      swap1\n      sload\n      swap1\n      0x0100\n      exp\n      swap1\n      div\n      0xffffffffffffffffffffffffffffffffffffffff\n      and\n      0xffffffffffffffffffffffffffffffffffffffff\n      and\n      0xffffffffffffffffffffffffffffffffffffffff\n      and\n      dup2\n      mstore\n      pop\n      pop\n      swap1\n      pop\n        /* \"CryptoFairHero/HeroV1Game.sol\":5645:5652  players */\n      0x13\n        /* \"CryptoFairHero/HeroV1Game.sol\":5653:5654  i */\n      dup3\n        /* \"CryptoFairHero/HeroV1Game.sol\":5645:5655  players[i] */\n      dup2\n      sload\n      dup2\n      lt\n      tag_389\n      jumpi\n      tag_390\n      tag_246\n      jump\t// in\n    tag_390:\n    tag_389:\n      swap1\n      0x00\n      mstore\n      keccak256(0x00, 0x20)\n      swap1\n      0x02\n      mul\n      add\n        /* \"CryptoFairHero/HeroV1Game.sol\":5645:5662  players[i].amount */\n      0x00\n      add\n      sload\n        /* \"CryptoFairHero/HeroV1Game.sol\":5637:5662  _sum += players[i].amount */\n      dup4\n      tag_392\n      swap2\n      swap1\n      tag_255\n      jump\t// in\n    tag_392:\n      swap3\n      pop\n        /* \"CryptoFairHero/HeroV1Game.sol\":5687:5694  _random */\n      dup4\n        /* \"CryptoFairHero/HeroV1Game.sol\":5680:5684  _sum */\n      dup4\n        /* \"CryptoFairHero/HeroV1Game.sol\":5680:5694  _sum > _random */\n      gt\n        /* \"CryptoFairHero/HeroV1Game.sol\":5676:6168  if (_sum > _random) {... */\n      iszero\n      tag_393\n      jumpi\n        /* \"CryptoFairHero/HeroV1Game.sol\":5728:5745  GameStatus.Closed */\n      0x02\n        /* \"CryptoFairHero/HeroV1Game.sol\":5714:5725  _gameStatus */\n      0x1a\n      0x00\n        /* \"CryptoFairHero/HeroV1Game.sol\":5714:5745  _gameStatus = GameStatus.Closed */\n      0x0100\n      exp\n      dup2\n      sload\n      dup2\n      0xff\n      mul\n      not\n      and\n      swap1\n      dup4\n      0x05\n      dup2\n      gt\n      iszero\n      tag_394\n      jumpi\n      tag_395\n      tag_202\n      jump\t// in\n    tag_395:\n    tag_394:\n      mul\n      or\n      swap1\n      sstore\n      pop\n        /* \"CryptoFairHero/HeroV1Game.sol\":5772:5779  _player */\n      dup1\n        /* \"CryptoFairHero/HeroV1Game.sol\":5772:5784  _player.addr */\n      0x20\n      add\n      mload\n        /* \"CryptoFairHero/HeroV1Game.sol\":5763:5769  winner */\n      0x0f\n      0x00\n        /* \"CryptoFairHero/HeroV1Game.sol\":5763:5784  winner = _player.addr */\n      0x0100\n      exp\n      dup2\n      sload\n      dup2\n      0xffffffffffffffffffffffffffffffffffffffff\n      mul\n      not\n      and\n      swap1\n      dup4\n      0xffffffffffffffffffffffffffffffffffffffff\n      and\n      mul\n      or\n      swap1\n      sstore\n      pop\n        /* \"CryptoFairHero/HeroV1Game.sol\":5886:5901  _referrerReward */\n      sload(0x19)\n        /* \"CryptoFairHero/HeroV1Game.sol\":5872:5883  _drawReward */\n      dup6\n        /* \"CryptoFairHero/HeroV1Game.sol\":5856:5869  _charityTotal */\n      sload(0x17)\n        /* \"CryptoFairHero/HeroV1Game.sol\":5843:5853  _joinTotal */\n      sload(0x16)\n        /* \"CryptoFairHero/HeroV1Game.sol\":5843:5869  _joinTotal - _charityTotal */\n      tag_396\n      swap2\n      swap1\n      tag_250\n      jump\t// in\n    tag_396:\n        /* \"CryptoFairHero/HeroV1Game.sol\":5843:5883  _joinTotal - _charityTotal - _drawReward */\n      tag_397\n      swap2\n      swap1\n      tag_250\n      jump\t// in\n    tag_397:\n        /* \"CryptoFairHero/HeroV1Game.sol\":5843:5901  _joinTotal - _charityTotal - _drawReward - _referrerReward */\n      tag_398\n      swap2\n      swap1\n      tag_250\n      jump\t// in\n    tag_398:\n        /* \"CryptoFairHero/HeroV1Game.sol\":5827:5840  _winnerReward */\n      0x18\n        /* \"CryptoFairHero/HeroV1Game.sol\":5827:5901  _winnerReward = _joinTotal - _charityTotal - _drawReward - _referrerReward */\n      dup2\n      swap1\n      sstore\n        /* \"CryptoFairHero/HeroV1Game.sol\":5802:5810  gameInfo */\n      0x03\n        /* \"CryptoFairHero/HeroV1Game.sol\":5802:5824  gameInfo._winnerReward */\n      0x06\n      add\n        /* \"CryptoFairHero/HeroV1Game.sol\":5802:5901  gameInfo._winnerReward = _winnerReward = _joinTotal - _charityTotal - _drawReward - _referrerReward */\n      dup2\n      swap1\n      sstore\n      pop\n        /* \"CryptoFairHero/HeroV1Game.sol\":5931:5937  winner */\n      0x0f\n      0x00\n      swap1\n      sload\n      swap1\n      0x0100\n      exp\n      swap1\n      div\n      0xffffffffffffffffffffffffffffffffffffffff\n      and\n        /* \"CryptoFairHero/HeroV1Game.sol\":5924:5953  Winner(winner, _winnerReward) */\n      0xffffffffffffffffffffffffffffffffffffffff\n      and\n      0x9c2270628a9b29d30ae96b6c4c14ed646ee134febdce38a5b77f2bde9cea2e20\n        /* \"CryptoFairHero/HeroV1Game.sol\":5939:5952  _winnerReward */\n      sload(0x18)\n        /* \"CryptoFairHero/HeroV1Game.sol\":5924:5953  Winner(winner, _winnerReward) */\n      mload(0x40)\n      tag_399\n      swap2\n      swap1\n      tag_75\n      jump\t// in\n    tag_399:\n      mload(0x40)\n      dup1\n      swap2\n      sub\n      swap1\n      log2\n        /* \"CryptoFairHero/HeroV1Game.sol\":5971:5984  bool _success */\n      0x00\n        /* \"CryptoFairHero/HeroV1Game.sol\":5987:6022  _sendValue(msg.sender, _drawReward) */\n      tag_400\n        /* \"CryptoFairHero/HeroV1Game.sol\":5998:6008  msg.sender */\n      caller\n        /* \"CryptoFairHero/HeroV1Game.sol\":6010:6021  _drawReward */\n      dup8\n        /* \"CryptoFairHero/HeroV1Game.sol\":5987:5997  _sendValue */\n      tag_252\n        /* \"CryptoFairHero/HeroV1Game.sol\":5987:6022  _sendValue(msg.sender, _drawReward) */\n      jump\t// in\n    tag_400:\n        /* \"CryptoFairHero/HeroV1Game.sol\":5971:6022  bool _success = _sendValue(msg.sender, _drawReward) */\n      swap1\n      pop\n        /* \"CryptoFairHero/HeroV1Game.sol\":6044:6052  _success */\n      dup1\n        /* \"CryptoFairHero/HeroV1Game.sol\":6040:6131  if (_success) {... */\n      iszero\n      tag_401\n      jumpi\n        /* \"CryptoFairHero/HeroV1Game.sol\":6088:6098  msg.sender */\n      caller\n        /* \"CryptoFairHero/HeroV1Game.sol\":6081:6112  Drawer(msg.sender, _drawReward) */\n      0xffffffffffffffffffffffffffffffffffffffff\n      and\n      0xb02cf27ac90d3c9a1463f579513b0d004fc6a7a2a47a45676196167b706949b7\n        /* \"CryptoFairHero/HeroV1Game.sol\":6100:6111  _drawReward */\n      dup8\n        /* \"CryptoFairHero/HeroV1Game.sol\":6081:6112  Drawer(msg.sender, _drawReward) */\n      mload(0x40)\n      tag_402\n      swap2\n      swap1\n      tag_75\n      jump\t// in\n    tag_402:\n      mload(0x40)\n      dup1\n      swap2\n      sub\n      swap1\n      log2\n        /* \"CryptoFairHero/HeroV1Game.sol\":6040:6131  if (_success) {... */\n    tag_401:\n        /* \"CryptoFairHero/HeroV1Game.sol\":6148:6153  break */\n      pop\n      pop\n      jump(tag_384)\n        /* \"CryptoFairHero/HeroV1Game.sol\":5676:6168  if (_sum > _random) {... */\n    tag_393:\n        /* \"CryptoFairHero/HeroV1Game.sol\":5571:6178  {... */\n      pop\n        /* \"CryptoFairHero/HeroV1Game.sol\":5566:5569  i++ */\n      dup1\n      dup1\n      tag_403\n      swap1\n      tag_260\n      jump\t// in\n    tag_403:\n      swap2\n      pop\n      pop\n        /* \"CryptoFairHero/HeroV1Game.sol\":5526:6178  for (uint256 i = 0; i < players.length; i++) {... */\n      jump(tag_383)\n    tag_384:\n      pop\n        /* \"CryptoFairHero/HeroV1Game.sol\":5115:6184  {... */\n      pop\n      pop\n      pop\n        /* \"CryptoFairHero/HeroV1Game.sol\":5072:6184  function drawGame() external whenNotPaused {... */\n      jump\t// out\n        /* \"CryptoFairHero/HeroV1Game.sol\":861:923  bytes32 public constant PAUSER_ROLE = keccak256(\"PAUSER_ROLE\") */\n    tag_162:\n        /* \"CryptoFairHero/HeroV1Game.sol\":899:923  keccak256(\"PAUSER_ROLE\") */\n      0x65d7a28e3265b37a6474929f336521b332c1681b933f6cb9f3376673440d862a\n        /* \"CryptoFairHero/HeroV1Game.sol\":861:923  bytes32 public constant PAUSER_ROLE = keccak256(\"PAUSER_ROLE\") */\n      dup2\n      jump\t// out\n        /* \"CryptoFairHero/HeroV1Game.sol\":8526:9031  function getWinnerReward() external whenNotPaused {... */\n    tag_166:\n        /* \"@openzeppelin/contracts@4.8.3/security/Pausable.sol\":1239:1258  _requireNotPaused() */\n      tag_405\n        /* \"@openzeppelin/contracts@4.8.3/security/Pausable.sol\":1239:1256  _requireNotPaused */\n      tag_220\n        /* \"@openzeppelin/contracts@4.8.3/security/Pausable.sol\":1239:1258  _requireNotPaused() */\n      jump\t// in\n    tag_405:\n        /* \"CryptoFairHero/HeroV1Game.sol\":8610:8611  0 */\n      0x00\n        /* \"CryptoFairHero/HeroV1Game.sol\":8594:8607  _winnerReward */\n      sload(0x18)\n        /* \"CryptoFairHero/HeroV1Game.sol\":8594:8611  _winnerReward > 0 */\n      gt\n        /* \"CryptoFairHero/HeroV1Game.sol\":8586:8612  require(_winnerReward > 0) */\n      tag_407\n      jumpi\n      0x00\n      dup1\n      revert\n    tag_407:\n        /* \"CryptoFairHero/HeroV1Game.sol\":8622:8632  uint256 _r */\n      0x00\n        /* \"CryptoFairHero/HeroV1Game.sol\":8635:8648  _winnerReward */\n      sload(0x18)\n        /* \"CryptoFairHero/HeroV1Game.sol\":8622:8648  uint256 _r = _winnerReward */\n      swap1\n      pop\n        /* \"CryptoFairHero/HeroV1Game.sol\":8674:8675  0 */\n      0x00\n        /* \"CryptoFairHero/HeroV1Game.sol\":8658:8671  _winnerReward */\n      0x18\n        /* \"CryptoFairHero/HeroV1Game.sol\":8658:8675  _winnerReward = 0 */\n      dup2\n      swap1\n      sstore\n      pop\n        /* \"CryptoFairHero/HeroV1Game.sol\":8685:8715  _sendValueOrRevert(winner, _r) */\n      tag_408\n        /* \"CryptoFairHero/HeroV1Game.sol\":8704:8710  winner */\n      0x0f\n      0x00\n      swap1\n      sload\n      swap1\n      0x0100\n      exp\n      swap1\n      div\n      0xffffffffffffffffffffffffffffffffffffffff\n      and\n        /* \"CryptoFairHero/HeroV1Game.sol\":8712:8714  _r */\n      dup3\n        /* \"CryptoFairHero/HeroV1Game.sol\":8685:8703  _sendValueOrRevert */\n      tag_265\n        /* \"CryptoFairHero/HeroV1Game.sol\":8685:8715  _sendValueOrRevert(winner, _r) */\n      jump\t// in\n    tag_408:\n        /* \"CryptoFairHero/HeroV1Game.sol\":8745:8746  0 */\n      0x00\n        /* \"CryptoFairHero/HeroV1Game.sol\":8729:8742  _charityTotal */\n      sload(0x17)\n        /* \"CryptoFairHero/HeroV1Game.sol\":8729:8746  _charityTotal > 0 */\n      gt\n        /* \"CryptoFairHero/HeroV1Game.sol\":8725:9025  if (_charityTotal > 0) {... */\n      iszero\n      tag_409\n      jumpi\n        /* \"CryptoFairHero/HeroV1Game.sol\":8762:8772  uint256 _c */\n      0x00\n        /* \"CryptoFairHero/HeroV1Game.sol\":8775:8788  _charityTotal */\n      sload(0x17)\n        /* \"CryptoFairHero/HeroV1Game.sol\":8762:8788  uint256 _c = _charityTotal */\n      swap1\n      pop\n        /* \"CryptoFairHero/HeroV1Game.sol\":8818:8819  0 */\n      0x00\n        /* \"CryptoFairHero/HeroV1Game.sol\":8802:8815  _charityTotal */\n      0x17\n        /* \"CryptoFairHero/HeroV1Game.sol\":8802:8819  _charityTotal = 0 */\n      dup2\n      swap1\n      sstore\n      pop\n        /* \"CryptoFairHero/HeroV1Game.sol\":8833:8846  bool _success */\n      0x00\n        /* \"CryptoFairHero/HeroV1Game.sol\":8849:8872  _sendValue(charity, _c) */\n      tag_410\n        /* \"CryptoFairHero/HeroV1Game.sol\":8860:8867  charity */\n      0x10\n      0x00\n      swap1\n      sload\n      swap1\n      0x0100\n      exp\n      swap1\n      div\n      0xffffffffffffffffffffffffffffffffffffffff\n      and\n        /* \"CryptoFairHero/HeroV1Game.sol\":8869:8871  _c */\n      dup4\n        /* \"CryptoFairHero/HeroV1Game.sol\":8849:8859  _sendValue */\n      tag_252\n        /* \"CryptoFairHero/HeroV1Game.sol\":8849:8872  _sendValue(charity, _c) */\n      jump\t// in\n    tag_410:\n        /* \"CryptoFairHero/HeroV1Game.sol\":8833:8872  bool _success = _sendValue(charity, _c) */\n      swap1\n      pop\n        /* \"CryptoFairHero/HeroV1Game.sol\":8890:8898  _success */\n      dup1\n        /* \"CryptoFairHero/HeroV1Game.sol\":8886:9015  if (_success) {... */\n      iszero\n      tag_411\n      jumpi\n        /* \"CryptoFairHero/HeroV1Game.sol\":8931:8938  charity */\n      0x10\n      0x00\n      swap1\n      sload\n      swap1\n      0x0100\n      exp\n      swap1\n      div\n      0xffffffffffffffffffffffffffffffffffffffff\n      and\n        /* \"CryptoFairHero/HeroV1Game.sol\":8923:8943  Charity(charity, _c) */\n      0xffffffffffffffffffffffffffffffffffffffff\n      and\n      0x3107c1db8334b554700bd3d959498d607593240ca76167f1503aa75770bd5320\n        /* \"CryptoFairHero/HeroV1Game.sol\":8940:8942  _c */\n      dup4\n        /* \"CryptoFairHero/HeroV1Game.sol\":8923:8943  Charity(charity, _c) */\n      mload(0x40)\n      tag_412\n      swap2\n      swap1\n      tag_75\n      jump\t// in\n    tag_412:\n      mload(0x40)\n      dup1\n      swap2\n      sub\n      swap1\n      log2\n        /* \"CryptoFairHero/HeroV1Game.sol\":8886:9015  if (_success) {... */\n      jump(tag_413)\n    tag_411:\n        /* \"CryptoFairHero/HeroV1Game.sol\":8998:9000  _c */\n      dup2\n        /* \"CryptoFairHero/HeroV1Game.sol\":8982:8995  _charityTotal */\n      0x17\n        /* \"CryptoFairHero/HeroV1Game.sol\":8982:9000  _charityTotal = _c */\n      dup2\n      swap1\n      sstore\n      pop\n        /* \"CryptoFairHero/HeroV1Game.sol\":8886:9015  if (_success) {... */\n    tag_413:\n        /* \"CryptoFairHero/HeroV1Game.sol\":8748:9025  {... */\n      pop\n      pop\n        /* \"CryptoFairHero/HeroV1Game.sol\":8725:9025  if (_charityTotal > 0) {... */\n    tag_409:\n        /* \"CryptoFairHero/HeroV1Game.sol\":8576:9031  {... */\n      pop\n        /* \"CryptoFairHero/HeroV1Game.sol\":8526:9031  function getWinnerReward() external whenNotPaused {... */\n      jump\t// out\n        /* \"CryptoFairHero/HeroV1Game.sol\":4114:5054  function joinGame(uint256 _amount, address _referrer) external payable whenNotPaused {... */\n    tag_170:\n        /* \"@openzeppelin/contracts@4.8.3/security/Pausable.sol\":1239:1258  _requireNotPaused() */\n      tag_415\n        /* \"@openzeppelin/contracts@4.8.3/security/Pausable.sol\":1239:1256  _requireNotPaused */\n      tag_220\n        /* \"@openzeppelin/contracts@4.8.3/security/Pausable.sol\":1239:1258  _requireNotPaused() */\n      jump\t// in\n    tag_415:\n        /* \"CryptoFairHero/HeroV1Game.sol\":4236:4247  _gameStatus */\n      0x1a\n      0x00\n      swap1\n      sload\n      swap1\n      0x0100\n      exp\n      swap1\n      div\n      0xff\n      and\n        /* \"CryptoFairHero/HeroV1Game.sol\":4217:4247  GameStatus.Open == _gameStatus */\n      0x05\n      dup2\n      gt\n      iszero\n      tag_417\n      jumpi\n      tag_418\n      tag_202\n      jump\t// in\n    tag_418:\n    tag_417:\n        /* \"CryptoFairHero/HeroV1Game.sol\":4217:4232  GameStatus.Open */\n      0x01\n        /* \"CryptoFairHero/HeroV1Game.sol\":4217:4247  GameStatus.Open == _gameStatus */\n      0x05\n      dup2\n      gt\n      iszero\n      tag_419\n      jumpi\n      tag_420\n      tag_202\n      jump\t// in\n    tag_420:\n    tag_419:\n      eq\n        /* \"CryptoFairHero/HeroV1Game.sol\":4209:4248  require(GameStatus.Open == _gameStatus) */\n      tag_421\n      jumpi\n      0x00\n      dup1\n      revert\n    tag_421:\n        /* \"CryptoFairHero/HeroV1Game.sol\":4280:4306  _getValueOrRevert(_amount) */\n      tag_422\n        /* \"CryptoFairHero/HeroV1Game.sol\":4298:4305  _amount */\n      dup3\n        /* \"CryptoFairHero/HeroV1Game.sol\":4280:4297  _getValueOrRevert */\n      tag_325\n        /* \"CryptoFairHero/HeroV1Game.sol\":4280:4306  _getValueOrRevert(_amount) */\n      jump\t// in\n    tag_422:\n        /* \"CryptoFairHero/HeroV1Game.sol\":4270:4306  _amount = _getValueOrRevert(_amount) */\n      swap2\n      pop\n        /* \"CryptoFairHero/HeroV1Game.sol\":4367:4377  msg.sender */\n      caller\n        /* \"CryptoFairHero/HeroV1Game.sol\":4362:4387  Join(msg.sender, _amount) */\n      0xffffffffffffffffffffffffffffffffffffffff\n      and\n      0xb4e09949657f21548b58afe74e7b86cd2295da5ff1598ae1e5faecb1cf19ca95\n        /* \"CryptoFairHero/HeroV1Game.sol\":4379:4386  _amount */\n      dup4\n        /* \"CryptoFairHero/HeroV1Game.sol\":4362:4387  Join(msg.sender, _amount) */\n      mload(0x40)\n      tag_423\n      swap2\n      swap1\n      tag_75\n      jump\t// in\n    tag_423:\n      mload(0x40)\n      dup1\n      swap2\n      sub\n      swap1\n      log2\n        /* \"CryptoFairHero/HeroV1Game.sol\":4416:4425  _referrer */\n      dup1\n        /* \"CryptoFairHero/HeroV1Game.sol\":4402:4425  address(0) != _referrer */\n      0xffffffffffffffffffffffffffffffffffffffff\n      and\n        /* \"CryptoFairHero/HeroV1Game.sol\":4410:4411  0 */\n      0x00\n        /* \"CryptoFairHero/HeroV1Game.sol\":4402:4425  address(0) != _referrer */\n      0xffffffffffffffffffffffffffffffffffffffff\n      and\n      eq\n        /* \"CryptoFairHero/HeroV1Game.sol\":4398:4757  if (address(0) != _referrer) {... */\n      tag_424\n      jumpi\n        /* \"CryptoFairHero/HeroV1Game.sol\":4441:4457  uint256  _reward */\n      0x00\n        /* \"CryptoFairHero/HeroV1Game.sol\":4501:4504  100 */\n      0x64\n        /* \"CryptoFairHero/HeroV1Game.sol\":4472:4480  gameInfo */\n      0x03\n        /* \"CryptoFairHero/HeroV1Game.sol\":4472:4497  gameInfo.referrPercentage */\n      0x08\n      add\n      0x01\n      swap1\n      sload\n      swap1\n      0x0100\n      exp\n      swap1\n      div\n      0xff\n      and\n        /* \"CryptoFairHero/HeroV1Game.sol\":4462:4497  _amount * gameInfo.referrPercentage */\n      0xff\n      and\n        /* \"CryptoFairHero/HeroV1Game.sol\":4462:4469  _amount */\n      dup5\n        /* \"CryptoFairHero/HeroV1Game.sol\":4462:4497  _amount * gameInfo.referrPercentage */\n      tag_425\n      swap2\n      swap1\n      tag_376\n      jump\t// in\n    tag_425:\n        /* \"CryptoFairHero/HeroV1Game.sol\":4461:4504  (_amount * gameInfo.referrPercentage) / 100 */\n      tag_426\n      swap2\n      swap1\n      tag_378\n      jump\t// in\n    tag_426:\n        /* \"CryptoFairHero/HeroV1Game.sol\":4441:4504  uint256  _reward =  (_amount * gameInfo.referrPercentage) / 100 */\n      swap1\n      pop\n        /* \"CryptoFairHero/HeroV1Game.sol\":4526:4533  _reward */\n      dup1\n        /* \"CryptoFairHero/HeroV1Game.sol\":4522:4523  0 */\n      0x00\n        /* \"CryptoFairHero/HeroV1Game.sol\":4522:4533  0 < _reward */\n      lt\n        /* \"CryptoFairHero/HeroV1Game.sol\":4518:4747  if (0 < _reward) {... */\n      iszero\n      tag_427\n      jumpi\n        /* \"CryptoFairHero/HeroV1Game.sol\":4572:4579  _reward */\n      dup1\n        /* \"CryptoFairHero/HeroV1Game.sol\":4553:4568  _referrerReward */\n      0x19\n      0x00\n        /* \"CryptoFairHero/HeroV1Game.sol\":4553:4579  _referrerReward += _reward */\n      dup3\n      dup3\n      sload\n      tag_428\n      swap2\n      swap1\n      tag_255\n      jump\t// in\n    tag_428:\n      swap3\n      pop\n      pop\n      dup2\n      swap1\n      sstore\n      pop\n        /* \"CryptoFairHero/HeroV1Game.sol\":4621:4628  _reward */\n      dup1\n        /* \"CryptoFairHero/HeroV1Game.sol\":4597:4606  referrers */\n      0x15\n        /* \"CryptoFairHero/HeroV1Game.sol\":4597:4617  referrers[_referrer] */\n      0x00\n        /* \"CryptoFairHero/HeroV1Game.sol\":4607:4616  _referrer */\n      dup5\n        /* \"CryptoFairHero/HeroV1Game.sol\":4597:4617  referrers[_referrer] */\n      0xffffffffffffffffffffffffffffffffffffffff\n      and\n      0xffffffffffffffffffffffffffffffffffffffff\n      and\n      dup2\n      mstore\n      0x20\n      add\n      swap1\n      dup2\n      mstore\n      0x20\n      add\n      0x00\n      keccak256\n      0x00\n        /* \"CryptoFairHero/HeroV1Game.sol\":4597:4628  referrers[_referrer] += _reward */\n      dup3\n      dup3\n      sload\n      tag_429\n      swap2\n      swap1\n      tag_255\n      jump\t// in\n    tag_429:\n      swap3\n      pop\n      pop\n      dup2\n      swap1\n      sstore\n      pop\n        /* \"CryptoFairHero/HeroV1Game.sol\":4674:4681  _reward */\n      dup1\n        /* \"CryptoFairHero/HeroV1Game.sol\":4646:4654  gameInfo */\n      0x03\n        /* \"CryptoFairHero/HeroV1Game.sol\":4646:4670  gameInfo._referrerReward */\n      0x07\n      add\n      0x00\n        /* \"CryptoFairHero/HeroV1Game.sol\":4646:4681  gameInfo._referrerReward += _reward */\n      dup3\n      dup3\n      sload\n      tag_430\n      swap2\n      swap1\n      tag_255\n      jump\t// in\n    tag_430:\n      swap3\n      pop\n      pop\n      dup2\n      swap1\n      sstore\n      pop\n        /* \"CryptoFairHero/HeroV1Game.sol\":4713:4722  _referrer */\n      dup2\n        /* \"CryptoFairHero/HeroV1Game.sol\":4704:4732  Referrer(_referrer, _reward) */\n      0xffffffffffffffffffffffffffffffffffffffff\n      and\n      0x9f4d5cdfa29df376c0cd1ead03d27651f119d11cbb43b5a6a7b87cc02f6b414a\n        /* \"CryptoFairHero/HeroV1Game.sol\":4724:4731  _reward */\n      dup3\n        /* \"CryptoFairHero/HeroV1Game.sol\":4704:4732  Referrer(_referrer, _reward) */\n      mload(0x40)\n      tag_431\n      swap2\n      swap1\n      tag_75\n      jump\t// in\n    tag_431:\n      mload(0x40)\n      dup1\n      swap2\n      sub\n      swap1\n      log2\n        /* \"CryptoFairHero/HeroV1Game.sol\":4518:4747  if (0 < _reward) {... */\n    tag_427:\n        /* \"CryptoFairHero/HeroV1Game.sol\":4427:4757  {... */\n      pop\n        /* \"CryptoFairHero/HeroV1Game.sol\":4398:4757  if (address(0) != _referrer) {... */\n    tag_424:\n        /* \"CryptoFairHero/HeroV1Game.sol\":4819:4826  _amount */\n      dup2\n        /* \"CryptoFairHero/HeroV1Game.sol\":4805:4815  _joinTotal */\n      0x16\n      0x00\n        /* \"CryptoFairHero/HeroV1Game.sol\":4805:4826  _joinTotal += _amount */\n      dup3\n      dup3\n      sload\n      tag_432\n      swap2\n      swap1\n      tag_255\n      jump\t// in\n    tag_432:\n      swap3\n      pop\n      pop\n      dup2\n      swap1\n      sstore\n      pop\n        /* \"CryptoFairHero/HeroV1Game.sol\":4875:4885  _joinTotal */\n      sload(0x16)\n        /* \"CryptoFairHero/HeroV1Game.sol\":4853:4861  gameInfo */\n      0x03\n        /* \"CryptoFairHero/HeroV1Game.sol\":4853:4872  gameInfo._joinTotal */\n      0x04\n      add\n        /* \"CryptoFairHero/HeroV1Game.sol\":4853:4885  gameInfo._joinTotal = _joinTotal */\n      dup2\n      swap1\n      sstore\n      pop\n        /* \"CryptoFairHero/HeroV1Game.sol\":4922:4929  _amount */\n      dup2\n        /* \"CryptoFairHero/HeroV1Game.sol\":4895:4906  playerTotal */\n      0x14\n        /* \"CryptoFairHero/HeroV1Game.sol\":4895:4918  playerTotal[msg.sender] */\n      0x00\n        /* \"CryptoFairHero/HeroV1Game.sol\":4907:4917  msg.sender */\n      caller\n        /* \"CryptoFairHero/HeroV1Game.sol\":4895:4918  playerTotal[msg.sender] */\n      0xffffffffffffffffffffffffffffffffffffffff\n      and\n      0xffffffffffffffffffffffffffffffffffffffff\n      and\n      dup2\n      mstore\n      0x20\n      add\n      swap1\n      dup2\n      mstore\n      0x20\n      add\n      0x00\n      keccak256\n      0x00\n        /* \"CryptoFairHero/HeroV1Game.sol\":4895:4929  playerTotal[msg.sender] += _amount */\n      dup3\n      dup3\n      sload\n      tag_433\n      swap2\n      swap1\n      tag_255\n      jump\t// in\n    tag_433:\n      swap3\n      pop\n      pop\n      dup2\n      swap1\n      sstore\n      pop\n        /* \"CryptoFairHero/HeroV1Game.sol\":4972:4979  players */\n      0x13\n        /* \"CryptoFairHero/HeroV1Game.sol\":4985:5032  PlayerInfo({addr: msg.sender, amount: _amount}) */\n      mload(0x40)\n      dup1\n      0x40\n      add\n      0x40\n      mstore\n      dup1\n        /* \"CryptoFairHero/HeroV1Game.sol\":5023:5030  _amount */\n      dup5\n        /* \"CryptoFairHero/HeroV1Game.sol\":4985:5032  PlayerInfo({addr: msg.sender, amount: _amount}) */\n      dup2\n      mstore\n      0x20\n      add\n        /* \"CryptoFairHero/HeroV1Game.sol\":5003:5013  msg.sender */\n      caller\n        /* \"CryptoFairHero/HeroV1Game.sol\":4985:5032  PlayerInfo({addr: msg.sender, amount: _amount}) */\n      0xffffffffffffffffffffffffffffffffffffffff\n      and\n      dup2\n      mstore\n      pop\n        /* \"CryptoFairHero/HeroV1Game.sol\":4972:5033  players.push(PlayerInfo({addr: msg.sender, amount: _amount})) */\n      swap1\n      dup1\n      0x01\n      dup2\n      sload\n      add\n      dup1\n      dup3\n      sstore\n      dup1\n      swap2\n      pop\n      pop\n      0x01\n      swap1\n      sub\n      swap1\n      0x00\n      mstore\n      keccak256(0x00, 0x20)\n      swap1\n      0x02\n      mul\n      add\n      0x00\n      swap1\n      swap2\n      swap1\n      swap2\n      swap1\n      swap2\n      pop\n      0x00\n      dup3\n      add\n      mload\n      dup2\n      0x00\n      add\n      sstore\n      0x20\n      dup3\n      add\n      mload\n      dup2\n      0x01\n      add\n      exp(0x0100, 0x00)\n      dup2\n      sload\n      dup2\n      0xffffffffffffffffffffffffffffffffffffffff\n      mul\n      not\n      and\n      swap1\n      dup4\n      0xffffffffffffffffffffffffffffffffffffffff\n      and\n      mul\n      or\n      swap1\n      sstore\n      pop\n      pop\n      pop\n        /* \"CryptoFairHero/HeroV1Game.sol\":4114:5054  function joinGame(uint256 _amount, address _referrer) external payable whenNotPaused {... */\n      pop\n      pop\n      jump\t// out\n        /* \"CryptoFairHero/HeroV1Game.sol\":1157:1184  PlayerInfo[] public players */\n    tag_175:\n      0x13\n      dup2\n      dup2\n      sload\n      dup2\n      lt\n      tag_435\n      jumpi\n      0x00\n      dup1\n      revert\n    tag_435:\n      swap1\n      0x00\n      mstore\n      keccak256(0x00, 0x20)\n      swap1\n      0x02\n      mul\n      add\n      0x00\n      swap2\n      pop\n      swap1\n      pop\n      dup1\n      0x00\n      add\n      sload\n      swap1\n      dup1\n      0x01\n      add\n      0x00\n      swap1\n      sload\n      swap1\n      0x0100\n      exp\n      swap1\n      div\n      0xffffffffffffffffffffffffffffffffffffffff\n      and\n      swap1\n      pop\n      dup3\n      jump\t// out\n        /* \"CryptoFairHero/HeroV1Game.sol\":1016:1036  address public token */\n    tag_180:\n      0x0e\n      0x00\n      swap1\n      sload\n      swap1\n      0x0100\n      exp\n      swap1\n      div\n      0xffffffffffffffffffffffffffffffffffffffff\n      and\n      dup2\n      jump\t// out\n        /* \"@openzeppelin/contracts@4.8.3/utils/introspection/ERC165.sol\":829:984  function supportsInterface(bytes4 interfaceId) public view virtual override returns (bool) {... */\n    tag_185:\n        /* \"@openzeppelin/contracts@4.8.3/utils/introspection/ERC165.sol\":914:918  bool */\n      0x00\n        /* \"@openzeppelin/contracts@4.8.3/utils/introspection/ERC165.sol\":952:977  type(IERC165).interfaceId */\n      0x01ffc9a700000000000000000000000000000000000000000000000000000000\n        /* \"@openzeppelin/contracts@4.8.3/utils/introspection/ERC165.sol\":937:977  interfaceId == type(IERC165).interfaceId */\n      not(0xffffffffffffffffffffffffffffffffffffffffffffffffffffffff)\n      and\n        /* \"@openzeppelin/contracts@4.8.3/utils/introspection/ERC165.sol\":937:948  interfaceId */\n      dup3\n        /* \"@openzeppelin/contracts@4.8.3/utils/introspection/ERC165.sol\":937:977  interfaceId == type(IERC165).interfaceId */\n      not(0xffffffffffffffffffffffffffffffffffffffffffffffffffffffff)\n      and\n      eq\n        /* \"@openzeppelin/contracts@4.8.3/utils/introspection/ERC165.sol\":930:977  return interfaceId == type(IERC165).interfaceId */\n      swap1\n      pop\n        /* \"@openzeppelin/contracts@4.8.3/utils/introspection/ERC165.sol\":829:984  function supportsInterface(bytes4 interfaceId) public view virtual override returns (bool) {... */\n      swap2\n      swap1\n      pop\n      jump\t// out\n        /* \"@openzeppelin/contracts@4.8.3/access/AccessControl.sol\":3334:3437  function _checkRole(bytes32 role) internal view virtual {... */\n    tag_190:\n        /* \"@openzeppelin/contracts@4.8.3/access/AccessControl.sol\":3400:3430  _checkRole(role, _msgSender()) */\n      tag_439\n        /* \"@openzeppelin/contracts@4.8.3/access/AccessControl.sol\":3411:3415  role */\n      dup2\n        /* \"@openzeppelin/contracts@4.8.3/access/AccessControl.sol\":3417:3429  _msgSender() */\n      tag_440\n        /* \"@openzeppelin/contracts@4.8.3/access/AccessControl.sol\":3417:3427  _msgSender */\n      tag_207\n        /* \"@openzeppelin/contracts@4.8.3/access/AccessControl.sol\":3417:3429  _msgSender() */\n      jump\t// in\n    tag_440:\n        /* \"@openzeppelin/contracts@4.8.3/access/AccessControl.sol\":3400:3410  _checkRole */\n      tag_441\n        /* \"@openzeppelin/contracts@4.8.3/access/AccessControl.sol\":3400:3430  _checkRole(role, _msgSender()) */\n      jump\t// in\n    tag_439:\n        /* \"@openzeppelin/contracts@4.8.3/access/AccessControl.sol\":3334:3437  function _checkRole(bytes32 role) internal view virtual {... */\n      pop\n      jump\t// out\n        /* \"@openzeppelin/contracts@4.8.3/access/AccessControl.sol\":7461:7694  function _grantRole(bytes32 role, address account) internal virtual {... */\n    tag_193:\n        /* \"@openzeppelin/contracts@4.8.3/access/AccessControl.sol\":7544:7566  hasRole(role, account) */\n      tag_443\n        /* \"@openzeppelin/contracts@4.8.3/access/AccessControl.sol\":7552:7556  role */\n      dup3\n        /* \"@openzeppelin/contracts@4.8.3/access/AccessControl.sol\":7558:7565  account */\n      dup3\n        /* \"@openzeppelin/contracts@4.8.3/access/AccessControl.sol\":7544:7551  hasRole */\n      tag_112\n        /* \"@openzeppelin/contracts@4.8.3/access/AccessControl.sol\":7544:7566  hasRole(role, account) */\n      jump\t// in\n    tag_443:\n        /* \"@openzeppelin/contracts@4.8.3/access/AccessControl.sol\":7539:7688  if (!hasRole(role, account)) {... */\n      tag_444\n      jumpi\n        /* \"@openzeppelin/contracts@4.8.3/access/AccessControl.sol\":7614:7618  true */\n      0x01\n        /* \"@openzeppelin/contracts@4.8.3/access/AccessControl.sol\":7582:7588  _roles */\n      0x00\n        /* \"@openzeppelin/contracts@4.8.3/access/AccessControl.sol\":7582:7594  _roles[role] */\n      dup1\n        /* \"@openzeppelin/contracts@4.8.3/access/AccessControl.sol\":7589:7593  role */\n      dup5\n        /* \"@openzeppelin/contracts@4.8.3/access/AccessControl.sol\":7582:7594  _roles[role] */\n      dup2\n      mstore\n      0x20\n      add\n      swap1\n      dup2\n      mstore\n      0x20\n      add\n      0x00\n      keccak256\n        /* \"@openzeppelin/contracts@4.8.3/access/AccessControl.sol\":7582:7602  _roles[role].members */\n      0x00\n      add\n        /* \"@openzeppelin/contracts@4.8.3/access/AccessControl.sol\":7582:7611  _roles[role].members[account] */\n      0x00\n        /* \"@openzeppelin/contracts@4.8.3/access/AccessControl.sol\":7603:7610  account */\n      dup4\n        /* \"@openzeppelin/contracts@4.8.3/access/AccessControl.sol\":7582:7611  _roles[role].members[account] */\n      0xffffffffffffffffffffffffffffffffffffffff\n      and\n      0xffffffffffffffffffffffffffffffffffffffff\n      and\n      dup2\n      mstore\n      0x20\n      add\n      swap1\n      dup2\n      mstore\n      0x20\n      add\n      0x00\n      keccak256\n      0x00\n        /* \"@openzeppelin/contracts@4.8.3/access/AccessControl.sol\":7582:7618  _roles[role].members[account] = true */\n      0x0100\n      exp\n      dup2\n      sload\n      dup2\n      0xff\n      mul\n      not\n      and\n      swap1\n      dup4\n      iszero\n      iszero\n      mul\n      or\n      swap1\n      sstore\n      pop\n        /* \"@openzeppelin/contracts@4.8.3/access/AccessControl.sol\":7664:7676  _msgSender() */\n      tag_445\n        /* \"@openzeppelin/contracts@4.8.3/access/AccessControl.sol\":7664:7674  _msgSender */\n      tag_207\n        /* \"@openzeppelin/contracts@4.8.3/access/AccessControl.sol\":7664:7676  _msgSender() */\n      jump\t// in\n    tag_445:\n        /* \"@openzeppelin/contracts@4.8.3/access/AccessControl.sol\":7637:7677  RoleGranted(role, account, _msgSender()) */\n      0xffffffffffffffffffffffffffffffffffffffff\n      and\n        /* \"@openzeppelin/contracts@4.8.3/access/AccessControl.sol\":7655:7662  account */\n      dup2\n        /* \"@openzeppelin/contracts@4.8.3/access/AccessControl.sol\":7637:7677  RoleGranted(role, account, _msgSender()) */\n      0xffffffffffffffffffffffffffffffffffffffff\n      and\n        /* \"@openzeppelin/contracts@4.8.3/access/AccessControl.sol\":7649:7653  role */\n      dup4\n        /* \"@openzeppelin/contracts@4.8.3/access/AccessControl.sol\":7637:7677  RoleGranted(role, account, _msgSender()) */\n      0x2f8788117e7eff1d82e926ec794901d17c78024a50270940304540a733656f0d\n      mload(0x40)\n      mload(0x40)\n      dup1\n      swap2\n      sub\n      swap1\n      log4\n        /* \"@openzeppelin/contracts@4.8.3/access/AccessControl.sol\":7539:7688  if (!hasRole(role, account)) {... */\n    tag_444:\n        /* \"@openzeppelin/contracts@4.8.3/access/AccessControl.sol\":7461:7694  function _grantRole(bytes32 role, address account) internal virtual {... */\n      pop\n      pop\n      jump\t// out\n        /* \"@openzeppelin/contracts@4.8.3/security/Pausable.sol\":1945:2051  function _requirePaused() internal view virtual {... */\n    tag_198:\n        /* \"@openzeppelin/contracts@4.8.3/security/Pausable.sol\":2011:2019  paused() */\n      tag_447\n        /* \"@openzeppelin/contracts@4.8.3/security/Pausable.sol\":2011:2017  paused */\n      tag_99\n        /* \"@openzeppelin/contracts@4.8.3/security/Pausable.sol\":2011:2019  paused() */\n      jump\t// in\n    tag_447:\n        /* \"@openzeppelin/contracts@4.8.3/security/Pausable.sol\":2003:2044  require(paused(), \"Pausable: not paused\") */\n      tag_448\n      jumpi\n      mload(0x40)\n      0x08c379a000000000000000000000000000000000000000000000000000000000\n      dup2\n      mstore\n      0x04\n      add\n      tag_449\n      swap1\n      tag_450\n      jump\t// in\n    tag_449:\n      mload(0x40)\n      dup1\n      swap2\n      sub\n      swap1\n      revert\n    tag_448:\n        /* \"@openzeppelin/contracts@4.8.3/security/Pausable.sol\":1945:2051  function _requirePaused() internal view virtual {... */\n      jump\t// out\n        /* \"@openzeppelin/contracts@4.8.3/security/Pausable.sol\":2433:2550  function _unpause() internal virtual whenPaused {... */\n    tag_204:\n        /* \"@openzeppelin/contracts@4.8.3/security/Pausable.sol\":1486:1502  _requirePaused() */\n      tag_452\n        /* \"@openzeppelin/contracts@4.8.3/security/Pausable.sol\":1486:1500  _requirePaused */\n      tag_198\n        /* \"@openzeppelin/contracts@4.8.3/security/Pausable.sol\":1486:1502  _requirePaused() */\n      jump\t// in\n    tag_452:\n        /* \"@openzeppelin/contracts@4.8.3/security/Pausable.sol\":2501:2506  false */\n      0x00\n        /* \"@openzeppelin/contracts@4.8.3/security/Pausable.sol\":2491:2498  _paused */\n      0x01\n      0x00\n        /* \"@openzeppelin/contracts@4.8.3/security/Pausable.sol\":2491:2506  _paused = false */\n      0x0100\n      exp\n      dup2\n      sload\n      dup2\n      0xff\n      mul\n      not\n      and\n      swap1\n      dup4\n      iszero\n      iszero\n      mul\n      or\n      swap1\n      sstore\n      pop\n        /* \"@openzeppelin/contracts@4.8.3/security/Pausable.sol\":2521:2543  Unpaused(_msgSender()) */\n      0x5db9ee0a495bf2e6ff9c91a7834c1ba4fdd244a5e8aa4e537bd38aeae4b073aa\n        /* \"@openzeppelin/contracts@4.8.3/security/Pausable.sol\":2530:2542  _msgSender() */\n      tag_454\n        /* \"@openzeppelin/contracts@4.8.3/security/Pausable.sol\":2530:2540  _msgSender */\n      tag_207\n        /* \"@openzeppelin/contracts@4.8.3/security/Pausable.sol\":2530:2542  _msgSender() */\n      jump\t// in\n    tag_454:\n        /* \"@openzeppelin/contracts@4.8.3/security/Pausable.sol\":2521:2543  Unpaused(_msgSender()) */\n      mload(0x40)\n      tag_455\n      swap2\n      swap1\n      tag_53\n      jump\t// in\n    tag_455:\n      mload(0x40)\n      dup1\n      swap2\n      sub\n      swap1\n      log1\n        /* \"@openzeppelin/contracts@4.8.3/security/Pausable.sol\":2433:2550  function _unpause() internal virtual whenPaused {... */\n      jump\t// out\n        /* \"@openzeppelin/contracts@4.8.3/utils/Context.sol\":640:736  function _msgSender() internal view virtual returns (address) {... */\n    tag_207:\n        /* \"@openzeppelin/contracts@4.8.3/utils/Context.sol\":693:700  address */\n      0x00\n        /* \"@openzeppelin/contracts@4.8.3/utils/Context.sol\":719:729  msg.sender */\n      caller\n        /* \"@openzeppelin/contracts@4.8.3/utils/Context.sol\":712:729  return msg.sender */\n      swap1\n      pop\n        /* \"@openzeppelin/contracts@4.8.3/utils/Context.sol\":640:736  function _msgSender() internal view virtual returns (address) {... */\n      swap1\n      jump\t// out\n        /* \"@openzeppelin/contracts@4.8.3/access/AccessControl.sol\":7865:8099  function _revokeRole(bytes32 role, address account) internal virtual {... */\n    tag_212:\n        /* \"@openzeppelin/contracts@4.8.3/access/AccessControl.sol\":7948:7970  hasRole(role, account) */\n      tag_458\n        /* \"@openzeppelin/contracts@4.8.3/access/AccessControl.sol\":7956:7960  role */\n      dup3\n        /* \"@openzeppelin/contracts@4.8.3/access/AccessControl.sol\":7962:7969  account */\n      dup3\n        /* \"@openzeppelin/contracts@4.8.3/access/AccessControl.sol\":7948:7955  hasRole */\n      tag_112\n        /* \"@openzeppelin/contracts@4.8.3/access/AccessControl.sol\":7948:7970  hasRole(role, account) */\n      jump\t// in\n    tag_458:\n        /* \"@openzeppelin/contracts@4.8.3/access/AccessControl.sol\":7944:8093  if (hasRole(role, account)) {... */\n      iszero\n      tag_459\n      jumpi\n        /* \"@openzeppelin/contracts@4.8.3/access/AccessControl.sol\":8018:8023  false */\n      0x00\n        /* \"@openzeppelin/contracts@4.8.3/access/AccessControl.sol\":7986:7992  _roles */\n      dup1\n        /* \"@openzeppelin/contracts@4.8.3/access/AccessControl.sol\":7986:7998  _roles[role] */\n      0x00\n        /* \"@openzeppelin/contracts@4.8.3/access/AccessControl.sol\":7993:7997  role */\n      dup5\n        /* \"@openzeppelin/contracts@4.8.3/access/AccessControl.sol\":7986:7998  _roles[role] */\n      dup2\n      mstore\n      0x20\n      add\n      swap1\n      dup2\n      mstore\n      0x20\n      add\n      0x00\n      keccak256\n        /* \"@openzeppelin/contracts@4.8.3/access/AccessControl.sol\":7986:8006  _roles[role].members */\n      0x00\n      add\n        /* \"@openzeppelin/contracts@4.8.3/access/AccessControl.sol\":7986:8015  _roles[role].members[account] */\n      0x00\n        /* \"@openzeppelin/contracts@4.8.3/access/AccessControl.sol\":8007:8014  account */\n      dup4\n        /* \"@openzeppelin/contracts@4.8.3/access/AccessControl.sol\":7986:8015  _roles[role].members[account] */\n      0xffffffffffffffffffffffffffffffffffffffff\n      and\n      0xffffffffffffffffffffffffffffffffffffffff\n      and\n      dup2\n      mstore\n      0x20\n      add\n      swap1\n      dup2\n      mstore\n      0x20\n      add\n      0x00\n      keccak256\n      0x00\n        /* \"@openzeppelin/contracts@4.8.3/access/AccessControl.sol\":7986:8023  _roles[role].members[account] = false */\n      0x0100\n      exp\n      dup2\n      sload\n      dup2\n      0xff\n      mul\n      not\n      and\n      swap1\n      dup4\n      iszero\n      iszero\n      mul\n      or\n      swap1\n      sstore\n      pop\n        /* \"@openzeppelin/contracts@4.8.3/access/AccessControl.sol\":8069:8081  _msgSender() */\n      tag_460\n        /* \"@openzeppelin/contracts@4.8.3/access/AccessControl.sol\":8069:8079  _msgSender */\n      tag_207\n        /* \"@openzeppelin/contracts@4.8.3/access/AccessControl.sol\":8069:8081  _msgSender() */\n      jump\t// in\n    tag_460:\n        /* \"@openzeppelin/contracts@4.8.3/access/AccessControl.sol\":8042:8082  RoleRevoked(role, account, _msgSender()) */\n      0xffffffffffffffffffffffffffffffffffffffff\n      and\n        /* \"@openzeppelin/contracts@4.8.3/access/AccessControl.sol\":8060:8067  account */\n      dup2\n        /* \"@openzeppelin/contracts@4.8.3/access/AccessControl.sol\":8042:8082  RoleRevoked(role, account, _msgSender()) */\n      0xffffffffffffffffffffffffffffffffffffffff\n      and\n        /* \"@openzeppelin/contracts@4.8.3/access/AccessControl.sol\":8054:8058  role */\n      dup4\n        /* \"@openzeppelin/contracts@4.8.3/access/AccessControl.sol\":8042:8082  RoleRevoked(role, account, _msgSender()) */\n      0xf6391f5c32d9c69d2a47ea670b442974b53935d1edc7fd64eb21e047a839171b\n      mload(0x40)\n      mload(0x40)\n      dup1\n      swap2\n      sub\n      swap1\n      log4\n        /* \"@openzeppelin/contracts@4.8.3/access/AccessControl.sol\":7944:8093  if (hasRole(role, account)) {... */\n    tag_459:\n        /* \"@openzeppelin/contracts@4.8.3/access/AccessControl.sol\":7865:8099  function _revokeRole(bytes32 role, address account) internal virtual {... */\n      pop\n      pop\n      jump\t// out\n        /* \"CryptoFairHero/HeroV1Game.sol\":9899:10121  function _balance() internal view returns (uint256) {... */\n    tag_215:\n        /* \"CryptoFairHero/HeroV1Game.sol\":9942:9949  uint256 */\n      0x00\n        /* \"CryptoFairHero/HeroV1Game.sol\":9979:9984  token */\n      0x0e\n      0x00\n      swap1\n      sload\n      swap1\n      0x0100\n      exp\n      swap1\n      div\n      0xffffffffffffffffffffffffffffffffffffffff\n      and\n        /* \"CryptoFairHero/HeroV1Game.sol\":9965:9984  address(0) != token */\n      0xffffffffffffffffffffffffffffffffffffffff\n      and\n        /* \"CryptoFairHero/HeroV1Game.sol\":9973:9974  0 */\n      0x00\n        /* \"CryptoFairHero/HeroV1Game.sol\":9965:9984  address(0) != token */\n      0xffffffffffffffffffffffffffffffffffffffff\n      and\n      eq\n        /* \"CryptoFairHero/HeroV1Game.sol\":9961:10115  if (address(0) != token) {... */\n      tag_462\n      jumpi\n        /* \"CryptoFairHero/HeroV1Game.sol\":10014:10019  token */\n      0x0e\n      0x00\n      swap1\n      sload\n      swap1\n      0x0100\n      exp\n      swap1\n      div\n      0xffffffffffffffffffffffffffffffffffffffff\n      and\n        /* \"CryptoFairHero/HeroV1Game.sol\":10007:10030  IERC20(token).balanceOf */\n      0xffffffffffffffffffffffffffffffffffffffff\n      and\n      0x70a08231\n        /* \"CryptoFairHero/HeroV1Game.sol\":10039:10043  this */\n      address\n        /* \"CryptoFairHero/HeroV1Game.sol\":10007:10045  IERC20(token).balanceOf(address(this)) */\n      mload(0x40)\n      dup3\n      0xffffffff\n      and\n      0xe0\n      shl\n      dup2\n      mstore\n      0x04\n      add\n      tag_463\n      swap2\n      swap1\n      tag_53\n      jump\t// in\n    tag_463:\n      0x20\n      mload(0x40)\n      dup1\n      dup4\n      sub\n      dup2\n      dup7\n      gas\n      staticcall\n      iszero\n      dup1\n      iszero\n      tag_465\n      jumpi\n      returndatasize\n      0x00\n      dup1\n      returndatacopy\n      revert(0x00, returndatasize)\n    tag_465:\n      pop\n      pop\n      pop\n      pop\n      mload(0x40)\n      returndatasize\n      not(0x1f)\n      0x1f\n      dup3\n      add\n      and\n      dup3\n      add\n      dup1\n      0x40\n      mstore\n      pop\n      dup2\n      add\n      swap1\n      tag_466\n      swap2\n      swap1\n      tag_467\n      jump\t// in\n    tag_466:\n        /* \"CryptoFairHero/HeroV1Game.sol\":10000:10045  return IERC20(token).balanceOf(address(this)) */\n      swap1\n      pop\n      jump(tag_461)\n        /* \"CryptoFairHero/HeroV1Game.sol\":9961:10115  if (address(0) != token) {... */\n    tag_462:\n        /* \"CryptoFairHero/HeroV1Game.sol\":10083:10104  address(this).balance */\n      selfbalance\n        /* \"CryptoFairHero/HeroV1Game.sol\":10076:10104  return address(this).balance */\n      swap1\n      pop\n        /* \"CryptoFairHero/HeroV1Game.sol\":9899:10121  function _balance() internal view returns (uint256) {... */\n    tag_461:\n      swap1\n      jump\t// out\n        /* \"@openzeppelin/contracts@4.8.3/security/Pausable.sol\":1767:1873  function _requireNotPaused() internal view virtual {... */\n    tag_220:\n        /* \"@openzeppelin/contracts@4.8.3/security/Pausable.sol\":1837:1845  paused() */\n      tag_470\n        /* \"@openzeppelin/contracts@4.8.3/security/Pausable.sol\":1837:1843  paused */\n      tag_99\n        /* \"@openzeppelin/contracts@4.8.3/security/Pausable.sol\":1837:1845  paused() */\n      jump\t// in\n    tag_470:\n        /* \"@openzeppelin/contracts@4.8.3/security/Pausable.sol\":1836:1845  !paused() */\n      iszero\n        /* \"@openzeppelin/contracts@4.8.3/security/Pausable.sol\":1828:1866  require(!paused(), \"Pausable: paused\") */\n      tag_471\n      jumpi\n      mload(0x40)\n      0x08c379a000000000000000000000000000000000000000000000000000000000\n      dup2\n      mstore\n      0x04\n      add\n      tag_472\n      swap1\n      tag_473\n      jump\t// in\n    tag_472:\n      mload(0x40)\n      dup1\n      swap2\n      sub\n      swap1\n      revert\n    tag_471:\n        /* \"@openzeppelin/contracts@4.8.3/security/Pausable.sol\":1767:1873  function _requireNotPaused() internal view virtual {... */\n      jump\t// out\n        /* \"@openzeppelin/contracts@4.8.3/security/Pausable.sol\":2186:2301  function _pause() internal virtual whenNotPaused {... */\n    tag_227:\n        /* \"@openzeppelin/contracts@4.8.3/security/Pausable.sol\":1239:1258  _requireNotPaused() */\n      tag_475\n        /* \"@openzeppelin/contracts@4.8.3/security/Pausable.sol\":1239:1256  _requireNotPaused */\n      tag_220\n        /* \"@openzeppelin/contracts@4.8.3/security/Pausable.sol\":1239:1258  _requireNotPaused() */\n      jump\t// in\n    tag_475:\n        /* \"@openzeppelin/contracts@4.8.3/security/Pausable.sol\":2255:2259  true */\n      0x01\n        /* \"@openzeppelin/contracts@4.8.3/security/Pausable.sol\":2245:2252  _paused */\n      dup1\n      0x00\n        /* \"@openzeppelin/contracts@4.8.3/security/Pausable.sol\":2245:2259  _paused = true */\n      0x0100\n      exp\n      dup2\n      sload\n      dup2\n      0xff\n      mul\n      not\n      and\n      swap1\n      dup4\n      iszero\n      iszero\n      mul\n      or\n      swap1\n      sstore\n      pop\n        /* \"@openzeppelin/contracts@4.8.3/security/Pausable.sol\":2274:2294  Paused(_msgSender()) */\n      0x62e78cea01bee320cd4e420270b5ea74000d11b0c9f74754ebdbfc544b05a258\n        /* \"@openzeppelin/contracts@4.8.3/security/Pausable.sol\":2281:2293  _msgSender() */\n      tag_477\n        /* \"@openzeppelin/contracts@4.8.3/security/Pausable.sol\":2281:2291  _msgSender */\n      tag_207\n        /* \"@openzeppelin/contracts@4.8.3/security/Pausable.sol\":2281:2293  _msgSender() */\n      jump\t// in\n    tag_477:\n        /* \"@openzeppelin/contracts@4.8.3/security/Pausable.sol\":2274:2294  Paused(_msgSender()) */\n      mload(0x40)\n      tag_478\n      swap2\n      swap1\n      tag_53\n      jump\t// in\n    tag_478:\n      mload(0x40)\n      dup1\n      swap2\n      sub\n      swap1\n      log1\n        /* \"@openzeppelin/contracts@4.8.3/security/Pausable.sol\":2186:2301  function _pause() internal virtual whenNotPaused {... */\n      jump\t// out\n        /* \"@openzeppelin/contracts@4.8.3/security/ReentrancyGuard.sol\":2336:2623  function _nonReentrantBefore() private {... */\n    tag_233:\n        /* \"@openzeppelin/contracts@4.8.3/security/ReentrancyGuard.sol\":1759:1760  2 */\n      0x02\n        /* \"@openzeppelin/contracts@4.8.3/security/ReentrancyGuard.sol\":2468:2475  _status */\n      dup1\n      sload\n        /* \"@openzeppelin/contracts@4.8.3/security/ReentrancyGuard.sol\":2468:2487  _status != _ENTERED */\n      sub\n        /* \"@openzeppelin/contracts@4.8.3/security/ReentrancyGuard.sol\":2460:2523  require(_status != _ENTERED, \"ReentrancyGuard: reentrant call\") */\n      tag_480\n      jumpi\n      mload(0x40)\n      0x08c379a000000000000000000000000000000000000000000000000000000000\n      dup2\n      mstore\n      0x04\n      add\n      tag_481\n      swap1\n      tag_482\n      jump\t// in\n    tag_481:\n      mload(0x40)\n      dup1\n      swap2\n      sub\n      swap1\n      revert\n    tag_480:\n        /* \"@openzeppelin/contracts@4.8.3/security/ReentrancyGuard.sol\":1759:1760  2 */\n      0x02\n        /* \"@openzeppelin/contracts@4.8.3/security/ReentrancyGuard.sol\":2598:2605  _status */\n      dup1\n        /* \"@openzeppelin/contracts@4.8.3/security/ReentrancyGuard.sol\":2598:2616  _status = _ENTERED */\n      dup2\n      swap1\n      sstore\n      pop\n        /* \"@openzeppelin/contracts@4.8.3/security/ReentrancyGuard.sol\":2336:2623  function _nonReentrantBefore() private {... */\n      jump\t// out\n        /* \"CryptoFairHero/HeroV1Game.sol\":10786:11196  function _sendValue(address to, uint256 amount) internal returns(bool)  {... */\n    tag_252:\n        /* \"CryptoFairHero/HeroV1Game.sol\":10851:10855  bool */\n      0x00\n        /* \"CryptoFairHero/HeroV1Game.sol\":10886:10891  token */\n      0x0e\n      0x00\n      swap1\n      sload\n      swap1\n      0x0100\n      exp\n      swap1\n      div\n      0xffffffffffffffffffffffffffffffffffffffff\n      and\n        /* \"CryptoFairHero/HeroV1Game.sol\":10872:10891  address(0) != token */\n      0xffffffffffffffffffffffffffffffffffffffff\n      and\n        /* \"CryptoFairHero/HeroV1Game.sol\":10880:10881  0 */\n      0x00\n        /* \"CryptoFairHero/HeroV1Game.sol\":10872:10891  address(0) != token */\n      0xffffffffffffffffffffffffffffffffffffffff\n      and\n      eq\n        /* \"CryptoFairHero/HeroV1Game.sol\":10868:11190  if (address(0) != token) {... */\n      tag_484\n      jumpi\n        /* \"CryptoFairHero/HeroV1Game.sol\":10917:10922  token */\n      0x0e\n      0x00\n      swap1\n      sload\n      swap1\n      0x0100\n      exp\n      swap1\n      div\n      0xffffffffffffffffffffffffffffffffffffffff\n      and\n        /* \"CryptoFairHero/HeroV1Game.sol\":10910:10932  IERC20(token).transfer */\n      0xffffffffffffffffffffffffffffffffffffffff\n      and\n      0xa9059cbb\n        /* \"CryptoFairHero/HeroV1Game.sol\":10933:10935  to */\n      dup5\n        /* \"CryptoFairHero/HeroV1Game.sol\":10937:10943  amount */\n      dup5\n        /* \"CryptoFairHero/HeroV1Game.sol\":10910:10944  IERC20(token).transfer(to, amount) */\n      mload(0x40)\n      dup4\n      0xffffffff\n      and\n      0xe0\n      shl\n      dup2\n      mstore\n      0x04\n      add\n      tag_485\n      swap3\n      swap2\n      swap1\n      tag_486\n      jump\t// in\n    tag_485:\n      0x20\n      mload(0x40)\n      dup1\n      dup4\n      sub\n      dup2\n      0x00\n      dup8\n      gas\n      call\n      swap3\n      pop\n      pop\n      pop\n      dup1\n      iszero\n      tag_487\n      jumpi\n      pop\n      mload(0x40)\n      returndatasize\n      not(0x1f)\n      0x1f\n      dup3\n      add\n      and\n      dup3\n      add\n      dup1\n      0x40\n      mstore\n      pop\n      dup2\n      add\n      swap1\n      tag_488\n      swap2\n      swap1\n      tag_489\n      jump\t// in\n    tag_488:\n      0x01\n    tag_487:\n        /* \"CryptoFairHero/HeroV1Game.sol\":10906:11068  try IERC20(token).transfer(to, amount) returns(bool _success){... */\n      tag_490\n      jumpi\n        /* \"CryptoFairHero/HeroV1Game.sol\":11048:11053  false */\n      0x00\n        /* \"CryptoFairHero/HeroV1Game.sol\":11040:11053  return  false */\n      swap1\n      pop\n      jump(tag_483)\n        /* \"CryptoFairHero/HeroV1Game.sol\":10906:11068  try IERC20(token).transfer(to, amount) returns(bool _success){... */\n    tag_490:\n        /* \"CryptoFairHero/HeroV1Game.sol\":10992:11000  _success */\n      dup1\n        /* \"CryptoFairHero/HeroV1Game.sol\":10984:11000  return  _success */\n      swap2\n      pop\n      pop\n      jump(tag_483)\n        /* \"CryptoFairHero/HeroV1Game.sol\":10868:11190  if (address(0) != token) {... */\n    tag_484:\n        /* \"CryptoFairHero/HeroV1Game.sol\":11098:11111  bool _success */\n      0x00\n        /* \"CryptoFairHero/HeroV1Game.sol\":11124:11126  to */\n      dup4\n        /* \"CryptoFairHero/HeroV1Game.sol\":11116:11132  payable(to).call */\n      0xffffffffffffffffffffffffffffffffffffffff\n      and\n        /* \"CryptoFairHero/HeroV1Game.sol\":11140:11146  amount */\n      dup4\n        /* \"CryptoFairHero/HeroV1Game.sol\":11116:11151  payable(to).call{value: amount}(\"\") */\n      mload(0x40)\n      tag_496\n      swap1\n      tag_497\n      jump\t// in\n    tag_496:\n      0x00\n      mload(0x40)\n      dup1\n      dup4\n      sub\n      dup2\n      dup6\n      dup8\n      gas\n      call\n      swap3\n      pop\n      pop\n      pop\n      returndatasize\n      dup1\n      0x00\n      dup2\n      eq\n      tag_500\n      jumpi\n      mload(0x40)\n      swap2\n      pop\n      and(add(returndatasize, 0x3f), not(0x1f))\n      dup3\n      add\n      0x40\n      mstore\n      returndatasize\n      dup3\n      mstore\n      returndatasize\n      0x00\n      0x20\n      dup5\n      add\n      returndatacopy\n      jump(tag_499)\n    tag_500:\n      0x60\n      swap2\n      pop\n    tag_499:\n      pop\n        /* \"CryptoFairHero/HeroV1Game.sol\":11097:11151  (bool _success,) = payable(to).call{value: amount}(\"\") */\n      pop\n      swap1\n      pop\n        /* \"CryptoFairHero/HeroV1Game.sol\":11171:11179  _success */\n      dup1\n        /* \"CryptoFairHero/HeroV1Game.sol\":11164:11179  return _success */\n      swap2\n      pop\n      pop\n        /* \"CryptoFairHero/HeroV1Game.sol\":10786:11196  function _sendValue(address to, uint256 amount) internal returns(bool)  {... */\n    tag_483:\n      swap3\n      swap2\n      pop\n      pop\n      jump\t// out\n        /* \"CryptoFairHero/HeroV1Game.sol\":10502:10780  function _sendValueOrRevert(address to, uint256 amount) internal {... */\n    tag_265:\n        /* \"CryptoFairHero/HeroV1Game.sol\":10595:10600  token */\n      0x0e\n      0x00\n      swap1\n      sload\n      swap1\n      0x0100\n      exp\n      swap1\n      div\n      0xffffffffffffffffffffffffffffffffffffffff\n      and\n        /* \"CryptoFairHero/HeroV1Game.sol\":10581:10600  address(0) != token */\n      0xffffffffffffffffffffffffffffffffffffffff\n      and\n        /* \"CryptoFairHero/HeroV1Game.sol\":10589:10590  0 */\n      0x00\n        /* \"CryptoFairHero/HeroV1Game.sol\":10581:10600  address(0) != token */\n      0xffffffffffffffffffffffffffffffffffffffff\n      and\n      eq\n        /* \"CryptoFairHero/HeroV1Game.sol\":10577:10774  if (address(0) != token) {... */\n      tag_502\n      jumpi\n        /* \"CryptoFairHero/HeroV1Game.sol\":10616:10629  bool _success */\n      0x00\n        /* \"CryptoFairHero/HeroV1Game.sol\":10639:10644  token */\n      0x0e\n      0x00\n      swap1\n      sload\n      swap1\n      0x0100\n      exp\n      swap1\n      div\n      0xffffffffffffffffffffffffffffffffffffffff\n      and\n        /* \"CryptoFairHero/HeroV1Game.sol\":10632:10654  IERC20(token).transfer */\n      0xffffffffffffffffffffffffffffffffffffffff\n      and\n      0xa9059cbb\n        /* \"CryptoFairHero/HeroV1Game.sol\":10655:10657  to */\n      dup5\n        /* \"CryptoFairHero/HeroV1Game.sol\":10659:10665  amount */\n      dup5\n        /* \"CryptoFairHero/HeroV1Game.sol\":10632:10666  IERC20(token).transfer(to, amount) */\n      mload(0x40)\n      dup4\n      0xffffffff\n      and\n      0xe0\n      shl\n      dup2\n      mstore\n      0x04\n      add\n      tag_503\n      swap3\n      swap2\n      swap1\n      tag_486\n      jump\t// in\n    tag_503:\n      0x20\n      mload(0x40)\n      dup1\n      dup4\n      sub\n      dup2\n      0x00\n      dup8\n      gas\n      call\n      iszero\n      dup1\n      iszero\n      tag_505\n      jumpi\n      returndatasize\n      0x00\n      dup1\n      returndatacopy\n      revert(0x00, returndatasize)\n    tag_505:\n      pop\n      pop\n      pop\n      pop\n      mload(0x40)\n      returndatasize\n      not(0x1f)\n      0x1f\n      dup3\n      add\n      and\n      dup3\n      add\n      dup1\n      0x40\n      mstore\n      pop\n      dup2\n      add\n      swap1\n      tag_506\n      swap2\n      swap1\n      tag_489\n      jump\t// in\n    tag_506:\n        /* \"CryptoFairHero/HeroV1Game.sol\":10616:10666  bool _success = IERC20(token).transfer(to, amount) */\n      swap1\n      pop\n        /* \"CryptoFairHero/HeroV1Game.sol\":10696:10704  _success */\n      dup1\n        /* \"CryptoFairHero/HeroV1Game.sol\":10688:10704  true == _success */\n      iszero\n      iszero\n        /* \"CryptoFairHero/HeroV1Game.sol\":10688:10692  true */\n      0x01\n        /* \"CryptoFairHero/HeroV1Game.sol\":10688:10704  true == _success */\n      iszero\n      iszero\n      eq\n        /* \"CryptoFairHero/HeroV1Game.sol\":10680:10705  require(true == _success) */\n      tag_507\n      jumpi\n      0x00\n      dup1\n      revert\n    tag_507:\n        /* \"CryptoFairHero/HeroV1Game.sol\":10602:10716  {... */\n      pop\n        /* \"CryptoFairHero/HeroV1Game.sol\":10577:10774  if (address(0) != token) {... */\n      jump(tag_508)\n    tag_502:\n        /* \"CryptoFairHero/HeroV1Game.sol\":10743:10745  to */\n      dup2\n        /* \"CryptoFairHero/HeroV1Game.sol\":10735:10755  payable(to).transfer */\n      0xffffffffffffffffffffffffffffffffffffffff\n      and\n        /* \"CryptoFairHero/HeroV1Game.sol\":10735:10763  payable(to).transfer(amount) */\n      0x08fc\n        /* \"CryptoFairHero/HeroV1Game.sol\":10756:10762  amount */\n      dup3\n        /* \"CryptoFairHero/HeroV1Game.sol\":10735:10763  payable(to).transfer(amount) */\n      swap1\n      dup2\n      iszero\n      mul\n      swap1\n      mload(0x40)\n      0x00\n      mload(0x40)\n      dup1\n      dup4\n      sub\n      dup2\n      dup6\n      dup9\n      dup9\n      call\n      swap4\n      pop\n      pop\n      pop\n      pop\n      iszero\n      dup1\n      iszero\n      tag_510\n      jumpi\n      returndatasize\n      0x00\n      dup1\n      returndatacopy\n      revert(0x00, returndatasize)\n    tag_510:\n      pop\n        /* \"CryptoFairHero/HeroV1Game.sol\":10577:10774  if (address(0) != token) {... */\n    tag_508:\n        /* \"CryptoFairHero/HeroV1Game.sol\":10502:10780  function _sendValueOrRevert(address to, uint256 amount) internal {... */\n      pop\n      pop\n      jump\t// out\n        /* \"@openzeppelin/contracts@4.8.3/security/ReentrancyGuard.sol\":2629:2838  function _nonReentrantAfter() private {... */\n    tag_271:\n        /* \"@openzeppelin/contracts@4.8.3/security/ReentrancyGuard.sol\":1716:1717  1 */\n      0x01\n        /* \"@openzeppelin/contracts@4.8.3/security/ReentrancyGuard.sol\":2809:2816  _status */\n      0x02\n        /* \"@openzeppelin/contracts@4.8.3/security/ReentrancyGuard.sol\":2809:2831  _status = _NOT_ENTERED */\n      dup2\n      swap1\n      sstore\n      pop\n        /* \"@openzeppelin/contracts@4.8.3/security/ReentrancyGuard.sol\":2629:2838  function _nonReentrantAfter() private {... */\n      jump\t// out\n        /* \"CryptoFairHero/HeroV1Game.sol\":10127:10495  function _getValueOrRevert(uint256 amount) internal returns (uint256) {... */\n    tag_325:\n        /* \"CryptoFairHero/HeroV1Game.sol\":10188:10195  uint256 */\n      0x00\n        /* \"CryptoFairHero/HeroV1Game.sol\":10225:10230  token */\n      0x0e\n      0x00\n      swap1\n      sload\n      swap1\n      0x0100\n      exp\n      swap1\n      div\n      0xffffffffffffffffffffffffffffffffffffffff\n      and\n        /* \"CryptoFairHero/HeroV1Game.sol\":10211:10230  address(0) != token */\n      0xffffffffffffffffffffffffffffffffffffffff\n      and\n        /* \"CryptoFairHero/HeroV1Game.sol\":10219:10220  0 */\n      0x00\n        /* \"CryptoFairHero/HeroV1Game.sol\":10211:10230  address(0) != token */\n      0xffffffffffffffffffffffffffffffffffffffff\n      and\n      eq\n        /* \"CryptoFairHero/HeroV1Game.sol\":10207:10489  if (address(0) != token) {... */\n      tag_513\n      jumpi\n        /* \"CryptoFairHero/HeroV1Game.sol\":10246:10259  bool _success */\n      0x00\n        /* \"CryptoFairHero/HeroV1Game.sol\":10269:10274  token */\n      0x0e\n      0x00\n      swap1\n      sload\n      swap1\n      0x0100\n      exp\n      swap1\n      div\n      0xffffffffffffffffffffffffffffffffffffffff\n      and\n        /* \"CryptoFairHero/HeroV1Game.sol\":10262:10288  IERC20(token).transferFrom */\n      0xffffffffffffffffffffffffffffffffffffffff\n      and\n      0x23b872dd\n        /* \"CryptoFairHero/HeroV1Game.sol\":10289:10299  msg.sender */\n      caller\n        /* \"CryptoFairHero/HeroV1Game.sol\":10309:10313  this */\n      address\n        /* \"CryptoFairHero/HeroV1Game.sol\":10316:10322  amount */\n      dup7\n        /* \"CryptoFairHero/HeroV1Game.sol\":10262:10323  IERC20(token).transferFrom(msg.sender, address(this), amount) */\n      mload(0x40)\n      dup5\n      0xffffffff\n      and\n      0xe0\n      shl\n      dup2\n      mstore\n      0x04\n      add\n      tag_514\n      swap4\n      swap3\n      swap2\n      swap1\n      tag_515\n      jump\t// in\n    tag_514:\n      0x20\n      mload(0x40)\n      dup1\n      dup4\n      sub\n      dup2\n      0x00\n      dup8\n      gas\n      call\n      iszero\n      dup1\n      iszero\n      tag_517\n      jumpi\n      returndatasize\n      0x00\n      dup1\n      returndatacopy\n      revert(0x00, returndatasize)\n    tag_517:\n      pop\n      pop\n      pop\n      pop\n      mload(0x40)\n      returndatasize\n      not(0x1f)\n      0x1f\n      dup3\n      add\n      and\n      dup3\n      add\n      dup1\n      0x40\n      mstore\n      pop\n      dup2\n      add\n      swap1\n      tag_518\n      swap2\n      swap1\n      tag_489\n      jump\t// in\n    tag_518:\n        /* \"CryptoFairHero/HeroV1Game.sol\":10246:10323  bool _success = IERC20(token).transferFrom(msg.sender, address(this), amount) */\n      swap1\n      pop\n        /* \"CryptoFairHero/HeroV1Game.sol\":10353:10361  _success */\n      dup1\n        /* \"CryptoFairHero/HeroV1Game.sol\":10345:10361  true == _success */\n      iszero\n      iszero\n        /* \"CryptoFairHero/HeroV1Game.sol\":10345:10349  true */\n      0x01\n        /* \"CryptoFairHero/HeroV1Game.sol\":10345:10361  true == _success */\n      iszero\n      iszero\n      eq\n        /* \"CryptoFairHero/HeroV1Game.sol\":10337:10362  require(true == _success) */\n      tag_519\n      jumpi\n      0x00\n      dup1\n      revert\n    tag_519:\n        /* \"CryptoFairHero/HeroV1Game.sol\":10383:10389  amount */\n      dup3\n        /* \"CryptoFairHero/HeroV1Game.sol\":10376:10389  return amount */\n      swap2\n      pop\n      pop\n      jump(tag_512)\n        /* \"CryptoFairHero/HeroV1Game.sol\":10207:10489  if (address(0) != token) {... */\n    tag_513:\n        /* \"CryptoFairHero/HeroV1Game.sol\":10441:10447  amount */\n      dup2\n        /* \"CryptoFairHero/HeroV1Game.sol\":10428:10437  msg.value */\n      callvalue\n        /* \"CryptoFairHero/HeroV1Game.sol\":10428:10447  msg.value >= amount */\n      lt\n      iszero\n        /* \"CryptoFairHero/HeroV1Game.sol\":10420:10448  require(msg.value >= amount) */\n      tag_521\n      jumpi\n      0x00\n      dup1\n      revert\n    tag_521:\n        /* \"CryptoFairHero/HeroV1Game.sol\":10469:10478  msg.value */\n      callvalue\n        /* \"CryptoFairHero/HeroV1Game.sol\":10462:10478  return msg.value */\n      swap1\n      pop\n        /* \"CryptoFairHero/HeroV1Game.sol\":10127:10495  function _getValueOrRevert(uint256 amount) internal returns (uint256) {... */\n    tag_512:\n      swap2\n      swap1\n      pop\n      jump\t// out\n        /* \"CryptoFairHero/HeroV1Game.sol\":11206:11381  function getRandom(uint256 _max) internal view returns (uint256) {... */\n    tag_382:\n        /* \"CryptoFairHero/HeroV1Game.sol\":11262:11269  uint256 */\n      0x00\n        /* \"CryptoFairHero/HeroV1Game.sol\":11370:11374  _max */\n      dup2\n        /* \"CryptoFairHero/HeroV1Game.sol\":11323:11338  block.timestamp */\n      timestamp\n        /* \"CryptoFairHero/HeroV1Game.sol\":11340:11352  block.number */\n      number\n        /* \"CryptoFairHero/HeroV1Game.sol\":11354:11364  msg.sender */\n      caller\n        /* \"CryptoFairHero/HeroV1Game.sol\":11306:11365  abi.encodePacked(block.timestamp, block.number, msg.sender) */\n      add(0x20, mload(0x40))\n      tag_523\n      swap4\n      swap3\n      swap2\n      swap1\n      tag_524\n      jump\t// in\n    tag_523:\n      mload(0x40)\n      0x20\n      dup2\n      dup4\n      sub\n      sub\n      dup2\n      mstore\n      swap1\n      0x40\n      mstore\n        /* \"CryptoFairHero/HeroV1Game.sol\":11296:11366  keccak256(abi.encodePacked(block.timestamp, block.number, msg.sender)) */\n      dup1\n      mload\n      swap1\n      0x20\n      add\n      keccak256\n        /* \"CryptoFairHero/HeroV1Game.sol\":11288:11367  uint256(keccak256(abi.encodePacked(block.timestamp, block.number, msg.sender))) */\n      0x00\n      shr\n        /* \"CryptoFairHero/HeroV1Game.sol\":11288:11374  uint256(keccak256(abi.encodePacked(block.timestamp, block.number, msg.sender))) % _max */\n      tag_525\n      swap2\n      swap1\n      tag_526\n      jump\t// in\n    tag_525:\n        /* \"CryptoFairHero/HeroV1Game.sol\":11281:11374  return uint256(keccak256(abi.encodePacked(block.timestamp, block.number, msg.sender))) % _max */\n      swap1\n      pop\n        /* \"CryptoFairHero/HeroV1Game.sol\":11206:11381  function getRandom(uint256 _max) internal view returns (uint256) {... */\n      swap2\n      swap1\n      pop\n      jump\t// out\n        /* \"@openzeppelin/contracts@4.8.3/access/AccessControl.sol\":3718:4197  function _checkRole(bytes32 role, address account) internal view virtual {... */\n    tag_441:\n        /* \"@openzeppelin/contracts@4.8.3/access/AccessControl.sol\":3806:3828  hasRole(role, account) */\n      tag_528\n        /* \"@openzeppelin/contracts@4.8.3/access/AccessControl.sol\":3814:3818  role */\n      dup3\n        /* \"@openzeppelin/contracts@4.8.3/access/AccessControl.sol\":3820:3827  account */\n      dup3\n        /* \"@openzeppelin/contracts@4.8.3/access/AccessControl.sol\":3806:3813  hasRole */\n      tag_112\n        /* \"@openzeppelin/contracts@4.8.3/access/AccessControl.sol\":3806:3828  hasRole(role, account) */\n      jump\t// in\n    tag_528:\n        /* \"@openzeppelin/contracts@4.8.3/access/AccessControl.sol\":3801:4191  if (!hasRole(role, account)) {... */\n      tag_529\n      jumpi\n        /* \"@openzeppelin/contracts@4.8.3/access/AccessControl.sol\":3989:4017  Strings.toHexString(account) */\n      tag_530\n        /* \"@openzeppelin/contracts@4.8.3/access/AccessControl.sol\":4009:4016  account */\n      dup2\n        /* \"@openzeppelin/contracts@4.8.3/access/AccessControl.sol\":3989:4008  Strings.toHexString */\n      tag_531\n        /* \"@openzeppelin/contracts@4.8.3/access/AccessControl.sol\":3989:4017  Strings.toHexString(account) */\n      jump\t// in\n    tag_530:\n        /* \"@openzeppelin/contracts@4.8.3/access/AccessControl.sol\":4088:4126  Strings.toHexString(uint256(role), 32) */\n      tag_532\n        /* \"@openzeppelin/contracts@4.8.3/access/AccessControl.sol\":4116:4120  role */\n      dup4\n        /* \"@openzeppelin/contracts@4.8.3/access/AccessControl.sol\":4108:4121  uint256(role) */\n      0x00\n      shr\n        /* \"@openzeppelin/contracts@4.8.3/access/AccessControl.sol\":4123:4125  32 */\n      0x20\n        /* \"@openzeppelin/contracts@4.8.3/access/AccessControl.sol\":4088:4107  Strings.toHexString */\n      tag_533\n        /* \"@openzeppelin/contracts@4.8.3/access/AccessControl.sol\":4088:4126  Strings.toHexString(uint256(role), 32) */\n      jump\t// in\n    tag_532:\n        /* \"@openzeppelin/contracts@4.8.3/access/AccessControl.sol\":3896:4148  abi.encodePacked(... */\n      add(0x20, mload(0x40))\n      tag_534\n      swap3\n      swap2\n      swap1\n      tag_535\n      jump\t// in\n    tag_534:\n      mload(0x40)\n      0x20\n      dup2\n      dup4\n      sub\n      sub\n      dup2\n      mstore\n      swap1\n      0x40\n      mstore\n        /* \"@openzeppelin/contracts@4.8.3/access/AccessControl.sol\":3844:4180  revert(... */\n      mload(0x40)\n      0x08c379a000000000000000000000000000000000000000000000000000000000\n      dup2\n      mstore\n      0x04\n      add\n      tag_536\n      swap2\n      swap1\n      tag_537\n      jump\t// in\n    tag_536:\n      mload(0x40)\n      dup1\n      swap2\n      sub\n      swap1\n      revert\n        /* \"@openzeppelin/contracts@4.8.3/access/AccessControl.sol\":3801:4191  if (!hasRole(role, account)) {... */\n    tag_529:\n        /* \"@openzeppelin/contracts@4.8.3/access/AccessControl.sol\":3718:4197  function _checkRole(bytes32 role, address account) internal view virtual {... */\n      pop\n      pop\n      jump\t// out\n        /* \"@openzeppelin/contracts@4.8.3/utils/Strings.sol\":2102:2251  function toHexString(address addr) internal pure returns (string memory) {... */\n    tag_531:\n        /* \"@openzeppelin/contracts@4.8.3/utils/Strings.sol\":2160:2173  string memory */\n      0x60\n        /* \"@openzeppelin/contracts@4.8.3/utils/Strings.sol\":2192:2244  toHexString(uint256(uint160(addr)), _ADDRESS_LENGTH) */\n      tag_539\n        /* \"@openzeppelin/contracts@4.8.3/utils/Strings.sol\":2220:2224  addr */\n      dup3\n        /* \"@openzeppelin/contracts@4.8.3/utils/Strings.sol\":2204:2226  uint256(uint160(addr)) */\n      0xffffffffffffffffffffffffffffffffffffffff\n      and\n        /* \"@openzeppelin/contracts@4.8.3/utils/Strings.sol\":311:313  20 */\n      0x14\n        /* \"@openzeppelin/contracts@4.8.3/utils/Strings.sol\":2192:2244  toHexString(uint256(uint160(addr)), _ADDRESS_LENGTH) */\n      0xff\n      and\n        /* \"@openzeppelin/contracts@4.8.3/utils/Strings.sol\":2192:2203  toHexString */\n      tag_533\n        /* \"@openzeppelin/contracts@4.8.3/utils/Strings.sol\":2192:2244  toHexString(uint256(uint160(addr)), _ADDRESS_LENGTH) */\n      jump\t// in\n    tag_539:\n        /* \"@openzeppelin/contracts@4.8.3/utils/Strings.sol\":2185:2244  return toHexString(uint256(uint160(addr)), _ADDRESS_LENGTH) */\n      swap1\n      pop\n        /* \"@openzeppelin/contracts@4.8.3/utils/Strings.sol\":2102:2251  function toHexString(address addr) internal pure returns (string memory) {... */\n      swap2\n      swap1\n      pop\n      jump\t// out\n        /* \"@openzeppelin/contracts@4.8.3/utils/Strings.sol\":1513:1950  function toHexString(uint256 value, uint256 length) internal pure returns (string memory) {... */\n    tag_533:\n        /* \"@openzeppelin/contracts@4.8.3/utils/Strings.sol\":1588:1601  string memory */\n      0x60\n        /* \"@openzeppelin/contracts@4.8.3/utils/Strings.sol\":1613:1632  bytes memory buffer */\n      0x00\n        /* \"@openzeppelin/contracts@4.8.3/utils/Strings.sol\":1658:1659  2 */\n      0x02\n        /* \"@openzeppelin/contracts@4.8.3/utils/Strings.sol\":1649:1655  length */\n      dup4\n        /* \"@openzeppelin/contracts@4.8.3/utils/Strings.sol\":1645:1646  2 */\n      0x02\n        /* \"@openzeppelin/contracts@4.8.3/utils/Strings.sol\":1645:1655  2 * length */\n      tag_541\n      swap2\n      swap1\n      tag_376\n      jump\t// in\n    tag_541:\n        /* \"@openzeppelin/contracts@4.8.3/utils/Strings.sol\":1645:1659  2 * length + 2 */\n      tag_542\n      swap2\n      swap1\n      tag_255\n      jump\t// in\n    tag_542:\n        /* \"@openzeppelin/contracts@4.8.3/utils/Strings.sol\":1635:1660  new bytes(2 * length + 2) */\n      0xffffffffffffffff\n      dup2\n      gt\n      iszero\n      tag_543\n      jumpi\n      tag_544\n      tag_545\n      jump\t// in\n    tag_544:\n    tag_543:\n      mload(0x40)\n      swap1\n      dup1\n      dup3\n      mstore\n      dup1\n      0x1f\n      add\n      not(0x1f)\n      and\n      0x20\n      add\n      dup3\n      add\n      0x40\n      mstore\n      dup1\n      iszero\n      tag_546\n      jumpi\n      dup2\n      0x20\n      add\n      0x01\n      dup3\n      mul\n      dup1\n      calldatasize\n      dup4\n      calldatacopy\n      dup1\n      dup3\n      add\n      swap2\n      pop\n      pop\n      swap1\n      pop\n    tag_546:\n      pop\n        /* \"@openzeppelin/contracts@4.8.3/utils/Strings.sol\":1613:1660  bytes memory buffer = new bytes(2 * length + 2) */\n      swap1\n      pop\n        /* \"@openzeppelin/contracts@4.8.3/utils/Strings.sol\":1670:1685  buffer[0] = \"0\" */\n      0x3000000000000000000000000000000000000000000000000000000000000000\n        /* \"@openzeppelin/contracts@4.8.3/utils/Strings.sol\":1670:1676  buffer */\n      dup2\n        /* \"@openzeppelin/contracts@4.8.3/utils/Strings.sol\":1677:1678  0 */\n      0x00\n        /* \"@openzeppelin/contracts@4.8.3/utils/Strings.sol\":1670:1679  buffer[0] */\n      dup2\n      mload\n      dup2\n      lt\n      tag_547\n      jumpi\n      tag_548\n      tag_246\n      jump\t// in\n    tag_548:\n    tag_547:\n      0x20\n      add\n      add\n        /* \"@openzeppelin/contracts@4.8.3/utils/Strings.sol\":1670:1685  buffer[0] = \"0\" */\n      swap1\n      not(0xffffffffffffffffffffffffffffffffffffffffffffffffffffffffffffff)\n      and\n      swap1\n      dup2\n      0x00\n      byte\n      swap1\n      mstore8\n      pop\n        /* \"@openzeppelin/contracts@4.8.3/utils/Strings.sol\":1695:1710  buffer[1] = \"x\" */\n      0x7800000000000000000000000000000000000000000000000000000000000000\n        /* \"@openzeppelin/contracts@4.8.3/utils/Strings.sol\":1695:1701  buffer */\n      dup2\n        /* \"@openzeppelin/contracts@4.8.3/utils/Strings.sol\":1702:1703  1 */\n      0x01\n        /* \"@openzeppelin/contracts@4.8.3/utils/Strings.sol\":1695:1704  buffer[1] */\n      dup2\n      mload\n      dup2\n      lt\n      tag_549\n      jumpi\n      tag_550\n      tag_246\n      jump\t// in\n    tag_550:\n    tag_549:\n      0x20\n      add\n      add\n        /* \"@openzeppelin/contracts@4.8.3/utils/Strings.sol\":1695:1710  buffer[1] = \"x\" */\n      swap1\n      not(0xffffffffffffffffffffffffffffffffffffffffffffffffffffffffffffff)\n      and\n      swap1\n      dup2\n      0x00\n      byte\n      swap1\n      mstore8\n      pop\n        /* \"@openzeppelin/contracts@4.8.3/utils/Strings.sol\":1725:1734  uint256 i */\n      0x00\n        /* \"@openzeppelin/contracts@4.8.3/utils/Strings.sol\":1750:1751  1 */\n      0x01\n        /* \"@openzeppelin/contracts@4.8.3/utils/Strings.sol\":1741:1747  length */\n      dup5\n        /* \"@openzeppelin/contracts@4.8.3/utils/Strings.sol\":1737:1738  2 */\n      0x02\n        /* \"@openzeppelin/contracts@4.8.3/utils/Strings.sol\":1737:1747  2 * length */\n      tag_554\n      swap2\n      swap1\n      tag_376\n      jump\t// in\n    tag_554:\n        /* \"@openzeppelin/contracts@4.8.3/utils/Strings.sol\":1737:1751  2 * length + 1 */\n      tag_555\n      swap2\n      swap1\n      tag_255\n      jump\t// in\n    tag_555:\n        /* \"@openzeppelin/contracts@4.8.3/utils/Strings.sol\":1725:1751  uint256 i = 2 * length + 1 */\n      swap1\n      pop\n        /* \"@openzeppelin/contracts@4.8.3/utils/Strings.sol\":1720:1848  for (uint256 i = 2 * length + 1; i > 1; --i) {... */\n    tag_551:\n        /* \"@openzeppelin/contracts@4.8.3/utils/Strings.sol\":1757:1758  1 */\n      0x01\n        /* \"@openzeppelin/contracts@4.8.3/utils/Strings.sol\":1753:1754  i */\n      dup2\n        /* \"@openzeppelin/contracts@4.8.3/utils/Strings.sol\":1753:1758  i > 1 */\n      gt\n        /* \"@openzeppelin/contracts@4.8.3/utils/Strings.sol\":1720:1848  for (uint256 i = 2 * length + 1; i > 1; --i) {... */\n      iszero\n      tag_552\n      jumpi\n        /* \"@openzeppelin/contracts@4.8.3/utils/Strings.sol\":1791:1799  _SYMBOLS */\n      0x3031323334353637383961626364656600000000000000000000000000000000\n        /* \"@openzeppelin/contracts@4.8.3/utils/Strings.sol\":1808:1811  0xf */\n      0x0f\n        /* \"@openzeppelin/contracts@4.8.3/utils/Strings.sol\":1800:1805  value */\n      dup7\n        /* \"@openzeppelin/contracts@4.8.3/utils/Strings.sol\":1800:1811  value & 0xf */\n      and\n        /* \"@openzeppelin/contracts@4.8.3/utils/Strings.sol\":1791:1812  _SYMBOLS[value & 0xf] */\n      0x10\n      dup2\n      lt\n      tag_556\n      jumpi\n      tag_557\n      tag_246\n      jump\t// in\n    tag_557:\n    tag_556:\n      byte\n      0xf8\n      shl\n        /* \"@openzeppelin/contracts@4.8.3/utils/Strings.sol\":1779:1785  buffer */\n      dup3\n        /* \"@openzeppelin/contracts@4.8.3/utils/Strings.sol\":1786:1787  i */\n      dup3\n        /* \"@openzeppelin/contracts@4.8.3/utils/Strings.sol\":1779:1788  buffer[i] */\n      dup2\n      mload\n      dup2\n      lt\n      tag_558\n      jumpi\n      tag_559\n      tag_246\n      jump\t// in\n    tag_559:\n    tag_558:\n      0x20\n      add\n      add\n        /* \"@openzeppelin/contracts@4.8.3/utils/Strings.sol\":1779:1812  buffer[i] = _SYMBOLS[value & 0xf] */\n      swap1\n      not(0xffffffffffffffffffffffffffffffffffffffffffffffffffffffffffffff)\n      and\n      swap1\n      dup2\n      0x00\n      byte\n      swap1\n      mstore8\n      pop\n        /* \"@openzeppelin/contracts@4.8.3/utils/Strings.sol\":1836:1837  4 */\n      0x04\n        /* \"@openzeppelin/contracts@4.8.3/utils/Strings.sol\":1826:1837  value >>= 4 */\n      dup6\n      swap1\n      shr\n      swap5\n      pop\n        /* \"@openzeppelin/contracts@4.8.3/utils/Strings.sol\":1760:1763  --i */\n      dup1\n      tag_560\n      swap1\n      tag_561\n      jump\t// in\n    tag_560:\n      swap1\n      pop\n        /* \"@openzeppelin/contracts@4.8.3/utils/Strings.sol\":1720:1848  for (uint256 i = 2 * length + 1; i > 1; --i) {... */\n      jump(tag_551)\n    tag_552:\n      pop\n        /* \"@openzeppelin/contracts@4.8.3/utils/Strings.sol\":1874:1875  0 */\n      0x00\n        /* \"@openzeppelin/contracts@4.8.3/utils/Strings.sol\":1865:1870  value */\n      dup5\n        /* \"@openzeppelin/contracts@4.8.3/utils/Strings.sol\":1865:1875  value == 0 */\n      eq\n        /* \"@openzeppelin/contracts@4.8.3/utils/Strings.sol\":1857:1912  require(value == 0, \"Strings: hex length insufficient\") */\n      tag_562\n      jumpi\n      mload(0x40)\n      0x08c379a000000000000000000000000000000000000000000000000000000000\n      dup2\n      mstore\n      0x04\n      add\n      tag_563\n      swap1\n      tag_564\n      jump\t// in\n    tag_563:\n      mload(0x40)\n      dup1\n      swap2\n      sub\n      swap1\n      revert\n    tag_562:\n        /* \"@openzeppelin/contracts@4.8.3/utils/Strings.sol\":1936:1942  buffer */\n      dup1\n        /* \"@openzeppelin/contracts@4.8.3/utils/Strings.sol\":1922:1943  return string(buffer) */\n      swap2\n      pop\n      pop\n        /* \"@openzeppelin/contracts@4.8.3/utils/Strings.sol\":1513:1950  function toHexString(uint256 value, uint256 length) internal pure returns (string memory) {... */\n      swap3\n      swap2\n      pop\n      pop\n      jump\t// out\n        /* \"#utility.yul\":88:205   */\n    tag_566:\n        /* \"#utility.yul\":197:198   */\n      0x00\n        /* \"#utility.yul\":194:195   */\n      dup1\n        /* \"#utility.yul\":187:199   */\n      revert\n        /* \"#utility.yul\":334:483   */\n    tag_568:\n        /* \"#utility.yul\":370:377   */\n      0x00\n        /* \"#utility.yul\":410:476   */\n      0xffffffff00000000000000000000000000000000000000000000000000000000\n        /* \"#utility.yul\":403:408   */\n      dup3\n        /* \"#utility.yul\":399:477   */\n      and\n        /* \"#utility.yul\":388:477   */\n      swap1\n      pop\n        /* \"#utility.yul\":334:483   */\n      swap2\n      swap1\n      pop\n      jump\t// out\n        /* \"#utility.yul\":489:609   */\n    tag_569:\n        /* \"#utility.yul\":561:584   */\n      tag_640\n        /* \"#utility.yul\":578:583   */\n      dup2\n        /* \"#utility.yul\":561:584   */\n      tag_568\n      jump\t// in\n    tag_640:\n        /* \"#utility.yul\":554:559   */\n      dup2\n        /* \"#utility.yul\":551:585   */\n      eq\n        /* \"#utility.yul\":541:603   */\n      tag_641\n      jumpi\n        /* \"#utility.yul\":599:600   */\n      0x00\n        /* \"#utility.yul\":596:597   */\n      dup1\n        /* \"#utility.yul\":589:601   */\n      revert\n        /* \"#utility.yul\":541:603   */\n    tag_641:\n        /* \"#utility.yul\":489:609   */\n      pop\n      jump\t// out\n        /* \"#utility.yul\":615:752   */\n    tag_570:\n        /* \"#utility.yul\":660:665   */\n      0x00\n        /* \"#utility.yul\":698:704   */\n      dup2\n        /* \"#utility.yul\":685:705   */\n      calldataload\n        /* \"#utility.yul\":676:705   */\n      swap1\n      pop\n        /* \"#utility.yul\":714:746   */\n      tag_643\n        /* \"#utility.yul\":740:745   */\n      dup2\n        /* \"#utility.yul\":714:746   */\n      tag_569\n      jump\t// in\n    tag_643:\n        /* \"#utility.yul\":615:752   */\n      swap3\n      swap2\n      pop\n      pop\n      jump\t// out\n        /* \"#utility.yul\":758:1085   */\n    tag_45:\n        /* \"#utility.yul\":816:822   */\n      0x00\n        /* \"#utility.yul\":865:867   */\n      0x20\n        /* \"#utility.yul\":853:862   */\n      dup3\n        /* \"#utility.yul\":844:851   */\n      dup5\n        /* \"#utility.yul\":840:863   */\n      sub\n        /* \"#utility.yul\":836:868   */\n      slt\n        /* \"#utility.yul\":833:952   */\n      iszero\n      tag_645\n      jumpi\n        /* \"#utility.yul\":871:950   */\n      tag_646\n      tag_566\n      jump\t// in\n    tag_646:\n        /* \"#utility.yul\":833:952   */\n    tag_645:\n        /* \"#utility.yul\":991:992   */\n      0x00\n        /* \"#utility.yul\":1016:1068   */\n      tag_647\n        /* \"#utility.yul\":1060:1067   */\n      dup5\n        /* \"#utility.yul\":1051:1057   */\n      dup3\n        /* \"#utility.yul\":1040:1049   */\n      dup6\n        /* \"#utility.yul\":1036:1058   */\n      add\n        /* \"#utility.yul\":1016:1068   */\n      tag_570\n      jump\t// in\n    tag_647:\n        /* \"#utility.yul\":1006:1068   */\n      swap2\n      pop\n        /* \"#utility.yul\":962:1078   */\n      pop\n        /* \"#utility.yul\":758:1085   */\n      swap3\n      swap2\n      pop\n      pop\n      jump\t// out\n        /* \"#utility.yul\":1091:1181   */\n    tag_571:\n        /* \"#utility.yul\":1125:1132   */\n      0x00\n        /* \"#utility.yul\":1168:1173   */\n      dup2\n        /* \"#utility.yul\":1161:1174   */\n      iszero\n        /* \"#utility.yul\":1154:1175   */\n      iszero\n        /* \"#utility.yul\":1143:1175   */\n      swap1\n      pop\n        /* \"#utility.yul\":1091:1181   */\n      swap2\n      swap1\n      pop\n      jump\t// out\n        /* \"#utility.yul\":1187:1296   */\n    tag_572:\n        /* \"#utility.yul\":1268:1289   */\n      tag_650\n        /* \"#utility.yul\":1283:1288   */\n      dup2\n        /* \"#utility.yul\":1268:1289   */\n      tag_571\n      jump\t// in\n    tag_650:\n        /* \"#utility.yul\":1263:1266   */\n      dup3\n        /* \"#utility.yul\":1256:1290   */\n      mstore\n        /* \"#utility.yul\":1187:1296   */\n      pop\n      pop\n      jump\t// out\n        /* \"#utility.yul\":1302:1512   */\n    tag_48:\n        /* \"#utility.yul\":1389:1393   */\n      0x00\n        /* \"#utility.yul\":1427:1429   */\n      0x20\n        /* \"#utility.yul\":1416:1425   */\n      dup3\n        /* \"#utility.yul\":1412:1430   */\n      add\n        /* \"#utility.yul\":1404:1430   */\n      swap1\n      pop\n        /* \"#utility.yul\":1440:1505   */\n      tag_652\n        /* \"#utility.yul\":1502:1503   */\n      0x00\n        /* \"#utility.yul\":1491:1500   */\n      dup4\n        /* \"#utility.yul\":1487:1504   */\n      add\n        /* \"#utility.yul\":1478:1484   */\n      dup5\n        /* \"#utility.yul\":1440:1505   */\n      tag_572\n      jump\t// in\n    tag_652:\n        /* \"#utility.yul\":1302:1512   */\n      swap3\n      swap2\n      pop\n      pop\n      jump\t// out\n        /* \"#utility.yul\":1518:1644   */\n    tag_573:\n        /* \"#utility.yul\":1555:1562   */\n      0x00\n        /* \"#utility.yul\":1595:1637   */\n      0xffffffffffffffffffffffffffffffffffffffff\n        /* \"#utility.yul\":1588:1593   */\n      dup3\n        /* \"#utility.yul\":1584:1638   */\n      and\n        /* \"#utility.yul\":1573:1638   */\n      swap1\n      pop\n        /* \"#utility.yul\":1518:1644   */\n      swap2\n      swap1\n      pop\n      jump\t// out\n        /* \"#utility.yul\":1650:1746   */\n    tag_574:\n        /* \"#utility.yul\":1687:1694   */\n      0x00\n        /* \"#utility.yul\":1716:1740   */\n      tag_655\n        /* \"#utility.yul\":1734:1739   */\n      dup3\n        /* \"#utility.yul\":1716:1740   */\n      tag_573\n      jump\t// in\n    tag_655:\n        /* \"#utility.yul\":1705:1740   */\n      swap1\n      pop\n        /* \"#utility.yul\":1650:1746   */\n      swap2\n      swap1\n      pop\n      jump\t// out\n        /* \"#utility.yul\":1752:1870   */\n    tag_575:\n        /* \"#utility.yul\":1839:1863   */\n      tag_657\n        /* \"#utility.yul\":1857:1862   */\n      dup2\n        /* \"#utility.yul\":1839:1863   */\n      tag_574\n      jump\t// in\n    tag_657:\n        /* \"#utility.yul\":1834:1837   */\n      dup3\n        /* \"#utility.yul\":1827:1864   */\n      mstore\n        /* \"#utility.yul\":1752:1870   */\n      pop\n      pop\n      jump\t// out\n        /* \"#utility.yul\":1876:2098   */\n    tag_53:\n        /* \"#utility.yul\":1969:1973   */\n      0x00\n        /* \"#utility.yul\":2007:2009   */\n      0x20\n        /* \"#utility.yul\":1996:2005   */\n      dup3\n        /* \"#utility.yul\":1992:2010   */\n      add\n        /* \"#utility.yul\":1984:2010   */\n      swap1\n      pop\n        /* \"#utility.yul\":2020:2091   */\n      tag_659\n        /* \"#utility.yul\":2088:2089   */\n      0x00\n        /* \"#utility.yul\":2077:2086   */\n      dup4\n        /* \"#utility.yul\":2073:2090   */\n      add\n        /* \"#utility.yul\":2064:2070   */\n      dup5\n        /* \"#utility.yul\":2020:2091   */\n      tag_575\n      jump\t// in\n    tag_659:\n        /* \"#utility.yul\":1876:2098   */\n      swap3\n      swap2\n      pop\n      pop\n      jump\t// out\n        /* \"#utility.yul\":2104:2181   */\n    tag_576:\n        /* \"#utility.yul\":2141:2148   */\n      0x00\n        /* \"#utility.yul\":2170:2175   */\n      dup2\n        /* \"#utility.yul\":2159:2175   */\n      swap1\n      pop\n        /* \"#utility.yul\":2104:2181   */\n      swap2\n      swap1\n      pop\n      jump\t// out\n        /* \"#utility.yul\":2187:2309   */\n    tag_577:\n        /* \"#utility.yul\":2260:2284   */\n      tag_662\n        /* \"#utility.yul\":2278:2283   */\n      dup2\n        /* \"#utility.yul\":2260:2284   */\n      tag_576\n      jump\t// in\n    tag_662:\n        /* \"#utility.yul\":2253:2258   */\n      dup2\n        /* \"#utility.yul\":2250:2285   */\n      eq\n        /* \"#utility.yul\":2240:2303   */\n      tag_663\n      jumpi\n        /* \"#utility.yul\":2299:2300   */\n      0x00\n        /* \"#utility.yul\":2296:2297   */\n      dup1\n        /* \"#utility.yul\":2289:2301   */\n      revert\n        /* \"#utility.yul\":2240:2303   */\n    tag_663:\n        /* \"#utility.yul\":2187:2309   */\n      pop\n      jump\t// out\n        /* \"#utility.yul\":2315:2454   */\n    tag_578:\n        /* \"#utility.yul\":2361:2366   */\n      0x00\n        /* \"#utility.yul\":2399:2405   */\n      dup2\n        /* \"#utility.yul\":2386:2406   */\n      calldataload\n        /* \"#utility.yul\":2377:2406   */\n      swap1\n      pop\n        /* \"#utility.yul\":2415:2448   */\n      tag_665\n        /* \"#utility.yul\":2442:2447   */\n      dup2\n        /* \"#utility.yul\":2415:2448   */\n      tag_577\n      jump\t// in\n    tag_665:\n        /* \"#utility.yul\":2315:2454   */\n      swap3\n      swap2\n      pop\n      pop\n      jump\t// out\n        /* \"#utility.yul\":2460:2789   */\n    tag_57:\n        /* \"#utility.yul\":2519:2525   */\n      0x00\n        /* \"#utility.yul\":2568:2570   */\n      0x20\n        /* \"#utility.yul\":2556:2565   */\n      dup3\n        /* \"#utility.yul\":2547:2554   */\n      dup5\n        /* \"#utility.yul\":2543:2566   */\n      sub\n        /* \"#utility.yul\":2539:2571   */\n      slt\n        /* \"#utility.yul\":2536:2655   */\n      iszero\n      tag_667\n      jumpi\n        /* \"#utility.yul\":2574:2653   */\n      tag_668\n      tag_566\n      jump\t// in\n    tag_668:\n        /* \"#utility.yul\":2536:2655   */\n    tag_667:\n        /* \"#utility.yul\":2694:2695   */\n      0x00\n        /* \"#utility.yul\":2719:2772   */\n      tag_669\n        /* \"#utility.yul\":2764:2771   */\n      dup5\n        /* \"#utility.yul\":2755:2761   */\n      dup3\n        /* \"#utility.yul\":2744:2753   */\n      dup6\n        /* \"#utility.yul\":2740:2762   */\n      add\n        /* \"#utility.yul\":2719:2772   */\n      tag_578\n      jump\t// in\n    tag_669:\n        /* \"#utility.yul\":2709:2772   */\n      swap2\n      pop\n        /* \"#utility.yul\":2665:2782   */\n      pop\n        /* \"#utility.yul\":2460:2789   */\n      swap3\n      swap2\n      pop\n      pop\n      jump\t// out\n        /* \"#utility.yul\":2795:2913   */\n    tag_579:\n        /* \"#utility.yul\":2882:2906   */\n      tag_671\n        /* \"#utility.yul\":2900:2905   */\n      dup2\n        /* \"#utility.yul\":2882:2906   */\n      tag_576\n      jump\t// in\n    tag_671:\n        /* \"#utility.yul\":2877:2880   */\n      dup3\n        /* \"#utility.yul\":2870:2907   */\n      mstore\n        /* \"#utility.yul\":2795:2913   */\n      pop\n      pop\n      jump\t// out\n        /* \"#utility.yul\":2919:3141   */\n    tag_60:\n        /* \"#utility.yul\":3012:3016   */\n      0x00\n        /* \"#utility.yul\":3050:3052   */\n      0x20\n        /* \"#utility.yul\":3039:3048   */\n      dup3\n        /* \"#utility.yul\":3035:3053   */\n      add\n        /* \"#utility.yul\":3027:3053   */\n      swap1\n      pop\n        /* \"#utility.yul\":3063:3134   */\n      tag_673\n        /* \"#utility.yul\":3131:3132   */\n      0x00\n        /* \"#utility.yul\":3120:3129   */\n      dup4\n        /* \"#utility.yul\":3116:3133   */\n      add\n        /* \"#utility.yul\":3107:3113   */\n      dup5\n        /* \"#utility.yul\":3063:3134   */\n      tag_579\n      jump\t// in\n    tag_673:\n        /* \"#utility.yul\":2919:3141   */\n      swap3\n      swap2\n      pop\n      pop\n      jump\t// out\n        /* \"#utility.yul\":3147:3269   */\n    tag_580:\n        /* \"#utility.yul\":3220:3244   */\n      tag_675\n        /* \"#utility.yul\":3238:3243   */\n      dup2\n        /* \"#utility.yul\":3220:3244   */\n      tag_574\n      jump\t// in\n    tag_675:\n        /* \"#utility.yul\":3213:3218   */\n      dup2\n        /* \"#utility.yul\":3210:3245   */\n      eq\n        /* \"#utility.yul\":3200:3263   */\n      tag_676\n      jumpi\n        /* \"#utility.yul\":3259:3260   */\n      0x00\n        /* \"#utility.yul\":3256:3257   */\n      dup1\n        /* \"#utility.yul\":3249:3261   */\n      revert\n        /* \"#utility.yul\":3200:3263   */\n    tag_676:\n        /* \"#utility.yul\":3147:3269   */\n      pop\n      jump\t// out\n        /* \"#utility.yul\":3275:3414   */\n    tag_581:\n        /* \"#utility.yul\":3321:3326   */\n      0x00\n        /* \"#utility.yul\":3359:3365   */\n      dup2\n        /* \"#utility.yul\":3346:3366   */\n      calldataload\n        /* \"#utility.yul\":3337:3366   */\n      swap1\n      pop\n        /* \"#utility.yul\":3375:3408   */\n      tag_678\n        /* \"#utility.yul\":3402:3407   */\n      dup2\n        /* \"#utility.yul\":3375:3408   */\n      tag_580\n      jump\t// in\n    tag_678:\n        /* \"#utility.yul\":3275:3414   */\n      swap3\n      swap2\n      pop\n      pop\n      jump\t// out\n        /* \"#utility.yul\":3420:3894   */\n    tag_64:\n        /* \"#utility.yul\":3488:3494   */\n      0x00\n        /* \"#utility.yul\":3496:3502   */\n      dup1\n        /* \"#utility.yul\":3545:3547   */\n      0x40\n        /* \"#utility.yul\":3533:3542   */\n      dup4\n        /* \"#utility.yul\":3524:3531   */\n      dup6\n        /* \"#utility.yul\":3520:3543   */\n      sub\n        /* \"#utility.yul\":3516:3548   */\n      slt\n        /* \"#utility.yul\":3513:3632   */\n      iszero\n      tag_680\n      jumpi\n        /* \"#utility.yul\":3551:3630   */\n      tag_681\n      tag_566\n      jump\t// in\n    tag_681:\n        /* \"#utility.yul\":3513:3632   */\n    tag_680:\n        /* \"#utility.yul\":3671:3672   */\n      0x00\n        /* \"#utility.yul\":3696:3749   */\n      tag_682\n        /* \"#utility.yul\":3741:3748   */\n      dup6\n        /* \"#utility.yul\":3732:3738   */\n      dup3\n        /* \"#utility.yul\":3721:3730   */\n      dup7\n        /* \"#utility.yul\":3717:3739   */\n      add\n        /* \"#utility.yul\":3696:3749   */\n      tag_578\n      jump\t// in\n    tag_682:\n        /* \"#utility.yul\":3686:3749   */\n      swap3\n      pop\n        /* \"#utility.yul\":3642:3759   */\n      pop\n        /* \"#utility.yul\":3798:3800   */\n      0x20\n        /* \"#utility.yul\":3824:3877   */\n      tag_683\n        /* \"#utility.yul\":3869:3876   */\n      dup6\n        /* \"#utility.yul\":3860:3866   */\n      dup3\n        /* \"#utility.yul\":3849:3858   */\n      dup7\n        /* \"#utility.yul\":3845:3867   */\n      add\n        /* \"#utility.yul\":3824:3877   */\n      tag_581\n      jump\t// in\n    tag_683:\n        /* \"#utility.yul\":3814:3877   */\n      swap2\n      pop\n        /* \"#utility.yul\":3769:3887   */\n      pop\n        /* \"#utility.yul\":3420:3894   */\n      swap3\n      pop\n      swap3\n      swap1\n      pop\n      jump\t// out\n        /* \"#utility.yul\":3900:4229   */\n    tag_72:\n        /* \"#utility.yul\":3959:3965   */\n      0x00\n        /* \"#utility.yul\":4008:4010   */\n      0x20\n        /* \"#utility.yul\":3996:4005   */\n      dup3\n        /* \"#utility.yul\":3987:3994   */\n      dup5\n        /* \"#utility.yul\":3983:4006   */\n      sub\n        /* \"#utility.yul\":3979:4011   */\n      slt\n        /* \"#utility.yul\":3976:4095   */\n      iszero\n      tag_685\n      jumpi\n        /* \"#utility.yul\":4014:4093   */\n      tag_686\n      tag_566\n      jump\t// in\n    tag_686:\n        /* \"#utility.yul\":3976:4095   */\n    tag_685:\n        /* \"#utility.yul\":4134:4135   */\n      0x00\n        /* \"#utility.yul\":4159:4212   */\n      tag_687\n        /* \"#utility.yul\":4204:4211   */\n      dup5\n        /* \"#utility.yul\":4195:4201   */\n      dup3\n        /* \"#utility.yul\":4184:4193   */\n      dup6\n        /* \"#utility.yul\":4180:4202   */\n      add\n        /* \"#utility.yul\":4159:4212   */\n      tag_581\n      jump\t// in\n    tag_687:\n        /* \"#utility.yul\":4149:4212   */\n      swap2\n      pop\n        /* \"#utility.yul\":4105:4222   */\n      pop\n        /* \"#utility.yul\":3900:4229   */\n      swap3\n      swap2\n      pop\n      pop\n      jump\t// out\n        /* \"#utility.yul\":4235:4312   */\n    tag_582:\n        /* \"#utility.yul\":4272:4279   */\n      0x00\n        /* \"#utility.yul\":4301:4306   */\n      dup2\n        /* \"#utility.yul\":4290:4306   */\n      swap1\n      pop\n        /* \"#utility.yul\":4235:4312   */\n      swap2\n      swap1\n      pop\n      jump\t// out\n        /* \"#utility.yul\":4318:4436   */\n    tag_583:\n        /* \"#utility.yul\":4405:4429   */\n      tag_690\n        /* \"#utility.yul\":4423:4428   */\n      dup2\n        /* \"#utility.yul\":4405:4429   */\n      tag_582\n      jump\t// in\n    tag_690:\n        /* \"#utility.yul\":4400:4403   */\n      dup3\n        /* \"#utility.yul\":4393:4430   */\n      mstore\n        /* \"#utility.yul\":4318:4436   */\n      pop\n      pop\n      jump\t// out\n        /* \"#utility.yul\":4442:4664   */\n    tag_75:\n        /* \"#utility.yul\":4535:4539   */\n      0x00\n        /* \"#utility.yul\":4573:4575   */\n      0x20\n        /* \"#utility.yul\":4562:4571   */\n      dup3\n        /* \"#utility.yul\":4558:4576   */\n      add\n        /* \"#utility.yul\":4550:4576   */\n      swap1\n      pop\n        /* \"#utility.yul\":4586:4657   */\n      tag_692\n        /* \"#utility.yul\":4654:4655   */\n      0x00\n        /* \"#utility.yul\":4643:4652   */\n      dup4\n        /* \"#utility.yul\":4639:4656   */\n      add\n        /* \"#utility.yul\":4630:4636   */\n      dup5\n        /* \"#utility.yul\":4586:4657   */\n      tag_583\n      jump\t// in\n    tag_692:\n        /* \"#utility.yul\":4442:4664   */\n      swap3\n      swap2\n      pop\n      pop\n      jump\t// out\n        /* \"#utility.yul\":4670:4850   */\n    tag_202:\n        /* \"#utility.yul\":4718:4795   */\n      0x4e487b7100000000000000000000000000000000000000000000000000000000\n        /* \"#utility.yul\":4715:4716   */\n      0x00\n        /* \"#utility.yul\":4708:4796   */\n      mstore\n        /* \"#utility.yul\":4815:4819   */\n      0x21\n        /* \"#utility.yul\":4812:4813   */\n      0x04\n        /* \"#utility.yul\":4805:4820   */\n      mstore\n        /* \"#utility.yul\":4839:4843   */\n      0x24\n        /* \"#utility.yul\":4836:4837   */\n      0x00\n        /* \"#utility.yul\":4829:4844   */\n      revert\n        /* \"#utility.yul\":4856:4976   */\n    tag_584:\n        /* \"#utility.yul\":4944:4945   */\n      0x06\n        /* \"#utility.yul\":4937:4942   */\n      dup2\n        /* \"#utility.yul\":4934:4946   */\n      lt\n        /* \"#utility.yul\":4924:4970   */\n      tag_695\n      jumpi\n        /* \"#utility.yul\":4950:4968   */\n      tag_696\n      tag_202\n      jump\t// in\n    tag_696:\n        /* \"#utility.yul\":4924:4970   */\n    tag_695:\n        /* \"#utility.yul\":4856:4976   */\n      pop\n      jump\t// out\n        /* \"#utility.yul\":4982:5123   */\n    tag_585:\n        /* \"#utility.yul\":5034:5041   */\n      0x00\n        /* \"#utility.yul\":5063:5068   */\n      dup2\n        /* \"#utility.yul\":5052:5068   */\n      swap1\n      pop\n        /* \"#utility.yul\":5069:5117   */\n      tag_698\n        /* \"#utility.yul\":5111:5116   */\n      dup3\n        /* \"#utility.yul\":5069:5117   */\n      tag_584\n      jump\t// in\n    tag_698:\n        /* \"#utility.yul\":4982:5123   */\n      swap2\n      swap1\n      pop\n      jump\t// out\n        /* \"#utility.yul\":5129:5270   */\n    tag_586:\n        /* \"#utility.yul\":5192:5201   */\n      0x00\n        /* \"#utility.yul\":5225:5264   */\n      tag_700\n        /* \"#utility.yul\":5258:5263   */\n      dup3\n        /* \"#utility.yul\":5225:5264   */\n      tag_585\n      jump\t// in\n    tag_700:\n        /* \"#utility.yul\":5212:5264   */\n      swap1\n      pop\n        /* \"#utility.yul\":5129:5270   */\n      swap2\n      swap1\n      pop\n      jump\t// out\n        /* \"#utility.yul\":5276:5433   */\n    tag_587:\n        /* \"#utility.yul\":5376:5426   */\n      tag_702\n        /* \"#utility.yul\":5420:5425   */\n      dup2\n        /* \"#utility.yul\":5376:5426   */\n      tag_586\n      jump\t// in\n    tag_702:\n        /* \"#utility.yul\":5371:5374   */\n      dup3\n        /* \"#utility.yul\":5364:5427   */\n      mstore\n        /* \"#utility.yul\":5276:5433   */\n      pop\n      pop\n      jump\t// out\n        /* \"#utility.yul\":5439:6351   */\n    tag_84:\n        /* \"#utility.yul\":5713:5717   */\n      0x00\n        /* \"#utility.yul\":5751:5754   */\n      0xe0\n        /* \"#utility.yul\":5740:5749   */\n      dup3\n        /* \"#utility.yul\":5736:5755   */\n      add\n        /* \"#utility.yul\":5728:5755   */\n      swap1\n      pop\n        /* \"#utility.yul\":5765:5849   */\n      tag_704\n        /* \"#utility.yul\":5846:5847   */\n      0x00\n        /* \"#utility.yul\":5835:5844   */\n      dup4\n        /* \"#utility.yul\":5831:5848   */\n      add\n        /* \"#utility.yul\":5822:5828   */\n      dup11\n        /* \"#utility.yul\":5765:5849   */\n      tag_587\n      jump\t// in\n    tag_704:\n        /* \"#utility.yul\":5859:5931   */\n      tag_705\n        /* \"#utility.yul\":5927:5929   */\n      0x20\n        /* \"#utility.yul\":5916:5925   */\n      dup4\n        /* \"#utility.yul\":5912:5930   */\n      add\n        /* \"#utility.yul\":5903:5909   */\n      dup10\n        /* \"#utility.yul\":5859:5931   */\n      tag_583\n      jump\t// in\n    tag_705:\n        /* \"#utility.yul\":5941:6013   */\n      tag_706\n        /* \"#utility.yul\":6009:6011   */\n      0x40\n        /* \"#utility.yul\":5998:6007   */\n      dup4\n        /* \"#utility.yul\":5994:6012   */\n      add\n        /* \"#utility.yul\":5985:5991   */\n      dup9\n        /* \"#utility.yul\":5941:6013   */\n      tag_583\n      jump\t// in\n    tag_706:\n        /* \"#utility.yul\":6023:6095   */\n      tag_707\n        /* \"#utility.yul\":6091:6093   */\n      0x60\n        /* \"#utility.yul\":6080:6089   */\n      dup4\n        /* \"#utility.yul\":6076:6094   */\n      add\n        /* \"#utility.yul\":6067:6073   */\n      dup8\n        /* \"#utility.yul\":6023:6095   */\n      tag_583\n      jump\t// in\n    tag_707:\n        /* \"#utility.yul\":6105:6178   */\n      tag_708\n        /* \"#utility.yul\":6173:6176   */\n      0x80\n        /* \"#utility.yul\":6162:6171   */\n      dup4\n        /* \"#utility.yul\":6158:6177   */\n      add\n        /* \"#utility.yul\":6149:6155   */\n      dup7\n        /* \"#utility.yul\":6105:6178   */\n      tag_583\n      jump\t// in\n    tag_708:\n        /* \"#utility.yul\":6188:6261   */\n      tag_709\n        /* \"#utility.yul\":6256:6259   */\n      0xa0\n        /* \"#utility.yul\":6245:6254   */\n      dup4\n        /* \"#utility.yul\":6241:6260   */\n      add\n        /* \"#utility.yul\":6232:6238   */\n      dup6\n        /* \"#utility.yul\":6188:6261   */\n      tag_583\n      jump\t// in\n    tag_709:\n        /* \"#utility.yul\":6271:6344   */\n      tag_710\n        /* \"#utility.yul\":6339:6342   */\n      0xc0\n        /* \"#utility.yul\":6328:6337   */\n      dup4\n        /* \"#utility.yul\":6324:6343   */\n      add\n        /* \"#utility.yul\":6315:6321   */\n      dup5\n        /* \"#utility.yul\":6271:6344   */\n      tag_583\n      jump\t// in\n    tag_710:\n        /* \"#utility.yul\":5439:6351   */\n      swap9\n      swap8\n      pop\n      pop\n      pop\n      pop\n      pop\n      pop\n      pop\n      pop\n      jump\t// out\n        /* \"#utility.yul\":6357:6473   */\n    tag_588:\n        /* \"#utility.yul\":6427:6448   */\n      tag_712\n        /* \"#utility.yul\":6442:6447   */\n      dup2\n        /* \"#utility.yul\":6427:6448   */\n      tag_571\n      jump\t// in\n    tag_712:\n        /* \"#utility.yul\":6420:6425   */\n      dup2\n        /* \"#utility.yul\":6417:6449   */\n      eq\n        /* \"#utility.yul\":6407:6467   */\n      tag_713\n      jumpi\n        /* \"#utility.yul\":6463:6464   */\n      0x00\n        /* \"#utility.yul\":6460:6461   */\n      dup1\n        /* \"#utility.yul\":6453:6465   */\n      revert\n        /* \"#utility.yul\":6407:6467   */\n    tag_713:\n        /* \"#utility.yul\":6357:6473   */\n      pop\n      jump\t// out\n        /* \"#utility.yul\":6479:6612   */\n    tag_589:\n        /* \"#utility.yul\":6522:6527   */\n      0x00\n        /* \"#utility.yul\":6560:6566   */\n      dup2\n        /* \"#utility.yul\":6547:6567   */\n      calldataload\n        /* \"#utility.yul\":6538:6567   */\n      swap1\n      pop\n        /* \"#utility.yul\":6576:6606   */\n      tag_715\n        /* \"#utility.yul\":6600:6605   */\n      dup2\n        /* \"#utility.yul\":6576:6606   */\n      tag_588\n      jump\t// in\n    tag_715:\n        /* \"#utility.yul\":6479:6612   */\n      swap3\n      swap2\n      pop\n      pop\n      jump\t// out\n        /* \"#utility.yul\":6618:6941   */\n    tag_104:\n        /* \"#utility.yul\":6674:6680   */\n      0x00\n        /* \"#utility.yul\":6723:6725   */\n      0x20\n        /* \"#utility.yul\":6711:6720   */\n      dup3\n        /* \"#utility.yul\":6702:6709   */\n      dup5\n        /* \"#utility.yul\":6698:6721   */\n      sub\n        /* \"#utility.yul\":6694:6726   */\n      slt\n        /* \"#utility.yul\":6691:6810   */\n      iszero\n      tag_717\n      jumpi\n        /* \"#utility.yul\":6729:6808   */\n      tag_718\n      tag_566\n      jump\t// in\n    tag_718:\n        /* \"#utility.yul\":6691:6810   */\n    tag_717:\n        /* \"#utility.yul\":6849:6850   */\n      0x00\n        /* \"#utility.yul\":6874:6924   */\n      tag_719\n        /* \"#utility.yul\":6916:6923   */\n      dup5\n        /* \"#utility.yul\":6907:6913   */\n      dup3\n        /* \"#utility.yul\":6896:6905   */\n      dup6\n        /* \"#utility.yul\":6892:6914   */\n      add\n        /* \"#utility.yul\":6874:6924   */\n      tag_589\n      jump\t// in\n    tag_719:\n        /* \"#utility.yul\":6864:6924   */\n      swap2\n      pop\n        /* \"#utility.yul\":6820:6934   */\n      pop\n        /* \"#utility.yul\":6618:6941   */\n      swap3\n      swap2\n      pop\n      pop\n      jump\t// out\n        /* \"#utility.yul\":6947:7033   */\n    tag_590:\n        /* \"#utility.yul\":6982:6989   */\n      0x00\n        /* \"#utility.yul\":7022:7026   */\n      0xff\n        /* \"#utility.yul\":7015:7020   */\n      dup3\n        /* \"#utility.yul\":7011:7027   */\n      and\n        /* \"#utility.yul\":7000:7027   */\n      swap1\n      pop\n        /* \"#utility.yul\":6947:7033   */\n      swap2\n      swap1\n      pop\n      jump\t// out\n        /* \"#utility.yul\":7039:7151   */\n    tag_591:\n        /* \"#utility.yul\":7122:7144   */\n      tag_722\n        /* \"#utility.yul\":7138:7143   */\n      dup2\n        /* \"#utility.yul\":7122:7144   */\n      tag_590\n      jump\t// in\n    tag_722:\n        /* \"#utility.yul\":7117:7120   */\n      dup3\n        /* \"#utility.yul\":7110:7145   */\n      mstore\n        /* \"#utility.yul\":7039:7151   */\n      pop\n      pop\n      jump\t// out\n        /* \"#utility.yul\":7157:8465   */\n    tag_152:\n        /* \"#utility.yul\":7519:7523   */\n      0x00\n        /* \"#utility.yul\":7557:7560   */\n      0x0160\n        /* \"#utility.yul\":7546:7555   */\n      dup3\n        /* \"#utility.yul\":7542:7561   */\n      add\n        /* \"#utility.yul\":7534:7561   */\n      swap1\n      pop\n        /* \"#utility.yul\":7571:7642   */\n      tag_724\n        /* \"#utility.yul\":7639:7640   */\n      0x00\n        /* \"#utility.yul\":7628:7637   */\n      dup4\n        /* \"#utility.yul\":7624:7641   */\n      add\n        /* \"#utility.yul\":7615:7621   */\n      dup15\n        /* \"#utility.yul\":7571:7642   */\n      tag_583\n      jump\t// in\n    tag_724:\n        /* \"#utility.yul\":7652:7724   */\n      tag_725\n        /* \"#utility.yul\":7720:7722   */\n      0x20\n        /* \"#utility.yul\":7709:7718   */\n      dup4\n        /* \"#utility.yul\":7705:7723   */\n      add\n        /* \"#utility.yul\":7696:7702   */\n      dup14\n        /* \"#utility.yul\":7652:7724   */\n      tag_583\n      jump\t// in\n    tag_725:\n        /* \"#utility.yul\":7734:7806   */\n      tag_726\n        /* \"#utility.yul\":7802:7804   */\n      0x40\n        /* \"#utility.yul\":7791:7800   */\n      dup4\n        /* \"#utility.yul\":7787:7805   */\n      add\n        /* \"#utility.yul\":7778:7784   */\n      dup13\n        /* \"#utility.yul\":7734:7806   */\n      tag_583\n      jump\t// in\n    tag_726:\n        /* \"#utility.yul\":7816:7888   */\n      tag_727\n        /* \"#utility.yul\":7884:7886   */\n      0x60\n        /* \"#utility.yul\":7873:7882   */\n      dup4\n        /* \"#utility.yul\":7869:7887   */\n      add\n        /* \"#utility.yul\":7860:7866   */\n      dup12\n        /* \"#utility.yul\":7816:7888   */\n      tag_583\n      jump\t// in\n    tag_727:\n        /* \"#utility.yul\":7898:7971   */\n      tag_728\n        /* \"#utility.yul\":7966:7969   */\n      0x80\n        /* \"#utility.yul\":7955:7964   */\n      dup4\n        /* \"#utility.yul\":7951:7970   */\n      add\n        /* \"#utility.yul\":7942:7948   */\n      dup11\n        /* \"#utility.yul\":7898:7971   */\n      tag_583\n      jump\t// in\n    tag_728:\n        /* \"#utility.yul\":7981:8054   */\n      tag_729\n        /* \"#utility.yul\":8049:8052   */\n      0xa0\n        /* \"#utility.yul\":8038:8047   */\n      dup4\n        /* \"#utility.yul\":8034:8053   */\n      add\n        /* \"#utility.yul\":8025:8031   */\n      dup10\n        /* \"#utility.yul\":7981:8054   */\n      tag_583\n      jump\t// in\n    tag_729:\n        /* \"#utility.yul\":8064:8137   */\n      tag_730\n        /* \"#utility.yul\":8132:8135   */\n      0xc0\n        /* \"#utility.yul\":8121:8130   */\n      dup4\n        /* \"#utility.yul\":8117:8136   */\n      add\n        /* \"#utility.yul\":8108:8114   */\n      dup9\n        /* \"#utility.yul\":8064:8137   */\n      tag_583\n      jump\t// in\n    tag_730:\n        /* \"#utility.yul\":8147:8220   */\n      tag_731\n        /* \"#utility.yul\":8215:8218   */\n      0xe0\n        /* \"#utility.yul\":8204:8213   */\n      dup4\n        /* \"#utility.yul\":8200:8219   */\n      add\n        /* \"#utility.yul\":8191:8197   */\n      dup8\n        /* \"#utility.yul\":8147:8220   */\n      tag_583\n      jump\t// in\n    tag_731:\n        /* \"#utility.yul\":8230:8299   */\n      tag_732\n        /* \"#utility.yul\":8294:8297   */\n      0x0100\n        /* \"#utility.yul\":8283:8292   */\n      dup4\n        /* \"#utility.yul\":8279:8298   */\n      add\n        /* \"#utility.yul\":8270:8276   */\n      dup7\n        /* \"#utility.yul\":8230:8299   */\n      tag_591\n      jump\t// in\n    tag_732:\n        /* \"#utility.yul\":8309:8378   */\n      tag_733\n        /* \"#utility.yul\":8373:8376   */\n      0x0120\n        /* \"#utility.yul\":8362:8371   */\n      dup4\n        /* \"#utility.yul\":8358:8377   */\n      add\n        /* \"#utility.yul\":8349:8355   */\n      dup6\n        /* \"#utility.yul\":8309:8378   */\n      tag_591\n      jump\t// in\n    tag_733:\n        /* \"#utility.yul\":8388:8458   */\n      tag_734\n        /* \"#utility.yul\":8453:8456   */\n      0x0140\n        /* \"#utility.yul\":8442:8451   */\n      dup4\n        /* \"#utility.yul\":8438:8457   */\n      add\n        /* \"#utility.yul\":8428:8435   */\n      dup5\n        /* \"#utility.yul\":8388:8458   */\n      tag_591\n      jump\t// in\n    tag_734:\n        /* \"#utility.yul\":7157:8465   */\n      swap13\n      swap12\n      pop\n      pop\n      pop\n      pop\n      pop\n      pop\n      pop\n      pop\n      pop\n      pop\n      pop\n      pop\n      jump\t// out\n        /* \"#utility.yul\":8471:8593   */\n    tag_592:\n        /* \"#utility.yul\":8544:8568   */\n      tag_736\n        /* \"#utility.yul\":8562:8567   */\n      dup2\n        /* \"#utility.yul\":8544:8568   */\n      tag_582\n      jump\t// in\n    tag_736:\n        /* \"#utility.yul\":8537:8542   */\n      dup2\n        /* \"#utility.yul\":8534:8569   */\n      eq\n        /* \"#utility.yul\":8524:8587   */\n      tag_737\n      jumpi\n        /* \"#utility.yul\":8583:8584   */\n      0x00\n        /* \"#utility.yul\":8580:8581   */\n      dup1\n        /* \"#utility.yul\":8573:8585   */\n      revert\n        /* \"#utility.yul\":8524:8587   */\n    tag_737:\n        /* \"#utility.yul\":8471:8593   */\n      pop\n      jump\t// out\n        /* \"#utility.yul\":8599:8738   */\n    tag_593:\n        /* \"#utility.yul\":8645:8650   */\n      0x00\n        /* \"#utility.yul\":8683:8689   */\n      dup2\n        /* \"#utility.yul\":8670:8690   */\n      calldataload\n        /* \"#utility.yul\":8661:8690   */\n      swap1\n      pop\n        /* \"#utility.yul\":8699:8732   */\n      tag_739\n        /* \"#utility.yul\":8726:8731   */\n      dup2\n        /* \"#utility.yul\":8699:8732   */\n      tag_592\n      jump\t// in\n    tag_739:\n        /* \"#utility.yul\":8599:8738   */\n      swap3\n      swap2\n      pop\n      pop\n      jump\t// out\n        /* \"#utility.yul\":8744:9218   */\n    tag_169:\n        /* \"#utility.yul\":8812:8818   */\n      0x00\n        /* \"#utility.yul\":8820:8826   */\n      dup1\n        /* \"#utility.yul\":8869:8871   */\n      0x40\n        /* \"#utility.yul\":8857:8866   */\n      dup4\n        /* \"#utility.yul\":8848:8855   */\n      dup6\n        /* \"#utility.yul\":8844:8867   */\n      sub\n        /* \"#utility.yul\":8840:8872   */\n      slt\n        /* \"#utility.yul\":8837:8956   */\n      iszero\n      tag_741\n      jumpi\n        /* \"#utility.yul\":8875:8954   */\n      tag_742\n      tag_566\n      jump\t// in\n    tag_742:\n        /* \"#utility.yul\":8837:8956   */\n    tag_741:\n        /* \"#utility.yul\":8995:8996   */\n      0x00\n        /* \"#utility.yul\":9020:9073   */\n      tag_743\n        /* \"#utility.yul\":9065:9072   */\n      dup6\n        /* \"#utility.yul\":9056:9062   */\n      dup3\n        /* \"#utility.yul\":9045:9054   */\n      dup7\n        /* \"#utility.yul\":9041:9063   */\n      add\n        /* \"#utility.yul\":9020:9073   */\n      tag_593\n      jump\t// in\n    tag_743:\n        /* \"#utility.yul\":9010:9073   */\n      swap3\n      pop\n        /* \"#utility.yul\":8966:9083   */\n      pop\n        /* \"#utility.yul\":9122:9124   */\n      0x20\n        /* \"#utility.yul\":9148:9201   */\n      tag_744\n        /* \"#utility.yul\":9193:9200   */\n      dup6\n        /* \"#utility.yul\":9184:9190   */\n      dup3\n        /* \"#utility.yul\":9173:9182   */\n      dup7\n        /* \"#utility.yul\":9169:9191   */\n      add\n        /* \"#utility.yul\":9148:9201   */\n      tag_581\n      jump\t// in\n    tag_744:\n        /* \"#utility.yul\":9138:9201   */\n      swap2\n      pop\n        /* \"#utility.yul\":9093:9211   */\n      pop\n        /* \"#utility.yul\":8744:9218   */\n      swap3\n      pop\n      swap3\n      swap1\n      pop\n      jump\t// out\n        /* \"#utility.yul\":9224:9553   */\n    tag_174:\n        /* \"#utility.yul\":9283:9289   */\n      0x00\n        /* \"#utility.yul\":9332:9334   */\n      0x20\n        /* \"#utility.yul\":9320:9329   */\n      dup3\n        /* \"#utility.yul\":9311:9318   */\n      dup5\n        /* \"#utility.yul\":9307:9330   */\n      sub\n        /* \"#utility.yul\":9303:9335   */\n      slt\n        /* \"#utility.yul\":9300:9419   */\n      iszero\n      tag_746\n      jumpi\n        /* \"#utility.yul\":9338:9417   */\n      tag_747\n      tag_566\n      jump\t// in\n    tag_747:\n        /* \"#utility.yul\":9300:9419   */\n    tag_746:\n        /* \"#utility.yul\":9458:9459   */\n      0x00\n        /* \"#utility.yul\":9483:9536   */\n      tag_748\n        /* \"#utility.yul\":9528:9535   */\n      dup5\n        /* \"#utility.yul\":9519:9525   */\n      dup3\n        /* \"#utility.yul\":9508:9517   */\n      dup6\n        /* \"#utility.yul\":9504:9526   */\n      add\n        /* \"#utility.yul\":9483:9536   */\n      tag_593\n      jump\t// in\n    tag_748:\n        /* \"#utility.yul\":9473:9536   */\n      swap2\n      pop\n        /* \"#utility.yul\":9429:9546   */\n      pop\n        /* \"#utility.yul\":9224:9553   */\n      swap3\n      swap2\n      pop\n      pop\n      jump\t// out\n        /* \"#utility.yul\":9559:9891   */\n    tag_177:\n        /* \"#utility.yul\":9680:9684   */\n      0x00\n        /* \"#utility.yul\":9718:9720   */\n      0x40\n        /* \"#utility.yul\":9707:9716   */\n      dup3\n        /* \"#utility.yul\":9703:9721   */\n      add\n        /* \"#utility.yul\":9695:9721   */\n      swap1\n      pop\n        /* \"#utility.yul\":9731:9802   */\n      tag_750\n        /* \"#utility.yul\":9799:9800   */\n      0x00\n        /* \"#utility.yul\":9788:9797   */\n      dup4\n        /* \"#utility.yul\":9784:9801   */\n      add\n        /* \"#utility.yul\":9775:9781   */\n      dup6\n        /* \"#utility.yul\":9731:9802   */\n      tag_583\n      jump\t// in\n    tag_750:\n        /* \"#utility.yul\":9812:9884   */\n      tag_751\n        /* \"#utility.yul\":9880:9882   */\n      0x20\n        /* \"#utility.yul\":9869:9878   */\n      dup4\n        /* \"#utility.yul\":9865:9883   */\n      add\n        /* \"#utility.yul\":9856:9862   */\n      dup5\n        /* \"#utility.yul\":9812:9884   */\n      tag_575\n      jump\t// in\n    tag_751:\n        /* \"#utility.yul\":9559:9891   */\n      swap4\n      swap3\n      pop\n      pop\n      pop\n      jump\t// out\n        /* \"#utility.yul\":9897:10066   */\n    tag_594:\n        /* \"#utility.yul\":9981:9992   */\n      0x00\n        /* \"#utility.yul\":10015:10021   */\n      dup3\n        /* \"#utility.yul\":10010:10013   */\n      dup3\n        /* \"#utility.yul\":10003:10022   */\n      mstore\n        /* \"#utility.yul\":10055:10059   */\n      0x20\n        /* \"#utility.yul\":10050:10053   */\n      dup3\n        /* \"#utility.yul\":10046:10060   */\n      add\n        /* \"#utility.yul\":10031:10060   */\n      swap1\n      pop\n        /* \"#utility.yul\":9897:10066   */\n      swap3\n      swap2\n      pop\n      pop\n      jump\t// out\n        /* \"#utility.yul\":10072:10306   */\n    tag_595:\n        /* \"#utility.yul\":10212:10246   */\n      0x416363657373436f6e74726f6c3a2063616e206f6e6c792072656e6f756e6365\n        /* \"#utility.yul\":10208:10209   */\n      0x00\n        /* \"#utility.yul\":10200:10206   */\n      dup3\n        /* \"#utility.yul\":10196:10210   */\n      add\n        /* \"#utility.yul\":10189:10247   */\n      mstore\n        /* \"#utility.yul\":10281:10298   */\n      0x20726f6c657320666f722073656c660000000000000000000000000000000000\n        /* \"#utility.yul\":10276:10278   */\n      0x20\n        /* \"#utility.yul\":10268:10274   */\n      dup3\n        /* \"#utility.yul\":10264:10279   */\n      add\n        /* \"#utility.yul\":10257:10299   */\n      mstore\n        /* \"#utility.yul\":10072:10306   */\n      pop\n      jump\t// out\n        /* \"#utility.yul\":10312:10678   */\n    tag_596:\n        /* \"#utility.yul\":10454:10457   */\n      0x00\n        /* \"#utility.yul\":10475:10542   */\n      tag_755\n        /* \"#utility.yul\":10539:10541   */\n      0x2f\n        /* \"#utility.yul\":10534:10537   */\n      dup4\n        /* \"#utility.yul\":10475:10542   */\n      tag_594\n      jump\t// in\n    tag_755:\n        /* \"#utility.yul\":10468:10542   */\n      swap2\n      pop\n        /* \"#utility.yul\":10551:10644   */\n      tag_756\n        /* \"#utility.yul\":10640:10643   */\n      dup3\n        /* \"#utility.yul\":10551:10644   */\n      tag_595\n      jump\t// in\n    tag_756:\n        /* \"#utility.yul\":10669:10671   */\n      0x40\n        /* \"#utility.yul\":10664:10667   */\n      dup3\n        /* \"#utility.yul\":10660:10672   */\n      add\n        /* \"#utility.yul\":10653:10672   */\n      swap1\n      pop\n        /* \"#utility.yul\":10312:10678   */\n      swap2\n      swap1\n      pop\n      jump\t// out\n        /* \"#utility.yul\":10684:11103   */\n    tag_210:\n        /* \"#utility.yul\":10850:10854   */\n      0x00\n        /* \"#utility.yul\":10888:10890   */\n      0x20\n        /* \"#utility.yul\":10877:10886   */\n      dup3\n        /* \"#utility.yul\":10873:10891   */\n      add\n        /* \"#utility.yul\":10865:10891   */\n      swap1\n      pop\n        /* \"#utility.yul\":10937:10946   */\n      dup2\n        /* \"#utility.yul\":10931:10935   */\n      dup2\n        /* \"#utility.yul\":10927:10947   */\n      sub\n        /* \"#utility.yul\":10923:10924   */\n      0x00\n        /* \"#utility.yul\":10912:10921   */\n      dup4\n        /* \"#utility.yul\":10908:10925   */\n      add\n        /* \"#utility.yul\":10901:10948   */\n      mstore\n        /* \"#utility.yul\":10965:11096   */\n      tag_758\n        /* \"#utility.yul\":11091:11095   */\n      dup2\n        /* \"#utility.yul\":10965:11096   */\n      tag_596\n      jump\t// in\n    tag_758:\n        /* \"#utility.yul\":10957:11096   */\n      swap1\n      pop\n        /* \"#utility.yul\":10684:11103   */\n      swap2\n      swap1\n      pop\n      jump\t// out\n        /* \"#utility.yul\":11109:11289   */\n    tag_246:\n        /* \"#utility.yul\":11157:11234   */\n      0x4e487b7100000000000000000000000000000000000000000000000000000000\n        /* \"#utility.yul\":11154:11155   */\n      0x00\n        /* \"#utility.yul\":11147:11235   */\n      mstore\n        /* \"#utility.yul\":11254:11258   */\n      0x32\n        /* \"#utility.yul\":11251:11252   */\n      0x04\n        /* \"#utility.yul\":11244:11259   */\n      mstore\n        /* \"#utility.yul\":11278:11282   */\n      0x24\n        /* \"#utility.yul\":11275:11276   */\n      0x00\n        /* \"#utility.yul\":11268:11283   */\n      revert\n        /* \"#utility.yul\":11295:11475   */\n    tag_597:\n        /* \"#utility.yul\":11343:11420   */\n      0x4e487b7100000000000000000000000000000000000000000000000000000000\n        /* \"#utility.yul\":11340:11341   */\n      0x00\n        /* \"#utility.yul\":11333:11421   */\n      mstore\n        /* \"#utility.yul\":11440:11444   */\n      0x11\n        /* \"#utility.yul\":11437:11438   */\n      0x04\n        /* \"#utility.yul\":11430:11445   */\n      mstore\n        /* \"#utility.yul\":11464:11468   */\n      0x24\n        /* \"#utility.yul\":11461:11462   */\n      0x00\n        /* \"#utility.yul\":11454:11469   */\n      revert\n        /* \"#utility.yul\":11481:11675   */\n    tag_250:\n        /* \"#utility.yul\":11521:11525   */\n      0x00\n        /* \"#utility.yul\":11541:11561   */\n      tag_762\n        /* \"#utility.yul\":11559:11560   */\n      dup3\n        /* \"#utility.yul\":11541:11561   */\n      tag_582\n      jump\t// in\n    tag_762:\n        /* \"#utility.yul\":11536:11561   */\n      swap2\n      pop\n        /* \"#utility.yul\":11575:11595   */\n      tag_763\n        /* \"#utility.yul\":11593:11594   */\n      dup4\n        /* \"#utility.yul\":11575:11595   */\n      tag_582\n      jump\t// in\n    tag_763:\n        /* \"#utility.yul\":11570:11595   */\n      swap3\n      pop\n        /* \"#utility.yul\":11619:11620   */\n      dup3\n        /* \"#utility.yul\":11616:11617   */\n      dup3\n        /* \"#utility.yul\":11612:11621   */\n      sub\n        /* \"#utility.yul\":11604:11621   */\n      swap1\n      pop\n        /* \"#utility.yul\":11643:11644   */\n      dup2\n        /* \"#utility.yul\":11637:11641   */\n      dup2\n        /* \"#utility.yul\":11634:11645   */\n      gt\n        /* \"#utility.yul\":11631:11668   */\n      iszero\n      tag_764\n      jumpi\n        /* \"#utility.yul\":11648:11666   */\n      tag_765\n      tag_597\n      jump\t// in\n    tag_765:\n        /* \"#utility.yul\":11631:11668   */\n    tag_764:\n        /* \"#utility.yul\":11481:11675   */\n      swap3\n      swap2\n      pop\n      pop\n      jump\t// out\n        /* \"#utility.yul\":11681:11872   */\n    tag_255:\n        /* \"#utility.yul\":11721:11724   */\n      0x00\n        /* \"#utility.yul\":11740:11760   */\n      tag_767\n        /* \"#utility.yul\":11758:11759   */\n      dup3\n        /* \"#utility.yul\":11740:11760   */\n      tag_582\n      jump\t// in\n    tag_767:\n        /* \"#utility.yul\":11735:11760   */\n      swap2\n      pop\n        /* \"#utility.yul\":11774:11794   */\n      tag_768\n        /* \"#utility.yul\":11792:11793   */\n      dup4\n        /* \"#utility.yul\":11774:11794   */\n      tag_582\n      jump\t// in\n    tag_768:\n        /* \"#utility.yul\":11769:11794   */\n      swap3\n      pop\n        /* \"#utility.yul\":11817:11818   */\n      dup3\n        /* \"#utility.yul\":11814:11815   */\n      dup3\n        /* \"#utility.yul\":11810:11819   */\n      add\n        /* \"#utility.yul\":11803:11819   */\n      swap1\n      pop\n        /* \"#utility.yul\":11838:11841   */\n      dup1\n        /* \"#utility.yul\":11835:11836   */\n      dup3\n        /* \"#utility.yul\":11832:11842   */\n      gt\n        /* \"#utility.yul\":11829:11865   */\n      iszero\n      tag_769\n      jumpi\n        /* \"#utility.yul\":11845:11863   */\n      tag_770\n      tag_597\n      jump\t// in\n    tag_770:\n        /* \"#utility.yul\":11829:11865   */\n    tag_769:\n        /* \"#utility.yul\":11681:11872   */\n      swap3\n      swap2\n      pop\n      pop\n      jump\t// out\n        /* \"#utility.yul\":11878:12111   */\n    tag_260:\n        /* \"#utility.yul\":11917:11920   */\n      0x00\n        /* \"#utility.yul\":11940:11964   */\n      tag_772\n        /* \"#utility.yul\":11958:11963   */\n      dup3\n        /* \"#utility.yul\":11940:11964   */\n      tag_582\n      jump\t// in\n    tag_772:\n        /* \"#utility.yul\":11931:11964   */\n      swap2\n      pop\n        /* \"#utility.yul\":11986:12052   */\n      0xffffffffffffffffffffffffffffffffffffffffffffffffffffffffffffffff\n        /* \"#utility.yul\":11979:11984   */\n      dup3\n        /* \"#utility.yul\":11976:12053   */\n      sub\n        /* \"#utility.yul\":11973:12076   */\n      tag_773\n      jumpi\n        /* \"#utility.yul\":12056:12074   */\n      tag_774\n      tag_597\n      jump\t// in\n    tag_774:\n        /* \"#utility.yul\":11973:12076   */\n    tag_773:\n        /* \"#utility.yul\":12103:12104   */\n      0x01\n        /* \"#utility.yul\":12096:12101   */\n      dup3\n        /* \"#utility.yul\":12092:12105   */\n      add\n        /* \"#utility.yul\":12085:12105   */\n      swap1\n      pop\n        /* \"#utility.yul\":11878:12111   */\n      swap2\n      swap1\n      pop\n      jump\t// out\n        /* \"#utility.yul\":12117:12269   */\n    tag_598:\n        /* \"#utility.yul\":12257:12261   */\n      0x4531000000000000000000000000000000000000000000000000000000000000\n        /* \"#utility.yul\":12253:12254   */\n      0x00\n        /* \"#utility.yul\":12245:12251   */\n      dup3\n        /* \"#utility.yul\":12241:12255   */\n      add\n        /* \"#utility.yul\":12234:12262   */\n      mstore\n        /* \"#utility.yul\":12117:12269   */\n      pop\n      jump\t// out\n        /* \"#utility.yul\":12275:12640   */\n    tag_599:\n        /* \"#utility.yul\":12417:12420   */\n      0x00\n        /* \"#utility.yul\":12438:12504   */\n      tag_777\n        /* \"#utility.yul\":12502:12503   */\n      0x02\n        /* \"#utility.yul\":12497:12500   */\n      dup4\n        /* \"#utility.yul\":12438:12504   */\n      tag_594\n      jump\t// in\n    tag_777:\n        /* \"#utility.yul\":12431:12504   */\n      swap2\n      pop\n        /* \"#utility.yul\":12513:12606   */\n      tag_778\n        /* \"#utility.yul\":12602:12605   */\n      dup3\n        /* \"#utility.yul\":12513:12606   */\n      tag_598\n      jump\t// in\n    tag_778:\n        /* \"#utility.yul\":12631:12633   */\n      0x20\n        /* \"#utility.yul\":12626:12629   */\n      dup3\n        /* \"#utility.yul\":12622:12634   */\n      add\n        /* \"#utility.yul\":12615:12634   */\n      swap1\n      pop\n        /* \"#utility.yul\":12275:12640   */\n      swap2\n      swap1\n      pop\n      jump\t// out\n        /* \"#utility.yul\":12646:13065   */\n    tag_300:\n        /* \"#utility.yul\":12812:12816   */\n      0x00\n        /* \"#utility.yul\":12850:12852   */\n      0x20\n        /* \"#utility.yul\":12839:12848   */\n      dup3\n        /* \"#utility.yul\":12835:12853   */\n      add\n        /* \"#utility.yul\":12827:12853   */\n      swap1\n      pop\n        /* \"#utility.yul\":12899:12908   */\n      dup2\n        /* \"#utility.yul\":12893:12897   */\n      dup2\n        /* \"#utility.yul\":12889:12909   */\n      sub\n        /* \"#utility.yul\":12885:12886   */\n      0x00\n        /* \"#utility.yul\":12874:12883   */\n      dup4\n        /* \"#utility.yul\":12870:12887   */\n      add\n        /* \"#utility.yul\":12863:12910   */\n      mstore\n        /* \"#utility.yul\":12927:13058   */\n      tag_780\n        /* \"#utility.yul\":13053:13057   */\n      dup2\n        /* \"#utility.yul\":12927:13058   */\n      tag_599\n      jump\t// in\n    tag_780:\n        /* \"#utility.yul\":12919:13058   */\n      swap1\n      pop\n        /* \"#utility.yul\":12646:13065   */\n      swap2\n      swap1\n      pop\n      jump\t// out\n        /* \"#utility.yul\":13071:13223   */\n    tag_600:\n        /* \"#utility.yul\":13211:13215   */\n      0x4532000000000000000000000000000000000000000000000000000000000000\n        /* \"#utility.yul\":13207:13208   */\n      0x00\n        /* \"#utility.yul\":13199:13205   */\n      dup3\n        /* \"#utility.yul\":13195:13209   */\n      add\n        /* \"#utility.yul\":13188:13216   */\n      mstore\n        /* \"#utility.yul\":13071:13223   */\n      pop\n      jump\t// out\n        /* \"#utility.yul\":13229:13594   */\n    tag_601:\n        /* \"#utility.yul\":13371:13374   */\n      0x00\n        /* \"#utility.yul\":13392:13458   */\n      tag_783\n        /* \"#utility.yul\":13456:13457   */\n      0x02\n        /* \"#utility.yul\":13451:13454   */\n      dup4\n        /* \"#utility.yul\":13392:13458   */\n      tag_594\n      jump\t// in\n    tag_783:\n        /* \"#utility.yul\":13385:13458   */\n      swap2\n      pop\n        /* \"#utility.yul\":13467:13560   */\n      tag_784\n        /* \"#utility.yul\":13556:13559   */\n      dup3\n        /* \"#utility.yul\":13467:13560   */\n      tag_600\n      jump\t// in\n    tag_784:\n        /* \"#utility.yul\":13585:13587   */\n      0x20\n        /* \"#utility.yul\":13580:13583   */\n      dup3\n        /* \"#utility.yul\":13576:13588   */\n      add\n        /* \"#utility.yul\":13569:13588   */\n      swap1\n      pop\n        /* \"#utility.yul\":13229:13594   */\n      swap2\n      swap1\n      pop\n      jump\t// out\n        /* \"#utility.yul\":13600:14019   */\n    tag_303:\n        /* \"#utility.yul\":13766:13770   */\n      0x00\n        /* \"#utility.yul\":13804:13806   */\n      0x20\n        /* \"#utility.yul\":13793:13802   */\n      dup3\n        /* \"#utility.yul\":13789:13807   */\n      add\n        /* \"#utility.yul\":13781:13807   */\n      swap1\n      pop\n        /* \"#utility.yul\":13853:13862   */\n      dup2\n        /* \"#utility.yul\":13847:13851   */\n      dup2\n        /* \"#utility.yul\":13843:13863   */\n      sub\n        /* \"#utility.yul\":13839:13840   */\n      0x00\n        /* \"#utility.yul\":13828:13837   */\n      dup4\n        /* \"#utility.yul\":13824:13841   */\n      add\n        /* \"#utility.yul\":13817:13864   */\n      mstore\n        /* \"#utility.yul\":13881:14012   */\n      tag_786\n        /* \"#utility.yul\":14007:14011   */\n      dup2\n        /* \"#utility.yul\":13881:14012   */\n      tag_601\n      jump\t// in\n    tag_786:\n        /* \"#utility.yul\":13873:14012   */\n      swap1\n      pop\n        /* \"#utility.yul\":13600:14019   */\n      swap2\n      swap1\n      pop\n      jump\t// out\n        /* \"#utility.yul\":14025:14177   */\n    tag_602:\n        /* \"#utility.yul\":14165:14169   */\n      0x4533000000000000000000000000000000000000000000000000000000000000\n        /* \"#utility.yul\":14161:14162   */\n      0x00\n        /* \"#utility.yul\":14153:14159   */\n      dup3\n        /* \"#utility.yul\":14149:14163   */\n      add\n        /* \"#utility.yul\":14142:14170   */\n      mstore\n        /* \"#utility.yul\":14025:14177   */\n      pop\n      jump\t// out\n        /* \"#utility.yul\":14183:14548   */\n    tag_603:\n        /* \"#utility.yul\":14325:14328   */\n      0x00\n        /* \"#utility.yul\":14346:14412   */\n      tag_789\n        /* \"#utility.yul\":14410:14411   */\n      0x02\n        /* \"#utility.yul\":14405:14408   */\n      dup4\n        /* \"#utility.yul\":14346:14412   */\n      tag_594\n      jump\t// in\n    tag_789:\n        /* \"#utility.yul\":14339:14412   */\n      swap2\n      pop\n        /* \"#utility.yul\":14421:14514   */\n      tag_790\n        /* \"#utility.yul\":14510:14513   */\n      dup3\n        /* \"#utility.yul\":14421:14514   */\n      tag_602\n      jump\t// in\n    tag_790:\n        /* \"#utility.yul\":14539:14541   */\n      0x20\n        /* \"#utility.yul\":14534:14537   */\n      dup3\n        /* \"#utility.yul\":14530:14542   */\n      add\n        /* \"#utility.yul\":14523:14542   */\n      swap1\n      pop\n        /* \"#utility.yul\":14183:14548   */\n      swap2\n      swap1\n      pop\n      jump\t// out\n        /* \"#utility.yul\":14554:14973   */\n    tag_306:\n        /* \"#utility.yul\":14720:14724   */\n      0x00\n        /* \"#utility.yul\":14758:14760   */\n      0x20\n        /* \"#utility.yul\":14747:14756   */\n      dup3\n        /* \"#utility.yul\":14743:14761   */\n      add\n        /* \"#utility.yul\":14735:14761   */\n      swap1\n      pop\n        /* \"#utility.yul\":14807:14816   */\n      dup2\n        /* \"#utility.yul\":14801:14805   */\n      dup2\n        /* \"#utility.yul\":14797:14817   */\n      sub\n        /* \"#utility.yul\":14793:14794   */\n      0x00\n        /* \"#utility.yul\":14782:14791   */\n      dup4\n        /* \"#utility.yul\":14778:14795   */\n      add\n        /* \"#utility.yul\":14771:14818   */\n      mstore\n        /* \"#utility.yul\":14835:14966   */\n      tag_792\n        /* \"#utility.yul\":14961:14965   */\n      dup2\n        /* \"#utility.yul\":14835:14966   */\n      tag_603\n      jump\t// in\n    tag_792:\n        /* \"#utility.yul\":14827:14966   */\n      swap1\n      pop\n        /* \"#utility.yul\":14554:14973   */\n      swap2\n      swap1\n      pop\n      jump\t// out\n        /* \"#utility.yul\":14979:15389   */\n    tag_376:\n        /* \"#utility.yul\":15019:15026   */\n      0x00\n        /* \"#utility.yul\":15042:15062   */\n      tag_794\n        /* \"#utility.yul\":15060:15061   */\n      dup3\n        /* \"#utility.yul\":15042:15062   */\n      tag_582\n      jump\t// in\n    tag_794:\n        /* \"#utility.yul\":15037:15062   */\n      swap2\n      pop\n        /* \"#utility.yul\":15076:15096   */\n      tag_795\n        /* \"#utility.yul\":15094:15095   */\n      dup4\n        /* \"#utility.yul\":15076:15096   */\n      tag_582\n      jump\t// in\n    tag_795:\n        /* \"#utility.yul\":15071:15096   */\n      swap3\n      pop\n        /* \"#utility.yul\":15131:15132   */\n      dup3\n        /* \"#utility.yul\":15128:15129   */\n      dup3\n        /* \"#utility.yul\":15124:15133   */\n      mul\n        /* \"#utility.yul\":15153:15183   */\n      tag_796\n        /* \"#utility.yul\":15171:15182   */\n      dup2\n        /* \"#utility.yul\":15153:15183   */\n      tag_582\n      jump\t// in\n    tag_796:\n        /* \"#utility.yul\":15142:15183   */\n      swap2\n      pop\n        /* \"#utility.yul\":15332:15333   */\n      dup3\n        /* \"#utility.yul\":15323:15330   */\n      dup3\n        /* \"#utility.yul\":15319:15334   */\n      div\n        /* \"#utility.yul\":15316:15317   */\n      dup5\n        /* \"#utility.yul\":15313:15335   */\n      eq\n        /* \"#utility.yul\":15293:15294   */\n      dup4\n        /* \"#utility.yul\":15286:15295   */\n      iszero\n        /* \"#utility.yul\":15266:15349   */\n      or\n        /* \"#utility.yul\":15243:15382   */\n      tag_797\n      jumpi\n        /* \"#utility.yul\":15362:15380   */\n      tag_798\n      tag_597\n      jump\t// in\n    tag_798:\n        /* \"#utility.yul\":15243:15382   */\n    tag_797:\n        /* \"#utility.yul\":15027:15389   */\n      pop\n        /* \"#utility.yul\":14979:15389   */\n      swap3\n      swap2\n      pop\n      pop\n      jump\t// out\n        /* \"#utility.yul\":15395:15575   */\n    tag_604:\n        /* \"#utility.yul\":15443:15520   */\n      0x4e487b7100000000000000000000000000000000000000000000000000000000\n        /* \"#utility.yul\":15440:15441   */\n      0x00\n        /* \"#utility.yul\":15433:15521   */\n      mstore\n        /* \"#utility.yul\":15540:15544   */\n      0x12\n        /* \"#utility.yul\":15537:15538   */\n      0x04\n        /* \"#utility.yul\":15530:15545   */\n      mstore\n        /* \"#utility.yul\":15564:15568   */\n      0x24\n        /* \"#utility.yul\":15561:15562   */\n      0x00\n        /* \"#utility.yul\":15554:15569   */\n      revert\n        /* \"#utility.yul\":15581:15766   */\n    tag_378:\n        /* \"#utility.yul\":15621:15622   */\n      0x00\n        /* \"#utility.yul\":15638:15658   */\n      tag_801\n        /* \"#utility.yul\":15656:15657   */\n      dup3\n        /* \"#utility.yul\":15638:15658   */\n      tag_582\n      jump\t// in\n    tag_801:\n        /* \"#utility.yul\":15633:15658   */\n      swap2\n      pop\n        /* \"#utility.yul\":15672:15692   */\n      tag_802\n        /* \"#utility.yul\":15690:15691   */\n      dup4\n        /* \"#utility.yul\":15672:15692   */\n      tag_582\n      jump\t// in\n    tag_802:\n        /* \"#utility.yul\":15667:15692   */\n      swap3\n      pop\n        /* \"#utility.yul\":15711:15712   */\n      dup3\n        /* \"#utility.yul\":15701:15736   */\n      tag_803\n      jumpi\n        /* \"#utility.yul\":15716:15734   */\n      tag_804\n      tag_604\n      jump\t// in\n    tag_804:\n        /* \"#utility.yul\":15701:15736   */\n    tag_803:\n        /* \"#utility.yul\":15758:15759   */\n      dup3\n        /* \"#utility.yul\":15755:15756   */\n      dup3\n        /* \"#utility.yul\":15751:15760   */\n      div\n        /* \"#utility.yul\":15746:15760   */\n      swap1\n      pop\n        /* \"#utility.yul\":15581:15766   */\n      swap3\n      swap2\n      pop\n      pop\n      jump\t// out\n        /* \"#utility.yul\":15772:15942   */\n    tag_605:\n        /* \"#utility.yul\":15912:15934   */\n      0x5061757361626c653a206e6f7420706175736564000000000000000000000000\n        /* \"#utility.yul\":15908:15909   */\n      0x00\n        /* \"#utility.yul\":15900:15906   */\n      dup3\n        /* \"#utility.yul\":15896:15910   */\n      add\n        /* \"#utility.yul\":15889:15935   */\n      mstore\n        /* \"#utility.yul\":15772:15942   */\n      pop\n      jump\t// out\n        /* \"#utility.yul\":15948:16314   */\n    tag_606:\n        /* \"#utility.yul\":16090:16093   */\n      0x00\n        /* \"#utility.yul\":16111:16178   */\n      tag_807\n        /* \"#utility.yul\":16175:16177   */\n      0x14\n        /* \"#utility.yul\":16170:16173   */\n      dup4\n        /* \"#utility.yul\":16111:16178   */\n      tag_594\n      jump\t// in\n    tag_807:\n        /* \"#utility.yul\":16104:16178   */\n      swap2\n      pop\n        /* \"#utility.yul\":16187:16280   */\n      tag_808\n        /* \"#utility.yul\":16276:16279   */\n      dup3\n        /* \"#utility.yul\":16187:16280   */\n      tag_605\n      jump\t// in\n    tag_808:\n        /* \"#utility.yul\":16305:16307   */\n      0x20\n        /* \"#utility.yul\":16300:16303   */\n      dup3\n        /* \"#utility.yul\":16296:16308   */\n      add\n        /* \"#utility.yul\":16289:16308   */\n      swap1\n      pop\n        /* \"#utility.yul\":15948:16314   */\n      swap2\n      swap1\n      pop\n      jump\t// out\n        /* \"#utility.yul\":16320:16739   */\n    tag_450:\n        /* \"#utility.yul\":16486:16490   */\n      0x00\n        /* \"#utility.yul\":16524:16526   */\n      0x20\n        /* \"#utility.yul\":16513:16522   */\n      dup3\n        /* \"#utility.yul\":16509:16527   */\n      add\n        /* \"#utility.yul\":16501:16527   */\n      swap1\n      pop\n        /* \"#utility.yul\":16573:16582   */\n      dup2\n        /* \"#utility.yul\":16567:16571   */\n      dup2\n        /* \"#utility.yul\":16563:16583   */\n      sub\n        /* \"#utility.yul\":16559:16560   */\n      0x00\n        /* \"#utility.yul\":16548:16557   */\n      dup4\n        /* \"#utility.yul\":16544:16561   */\n      add\n        /* \"#utility.yul\":16537:16584   */\n      mstore\n        /* \"#utility.yul\":16601:16732   */\n      tag_810\n        /* \"#utility.yul\":16727:16731   */\n      dup2\n        /* \"#utility.yul\":16601:16732   */\n      tag_606\n      jump\t// in\n    tag_810:\n        /* \"#utility.yul\":16593:16732   */\n      swap1\n      pop\n        /* \"#utility.yul\":16320:16739   */\n      swap2\n      swap1\n      pop\n      jump\t// out\n        /* \"#utility.yul\":16745:16888   */\n    tag_607:\n        /* \"#utility.yul\":16802:16807   */\n      0x00\n        /* \"#utility.yul\":16833:16839   */\n      dup2\n        /* \"#utility.yul\":16827:16840   */\n      mload\n        /* \"#utility.yul\":16818:16840   */\n      swap1\n      pop\n        /* \"#utility.yul\":16849:16882   */\n      tag_812\n        /* \"#utility.yul\":16876:16881   */\n      dup2\n        /* \"#utility.yul\":16849:16882   */\n      tag_592\n      jump\t// in\n    tag_812:\n        /* \"#utility.yul\":16745:16888   */\n      swap3\n      swap2\n      pop\n      pop\n      jump\t// out\n        /* \"#utility.yul\":16894:17245   */\n    tag_467:\n        /* \"#utility.yul\":16964:16970   */\n      0x00\n        /* \"#utility.yul\":17013:17015   */\n      0x20\n        /* \"#utility.yul\":17001:17010   */\n      dup3\n        /* \"#utility.yul\":16992:16999   */\n      dup5\n        /* \"#utility.yul\":16988:17011   */\n      sub\n        /* \"#utility.yul\":16984:17016   */\n      slt\n        /* \"#utility.yul\":16981:17100   */\n      iszero\n      tag_814\n      jumpi\n        /* \"#utility.yul\":17019:17098   */\n      tag_815\n      tag_566\n      jump\t// in\n    tag_815:\n        /* \"#utility.yul\":16981:17100   */\n    tag_814:\n        /* \"#utility.yul\":17139:17140   */\n      0x00\n        /* \"#utility.yul\":17164:17228   */\n      tag_816\n        /* \"#utility.yul\":17220:17227   */\n      dup5\n        /* \"#utility.yul\":17211:17217   */\n      dup3\n        /* \"#utility.yul\":17200:17209   */\n      dup6\n        /* \"#utility.yul\":17196:17218   */\n      add\n        /* \"#utility.yul\":17164:17228   */\n      tag_607\n      jump\t// in\n    tag_816:\n        /* \"#utility.yul\":17154:17228   */\n      swap2\n      pop\n        /* \"#utility.yul\":17110:17238   */\n      pop\n        /* \"#utility.yul\":16894:17245   */\n      swap3\n      swap2\n      pop\n      pop\n      jump\t// out\n        /* \"#utility.yul\":17251:17417   */\n    tag_608:\n        /* \"#utility.yul\":17391:17409   */\n      0x5061757361626c653a2070617573656400000000000000000000000000000000\n        /* \"#utility.yul\":17387:17388   */\n      0x00\n        /* \"#utility.yul\":17379:17385   */\n      dup3\n        /* \"#utility.yul\":17375:17389   */\n      add\n        /* \"#utility.yul\":17368:17410   */\n      mstore\n        /* \"#utility.yul\":17251:17417   */\n      pop\n      jump\t// out\n        /* \"#utility.yul\":17423:17789   */\n    tag_609:\n        /* \"#utility.yul\":17565:17568   */\n      0x00\n        /* \"#utility.yul\":17586:17653   */\n      tag_819\n        /* \"#utility.yul\":17650:17652   */\n      0x10\n        /* \"#utility.yul\":17645:17648   */\n      dup4\n        /* \"#utility.yul\":17586:17653   */\n      tag_594\n      jump\t// in\n    tag_819:\n        /* \"#utility.yul\":17579:17653   */\n      swap2\n      pop\n        /* \"#utility.yul\":17662:17755   */\n      tag_820\n        /* \"#utility.yul\":17751:17754   */\n      dup3\n        /* \"#utility.yul\":17662:17755   */\n      tag_608\n      jump\t// in\n    tag_820:\n        /* \"#utility.yul\":17780:17782   */\n      0x20\n        /* \"#utility.yul\":17775:17778   */\n      dup3\n        /* \"#utility.yul\":17771:17783   */\n      add\n        /* \"#utility.yul\":17764:17783   */\n      swap1\n      pop\n        /* \"#utility.yul\":17423:17789   */\n      swap2\n      swap1\n      pop\n      jump\t// out\n        /* \"#utility.yul\":17795:18214   */\n    tag_473:\n        /* \"#utility.yul\":17961:17965   */\n      0x00\n        /* \"#utility.yul\":17999:18001   */\n      0x20\n        /* \"#utility.yul\":17988:17997   */\n      dup3\n        /* \"#utility.yul\":17984:18002   */\n      add\n        /* \"#utility.yul\":17976:18002   */\n      swap1\n      pop\n        /* \"#utility.yul\":18048:18057   */\n      dup2\n        /* \"#utility.yul\":18042:18046   */\n      dup2\n        /* \"#utility.yul\":18038:18058   */\n      sub\n        /* \"#utility.yul\":18034:18035   */\n      0x00\n        /* \"#utility.yul\":18023:18032   */\n      dup4\n        /* \"#utility.yul\":18019:18036   */\n      add\n        /* \"#utility.yul\":18012:18059   */\n      mstore\n        /* \"#utility.yul\":18076:18207   */\n      tag_822\n        /* \"#utility.yul\":18202:18206   */\n      dup2\n        /* \"#utility.yul\":18076:18207   */\n      tag_609\n      jump\t// in\n    tag_822:\n        /* \"#utility.yul\":18068:18207   */\n      swap1\n      pop\n        /* \"#utility.yul\":17795:18214   */\n      swap2\n      swap1\n      pop\n      jump\t// out\n        /* \"#utility.yul\":18220:18401   */\n    tag_610:\n        /* \"#utility.yul\":18360:18393   */\n      0x5265656e7472616e637947756172643a207265656e7472616e742063616c6c00\n        /* \"#utility.yul\":18356:18357   */\n      0x00\n        /* \"#utility.yul\":18348:18354   */\n      dup3\n        /* \"#utility.yul\":18344:18358   */\n      add\n        /* \"#utility.yul\":18337:18394   */\n      mstore\n        /* \"#utility.yul\":18220:18401   */\n      pop\n      jump\t// out\n        /* \"#utility.yul\":18407:18773   */\n    tag_611:\n        /* \"#utility.yul\":18549:18552   */\n      0x00\n        /* \"#utility.yul\":18570:18637   */\n      tag_825\n        /* \"#utility.yul\":18634:18636   */\n      0x1f\n        /* \"#utility.yul\":18629:18632   */\n      dup4\n        /* \"#utility.yul\":18570:18637   */\n      tag_594\n      jump\t// in\n    tag_825:\n        /* \"#utility.yul\":18563:18637   */\n      swap2\n      pop\n        /* \"#utility.yul\":18646:18739   */\n      tag_826\n        /* \"#utility.yul\":18735:18738   */\n      dup3\n        /* \"#utility.yul\":18646:18739   */\n      tag_610\n      jump\t// in\n    tag_826:\n        /* \"#utility.yul\":18764:18766   */\n      0x20\n        /* \"#utility.yul\":18759:18762   */\n      dup3\n        /* \"#utility.yul\":18755:18767   */\n      add\n        /* \"#utility.yul\":18748:18767   */\n      swap1\n      pop\n        /* \"#utility.yul\":18407:18773   */\n      swap2\n      swap1\n      pop\n      jump\t// out\n        /* \"#utility.yul\":18779:19198   */\n    tag_482:\n        /* \"#utility.yul\":18945:18949   */\n      0x00\n        /* \"#utility.yul\":18983:18985   */\n      0x20\n        /* \"#utility.yul\":18972:18981   */\n      dup3\n        /* \"#utility.yul\":18968:18986   */\n      add\n        /* \"#utility.yul\":18960:18986   */\n      swap1\n      pop\n        /* \"#utility.yul\":19032:19041   */\n      dup2\n        /* \"#utility.yul\":19026:19030   */\n      dup2\n        /* \"#utility.yul\":19022:19042   */\n      sub\n        /* \"#utility.yul\":19018:19019   */\n      0x00\n        /* \"#utility.yul\":19007:19016   */\n      dup4\n        /* \"#utility.yul\":19003:19020   */\n      add\n        /* \"#utility.yul\":18996:19043   */\n      mstore\n        /* \"#utility.yul\":19060:19191   */\n      tag_828\n        /* \"#utility.yul\":19186:19190   */\n      dup2\n        /* \"#utility.yul\":19060:19191   */\n      tag_611\n      jump\t// in\n    tag_828:\n        /* \"#utility.yul\":19052:19191   */\n      swap1\n      pop\n        /* \"#utility.yul\":18779:19198   */\n      swap2\n      swap1\n      pop\n      jump\t// out\n        /* \"#utility.yul\":19204:19536   */\n    tag_486:\n        /* \"#utility.yul\":19325:19329   */\n      0x00\n        /* \"#utility.yul\":19363:19365   */\n      0x40\n        /* \"#utility.yul\":19352:19361   */\n      dup3\n        /* \"#utility.yul\":19348:19366   */\n      add\n        /* \"#utility.yul\":19340:19366   */\n      swap1\n      pop\n        /* \"#utility.yul\":19376:19447   */\n      tag_830\n        /* \"#utility.yul\":19444:19445   */\n      0x00\n        /* \"#utility.yul\":19433:19442   */\n      dup4\n        /* \"#utility.yul\":19429:19446   */\n      add\n        /* \"#utility.yul\":19420:19426   */\n      dup6\n        /* \"#utility.yul\":19376:19447   */\n      tag_575\n      jump\t// in\n    tag_830:\n        /* \"#utility.yul\":19457:19529   */\n      tag_831\n        /* \"#utility.yul\":19525:19527   */\n      0x20\n        /* \"#utility.yul\":19514:19523   */\n      dup4\n        /* \"#utility.yul\":19510:19528   */\n      add\n        /* \"#utility.yul\":19501:19507   */\n      dup5\n        /* \"#utility.yul\":19457:19529   */\n      tag_583\n      jump\t// in\n    tag_831:\n        /* \"#utility.yul\":19204:19536   */\n      swap4\n      swap3\n      pop\n      pop\n      pop\n      jump\t// out\n        /* \"#utility.yul\":19542:19679   */\n    tag_612:\n        /* \"#utility.yul\":19596:19601   */\n      0x00\n        /* \"#utility.yul\":19627:19633   */\n      dup2\n        /* \"#utility.yul\":19621:19634   */\n      mload\n        /* \"#utility.yul\":19612:19634   */\n      swap1\n      pop\n        /* \"#utility.yul\":19643:19673   */\n      tag_833\n        /* \"#utility.yul\":19667:19672   */\n      dup2\n        /* \"#utility.yul\":19643:19673   */\n      tag_588\n      jump\t// in\n    tag_833:\n        /* \"#utility.yul\":19542:19679   */\n      swap3\n      swap2\n      pop\n      pop\n      jump\t// out\n        /* \"#utility.yul\":19685:20030   */\n    tag_489:\n        /* \"#utility.yul\":19752:19758   */\n      0x00\n        /* \"#utility.yul\":19801:19803   */\n      0x20\n        /* \"#utility.yul\":19789:19798   */\n      dup3\n        /* \"#utility.yul\":19780:19787   */\n      dup5\n        /* \"#utility.yul\":19776:19799   */\n      sub\n        /* \"#utility.yul\":19772:19804   */\n      slt\n        /* \"#utility.yul\":19769:19888   */\n      iszero\n      tag_835\n      jumpi\n        /* \"#utility.yul\":19807:19886   */\n      tag_836\n      tag_566\n      jump\t// in\n    tag_836:\n        /* \"#utility.yul\":19769:19888   */\n    tag_835:\n        /* \"#utility.yul\":19927:19928   */\n      0x00\n        /* \"#utility.yul\":19952:20013   */\n      tag_837\n        /* \"#utility.yul\":20005:20012   */\n      dup5\n        /* \"#utility.yul\":19996:20002   */\n      dup3\n        /* \"#utility.yul\":19985:19994   */\n      dup6\n        /* \"#utility.yul\":19981:20003   */\n      add\n        /* \"#utility.yul\":19952:20013   */\n      tag_612\n      jump\t// in\n    tag_837:\n        /* \"#utility.yul\":19942:20013   */\n      swap2\n      pop\n        /* \"#utility.yul\":19898:20023   */\n      pop\n        /* \"#utility.yul\":19685:20030   */\n      swap3\n      swap2\n      pop\n      pop\n      jump\t// out\n        /* \"#utility.yul\":20036:20183   */\n    tag_613:\n        /* \"#utility.yul\":20137:20148   */\n      0x00\n        /* \"#utility.yul\":20174:20177   */\n      dup2\n        /* \"#utility.yul\":20159:20177   */\n      swap1\n      pop\n        /* \"#utility.yul\":20036:20183   */\n      swap3\n      swap2\n      pop\n      pop\n      jump\t// out\n        /* \"#utility.yul\":20189:20303   */\n    tag_614:\n      pop\n      jump\t// out\n        /* \"#utility.yul\":20309:20707   */\n    tag_615:\n        /* \"#utility.yul\":20468:20471   */\n      0x00\n        /* \"#utility.yul\":20489:20572   */\n      tag_841\n        /* \"#utility.yul\":20570:20571   */\n      0x00\n        /* \"#utility.yul\":20565:20568   */\n      dup4\n        /* \"#utility.yul\":20489:20572   */\n      tag_613\n      jump\t// in\n    tag_841:\n        /* \"#utility.yul\":20482:20572   */\n      swap2\n      pop\n        /* \"#utility.yul\":20581:20674   */\n      tag_842\n        /* \"#utility.yul\":20670:20673   */\n      dup3\n        /* \"#utility.yul\":20581:20674   */\n      tag_614\n      jump\t// in\n    tag_842:\n        /* \"#utility.yul\":20699:20700   */\n      0x00\n        /* \"#utility.yul\":20694:20697   */\n      dup3\n        /* \"#utility.yul\":20690:20701   */\n      add\n        /* \"#utility.yul\":20683:20701   */\n      swap1\n      pop\n        /* \"#utility.yul\":20309:20707   */\n      swap2\n      swap1\n      pop\n      jump\t// out\n        /* \"#utility.yul\":20713:21092   */\n    tag_497:\n        /* \"#utility.yul\":20897:20900   */\n      0x00\n        /* \"#utility.yul\":20919:21066   */\n      tag_844\n        /* \"#utility.yul\":21062:21065   */\n      dup3\n        /* \"#utility.yul\":20919:21066   */\n      tag_615\n      jump\t// in\n    tag_844:\n        /* \"#utility.yul\":20912:21066   */\n      swap2\n      pop\n        /* \"#utility.yul\":21083:21086   */\n      dup2\n        /* \"#utility.yul\":21076:21086   */\n      swap1\n      pop\n        /* \"#utility.yul\":20713:21092   */\n      swap2\n      swap1\n      pop\n      jump\t// out\n        /* \"#utility.yul\":21098:21540   */\n    tag_515:\n        /* \"#utility.yul\":21247:21251   */\n      0x00\n        /* \"#utility.yul\":21285:21287   */\n      0x60\n        /* \"#utility.yul\":21274:21283   */\n      dup3\n        /* \"#utility.yul\":21270:21288   */\n      add\n        /* \"#utility.yul\":21262:21288   */\n      swap1\n      pop\n        /* \"#utility.yul\":21298:21369   */\n      tag_846\n        /* \"#utility.yul\":21366:21367   */\n      0x00\n        /* \"#utility.yul\":21355:21364   */\n      dup4\n        /* \"#utility.yul\":21351:21368   */\n      add\n        /* \"#utility.yul\":21342:21348   */\n      dup7\n        /* \"#utility.yul\":21298:21369   */\n      tag_575\n      jump\t// in\n    tag_846:\n        /* \"#utility.yul\":21379:21451   */\n      tag_847\n        /* \"#utility.yul\":21447:21449   */\n      0x20\n        /* \"#utility.yul\":21436:21445   */\n      dup4\n        /* \"#utility.yul\":21432:21450   */\n      add\n        /* \"#utility.yul\":21423:21429   */\n      dup6\n        /* \"#utility.yul\":21379:21451   */\n      tag_575\n      jump\t// in\n    tag_847:\n        /* \"#utility.yul\":21461:21533   */\n      tag_848\n        /* \"#utility.yul\":21529:21531   */\n      0x40\n        /* \"#utility.yul\":21518:21527   */\n      dup4\n        /* \"#utility.yul\":21514:21532   */\n      add\n        /* \"#utility.yul\":21505:21511   */\n      dup5\n        /* \"#utility.yul\":21461:21533   */\n      tag_583\n      jump\t// in\n    tag_848:\n        /* \"#utility.yul\":21098:21540   */\n      swap5\n      swap4\n      pop\n      pop\n      pop\n      pop\n      jump\t// out\n        /* \"#utility.yul\":21546:21625   */\n    tag_616:\n        /* \"#utility.yul\":21585:21592   */\n      0x00\n        /* \"#utility.yul\":21614:21619   */\n      dup2\n        /* \"#utility.yul\":21603:21619   */\n      swap1\n      pop\n        /* \"#utility.yul\":21546:21625   */\n      swap2\n      swap1\n      pop\n      jump\t// out\n        /* \"#utility.yul\":21631:21788   */\n    tag_617:\n        /* \"#utility.yul\":21736:21781   */\n      tag_851\n        /* \"#utility.yul\":21756:21780   */\n      tag_852\n        /* \"#utility.yul\":21774:21779   */\n      dup3\n        /* \"#utility.yul\":21756:21780   */\n      tag_582\n      jump\t// in\n    tag_852:\n        /* \"#utility.yul\":21736:21781   */\n      tag_616\n      jump\t// in\n    tag_851:\n        /* \"#utility.yul\":21731:21734   */\n      dup3\n        /* \"#utility.yul\":21724:21782   */\n      mstore\n        /* \"#utility.yul\":21631:21788   */\n      pop\n      pop\n      jump\t// out\n        /* \"#utility.yul\":21794:21888   */\n    tag_618:\n        /* \"#utility.yul\":21827:21835   */\n      0x00\n        /* \"#utility.yul\":21875:21880   */\n      dup2\n        /* \"#utility.yul\":21871:21873   */\n      0x60\n        /* \"#utility.yul\":21867:21881   */\n      shl\n        /* \"#utility.yul\":21846:21881   */\n      swap1\n      pop\n        /* \"#utility.yul\":21794:21888   */\n      swap2\n      swap1\n      pop\n      jump\t// out\n        /* \"#utility.yul\":21894:21988   */\n    tag_619:\n        /* \"#utility.yul\":21933:21940   */\n      0x00\n        /* \"#utility.yul\":21962:21982   */\n      tag_855\n        /* \"#utility.yul\":21976:21981   */\n      dup3\n        /* \"#utility.yul\":21962:21982   */\n      tag_618\n      jump\t// in\n    tag_855:\n        /* \"#utility.yul\":21951:21982   */\n      swap1\n      pop\n        /* \"#utility.yul\":21894:21988   */\n      swap2\n      swap1\n      pop\n      jump\t// out\n        /* \"#utility.yul\":21994:22094   */\n    tag_620:\n        /* \"#utility.yul\":22033:22040   */\n      0x00\n        /* \"#utility.yul\":22062:22088   */\n      tag_857\n        /* \"#utility.yul\":22082:22087   */\n      dup3\n        /* \"#utility.yul\":22062:22088   */\n      tag_619\n      jump\t// in\n    tag_857:\n        /* \"#utility.yul\":22051:22088   */\n      swap1\n      pop\n        /* \"#utility.yul\":21994:22094   */\n      swap2\n      swap1\n      pop\n      jump\t// out\n        /* \"#utility.yul\":22100:22257   */\n    tag_621:\n        /* \"#utility.yul\":22205:22250   */\n      tag_859\n        /* \"#utility.yul\":22225:22249   */\n      tag_860\n        /* \"#utility.yul\":22243:22248   */\n      dup3\n        /* \"#utility.yul\":22225:22249   */\n      tag_574\n      jump\t// in\n    tag_860:\n        /* \"#utility.yul\":22205:22250   */\n      tag_620\n      jump\t// in\n    tag_859:\n        /* \"#utility.yul\":22200:22203   */\n      dup3\n        /* \"#utility.yul\":22193:22251   */\n      mstore\n        /* \"#utility.yul\":22100:22257   */\n      pop\n      pop\n      jump\t// out\n        /* \"#utility.yul\":22263:22801   */\n    tag_524:\n        /* \"#utility.yul\":22431:22434   */\n      0x00\n        /* \"#utility.yul\":22446:22521   */\n      tag_862\n        /* \"#utility.yul\":22517:22520   */\n      dup3\n        /* \"#utility.yul\":22508:22514   */\n      dup7\n        /* \"#utility.yul\":22446:22521   */\n      tag_617\n      jump\t// in\n    tag_862:\n        /* \"#utility.yul\":22546:22548   */\n      0x20\n        /* \"#utility.yul\":22541:22544   */\n      dup3\n        /* \"#utility.yul\":22537:22549   */\n      add\n        /* \"#utility.yul\":22530:22549   */\n      swap2\n      pop\n        /* \"#utility.yul\":22559:22634   */\n      tag_863\n        /* \"#utility.yul\":22630:22633   */\n      dup3\n        /* \"#utility.yul\":22621:22627   */\n      dup6\n        /* \"#utility.yul\":22559:22634   */\n      tag_617\n      jump\t// in\n    tag_863:\n        /* \"#utility.yul\":22659:22661   */\n      0x20\n        /* \"#utility.yul\":22654:22657   */\n      dup3\n        /* \"#utility.yul\":22650:22662   */\n      add\n        /* \"#utility.yul\":22643:22662   */\n      swap2\n      pop\n        /* \"#utility.yul\":22672:22747   */\n      tag_864\n        /* \"#utility.yul\":22743:22746   */\n      dup3\n        /* \"#utility.yul\":22734:22740   */\n      dup5\n        /* \"#utility.yul\":22672:22747   */\n      tag_621\n      jump\t// in\n    tag_864:\n        /* \"#utility.yul\":22772:22774   */\n      0x14\n        /* \"#utility.yul\":22767:22770   */\n      dup3\n        /* \"#utility.yul\":22763:22775   */\n      add\n        /* \"#utility.yul\":22756:22775   */\n      swap2\n      pop\n        /* \"#utility.yul\":22792:22795   */\n      dup2\n        /* \"#utility.yul\":22785:22795   */\n      swap1\n      pop\n        /* \"#utility.yul\":22263:22801   */\n      swap5\n      swap4\n      pop\n      pop\n      pop\n      pop\n      jump\t// out\n        /* \"#utility.yul\":22807:22983   */\n    tag_526:\n        /* \"#utility.yul\":22839:22840   */\n      0x00\n        /* \"#utility.yul\":22856:22876   */\n      tag_866\n        /* \"#utility.yul\":22874:22875   */\n      dup3\n        /* \"#utility.yul\":22856:22876   */\n      tag_582\n      jump\t// in\n    tag_866:\n        /* \"#utility.yul\":22851:22876   */\n      swap2\n      pop\n        /* \"#utility.yul\":22890:22910   */\n      tag_867\n        /* \"#utility.yul\":22908:22909   */\n      dup4\n        /* \"#utility.yul\":22890:22910   */\n      tag_582\n      jump\t// in\n    tag_867:\n        /* \"#utility.yul\":22885:22910   */\n      swap3\n      pop\n        /* \"#utility.yul\":22929:22930   */\n      dup3\n        /* \"#utility.yul\":22919:22954   */\n      tag_868\n      jumpi\n        /* \"#utility.yul\":22934:22952   */\n      tag_869\n      tag_604\n      jump\t// in\n    tag_869:\n        /* \"#utility.yul\":22919:22954   */\n    tag_868:\n        /* \"#utility.yul\":22975:22976   */\n      dup3\n        /* \"#utility.yul\":22972:22973   */\n      dup3\n        /* \"#utility.yul\":22968:22977   */\n      mod\n        /* \"#utility.yul\":22963:22977   */\n      swap1\n      pop\n        /* \"#utility.yul\":22807:22983   */\n      swap3\n      swap2\n      pop\n      pop\n      jump\t// out\n        /* \"#utility.yul\":22989:23137   */\n    tag_622:\n        /* \"#utility.yul\":23091:23102   */\n      0x00\n        /* \"#utility.yul\":23128:23131   */\n      dup2\n        /* \"#utility.yul\":23113:23131   */\n      swap1\n      pop\n        /* \"#utility.yul\":22989:23137   */\n      swap3\n      swap2\n      pop\n      pop\n      jump\t// out\n        /* \"#utility.yul\":23143:23316   */\n    tag_623:\n        /* \"#utility.yul\":23283:23308   */\n      0x416363657373436f6e74726f6c3a206163636f756e7420000000000000000000\n        /* \"#utility.yul\":23279:23280   */\n      0x00\n        /* \"#utility.yul\":23271:23277   */\n      dup3\n        /* \"#utility.yul\":23267:23281   */\n      add\n        /* \"#utility.yul\":23260:23309   */\n      mstore\n        /* \"#utility.yul\":23143:23316   */\n      pop\n      jump\t// out\n        /* \"#utility.yul\":23322:23724   */\n    tag_624:\n        /* \"#utility.yul\":23482:23485   */\n      0x00\n        /* \"#utility.yul\":23503:23588   */\n      tag_873\n        /* \"#utility.yul\":23585:23587   */\n      0x17\n        /* \"#utility.yul\":23580:23583   */\n      dup4\n        /* \"#utility.yul\":23503:23588   */\n      tag_622\n      jump\t// in\n    tag_873:\n        /* \"#utility.yul\":23496:23588   */\n      swap2\n      pop\n        /* \"#utility.yul\":23597:23690   */\n      tag_874\n        /* \"#utility.yul\":23686:23689   */\n      dup3\n        /* \"#utility.yul\":23597:23690   */\n      tag_623\n      jump\t// in\n    tag_874:\n        /* \"#utility.yul\":23715:23717   */\n      0x17\n        /* \"#utility.yul\":23710:23713   */\n      dup3\n        /* \"#utility.yul\":23706:23718   */\n      add\n        /* \"#utility.yul\":23699:23718   */\n      swap1\n      pop\n        /* \"#utility.yul\":23322:23724   */\n      swap2\n      swap1\n      pop\n      jump\t// out\n        /* \"#utility.yul\":23730:23829   */\n    tag_625:\n        /* \"#utility.yul\":23782:23788   */\n      0x00\n        /* \"#utility.yul\":23816:23821   */\n      dup2\n        /* \"#utility.yul\":23810:23822   */\n      mload\n        /* \"#utility.yul\":23800:23822   */\n      swap1\n      pop\n        /* \"#utility.yul\":23730:23829   */\n      swap2\n      swap1\n      pop\n      jump\t// out\n        /* \"#utility.yul\":23835:24081   */\n    tag_626:\n        /* \"#utility.yul\":23916:23917   */\n      0x00\n        /* \"#utility.yul\":23926:24039   */\n    tag_877:\n        /* \"#utility.yul\":23940:23946   */\n      dup4\n        /* \"#utility.yul\":23937:23938   */\n      dup2\n        /* \"#utility.yul\":23934:23947   */\n      lt\n        /* \"#utility.yul\":23926:24039   */\n      iszero\n      tag_879\n      jumpi\n        /* \"#utility.yul\":24025:24026   */\n      dup1\n        /* \"#utility.yul\":24020:24023   */\n      dup3\n        /* \"#utility.yul\":24016:24027   */\n      add\n        /* \"#utility.yul\":24010:24028   */\n      mload\n        /* \"#utility.yul\":24006:24007   */\n      dup2\n        /* \"#utility.yul\":24001:24004   */\n      dup5\n        /* \"#utility.yul\":23997:24008   */\n      add\n        /* \"#utility.yul\":23990:24029   */\n      mstore\n        /* \"#utility.yul\":23962:23964   */\n      0x20\n        /* \"#utility.yul\":23959:23960   */\n      dup2\n        /* \"#utility.yul\":23955:23965   */\n      add\n        /* \"#utility.yul\":23950:23965   */\n      swap1\n      pop\n        /* \"#utility.yul\":23926:24039   */\n      jump(tag_877)\n    tag_879:\n        /* \"#utility.yul\":24073:24074   */\n      0x00\n        /* \"#utility.yul\":24064:24070   */\n      dup5\n        /* \"#utility.yul\":24059:24062   */\n      dup5\n        /* \"#utility.yul\":24055:24071   */\n      add\n        /* \"#utility.yul\":24048:24075   */\n      mstore\n        /* \"#utility.yul\":23897:24081   */\n      pop\n        /* \"#utility.yul\":23835:24081   */\n      pop\n      pop\n      pop\n      jump\t// out\n        /* \"#utility.yul\":24087:24477   */\n    tag_627:\n        /* \"#utility.yul\":24193:24196   */\n      0x00\n        /* \"#utility.yul\":24221:24260   */\n      tag_881\n        /* \"#utility.yul\":24254:24259   */\n      dup3\n        /* \"#utility.yul\":24221:24260   */\n      tag_625\n      jump\t// in\n    tag_881:\n        /* \"#utility.yul\":24276:24365   */\n      tag_882\n        /* \"#utility.yul\":24358:24364   */\n      dup2\n        /* \"#utility.yul\":24353:24356   */\n      dup6\n        /* \"#utility.yul\":24276:24365   */\n      tag_622\n      jump\t// in\n    tag_882:\n        /* \"#utility.yul\":24269:24365   */\n      swap4\n      pop\n        /* \"#utility.yul\":24374:24439   */\n      tag_883\n        /* \"#utility.yul\":24432:24438   */\n      dup2\n        /* \"#utility.yul\":24427:24430   */\n      dup6\n        /* \"#utility.yul\":24420:24424   */\n      0x20\n        /* \"#utility.yul\":24413:24418   */\n      dup7\n        /* \"#utility.yul\":24409:24425   */\n      add\n        /* \"#utility.yul\":24374:24439   */\n      tag_626\n      jump\t// in\n    tag_883:\n        /* \"#utility.yul\":24464:24470   */\n      dup1\n        /* \"#utility.yul\":24459:24462   */\n      dup5\n        /* \"#utility.yul\":24455:24471   */\n      add\n        /* \"#utility.yul\":24448:24471   */\n      swap2\n      pop\n        /* \"#utility.yul\":24197:24477   */\n      pop\n        /* \"#utility.yul\":24087:24477   */\n      swap3\n      swap2\n      pop\n      pop\n      jump\t// out\n        /* \"#utility.yul\":24483:24650   */\n    tag_628:\n        /* \"#utility.yul\":24623:24642   */\n      0x206973206d697373696e6720726f6c6520000000000000000000000000000000\n        /* \"#utility.yul\":24619:24620   */\n      0x00\n        /* \"#utility.yul\":24611:24617   */\n      dup3\n        /* \"#utility.yul\":24607:24621   */\n      add\n        /* \"#utility.yul\":24600:24643   */\n      mstore\n        /* \"#utility.yul\":24483:24650   */\n      pop\n      jump\t// out\n        /* \"#utility.yul\":24656:25058   */\n    tag_629:\n        /* \"#utility.yul\":24816:24819   */\n      0x00\n        /* \"#utility.yul\":24837:24922   */\n      tag_886\n        /* \"#utility.yul\":24919:24921   */\n      0x11\n        /* \"#utility.yul\":24914:24917   */\n      dup4\n        /* \"#utility.yul\":24837:24922   */\n      tag_622\n      jump\t// in\n    tag_886:\n        /* \"#utility.yul\":24830:24922   */\n      swap2\n      pop\n        /* \"#utility.yul\":24931:25024   */\n      tag_887\n        /* \"#utility.yul\":25020:25023   */\n      dup3\n        /* \"#utility.yul\":24931:25024   */\n      tag_628\n      jump\t// in\n    tag_887:\n        /* \"#utility.yul\":25049:25051   */\n      0x11\n        /* \"#utility.yul\":25044:25047   */\n      dup3\n        /* \"#utility.yul\":25040:25052   */\n      add\n        /* \"#utility.yul\":25033:25052   */\n      swap1\n      pop\n        /* \"#utility.yul\":24656:25058   */\n      swap2\n      swap1\n      pop\n      jump\t// out\n        /* \"#utility.yul\":25064:26031   */\n    tag_535:\n        /* \"#utility.yul\":25446:25449   */\n      0x00\n        /* \"#utility.yul\":25468:25616   */\n      tag_889\n        /* \"#utility.yul\":25612:25615   */\n      dup3\n        /* \"#utility.yul\":25468:25616   */\n      tag_624\n      jump\t// in\n    tag_889:\n        /* \"#utility.yul\":25461:25616   */\n      swap2\n      pop\n        /* \"#utility.yul\":25633:25728   */\n      tag_890\n        /* \"#utility.yul\":25724:25727   */\n      dup3\n        /* \"#utility.yul\":25715:25721   */\n      dup6\n        /* \"#utility.yul\":25633:25728   */\n      tag_627\n      jump\t// in\n    tag_890:\n        /* \"#utility.yul\":25626:25728   */\n      swap2\n      pop\n        /* \"#utility.yul\":25745:25893   */\n      tag_891\n        /* \"#utility.yul\":25889:25892   */\n      dup3\n        /* \"#utility.yul\":25745:25893   */\n      tag_629\n      jump\t// in\n    tag_891:\n        /* \"#utility.yul\":25738:25893   */\n      swap2\n      pop\n        /* \"#utility.yul\":25910:26005   */\n      tag_892\n        /* \"#utility.yul\":26001:26004   */\n      dup3\n        /* \"#utility.yul\":25992:25998   */\n      dup5\n        /* \"#utility.yul\":25910:26005   */\n      tag_627\n      jump\t// in\n    tag_892:\n        /* \"#utility.yul\":25903:26005   */\n      swap2\n      pop\n        /* \"#utility.yul\":26022:26025   */\n      dup2\n        /* \"#utility.yul\":26015:26025   */\n      swap1\n      pop\n        /* \"#utility.yul\":25064:26031   */\n      swap4\n      swap3\n      pop\n      pop\n      pop\n      jump\t// out\n        /* \"#utility.yul\":26037:26139   */\n    tag_630:\n        /* \"#utility.yul\":26078:26084   */\n      0x00\n        /* \"#utility.yul\":26129:26131   */\n      0x1f\n        /* \"#utility.yul\":26125:26132   */\n      not\n        /* \"#utility.yul\":26120:26122   */\n      0x1f\n        /* \"#utility.yul\":26113:26118   */\n      dup4\n        /* \"#utility.yul\":26109:26123   */\n      add\n        /* \"#utility.yul\":26105:26133   */\n      and\n        /* \"#utility.yul\":26095:26133   */\n      swap1\n      pop\n        /* \"#utility.yul\":26037:26139   */\n      swap2\n      swap1\n      pop\n      jump\t// out\n        /* \"#utility.yul\":26145:26522   */\n    tag_631:\n        /* \"#utility.yul\":26233:26236   */\n      0x00\n        /* \"#utility.yul\":26261:26300   */\n      tag_895\n        /* \"#utility.yul\":26294:26299   */\n      dup3\n        /* \"#utility.yul\":26261:26300   */\n      tag_625\n      jump\t// in\n    tag_895:\n        /* \"#utility.yul\":26316:26387   */\n      tag_896\n        /* \"#utility.yul\":26380:26386   */\n      dup2\n        /* \"#utility.yul\":26375:26378   */\n      dup6\n        /* \"#utility.yul\":26316:26387   */\n      tag_594\n      jump\t// in\n    tag_896:\n        /* \"#utility.yul\":26309:26387   */\n      swap4\n      pop\n        /* \"#utility.yul\":26396:26461   */\n      tag_897\n        /* \"#utility.yul\":26454:26460   */\n      dup2\n        /* \"#utility.yul\":26449:26452   */\n      dup6\n        /* \"#utility.yul\":26442:26446   */\n      0x20\n        /* \"#utility.yul\":26435:26440   */\n      dup7\n        /* \"#utility.yul\":26431:26447   */\n      add\n        /* \"#utility.yul\":26396:26461   */\n      tag_626\n      jump\t// in\n    tag_897:\n        /* \"#utility.yul\":26486:26515   */\n      tag_898\n        /* \"#utility.yul\":26508:26514   */\n      dup2\n        /* \"#utility.yul\":26486:26515   */\n      tag_630\n      jump\t// in\n    tag_898:\n        /* \"#utility.yul\":26481:26484   */\n      dup5\n        /* \"#utility.yul\":26477:26516   */\n      add\n        /* \"#utility.yul\":26470:26516   */\n      swap2\n      pop\n        /* \"#utility.yul\":26237:26522   */\n      pop\n        /* \"#utility.yul\":26145:26522   */\n      swap3\n      swap2\n      pop\n      pop\n      jump\t// out\n        /* \"#utility.yul\":26528:26841   */\n    tag_537:\n        /* \"#utility.yul\":26641:26645   */\n      0x00\n        /* \"#utility.yul\":26679:26681   */\n      0x20\n        /* \"#utility.yul\":26668:26677   */\n      dup3\n        /* \"#utility.yul\":26664:26682   */\n      add\n        /* \"#utility.yul\":26656:26682   */\n      swap1\n      pop\n        /* \"#utility.yul\":26728:26737   */\n      dup2\n        /* \"#utility.yul\":26722:26726   */\n      dup2\n        /* \"#utility.yul\":26718:26738   */\n      sub\n        /* \"#utility.yul\":26714:26715   */\n      0x00\n        /* \"#utility.yul\":26703:26712   */\n      dup4\n        /* \"#utility.yul\":26699:26716   */\n      add\n        /* \"#utility.yul\":26692:26739   */\n      mstore\n        /* \"#utility.yul\":26756:26834   */\n      tag_900\n        /* \"#utility.yul\":26829:26833   */\n      dup2\n        /* \"#utility.yul\":26820:26826   */\n      dup5\n        /* \"#utility.yul\":26756:26834   */\n      tag_631\n      jump\t// in\n    tag_900:\n        /* \"#utility.yul\":26748:26834   */\n      swap1\n      pop\n        /* \"#utility.yul\":26528:26841   */\n      swap3\n      swap2\n      pop\n      pop\n      jump\t// out\n        /* \"#utility.yul\":26847:27027   */\n    tag_545:\n        /* \"#utility.yul\":26895:26972   */\n      0x4e487b7100000000000000000000000000000000000000000000000000000000\n        /* \"#utility.yul\":26892:26893   */\n      0x00\n        /* \"#utility.yul\":26885:26973   */\n      mstore\n        /* \"#utility.yul\":26992:26996   */\n      0x41\n        /* \"#utility.yul\":26989:26990   */\n      0x04\n        /* \"#utility.yul\":26982:26997   */\n      mstore\n        /* \"#utility.yul\":27016:27020   */\n      0x24\n        /* \"#utility.yul\":27013:27014   */\n      0x00\n        /* \"#utility.yul\":27006:27021   */\n      revert\n        /* \"#utility.yul\":27033:27204   */\n    tag_561:\n        /* \"#utility.yul\":27072:27075   */\n      0x00\n        /* \"#utility.yul\":27095:27119   */\n      tag_903\n        /* \"#utility.yul\":27113:27118   */\n      dup3\n        /* \"#utility.yul\":27095:27119   */\n      tag_582\n      jump\t// in\n    tag_903:\n        /* \"#utility.yul\":27086:27119   */\n      swap2\n      pop\n        /* \"#utility.yul\":27141:27145   */\n      0x00\n        /* \"#utility.yul\":27134:27139   */\n      dup3\n        /* \"#utility.yul\":27131:27146   */\n      sub\n        /* \"#utility.yul\":27128:27169   */\n      tag_904\n      jumpi\n        /* \"#utility.yul\":27149:27167   */\n      tag_905\n      tag_597\n      jump\t// in\n    tag_905:\n        /* \"#utility.yul\":27128:27169   */\n    tag_904:\n        /* \"#utility.yul\":27196:27197   */\n      0x01\n        /* \"#utility.yul\":27189:27194   */\n      dup3\n        /* \"#utility.yul\":27185:27198   */\n      sub\n        /* \"#utility.yul\":27178:27198   */\n      swap1\n      pop\n        /* \"#utility.yul\":27033:27204   */\n      swap2\n      swap1\n      pop\n      jump\t// out\n        /* \"#utility.yul\":27210:27392   */\n    tag_632:\n        /* \"#utility.yul\":27350:27384   */\n      0x537472696e67733a20686578206c656e67746820696e73756666696369656e74\n        /* \"#utility.yul\":27346:27347   */\n      0x00\n        /* \"#utility.yul\":27338:27344   */\n      dup3\n        /* \"#utility.yul\":27334:27348   */\n      add\n        /* \"#utility.yul\":27327:27385   */\n      mstore\n        /* \"#utility.yul\":27210:27392   */\n      pop\n      jump\t// out\n        /* \"#utility.yul\":27398:27764   */\n    tag_633:\n        /* \"#utility.yul\":27540:27543   */\n      0x00\n        /* \"#utility.yul\":27561:27628   */\n      tag_908\n        /* \"#utility.yul\":27625:27627   */\n      0x20\n        /* \"#utility.yul\":27620:27623   */\n      dup4\n        /* \"#utility.yul\":27561:27628   */\n      tag_594\n      jump\t// in\n    tag_908:\n        /* \"#utility.yul\":27554:27628   */\n      swap2\n      pop\n        /* \"#utility.yul\":27637:27730   */\n      tag_909\n        /* \"#utility.yul\":27726:27729   */\n      dup3\n        /* \"#utility.yul\":27637:27730   */\n      tag_632\n      jump\t// in\n    tag_909:\n        /* \"#utility.yul\":27755:27757   */\n      0x20\n        /* \"#utility.yul\":27750:27753   */\n      dup3\n        /* \"#utility.yul\":27746:27758   */\n      add\n        /* \"#utility.yul\":27739:27758   */\n      swap1\n      pop\n        /* \"#utility.yul\":27398:27764   */\n      swap2\n      swap1\n      pop\n      jump\t// out\n        /* \"#utility.yul\":27770:28189   */\n    tag_564:\n        /* \"#utility.yul\":27936:27940   */\n      0x00\n        /* \"#utility.yul\":27974:27976   */\n      0x20\n        /* \"#utility.yul\":27963:27972   */\n      dup3\n        /* \"#utility.yul\":27959:27977   */\n      add\n        /* \"#utility.yul\":27951:27977   */\n      swap1\n      pop\n        /* \"#utility.yul\":28023:28032   */\n      dup2\n        /* \"#utility.yul\":28017:28021   */\n      dup2\n        /* \"#utility.yul\":28013:28033   */\n      sub\n        /* \"#utility.yul\":28009:28010   */\n      0x00\n        /* \"#utility.yul\":27998:28007   */\n      dup4\n        /* \"#utility.yul\":27994:28011   */\n      add\n        /* \"#utility.yul\":27987:28034   */\n      mstore\n        /* \"#utility.yul\":28051:28182   */\n      tag_911\n        /* \"#utility.yul\":28177:28181   */\n      dup2\n        /* \"#utility.yul\":28051:28182   */\n      tag_633\n      jump\t// in\n    tag_911:\n        /* \"#utility.yul\":28043:28182   */\n      swap1\n      pop\n        /* \"#utility.yul\":27770:28189   */\n      swap2\n      swap1\n      pop\n      jump\t// out\n\n    auxdata: 0xa26469706673582212201c3dd3d3025ae6c3238e91ed5ea6375d805eff3fd4e40338559d9585c1b92a1e64736f6c63430008130033\n}\n",
				"bytecode": {
					"linkReferences": {},
					"object": "60806040523480156200001157600080fd5b5060405162004149380380620041498339818101604052810190620000379190620005d2565b6000600160006101000a81548160ff0219169083151502179055506001600281905550606483620000699190620006f7565b92506064826200007a9190620006f7565b91506064816200008b9190620006f7565b90508082846200009c91906200075e565b620000a891906200075e565b60ff16606411620000b857600080fd5b33600c60006101000a81548173ffffffffffffffffffffffffffffffffffffffff021916908373ffffffffffffffffffffffffffffffffffffffff16021790555085600d60006101000a81548173ffffffffffffffffffffffffffffffffffffffff021916908373ffffffffffffffffffffffffffffffffffffffff16021790555084601060006101000a81548173ffffffffffffffffffffffffffffffffffffffff021916908373ffffffffffffffffffffffffffffffffffffffff1602179055508373ffffffffffffffffffffffffffffffffffffffff16600073ffffffffffffffffffffffffffffffffffffffff1614620001f25783600e60006101000a81548173ffffffffffffffffffffffffffffffffffffffff021916908373ffffffffffffffffffffffffffffffffffffffff1602179055505b6000601a60006101000a81548160ff021916908360058111156200021b576200021a6200079a565b5b02179055506040518061016001604052808b81526020018a8152602001898152602001888152602001600081526020016000815260200160008152602001600081526020018460ff1681526020018360ff1681526020018260ff168152506003600082015181600001556020820151816001015560408201518160020155606082015181600301556080820151816004015560a0820151816005015560c0820151816006015560e082015181600701556101008201518160080160006101000a81548160ff021916908360ff1602179055506101208201518160080160016101000a81548160ff021916908360ff1602179055506101408201518160080160026101000a81548160ff021916908360ff1602179055509050506200034a6000801b60006200038c60201b60201c565b6200037c7f65d7a28e3265b37a6474929f336521b332c1681b933f6cb9f3376673440d862a336200038c60201b60201c565b50505050505050505050620007c9565b6200039e82826200047d60201b60201c565b6200047957600160008084815260200190815260200160002060000160008373ffffffffffffffffffffffffffffffffffffffff1673ffffffffffffffffffffffffffffffffffffffff16815260200190815260200160002060006101000a81548160ff0219169083151502179055506200041e620004e760201b60201c565b73ffffffffffffffffffffffffffffffffffffffff168173ffffffffffffffffffffffffffffffffffffffff16837f2f8788117e7eff1d82e926ec794901d17c78024a50270940304540a733656f0d60405160405180910390a45b5050565b600080600084815260200190815260200160002060000160008373ffffffffffffffffffffffffffffffffffffffff1673ffffffffffffffffffffffffffffffffffffffff16815260200190815260200160002060009054906101000a900460ff16905092915050565b600033905090565b600080fd5b6000819050919050565b6200050981620004f4565b81146200051557600080fd5b50565b6000815190506200052981620004fe565b92915050565b600073ffffffffffffffffffffffffffffffffffffffff82169050919050565b60006200055c826200052f565b9050919050565b6200056e816200054f565b81146200057a57600080fd5b50565b6000815190506200058e8162000563565b92915050565b600060ff82169050919050565b620005ac8162000594565b8114620005b857600080fd5b50565b600081519050620005cc81620005a1565b92915050565b6000806000806000806000806000806101408b8d031215620005f957620005f8620004ef565b5b6000620006098d828e0162000518565b9a505060206200061c8d828e0162000518565b99505060406200062f8d828e0162000518565b9850506060620006428d828e0162000518565b9750506080620006558d828e016200057d565b96505060a0620006688d828e016200057d565b95505060c06200067b8d828e016200057d565b94505060e06200068e8d828e01620005bb565b935050610100620006a28d828e01620005bb565b925050610120620006b68d828e01620005bb565b9150509295989b9194979a5092959850565b7f4e487b7100000000000000000000000000000000000000000000000000000000600052601260045260246000fd5b6000620007048262000594565b9150620007118362000594565b925082620007245762000723620006c8565b5b828206905092915050565b7f4e487b7100000000000000000000000000000000000000000000000000000000600052601160045260246000fd5b60006200076b8262000594565b9150620007788362000594565b9250828201905060ff8111156200079457620007936200072f565b5b92915050565b7f4e487b7100000000000000000000000000000000000000000000000000000000600052602160045260246000fd5b61397080620007d96000396000f3fe6080604052600436106101ee5760003560e01c8063a217fddf1161010d578063d84c1ac9116100a0578063e63ab1e91161006f578063e63ab1e914610648578063e864e29b14610673578063ead00e021461068a578063f71d96cb146106a6578063fc0c546a146106e4576101ee565b8063d84c1ac9146105ba578063db73bfce146105d1578063dfbf53ae14610606578063e2218de014610631576101ee565b8063d547741f116100dc578063d547741f14610559578063d65ab5f214610582578063d6f5ef0e1461058c578063d72ad623146105a3576101ee565b8063a217fddf146104c1578063b2d5ae44146104ec578063bbf2447614610503578063c45a01551461052e576101ee565b8063499831f2116101855780636ac3afce116101545780636ac3afce146104195780637b51b4ad1461044257806391d1485414610459578063934aa02314610496576101ee565b8063499831f21461036f5780634a3b68cc146103865780634f6d3aed146103c35780635c975abb146103ee576101ee565b8063305243d9116101c1578063305243d9146102c157806330f95a56146102d857806336568abe14610315578063382396ee1461033e576101ee565b806301ffc9a7146101f357806302d05d3f14610230578063248a9ca31461025b5780632f2ff15d14610298575b600080fd5b3480156101ff57600080fd5b5061021a60048036038101906102159190612b0a565b61070f565b6040516102279190612b52565b60405180910390f35b34801561023c57600080fd5b50610245610789565b6040516102529190612bae565b60405180910390f35b34801561026757600080fd5b50610282600480360381019061027d9190612bff565b6107af565b60405161028f9190612c3b565b60405180910390f35b3480156102a457600080fd5b506102bf60048036038101906102ba9190612c82565b6107ce565b005b3480156102cd57600080fd5b506102d66107ef565b005b3480156102e457600080fd5b506102ff60048036038101906102fa9190612cc2565b610865565b60405161030c9190612d08565b60405180910390f35b34801561032157600080fd5b5061033c60048036038101906103379190612c82565b61087d565b005b34801561034a57600080fd5b50610353610900565b6040516103669796959493929190612d9a565b60405180910390f35b34801561037b57600080fd5b50610384610958565b005b34801561039257600080fd5b506103ad60048036038101906103a89190612cc2565b6109f9565b6040516103ba9190612d08565b60405180910390f35b3480156103cf57600080fd5b506103d8610a11565b6040516103e59190612bae565b60405180910390f35b3480156103fa57600080fd5b50610403610a37565b6040516104109190612b52565b60405180910390f35b34801561042557600080fd5b50610440600480360381019061043b9190612e35565b610a4e565b005b34801561044e57600080fd5b50610457610d35565b005b34801561046557600080fd5b50610480600480360381019061047b9190612c82565b610e63565b60405161048d9190612b52565b60405180910390f35b3480156104a257600080fd5b506104ab610ecd565b6040516104b89190612bae565b60405180910390f35b3480156104cd57600080fd5b506104d6610ef3565b6040516104e39190612c3b565b60405180910390f35b3480156104f857600080fd5b50610501610efa565b005b34801561050f57600080fd5b506105186110fd565b6040516105259190612bae565b60405180910390f35b34801561053a57600080fd5b50610543611123565b6040516105509190612bae565b60405180910390f35b34801561056557600080fd5b50610580600480360381019061057b9190612c82565b611149565b005b61058a61116a565b005b34801561059857600080fd5b506105a1611246565b005b3480156105af57600080fd5b506105b861129b565b005b3480156105c657600080fd5b506105cf61148d565b005b3480156105dd57600080fd5b506105e66115bb565b6040516105fd9b9a99989796959493929190612e7e565b60405180910390f35b34801561061257600080fd5b5061061b61162a565b6040516106289190612bae565b60405180910390f35b34801561063d57600080fd5b50610646611650565b005b34801561065457600080fd5b5061065d6119a6565b60405161066a9190612c3b565b60405180910390f35b34801561067f57600080fd5b506106886119ca565b005b6106a4600480360381019061069f9190612f55565b611aef565b005b3480156106b257600080fd5b506106cd60048036038101906106c89190612f95565b611e02565b6040516106db929190612fc2565b60405180910390f35b3480156106f057600080fd5b506106f9611e56565b6040516107069190612bae565b60405180910390f35b60007f7965db0b000000000000000000000000000000000000000000000000000000007bffffffffffffffffffffffffffffffffffffffffffffffffffffffff1916827bffffffffffffffffffffffffffffffffffffffffffffffffffffffff19161480610782575061078182611e7c565b5b9050919050565b600d60009054906101000a900473ffffffffffffffffffffffffffffffffffffffff1681565b6000806000838152602001908152602001600020600101549050919050565b6107d7826107af565b6107e081611ee6565b6107ea8383611efa565b505050565b7f65d7a28e3265b37a6474929f336521b332c1681b933f6cb9f3376673440d862a61081981611ee6565b610821611fda565b601a60019054906101000a900460ff16601a60006101000a81548160ff0219169083600581111561085557610854612d23565b5b0217905550610862612023565b50565b60146020528060005260406000206000915090505481565b610885612086565b73ffffffffffffffffffffffffffffffffffffffff168173ffffffffffffffffffffffffffffffffffffffff16146108f2576040517f08c379a00000000000000000000000000000000000000000000000000000000081526004016108e99061306e565b60405180910390fd5b6108fc828261208e565b5050565b6000806000806000806000601a60009054906101000a900460ff1660138054905061092961216f565b600360040154600360050154600360060154600360070154965096509650965096509650965090919293949596565b7f65d7a28e3265b37a6474929f336521b332c1681b933f6cb9f3376673440d862a61098281611ee6565b61098a612271565b601a60009054906101000a900460ff16601a60016101000a81548160ff021916908360058111156109be576109bd612d23565b5b02179055506003601a60006101000a81548160ff021916908360058111156109e9576109e8612d23565b5b02179055506109f66122bb565b50565b60156020528060005260406000206000915090505481565b601260009054906101000a900473ffffffffffffffffffffffffffffffffffffffff1681565b6000600160009054906101000a900460ff16905090565b610a56612271565b610a5e61231d565b601a60009054906101000a900460ff166005811115610a8057610a7f612d23565b5b60046005811115610a9457610a93612d23565b5b14610a9e57600080fd5b8015610ce6576000805b601380549050811015610c9457600060138281548110610acb57610aca61308e565b5b906000526020600020906002020160010160009054906101000a900473ffffffffffffffffffffffffffffffffffffffff1690506000601460008373ffffffffffffffffffffffffffffffffffffffff1673ffffffffffffffffffffffffffffffffffffffff1681526020019081526020016000205490506000811115610c7f576000601460008473ffffffffffffffffffffffffffffffffffffffff1673ffffffffffffffffffffffffffffffffffffffff168152602001908152602001600020819055508060166000828254610ba391906130ec565b925050819055506000610bb6838361236a565b90508015610c1f578185610bca9190613120565b94508273ffffffffffffffffffffffffffffffffffffffff167fbb28353e4598c3b9199101a66e0989549b659a59a54d2c27fbb183f1932c8e6d83604051610c129190612d08565b60405180910390a2610c7d565b81601460008573ffffffffffffffffffffffffffffffffffffffff1673ffffffffffffffffffffffffffffffffffffffff168152602001908152602001600020819055508160166000828254610c759190613120565b925050819055505b505b50508080610c8c90613154565b915050610aa8565b50610ce0600d60009054906101000a900473ffffffffffffffffffffffffffffffffffffffff1682601654610cc991906130ec565b610cd161216f565b610cdb91906130ec565b6124e8565b50610d2a565b60006016541115610cf657600080fd5b610d29600d60009054906101000a900473ffffffffffffffffffffffffffffffffffffffff16610d2461216f565b6124e8565b5b610d32612645565b50565b610d3d612271565b601a60009054906101000a900460ff166005811115610d5f57610d5e612d23565b5b60026005811115610d7357610d72612d23565b5b14610d7d57600080fd5b6000610d8761216f565b905060006017541115610da55760175481610da291906130ec565b90505b60006018541115610dc15760185481610dbe91906130ec565b90505b60006019541115610ddd5760195481610dda91906130ec565b90505b6005601a60006101000a81548160ff02191690836005811115610e0357610e02612d23565b5b02179055507fe06452d00b2b58f14a1fa6d499ea982ff93ea827ae700ea9ba03f4daddc94bc160405160405180910390a1610e60600d60009054906101000a900473ffffffffffffffffffffffffffffffffffffffff16826124e8565b50565b600080600084815260200190815260200160002060000160008373ffffffffffffffffffffffffffffffffffffffff1673ffffffffffffffffffffffffffffffffffffffff16815260200190815260200160002060009054906101000a900460ff16905092915050565b601060009054906101000a900473ffffffffffffffffffffffffffffffffffffffff1681565b6000801b81565b610f02612271565b601a60009054906101000a900460ff166005811115610f2457610f23612d23565b5b60046005811115610f3857610f37612d23565b5b14610f78576040517f08c379a0000000000000000000000000000000000000000000000000000000008152600401610f6f906131e8565b60405180910390fd5b600060165411610fbd576040517f08c379a0000000000000000000000000000000000000000000000000000000008152600401610fb490613254565b60405180910390fd5b6000601460003373ffffffffffffffffffffffffffffffffffffffff1673ffffffffffffffffffffffffffffffffffffffff16815260200190815260200160002054905060008111611044576040517f08c379a000000000000000000000000000000000000000000000000000000000815260040161103b906132c0565b60405180910390fd5b806016600082825461105691906130ec565b925050819055506000601460003373ffffffffffffffffffffffffffffffffffffffff1673ffffffffffffffffffffffffffffffffffffffff168152602001908152602001600020819055503373ffffffffffffffffffffffffffffffffffffffff167fbb28353e4598c3b9199101a66e0989549b659a59a54d2c27fbb183f1932c8e6d826040516110e89190612d08565b60405180910390a26110fa33826124e8565b50565b601160009054906101000a900473ffffffffffffffffffffffffffffffffffffffff1681565b600c60009054906101000a900473ffffffffffffffffffffffffffffffffffffffff1681565b611152826107af565b61115b81611ee6565b611165838361208e565b505050565b611172612271565b601a60009054906101000a900460ff16600581111561119457611193612d23565b5b600060058111156111a8576111a7612d23565b5b1480156112025750600d60009054906101000a900473ffffffffffffffffffffffffffffffffffffffff1673ffffffffffffffffffffffffffffffffffffffff163373ffffffffffffffffffffffffffffffffffffffff16145b61120b57600080fd5b611218600380015461264f565b506001601a60006101000a81548160ff0219169083600581111561123f5761123e612d23565b5b0217905550565b61124e612271565b60006017541161125d57600080fd5b600060175490506000601781905550611298601060009054906101000a900473ffffffffffffffffffffffffffffffffffffffff16826124e8565b50565b6112a3612271565b601a60009054906101000a900460ff1660058111156112c5576112c4612d23565b5b6005808111156112d8576112d7612d23565b5b14806113175750601a60009054906101000a900460ff16600581111561130157611300612d23565b5b6002600581111561131557611314612d23565b5b145b611356576040517f08c379a000000000000000000000000000000000000000000000000000000000815260040161134d906131e8565b60405180910390fd5b60006019541161139b576040517f08c379a000000000000000000000000000000000000000000000000000000000815260040161139290613254565b60405180910390fd5b6000601560003373ffffffffffffffffffffffffffffffffffffffff1673ffffffffffffffffffffffffffffffffffffffff16815260200190815260200160002054905060008111611422576040517f08c379a0000000000000000000000000000000000000000000000000000000008152600401611419906132c0565b60405180910390fd5b806019600082825461143491906130ec565b925050819055506000601560003373ffffffffffffffffffffffffffffffffffffffff1673ffffffffffffffffffffffffffffffffffffffff1681526020019081526020016000208190555061148a33826124e8565b50565b611495612271565b601a60009054906101000a900460ff1660058111156114b7576114b6612d23565b5b600160058111156114cb576114ca612d23565b5b1480156114e15750600360020154601380549050105b801561153a5750600d60009054906101000a900473ffffffffffffffffffffffffffffffffffffffff1673ffffffffffffffffffffffffffffffffffffffff163373ffffffffffffffffffffffffffffffffffffffff16145b61154357600080fd5b6004601a60006101000a81548160ff0219169083600581111561156957611568612d23565b5b02179055507f1afb0ae590df277bcb3a37f88612725bf1f7df4755792b1548a7efe77985ff7760405160405180910390a1600060195411156115b957600060198190555060006003600701819055505b565b60038060000154908060010154908060020154908060030154908060040154908060050154908060060154908060070154908060080160009054906101000a900460ff16908060080160019054906101000a900460ff16908060080160029054906101000a900460ff1690508b565b600f60009054906101000a900473ffffffffffffffffffffffffffffffffffffffff1681565b611658612271565b601a60009054906101000a900460ff16600581111561167a57611679612d23565b5b6001600581111561168e5761168d612d23565b5b1480156116a5575060036002015460138054905010155b6116ae57600080fd5b6064600360080160009054906101000a900460ff1660ff166016546116d391906132e0565b6116dd9190613351565b601781905560036005018190555060006064600360080160029054906101000a900460ff1660ff1660165461171291906132e0565b61171c9190613351565b9050600061172b60165461277d565b90506000805b6013805490508110156119a0576000601382815481106117545761175361308e565b5b9060005260206000209060020201604051806040016040529081600082015481526020016001820160009054906101000a900473ffffffffffffffffffffffffffffffffffffffff1673ffffffffffffffffffffffffffffffffffffffff1673ffffffffffffffffffffffffffffffffffffffff16815250509050601382815481106117e3576117e261308e565b5b906000526020600020906002020160000154836118009190613120565b92508383111561198c576002601a60006101000a81548160ff021916908360058111156118305761182f612d23565b5b02179055508060200151600f60006101000a81548173ffffffffffffffffffffffffffffffffffffffff021916908373ffffffffffffffffffffffffffffffffffffffff1602179055506019548560175460165461188e91906130ec565b61189891906130ec565b6118a291906130ec565b6018819055600360060181905550600f60009054906101000a900473ffffffffffffffffffffffffffffffffffffffff1673ffffffffffffffffffffffffffffffffffffffff167f9c2270628a9b29d30ae96b6c4c14ed646ee134febdce38a5b77f2bde9cea2e2060185460405161191a9190612d08565b60405180910390a2600061192e338761236a565b90508015611985573373ffffffffffffffffffffffffffffffffffffffff167fb02cf27ac90d3c9a1463f579513b0d004fc6a7a2a47a45676196167b706949b78760405161197c9190612d08565b60405180910390a25b50506119a0565b50808061199890613154565b915050611731565b50505050565b7f65d7a28e3265b37a6474929f336521b332c1681b933f6cb9f3376673440d862a81565b6119d2612271565b6000601854116119e157600080fd5b600060185490506000601881905550611a1c600f60009054906101000a900473ffffffffffffffffffffffffffffffffffffffff16826124e8565b60006017541115611aec576000601754905060006017819055506000611a64601060009054906101000a900473ffffffffffffffffffffffffffffffffffffffff168361236a565b90508015611ae157601060009054906101000a900473ffffffffffffffffffffffffffffffffffffffff1673ffffffffffffffffffffffffffffffffffffffff167f3107c1db8334b554700bd3d959498d607593240ca76167f1503aa75770bd532083604051611ad49190612d08565b60405180910390a2611ae9565b816017819055505b50505b50565b611af7612271565b601a60009054906101000a900460ff166005811115611b1957611b18612d23565b5b60016005811115611b2d57611b2c612d23565b5b14611b3757600080fd5b611b408261264f565b91503373ffffffffffffffffffffffffffffffffffffffff167fb4e09949657f21548b58afe74e7b86cd2295da5ff1598ae1e5faecb1cf19ca9583604051611b889190612d08565b60405180910390a28073ffffffffffffffffffffffffffffffffffffffff16600073ffffffffffffffffffffffffffffffffffffffff1614611cda5760006064600360080160019054906101000a900460ff1660ff1684611be991906132e0565b611bf39190613351565b90508060001015611cd8578060196000828254611c109190613120565b9250508190555080601560008473ffffffffffffffffffffffffffffffffffffffff1673ffffffffffffffffffffffffffffffffffffffff1681526020019081526020016000206000828254611c669190613120565b925050819055508060036007016000828254611c829190613120565b925050819055508173ffffffffffffffffffffffffffffffffffffffff167f9f4d5cdfa29df376c0cd1ead03d27651f119d11cbb43b5a6a7b87cc02f6b414a82604051611ccf9190612d08565b60405180910390a25b505b8160166000828254611cec9190613120565b9250508190555060165460036004018190555081601460003373ffffffffffffffffffffffffffffffffffffffff1673ffffffffffffffffffffffffffffffffffffffff1681526020019081526020016000206000828254611d4e9190613120565b92505081905550601360405180604001604052808481526020013373ffffffffffffffffffffffffffffffffffffffff1681525090806001815401808255809150506001900390600052602060002090600202016000909190919091506000820151816000015560208201518160010160006101000a81548173ffffffffffffffffffffffffffffffffffffffff021916908373ffffffffffffffffffffffffffffffffffffffff16021790555050505050565b60138181548110611e1257600080fd5b90600052602060002090600202016000915090508060000154908060010160009054906101000a900473ffffffffffffffffffffffffffffffffffffffff16905082565b600e60009054906101000a900473ffffffffffffffffffffffffffffffffffffffff1681565b60007f01ffc9a7000000000000000000000000000000000000000000000000000000007bffffffffffffffffffffffffffffffffffffffffffffffffffffffff1916827bffffffffffffffffffffffffffffffffffffffffffffffffffffffff1916149050919050565b611ef781611ef2612086565b6127bf565b50565b611f048282610e63565b611fd657600160008084815260200190815260200160002060000160008373ffffffffffffffffffffffffffffffffffffffff1673ffffffffffffffffffffffffffffffffffffffff16815260200190815260200160002060006101000a81548160ff021916908315150217905550611f7b612086565b73ffffffffffffffffffffffffffffffffffffffff168173ffffffffffffffffffffffffffffffffffffffff16837f2f8788117e7eff1d82e926ec794901d17c78024a50270940304540a733656f0d60405160405180910390a45b5050565b611fe2610a37565b612021576040517f08c379a0000000000000000000000000000000000000000000000000000000008152600401612018906133ce565b60405180910390fd5b565b61202b611fda565b6000600160006101000a81548160ff0219169083151502179055507f5db9ee0a495bf2e6ff9c91a7834c1ba4fdd244a5e8aa4e537bd38aeae4b073aa61206f612086565b60405161207c9190612bae565b60405180910390a1565b600033905090565b6120988282610e63565b1561216b57600080600084815260200190815260200160002060000160008373ffffffffffffffffffffffffffffffffffffffff1673ffffffffffffffffffffffffffffffffffffffff16815260200190815260200160002060006101000a81548160ff021916908315150217905550612110612086565b73ffffffffffffffffffffffffffffffffffffffff168173ffffffffffffffffffffffffffffffffffffffff16837ff6391f5c32d9c69d2a47ea670b442974b53935d1edc7fd64eb21e047a839171b60405160405180910390a45b5050565b6000600e60009054906101000a900473ffffffffffffffffffffffffffffffffffffffff1673ffffffffffffffffffffffffffffffffffffffff16600073ffffffffffffffffffffffffffffffffffffffff161461226a57600e60009054906101000a900473ffffffffffffffffffffffffffffffffffffffff1673ffffffffffffffffffffffffffffffffffffffff166370a08231306040518263ffffffff1660e01b81526004016122229190612bae565b602060405180830381865afa15801561223f573d6000803e3d6000fd5b505050506040513d601f19601f820116820180604052508101906122639190613403565b905061226e565b4790505b90565b612279610a37565b156122b9576040517f08c379a00000000000000000000000000000000000000000000000000000000081526004016122b09061347c565b60405180910390fd5b565b6122c3612271565b60018060006101000a81548160ff0219169083151502179055507f62e78cea01bee320cd4e420270b5ea74000d11b0c9f74754ebdbfc544b05a258612306612086565b6040516123139190612bae565b60405180910390a1565b6002805403612361576040517f08c379a0000000000000000000000000000000000000000000000000000000008152600401612358906134e8565b60405180910390fd5b60028081905550565b6000600e60009054906101000a900473ffffffffffffffffffffffffffffffffffffffff1673ffffffffffffffffffffffffffffffffffffffff16600073ffffffffffffffffffffffffffffffffffffffff161461247157600e60009054906101000a900473ffffffffffffffffffffffffffffffffffffffff1673ffffffffffffffffffffffffffffffffffffffff1663a9059cbb84846040518363ffffffff1660e01b815260040161241f929190613508565b6020604051808303816000875af192505050801561245b57506040513d601f19601f820116820180604052508101906124589190613546565b60015b61246857600090506124e2565b809150506124e2565b60008373ffffffffffffffffffffffffffffffffffffffff1683604051612497906135a4565b60006040518083038185875af1925050503d80600081146124d4576040519150601f19603f3d011682016040523d82523d6000602084013e6124d9565b606091505b50509050809150505b92915050565b600e60009054906101000a900473ffffffffffffffffffffffffffffffffffffffff1673ffffffffffffffffffffffffffffffffffffffff16600073ffffffffffffffffffffffffffffffffffffffff16146125f9576000600e60009054906101000a900473ffffffffffffffffffffffffffffffffffffffff1673ffffffffffffffffffffffffffffffffffffffff1663a9059cbb84846040518363ffffffff1660e01b815260040161259d929190613508565b6020604051808303816000875af11580156125bc573d6000803e3d6000fd5b505050506040513d601f19601f820116820180604052508101906125e09190613546565b905080151560011515146125f357600080fd5b50612641565b8173ffffffffffffffffffffffffffffffffffffffff166108fc829081150290604051600060405180830381858888f1935050505015801561263f573d6000803e3d6000fd5b505b5050565b6001600281905550565b6000600e60009054906101000a900473ffffffffffffffffffffffffffffffffffffffff1673ffffffffffffffffffffffffffffffffffffffff16600073ffffffffffffffffffffffffffffffffffffffff1614612767576000600e60009054906101000a900473ffffffffffffffffffffffffffffffffffffffff1673ffffffffffffffffffffffffffffffffffffffff166323b872dd3330866040518463ffffffff1660e01b8152600401612708939291906135b9565b6020604051808303816000875af1158015612727573d6000803e3d6000fd5b505050506040513d601f19601f8201168201806040525081019061274b9190613546565b9050801515600115151461275e57600080fd5b82915050612778565b8134101561277457600080fd5b3490505b919050565b60008142433360405160200161279593929190613659565b6040516020818303038152906040528051906020012060001c6127b89190613696565b9050919050565b6127c98282610e63565b612840576127d681612844565b6127e48360001c6020612871565b6040516020016127f59291906137d0565b6040516020818303038152906040526040517f08c379a00000000000000000000000000000000000000000000000000000000081526004016128379190613854565b60405180910390fd5b5050565b606061286a8273ffffffffffffffffffffffffffffffffffffffff16601460ff16612871565b9050919050565b60606000600283600261288491906132e0565b61288e9190613120565b67ffffffffffffffff8111156128a7576128a6613876565b5b6040519080825280601f01601f1916602001820160405280156128d95781602001600182028036833780820191505090505b5090507f3000000000000000000000000000000000000000000000000000000000000000816000815181106129115761291061308e565b5b60200101907effffffffffffffffffffffffffffffffffffffffffffffffffffffffffffff1916908160001a9053507f7800000000000000000000000000000000000000000000000000000000000000816001815181106129755761297461308e565b5b60200101907effffffffffffffffffffffffffffffffffffffffffffffffffffffffffffff1916908160001a905350600060018460026129b591906132e0565b6129bf9190613120565b90505b6001811115612a5f577f3031323334353637383961626364656600000000000000000000000000000000600f861660108110612a0157612a0061308e565b5b1a60f81b828281518110612a1857612a1761308e565b5b60200101907effffffffffffffffffffffffffffffffffffffffffffffffffffffffffffff1916908160001a905350600485901c945080612a58906138a5565b90506129c2565b5060008414612aa3576040517f08c379a0000000000000000000000000000000000000000000000000000000008152600401612a9a9061391a565b60405180910390fd5b8091505092915050565b600080fd5b60007fffffffff0000000000000000000000000000000000000000000000000000000082169050919050565b612ae781612ab2565b8114612af257600080fd5b50565b600081359050612b0481612ade565b92915050565b600060208284031215612b2057612b1f612aad565b5b6000612b2e84828501612af5565b91505092915050565b60008115159050919050565b612b4c81612b37565b82525050565b6000602082019050612b676000830184612b43565b92915050565b600073ffffffffffffffffffffffffffffffffffffffff82169050919050565b6000612b9882612b6d565b9050919050565b612ba881612b8d565b82525050565b6000602082019050612bc36000830184612b9f565b92915050565b6000819050919050565b612bdc81612bc9565b8114612be757600080fd5b50565b600081359050612bf981612bd3565b92915050565b600060208284031215612c1557612c14612aad565b5b6000612c2384828501612bea565b91505092915050565b612c3581612bc9565b82525050565b6000602082019050612c506000830184612c2c565b92915050565b612c5f81612b8d565b8114612c6a57600080fd5b50565b600081359050612c7c81612c56565b92915050565b60008060408385031215612c9957612c98612aad565b5b6000612ca785828601612bea565b9250506020612cb885828601612c6d565b9150509250929050565b600060208284031215612cd857612cd7612aad565b5b6000612ce684828501612c6d565b91505092915050565b6000819050919050565b612d0281612cef565b82525050565b6000602082019050612d1d6000830184612cf9565b92915050565b7f4e487b7100000000000000000000000000000000000000000000000000000000600052602160045260246000fd5b60068110612d6357612d62612d23565b5b50565b6000819050612d7482612d52565b919050565b6000612d8482612d66565b9050919050565b612d9481612d79565b82525050565b600060e082019050612daf600083018a612d8b565b612dbc6020830189612cf9565b612dc96040830188612cf9565b612dd66060830187612cf9565b612de36080830186612cf9565b612df060a0830185612cf9565b612dfd60c0830184612cf9565b98975050505050505050565b612e1281612b37565b8114612e1d57600080fd5b50565b600081359050612e2f81612e09565b92915050565b600060208284031215612e4b57612e4a612aad565b5b6000612e5984828501612e20565b91505092915050565b600060ff82169050919050565b612e7881612e62565b82525050565b600061016082019050612e94600083018e612cf9565b612ea1602083018d612cf9565b612eae604083018c612cf9565b612ebb606083018b612cf9565b612ec8608083018a612cf9565b612ed560a0830189612cf9565b612ee260c0830188612cf9565b612eef60e0830187612cf9565b612efd610100830186612e6f565b612f0b610120830185612e6f565b612f19610140830184612e6f565b9c9b505050505050505050505050565b612f3281612cef565b8114612f3d57600080fd5b50565b600081359050612f4f81612f29565b92915050565b60008060408385031215612f6c57612f6b612aad565b5b6000612f7a85828601612f40565b9250506020612f8b85828601612c6d565b9150509250929050565b600060208284031215612fab57612faa612aad565b5b6000612fb984828501612f40565b91505092915050565b6000604082019050612fd76000830185612cf9565b612fe46020830184612b9f565b9392505050565b600082825260208201905092915050565b7f416363657373436f6e74726f6c3a2063616e206f6e6c792072656e6f756e636560008201527f20726f6c657320666f722073656c660000000000000000000000000000000000602082015250565b6000613058602f83612feb565b915061306382612ffc565b604082019050919050565b600060208201905081810360008301526130878161304b565b9050919050565b7f4e487b7100000000000000000000000000000000000000000000000000000000600052603260045260246000fd5b7f4e487b7100000000000000000000000000000000000000000000000000000000600052601160045260246000fd5b60006130f782612cef565b915061310283612cef565b925082820390508181111561311a576131196130bd565b5b92915050565b600061312b82612cef565b915061313683612cef565b925082820190508082111561314e5761314d6130bd565b5b92915050565b600061315f82612cef565b91507fffffffffffffffffffffffffffffffffffffffffffffffffffffffffffffffff8203613191576131906130bd565b5b600182019050919050565b7f4531000000000000000000000000000000000000000000000000000000000000600082015250565b60006131d2600283612feb565b91506131dd8261319c565b602082019050919050565b60006020820190508181036000830152613201816131c5565b9050919050565b7f4532000000000000000000000000000000000000000000000000000000000000600082015250565b600061323e600283612feb565b915061324982613208565b602082019050919050565b6000602082019050818103600083015261326d81613231565b9050919050565b7f4533000000000000000000000000000000000000000000000000000000000000600082015250565b60006132aa600283612feb565b91506132b582613274565b602082019050919050565b600060208201905081810360008301526132d98161329d565b9050919050565b60006132eb82612cef565b91506132f683612cef565b925082820261330481612cef565b9150828204841483151761331b5761331a6130bd565b5b5092915050565b7f4e487b7100000000000000000000000000000000000000000000000000000000600052601260045260246000fd5b600061335c82612cef565b915061336783612cef565b92508261337757613376613322565b5b828204905092915050565b7f5061757361626c653a206e6f7420706175736564000000000000000000000000600082015250565b60006133b8601483612feb565b91506133c382613382565b602082019050919050565b600060208201905081810360008301526133e7816133ab565b9050919050565b6000815190506133fd81612f29565b92915050565b60006020828403121561341957613418612aad565b5b6000613427848285016133ee565b91505092915050565b7f5061757361626c653a2070617573656400000000000000000000000000000000600082015250565b6000613466601083612feb565b915061347182613430565b602082019050919050565b6000602082019050818103600083015261349581613459565b9050919050565b7f5265656e7472616e637947756172643a207265656e7472616e742063616c6c00600082015250565b60006134d2601f83612feb565b91506134dd8261349c565b602082019050919050565b60006020820190508181036000830152613501816134c5565b9050919050565b600060408201905061351d6000830185612b9f565b61352a6020830184612cf9565b9392505050565b60008151905061354081612e09565b92915050565b60006020828403121561355c5761355b612aad565b5b600061356a84828501613531565b91505092915050565b600081905092915050565b50565b600061358e600083613573565b91506135998261357e565b600082019050919050565b60006135af82613581565b9150819050919050565b60006060820190506135ce6000830186612b9f565b6135db6020830185612b9f565b6135e86040830184612cf9565b949350505050565b6000819050919050565b61360b61360682612cef565b6135f0565b82525050565b60008160601b9050919050565b600061362982613611565b9050919050565b600061363b8261361e565b9050919050565b61365361364e82612b8d565b613630565b82525050565b600061366582866135fa565b60208201915061367582856135fa565b6020820191506136858284613642565b601482019150819050949350505050565b60006136a182612cef565b91506136ac83612cef565b9250826136bc576136bb613322565b5b828206905092915050565b600081905092915050565b7f416363657373436f6e74726f6c3a206163636f756e7420000000000000000000600082015250565b60006137086017836136c7565b9150613713826136d2565b601782019050919050565b600081519050919050565b60005b8381101561374757808201518184015260208101905061372c565b60008484015250505050565b600061375e8261371e565b61376881856136c7565b9350613778818560208601613729565b80840191505092915050565b7f206973206d697373696e6720726f6c6520000000000000000000000000000000600082015250565b60006137ba6011836136c7565b91506137c582613784565b601182019050919050565b60006137db826136fb565b91506137e78285613753565b91506137f2826137ad565b91506137fe8284613753565b91508190509392505050565b6000601f19601f8301169050919050565b60006138268261371e565b6138308185612feb565b9350613840818560208601613729565b6138498161380a565b840191505092915050565b6000602082019050818103600083015261386e818461381b565b905092915050565b7f4e487b7100000000000000000000000000000000000000000000000000000000600052604160045260246000fd5b60006138b082612cef565b9150600082036138c3576138c26130bd565b5b600182039050919050565b7f537472696e67733a20686578206c656e67746820696e73756666696369656e74600082015250565b6000613904602083612feb565b915061390f826138ce565b602082019050919050565b60006020820190508181036000830152613933816138f7565b905091905056fea26469706673582212201c3dd3d3025ae6c3238e91ed5ea6375d805eff3fd4e40338559d9585c1b92a1e64736f6c63430008130033",
					"opcodes": "PUSH1 0x80 PUSH1 0x40 MSTORE CALLVALUE DUP1 ISZERO PUSH3 0x11 JUMPI PUSH1 0x0 DUP1 REVERT JUMPDEST POP PUSH1 0x40 MLOAD PUSH3 0x4149 CODESIZE SUB DUP1 PUSH3 0x4149 DUP4 CODECOPY DUP2 DUP2 ADD PUSH1 0x40 MSTORE DUP2 ADD SWAP1 PUSH3 0x37 SWAP2 SWAP1 PUSH3 0x5D2 JUMP JUMPDEST PUSH1 0x0 PUSH1 0x1 PUSH1 0x0 PUSH2 0x100 EXP DUP2 SLOAD DUP2 PUSH1 0xFF MUL NOT AND SWAP1 DUP4 ISZERO ISZERO MUL OR SWAP1 SSTORE POP PUSH1 0x1 PUSH1 0x2 DUP2 SWAP1 SSTORE POP PUSH1 0x64 DUP4 PUSH3 0x69 SWAP2 SWAP1 PUSH3 0x6F7 JUMP JUMPDEST SWAP3 POP PUSH1 0x64 DUP3 PUSH3 0x7A SWAP2 SWAP1 PUSH3 0x6F7 JUMP JUMPDEST SWAP2 POP PUSH1 0x64 DUP2 PUSH3 0x8B SWAP2 SWAP1 PUSH3 0x6F7 JUMP JUMPDEST SWAP1 POP DUP1 DUP3 DUP5 PUSH3 0x9C SWAP2 SWAP1 PUSH3 0x75E JUMP JUMPDEST PUSH3 0xA8 SWAP2 SWAP1 PUSH3 0x75E JUMP JUMPDEST PUSH1 0xFF AND PUSH1 0x64 GT PUSH3 0xB8 JUMPI PUSH1 0x0 DUP1 REVERT JUMPDEST CALLER PUSH1 0xC PUSH1 0x0 PUSH2 0x100 EXP DUP2 SLOAD DUP2 PUSH20 0xFFFFFFFFFFFFFFFFFFFFFFFFFFFFFFFFFFFFFFFF MUL NOT AND SWAP1 DUP4 PUSH20 0xFFFFFFFFFFFFFFFFFFFFFFFFFFFFFFFFFFFFFFFF AND MUL OR SWAP1 SSTORE POP DUP6 PUSH1 0xD PUSH1 0x0 PUSH2 0x100 EXP DUP2 SLOAD DUP2 PUSH20 0xFFFFFFFFFFFFFFFFFFFFFFFFFFFFFFFFFFFFFFFF MUL NOT AND SWAP1 DUP4 PUSH20 0xFFFFFFFFFFFFFFFFFFFFFFFFFFFFFFFFFFFFFFFF AND MUL OR SWAP1 SSTORE POP DUP5 PUSH1 0x10 PUSH1 0x0 PUSH2 0x100 EXP DUP2 SLOAD DUP2 PUSH20 0xFFFFFFFFFFFFFFFFFFFFFFFFFFFFFFFFFFFFFFFF MUL NOT AND SWAP1 DUP4 PUSH20 0xFFFFFFFFFFFFFFFFFFFFFFFFFFFFFFFFFFFFFFFF AND MUL OR SWAP1 SSTORE POP DUP4 PUSH20 0xFFFFFFFFFFFFFFFFFFFFFFFFFFFFFFFFFFFFFFFF AND PUSH1 0x0 PUSH20 0xFFFFFFFFFFFFFFFFFFFFFFFFFFFFFFFFFFFFFFFF AND EQ PUSH3 0x1F2 JUMPI DUP4 PUSH1 0xE PUSH1 0x0 PUSH2 0x100 EXP DUP2 SLOAD DUP2 PUSH20 0xFFFFFFFFFFFFFFFFFFFFFFFFFFFFFFFFFFFFFFFF MUL NOT AND SWAP1 DUP4 PUSH20 0xFFFFFFFFFFFFFFFFFFFFFFFFFFFFFFFFFFFFFFFF AND MUL OR SWAP1 SSTORE POP JUMPDEST PUSH1 0x0 PUSH1 0x1A PUSH1 0x0 PUSH2 0x100 EXP DUP2 SLOAD DUP2 PUSH1 0xFF MUL NOT AND SWAP1 DUP4 PUSH1 0x5 DUP2 GT ISZERO PUSH3 0x21B JUMPI PUSH3 0x21A PUSH3 0x79A JUMP JUMPDEST JUMPDEST MUL OR SWAP1 SSTORE POP PUSH1 0x40 MLOAD DUP1 PUSH2 0x160 ADD PUSH1 0x40 MSTORE DUP1 DUP12 DUP2 MSTORE PUSH1 0x20 ADD DUP11 DUP2 MSTORE PUSH1 0x20 ADD DUP10 DUP2 MSTORE PUSH1 0x20 ADD DUP9 DUP2 MSTORE PUSH1 0x20 ADD PUSH1 0x0 DUP2 MSTORE PUSH1 0x20 ADD PUSH1 0x0 DUP2 MSTORE PUSH1 0x20 ADD PUSH1 0x0 DUP2 MSTORE PUSH1 0x20 ADD PUSH1 0x0 DUP2 MSTORE PUSH1 0x20 ADD DUP5 PUSH1 0xFF AND DUP2 MSTORE PUSH1 0x20 ADD DUP4 PUSH1 0xFF AND DUP2 MSTORE PUSH1 0x20 ADD DUP3 PUSH1 0xFF AND DUP2 MSTORE POP PUSH1 0x3 PUSH1 0x0 DUP3 ADD MLOAD DUP2 PUSH1 0x0 ADD SSTORE PUSH1 0x20 DUP3 ADD MLOAD DUP2 PUSH1 0x1 ADD SSTORE PUSH1 0x40 DUP3 ADD MLOAD DUP2 PUSH1 0x2 ADD SSTORE PUSH1 0x60 DUP3 ADD MLOAD DUP2 PUSH1 0x3 ADD SSTORE PUSH1 0x80 DUP3 ADD MLOAD DUP2 PUSH1 0x4 ADD SSTORE PUSH1 0xA0 DUP3 ADD MLOAD DUP2 PUSH1 0x5 ADD SSTORE PUSH1 0xC0 DUP3 ADD MLOAD DUP2 PUSH1 0x6 ADD SSTORE PUSH1 0xE0 DUP3 ADD MLOAD DUP2 PUSH1 0x7 ADD SSTORE PUSH2 0x100 DUP3 ADD MLOAD DUP2 PUSH1 0x8 ADD PUSH1 0x0 PUSH2 0x100 EXP DUP2 SLOAD DUP2 PUSH1 0xFF MUL NOT AND SWAP1 DUP4 PUSH1 0xFF AND MUL OR SWAP1 SSTORE POP PUSH2 0x120 DUP3 ADD MLOAD DUP2 PUSH1 0x8 ADD PUSH1 0x1 PUSH2 0x100 EXP DUP2 SLOAD DUP2 PUSH1 0xFF MUL NOT AND SWAP1 DUP4 PUSH1 0xFF AND MUL OR SWAP1 SSTORE POP PUSH2 0x140 DUP3 ADD MLOAD DUP2 PUSH1 0x8 ADD PUSH1 0x2 PUSH2 0x100 EXP DUP2 SLOAD DUP2 PUSH1 0xFF MUL NOT AND SWAP1 DUP4 PUSH1 0xFF AND MUL OR SWAP1 SSTORE POP SWAP1 POP POP PUSH3 0x34A PUSH1 0x0 DUP1 SHL PUSH1 0x0 PUSH3 0x38C PUSH1 0x20 SHL PUSH1 0x20 SHR JUMP JUMPDEST PUSH3 0x37C PUSH32 0x65D7A28E3265B37A6474929F336521B332C1681B933F6CB9F3376673440D862A CALLER PUSH3 0x38C PUSH1 0x20 SHL PUSH1 0x20 SHR JUMP JUMPDEST POP POP POP POP POP POP POP POP POP POP PUSH3 0x7C9 JUMP JUMPDEST PUSH3 0x39E DUP3 DUP3 PUSH3 0x47D PUSH1 0x20 SHL PUSH1 0x20 SHR JUMP JUMPDEST PUSH3 0x479 JUMPI PUSH1 0x1 PUSH1 0x0 DUP1 DUP5 DUP2 MSTORE PUSH1 0x20 ADD SWAP1 DUP2 MSTORE PUSH1 0x20 ADD PUSH1 0x0 KECCAK256 PUSH1 0x0 ADD PUSH1 0x0 DUP4 PUSH20 0xFFFFFFFFFFFFFFFFFFFFFFFFFFFFFFFFFFFFFFFF AND PUSH20 0xFFFFFFFFFFFFFFFFFFFFFFFFFFFFFFFFFFFFFFFF AND DUP2 MSTORE PUSH1 0x20 ADD SWAP1 DUP2 MSTORE PUSH1 0x20 ADD PUSH1 0x0 KECCAK256 PUSH1 0x0 PUSH2 0x100 EXP DUP2 SLOAD DUP2 PUSH1 0xFF MUL NOT AND SWAP1 DUP4 ISZERO ISZERO MUL OR SWAP1 SSTORE POP PUSH3 0x41E PUSH3 0x4E7 PUSH1 0x20 SHL PUSH1 0x20 SHR JUMP JUMPDEST PUSH20 0xFFFFFFFFFFFFFFFFFFFFFFFFFFFFFFFFFFFFFFFF AND DUP2 PUSH20 0xFFFFFFFFFFFFFFFFFFFFFFFFFFFFFFFFFFFFFFFF AND DUP4 PUSH32 0x2F8788117E7EFF1D82E926EC794901D17C78024A50270940304540A733656F0D PUSH1 0x40 MLOAD PUSH1 0x40 MLOAD DUP1 SWAP2 SUB SWAP1 LOG4 JUMPDEST POP POP JUMP JUMPDEST PUSH1 0x0 DUP1 PUSH1 0x0 DUP5 DUP2 MSTORE PUSH1 0x20 ADD SWAP1 DUP2 MSTORE PUSH1 0x20 ADD PUSH1 0x0 KECCAK256 PUSH1 0x0 ADD PUSH1 0x0 DUP4 PUSH20 0xFFFFFFFFFFFFFFFFFFFFFFFFFFFFFFFFFFFFFFFF AND PUSH20 0xFFFFFFFFFFFFFFFFFFFFFFFFFFFFFFFFFFFFFFFF AND DUP2 MSTORE PUSH1 0x20 ADD SWAP1 DUP2 MSTORE PUSH1 0x20 ADD PUSH1 0x0 KECCAK256 PUSH1 0x0 SWAP1 SLOAD SWAP1 PUSH2 0x100 EXP SWAP1 DIV PUSH1 0xFF AND SWAP1 POP SWAP3 SWAP2 POP POP JUMP JUMPDEST PUSH1 0x0 CALLER SWAP1 POP SWAP1 JUMP JUMPDEST PUSH1 0x0 DUP1 REVERT JUMPDEST PUSH1 0x0 DUP2 SWAP1 POP SWAP2 SWAP1 POP JUMP JUMPDEST PUSH3 0x509 DUP2 PUSH3 0x4F4 JUMP JUMPDEST DUP2 EQ PUSH3 0x515 JUMPI PUSH1 0x0 DUP1 REVERT JUMPDEST POP JUMP JUMPDEST PUSH1 0x0 DUP2 MLOAD SWAP1 POP PUSH3 0x529 DUP2 PUSH3 0x4FE JUMP JUMPDEST SWAP3 SWAP2 POP POP JUMP JUMPDEST PUSH1 0x0 PUSH20 0xFFFFFFFFFFFFFFFFFFFFFFFFFFFFFFFFFFFFFFFF DUP3 AND SWAP1 POP SWAP2 SWAP1 POP JUMP JUMPDEST PUSH1 0x0 PUSH3 0x55C DUP3 PUSH3 0x52F JUMP JUMPDEST SWAP1 POP SWAP2 SWAP1 POP JUMP JUMPDEST PUSH3 0x56E DUP2 PUSH3 0x54F JUMP JUMPDEST DUP2 EQ PUSH3 0x57A JUMPI PUSH1 0x0 DUP1 REVERT JUMPDEST POP JUMP JUMPDEST PUSH1 0x0 DUP2 MLOAD SWAP1 POP PUSH3 0x58E DUP2 PUSH3 0x563 JUMP JUMPDEST SWAP3 SWAP2 POP POP JUMP JUMPDEST PUSH1 0x0 PUSH1 0xFF DUP3 AND SWAP1 POP SWAP2 SWAP1 POP JUMP JUMPDEST PUSH3 0x5AC DUP2 PUSH3 0x594 JUMP JUMPDEST DUP2 EQ PUSH3 0x5B8 JUMPI PUSH1 0x0 DUP1 REVERT JUMPDEST POP JUMP JUMPDEST PUSH1 0x0 DUP2 MLOAD SWAP1 POP PUSH3 0x5CC DUP2 PUSH3 0x5A1 JUMP JUMPDEST SWAP3 SWAP2 POP POP JUMP JUMPDEST PUSH1 0x0 DUP1 PUSH1 0x0 DUP1 PUSH1 0x0 DUP1 PUSH1 0x0 DUP1 PUSH1 0x0 DUP1 PUSH2 0x140 DUP12 DUP14 SUB SLT ISZERO PUSH3 0x5F9 JUMPI PUSH3 0x5F8 PUSH3 0x4EF JUMP JUMPDEST JUMPDEST PUSH1 0x0 PUSH3 0x609 DUP14 DUP3 DUP15 ADD PUSH3 0x518 JUMP JUMPDEST SWAP11 POP POP PUSH1 0x20 PUSH3 0x61C DUP14 DUP3 DUP15 ADD PUSH3 0x518 JUMP JUMPDEST SWAP10 POP POP PUSH1 0x40 PUSH3 0x62F DUP14 DUP3 DUP15 ADD PUSH3 0x518 JUMP JUMPDEST SWAP9 POP POP PUSH1 0x60 PUSH3 0x642 DUP14 DUP3 DUP15 ADD PUSH3 0x518 JUMP JUMPDEST SWAP8 POP POP PUSH1 0x80 PUSH3 0x655 DUP14 DUP3 DUP15 ADD PUSH3 0x57D JUMP JUMPDEST SWAP7 POP POP PUSH1 0xA0 PUSH3 0x668 DUP14 DUP3 DUP15 ADD PUSH3 0x57D JUMP JUMPDEST SWAP6 POP POP PUSH1 0xC0 PUSH3 0x67B DUP14 DUP3 DUP15 ADD PUSH3 0x57D JUMP JUMPDEST SWAP5 POP POP PUSH1 0xE0 PUSH3 0x68E DUP14 DUP3 DUP15 ADD PUSH3 0x5BB JUMP JUMPDEST SWAP4 POP POP PUSH2 0x100 PUSH3 0x6A2 DUP14 DUP3 DUP15 ADD PUSH3 0x5BB JUMP JUMPDEST SWAP3 POP POP PUSH2 0x120 PUSH3 0x6B6 DUP14 DUP3 DUP15 ADD PUSH3 0x5BB JUMP JUMPDEST SWAP2 POP POP SWAP3 SWAP6 SWAP9 SWAP12 SWAP2 SWAP5 SWAP8 SWAP11 POP SWAP3 SWAP6 SWAP9 POP JUMP JUMPDEST PUSH32 0x4E487B7100000000000000000000000000000000000000000000000000000000 PUSH1 0x0 MSTORE PUSH1 0x12 PUSH1 0x4 MSTORE PUSH1 0x24 PUSH1 0x0 REVERT JUMPDEST PUSH1 0x0 PUSH3 0x704 DUP3 PUSH3 0x594 JUMP JUMPDEST SWAP2 POP PUSH3 0x711 DUP4 PUSH3 0x594 JUMP JUMPDEST SWAP3 POP DUP3 PUSH3 0x724 JUMPI PUSH3 0x723 PUSH3 0x6C8 JUMP JUMPDEST JUMPDEST DUP3 DUP3 MOD SWAP1 POP SWAP3 SWAP2 POP POP JUMP JUMPDEST PUSH32 0x4E487B7100000000000000000000000000000000000000000000000000000000 PUSH1 0x0 MSTORE PUSH1 0x11 PUSH1 0x4 MSTORE PUSH1 0x24 PUSH1 0x0 REVERT JUMPDEST PUSH1 0x0 PUSH3 0x76B DUP3 PUSH3 0x594 JUMP JUMPDEST SWAP2 POP PUSH3 0x778 DUP4 PUSH3 0x594 JUMP JUMPDEST SWAP3 POP DUP3 DUP3 ADD SWAP1 POP PUSH1 0xFF DUP2 GT ISZERO PUSH3 0x794 JUMPI PUSH3 0x793 PUSH3 0x72F JUMP JUMPDEST JUMPDEST SWAP3 SWAP2 POP POP JUMP JUMPDEST PUSH32 0x4E487B7100000000000000000000000000000000000000000000000000000000 PUSH1 0x0 MSTORE PUSH1 0x21 PUSH1 0x4 MSTORE PUSH1 0x24 PUSH1 0x0 REVERT JUMPDEST PUSH2 0x3970 DUP1 PUSH3 0x7D9 PUSH1 0x0 CODECOPY PUSH1 0x0 RETURN INVALID PUSH1 0x80 PUSH1 0x40 MSTORE PUSH1 0x4 CALLDATASIZE LT PUSH2 0x1EE JUMPI PUSH1 0x0 CALLDATALOAD PUSH1 0xE0 SHR DUP1 PUSH4 0xA217FDDF GT PUSH2 0x10D JUMPI DUP1 PUSH4 0xD84C1AC9 GT PUSH2 0xA0 JUMPI DUP1 PUSH4 0xE63AB1E9 GT PUSH2 0x6F JUMPI DUP1 PUSH4 0xE63AB1E9 EQ PUSH2 0x648 JUMPI DUP1 PUSH4 0xE864E29B EQ PUSH2 0x673 JUMPI DUP1 PUSH4 0xEAD00E02 EQ PUSH2 0x68A JUMPI DUP1 PUSH4 0xF71D96CB EQ PUSH2 0x6A6 JUMPI DUP1 PUSH4 0xFC0C546A EQ PUSH2 0x6E4 JUMPI PUSH2 0x1EE JUMP JUMPDEST DUP1 PUSH4 0xD84C1AC9 EQ PUSH2 0x5BA JUMPI DUP1 PUSH4 0xDB73BFCE EQ PUSH2 0x5D1 JUMPI DUP1 PUSH4 0xDFBF53AE EQ PUSH2 0x606 JUMPI DUP1 PUSH4 0xE2218DE0 EQ PUSH2 0x631 JUMPI PUSH2 0x1EE JUMP JUMPDEST DUP1 PUSH4 0xD547741F GT PUSH2 0xDC JUMPI DUP1 PUSH4 0xD547741F EQ PUSH2 0x559 JUMPI DUP1 PUSH4 0xD65AB5F2 EQ PUSH2 0x582 JUMPI DUP1 PUSH4 0xD6F5EF0E EQ PUSH2 0x58C JUMPI DUP1 PUSH4 0xD72AD623 EQ PUSH2 0x5A3 JUMPI PUSH2 0x1EE JUMP JUMPDEST DUP1 PUSH4 0xA217FDDF EQ PUSH2 0x4C1 JUMPI DUP1 PUSH4 0xB2D5AE44 EQ PUSH2 0x4EC JUMPI DUP1 PUSH4 0xBBF24476 EQ PUSH2 0x503 JUMPI DUP1 PUSH4 0xC45A0155 EQ PUSH2 0x52E JUMPI PUSH2 0x1EE JUMP JUMPDEST DUP1 PUSH4 0x499831F2 GT PUSH2 0x185 JUMPI DUP1 PUSH4 0x6AC3AFCE GT PUSH2 0x154 JUMPI DUP1 PUSH4 0x6AC3AFCE EQ PUSH2 0x419 JUMPI DUP1 PUSH4 0x7B51B4AD EQ PUSH2 0x442 JUMPI DUP1 PUSH4 0x91D14854 EQ PUSH2 0x459 JUMPI DUP1 PUSH4 0x934AA023 EQ PUSH2 0x496 JUMPI PUSH2 0x1EE JUMP JUMPDEST DUP1 PUSH4 0x499831F2 EQ PUSH2 0x36F JUMPI DUP1 PUSH4 0x4A3B68CC EQ PUSH2 0x386 JUMPI DUP1 PUSH4 0x4F6D3AED EQ PUSH2 0x3C3 JUMPI DUP1 PUSH4 0x5C975ABB EQ PUSH2 0x3EE JUMPI PUSH2 0x1EE JUMP JUMPDEST DUP1 PUSH4 0x305243D9 GT PUSH2 0x1C1 JUMPI DUP1 PUSH4 0x305243D9 EQ PUSH2 0x2C1 JUMPI DUP1 PUSH4 0x30F95A56 EQ PUSH2 0x2D8 JUMPI DUP1 PUSH4 0x36568ABE EQ PUSH2 0x315 JUMPI DUP1 PUSH4 0x382396EE EQ PUSH2 0x33E JUMPI PUSH2 0x1EE JUMP JUMPDEST DUP1 PUSH4 0x1FFC9A7 EQ PUSH2 0x1F3 JUMPI DUP1 PUSH4 0x2D05D3F EQ PUSH2 0x230 JUMPI DUP1 PUSH4 0x248A9CA3 EQ PUSH2 0x25B JUMPI DUP1 PUSH4 0x2F2FF15D EQ PUSH2 0x298 JUMPI JUMPDEST PUSH1 0x0 DUP1 REVERT JUMPDEST CALLVALUE DUP1 ISZERO PUSH2 0x1FF JUMPI PUSH1 0x0 DUP1 REVERT JUMPDEST POP PUSH2 0x21A PUSH1 0x4 DUP1 CALLDATASIZE SUB DUP2 ADD SWAP1 PUSH2 0x215 SWAP2 SWAP1 PUSH2 0x2B0A JUMP JUMPDEST PUSH2 0x70F JUMP JUMPDEST PUSH1 0x40 MLOAD PUSH2 0x227 SWAP2 SWAP1 PUSH2 0x2B52 JUMP JUMPDEST PUSH1 0x40 MLOAD DUP1 SWAP2 SUB SWAP1 RETURN JUMPDEST CALLVALUE DUP1 ISZERO PUSH2 0x23C JUMPI PUSH1 0x0 DUP1 REVERT JUMPDEST POP PUSH2 0x245 PUSH2 0x789 JUMP JUMPDEST PUSH1 0x40 MLOAD PUSH2 0x252 SWAP2 SWAP1 PUSH2 0x2BAE JUMP JUMPDEST PUSH1 0x40 MLOAD DUP1 SWAP2 SUB SWAP1 RETURN JUMPDEST CALLVALUE DUP1 ISZERO PUSH2 0x267 JUMPI PUSH1 0x0 DUP1 REVERT JUMPDEST POP PUSH2 0x282 PUSH1 0x4 DUP1 CALLDATASIZE SUB DUP2 ADD SWAP1 PUSH2 0x27D SWAP2 SWAP1 PUSH2 0x2BFF JUMP JUMPDEST PUSH2 0x7AF JUMP JUMPDEST PUSH1 0x40 MLOAD PUSH2 0x28F SWAP2 SWAP1 PUSH2 0x2C3B JUMP JUMPDEST PUSH1 0x40 MLOAD DUP1 SWAP2 SUB SWAP1 RETURN JUMPDEST CALLVALUE DUP1 ISZERO PUSH2 0x2A4 JUMPI PUSH1 0x0 DUP1 REVERT JUMPDEST POP PUSH2 0x2BF PUSH1 0x4 DUP1 CALLDATASIZE SUB DUP2 ADD SWAP1 PUSH2 0x2BA SWAP2 SWAP1 PUSH2 0x2C82 JUMP JUMPDEST PUSH2 0x7CE JUMP JUMPDEST STOP JUMPDEST CALLVALUE DUP1 ISZERO PUSH2 0x2CD JUMPI PUSH1 0x0 DUP1 REVERT JUMPDEST POP PUSH2 0x2D6 PUSH2 0x7EF JUMP JUMPDEST STOP JUMPDEST CALLVALUE DUP1 ISZERO PUSH2 0x2E4 JUMPI PUSH1 0x0 DUP1 REVERT JUMPDEST POP PUSH2 0x2FF PUSH1 0x4 DUP1 CALLDATASIZE SUB DUP2 ADD SWAP1 PUSH2 0x2FA SWAP2 SWAP1 PUSH2 0x2CC2 JUMP JUMPDEST PUSH2 0x865 JUMP JUMPDEST PUSH1 0x40 MLOAD PUSH2 0x30C SWAP2 SWAP1 PUSH2 0x2D08 JUMP JUMPDEST PUSH1 0x40 MLOAD DUP1 SWAP2 SUB SWAP1 RETURN JUMPDEST CALLVALUE DUP1 ISZERO PUSH2 0x321 JUMPI PUSH1 0x0 DUP1 REVERT JUMPDEST POP PUSH2 0x33C PUSH1 0x4 DUP1 CALLDATASIZE SUB DUP2 ADD SWAP1 PUSH2 0x337 SWAP2 SWAP1 PUSH2 0x2C82 JUMP JUMPDEST PUSH2 0x87D JUMP JUMPDEST STOP JUMPDEST CALLVALUE DUP1 ISZERO PUSH2 0x34A JUMPI PUSH1 0x0 DUP1 REVERT JUMPDEST POP PUSH2 0x353 PUSH2 0x900 JUMP JUMPDEST PUSH1 0x40 MLOAD PUSH2 0x366 SWAP8 SWAP7 SWAP6 SWAP5 SWAP4 SWAP3 SWAP2 SWAP1 PUSH2 0x2D9A JUMP JUMPDEST PUSH1 0x40 MLOAD DUP1 SWAP2 SUB SWAP1 RETURN JUMPDEST CALLVALUE DUP1 ISZERO PUSH2 0x37B JUMPI PUSH1 0x0 DUP1 REVERT JUMPDEST POP PUSH2 0x384 PUSH2 0x958 JUMP JUMPDEST STOP JUMPDEST CALLVALUE DUP1 ISZERO PUSH2 0x392 JUMPI PUSH1 0x0 DUP1 REVERT JUMPDEST POP PUSH2 0x3AD PUSH1 0x4 DUP1 CALLDATASIZE SUB DUP2 ADD SWAP1 PUSH2 0x3A8 SWAP2 SWAP1 PUSH2 0x2CC2 JUMP JUMPDEST PUSH2 0x9F9 JUMP JUMPDEST PUSH1 0x40 MLOAD PUSH2 0x3BA SWAP2 SWAP1 PUSH2 0x2D08 JUMP JUMPDEST PUSH1 0x40 MLOAD DUP1 SWAP2 SUB SWAP1 RETURN JUMPDEST CALLVALUE DUP1 ISZERO PUSH2 0x3CF JUMPI PUSH1 0x0 DUP1 REVERT JUMPDEST POP PUSH2 0x3D8 PUSH2 0xA11 JUMP JUMPDEST PUSH1 0x40 MLOAD PUSH2 0x3E5 SWAP2 SWAP1 PUSH2 0x2BAE JUMP JUMPDEST PUSH1 0x40 MLOAD DUP1 SWAP2 SUB SWAP1 RETURN JUMPDEST CALLVALUE DUP1 ISZERO PUSH2 0x3FA JUMPI PUSH1 0x0 DUP1 REVERT JUMPDEST POP PUSH2 0x403 PUSH2 0xA37 JUMP JUMPDEST PUSH1 0x40 MLOAD PUSH2 0x410 SWAP2 SWAP1 PUSH2 0x2B52 JUMP JUMPDEST PUSH1 0x40 MLOAD DUP1 SWAP2 SUB SWAP1 RETURN JUMPDEST CALLVALUE DUP1 ISZERO PUSH2 0x425 JUMPI PUSH1 0x0 DUP1 REVERT JUMPDEST POP PUSH2 0x440 PUSH1 0x4 DUP1 CALLDATASIZE SUB DUP2 ADD SWAP1 PUSH2 0x43B SWAP2 SWAP1 PUSH2 0x2E35 JUMP JUMPDEST PUSH2 0xA4E JUMP JUMPDEST STOP JUMPDEST CALLVALUE DUP1 ISZERO PUSH2 0x44E JUMPI PUSH1 0x0 DUP1 REVERT JUMPDEST POP PUSH2 0x457 PUSH2 0xD35 JUMP JUMPDEST STOP JUMPDEST CALLVALUE DUP1 ISZERO PUSH2 0x465 JUMPI PUSH1 0x0 DUP1 REVERT JUMPDEST POP PUSH2 0x480 PUSH1 0x4 DUP1 CALLDATASIZE SUB DUP2 ADD SWAP1 PUSH2 0x47B SWAP2 SWAP1 PUSH2 0x2C82 JUMP JUMPDEST PUSH2 0xE63 JUMP JUMPDEST PUSH1 0x40 MLOAD PUSH2 0x48D SWAP2 SWAP1 PUSH2 0x2B52 JUMP JUMPDEST PUSH1 0x40 MLOAD DUP1 SWAP2 SUB SWAP1 RETURN JUMPDEST CALLVALUE DUP1 ISZERO PUSH2 0x4A2 JUMPI PUSH1 0x0 DUP1 REVERT JUMPDEST POP PUSH2 0x4AB PUSH2 0xECD JUMP JUMPDEST PUSH1 0x40 MLOAD PUSH2 0x4B8 SWAP2 SWAP1 PUSH2 0x2BAE JUMP JUMPDEST PUSH1 0x40 MLOAD DUP1 SWAP2 SUB SWAP1 RETURN JUMPDEST CALLVALUE DUP1 ISZERO PUSH2 0x4CD JUMPI PUSH1 0x0 DUP1 REVERT JUMPDEST POP PUSH2 0x4D6 PUSH2 0xEF3 JUMP JUMPDEST PUSH1 0x40 MLOAD PUSH2 0x4E3 SWAP2 SWAP1 PUSH2 0x2C3B JUMP JUMPDEST PUSH1 0x40 MLOAD DUP1 SWAP2 SUB SWAP1 RETURN JUMPDEST CALLVALUE DUP1 ISZERO PUSH2 0x4F8 JUMPI PUSH1 0x0 DUP1 REVERT JUMPDEST POP PUSH2 0x501 PUSH2 0xEFA JUMP JUMPDEST STOP JUMPDEST CALLVALUE DUP1 ISZERO PUSH2 0x50F JUMPI PUSH1 0x0 DUP1 REVERT JUMPDEST POP PUSH2 0x518 PUSH2 0x10FD JUMP JUMPDEST PUSH1 0x40 MLOAD PUSH2 0x525 SWAP2 SWAP1 PUSH2 0x2BAE JUMP JUMPDEST PUSH1 0x40 MLOAD DUP1 SWAP2 SUB SWAP1 RETURN JUMPDEST CALLVALUE DUP1 ISZERO PUSH2 0x53A JUMPI PUSH1 0x0 DUP1 REVERT JUMPDEST POP PUSH2 0x543 PUSH2 0x1123 JUMP JUMPDEST PUSH1 0x40 MLOAD PUSH2 0x550 SWAP2 SWAP1 PUSH2 0x2BAE JUMP JUMPDEST PUSH1 0x40 MLOAD DUP1 SWAP2 SUB SWAP1 RETURN JUMPDEST CALLVALUE DUP1 ISZERO PUSH2 0x565 JUMPI PUSH1 0x0 DUP1 REVERT JUMPDEST POP PUSH2 0x580 PUSH1 0x4 DUP1 CALLDATASIZE SUB DUP2 ADD SWAP1 PUSH2 0x57B SWAP2 SWAP1 PUSH2 0x2C82 JUMP JUMPDEST PUSH2 0x1149 JUMP JUMPDEST STOP JUMPDEST PUSH2 0x58A PUSH2 0x116A JUMP JUMPDEST STOP JUMPDEST CALLVALUE DUP1 ISZERO PUSH2 0x598 JUMPI PUSH1 0x0 DUP1 REVERT JUMPDEST POP PUSH2 0x5A1 PUSH2 0x1246 JUMP JUMPDEST STOP JUMPDEST CALLVALUE DUP1 ISZERO PUSH2 0x5AF JUMPI PUSH1 0x0 DUP1 REVERT JUMPDEST POP PUSH2 0x5B8 PUSH2 0x129B JUMP JUMPDEST STOP JUMPDEST CALLVALUE DUP1 ISZERO PUSH2 0x5C6 JUMPI PUSH1 0x0 DUP1 REVERT JUMPDEST POP PUSH2 0x5CF PUSH2 0x148D JUMP JUMPDEST STOP JUMPDEST CALLVALUE DUP1 ISZERO PUSH2 0x5DD JUMPI PUSH1 0x0 DUP1 REVERT JUMPDEST POP PUSH2 0x5E6 PUSH2 0x15BB JUMP JUMPDEST PUSH1 0x40 MLOAD PUSH2 0x5FD SWAP12 SWAP11 SWAP10 SWAP9 SWAP8 SWAP7 SWAP6 SWAP5 SWAP4 SWAP3 SWAP2 SWAP1 PUSH2 0x2E7E JUMP JUMPDEST PUSH1 0x40 MLOAD DUP1 SWAP2 SUB SWAP1 RETURN JUMPDEST CALLVALUE DUP1 ISZERO PUSH2 0x612 JUMPI PUSH1 0x0 DUP1 REVERT JUMPDEST POP PUSH2 0x61B PUSH2 0x162A JUMP JUMPDEST PUSH1 0x40 MLOAD PUSH2 0x628 SWAP2 SWAP1 PUSH2 0x2BAE JUMP JUMPDEST PUSH1 0x40 MLOAD DUP1 SWAP2 SUB SWAP1 RETURN JUMPDEST CALLVALUE DUP1 ISZERO PUSH2 0x63D JUMPI PUSH1 0x0 DUP1 REVERT JUMPDEST POP PUSH2 0x646 PUSH2 0x1650 JUMP JUMPDEST STOP JUMPDEST CALLVALUE DUP1 ISZERO PUSH2 0x654 JUMPI PUSH1 0x0 DUP1 REVERT JUMPDEST POP PUSH2 0x65D PUSH2 0x19A6 JUMP JUMPDEST PUSH1 0x40 MLOAD PUSH2 0x66A SWAP2 SWAP1 PUSH2 0x2C3B JUMP JUMPDEST PUSH1 0x40 MLOAD DUP1 SWAP2 SUB SWAP1 RETURN JUMPDEST CALLVALUE DUP1 ISZERO PUSH2 0x67F JUMPI PUSH1 0x0 DUP1 REVERT JUMPDEST POP PUSH2 0x688 PUSH2 0x19CA JUMP JUMPDEST STOP JUMPDEST PUSH2 0x6A4 PUSH1 0x4 DUP1 CALLDATASIZE SUB DUP2 ADD SWAP1 PUSH2 0x69F SWAP2 SWAP1 PUSH2 0x2F55 JUMP JUMPDEST PUSH2 0x1AEF JUMP JUMPDEST STOP JUMPDEST CALLVALUE DUP1 ISZERO PUSH2 0x6B2 JUMPI PUSH1 0x0 DUP1 REVERT JUMPDEST POP PUSH2 0x6CD PUSH1 0x4 DUP1 CALLDATASIZE SUB DUP2 ADD SWAP1 PUSH2 0x6C8 SWAP2 SWAP1 PUSH2 0x2F95 JUMP JUMPDEST PUSH2 0x1E02 JUMP JUMPDEST PUSH1 0x40 MLOAD PUSH2 0x6DB SWAP3 SWAP2 SWAP1 PUSH2 0x2FC2 JUMP JUMPDEST PUSH1 0x40 MLOAD DUP1 SWAP2 SUB SWAP1 RETURN JUMPDEST CALLVALUE DUP1 ISZERO PUSH2 0x6F0 JUMPI PUSH1 0x0 DUP1 REVERT JUMPDEST POP PUSH2 0x6F9 PUSH2 0x1E56 JUMP JUMPDEST PUSH1 0x40 MLOAD PUSH2 0x706 SWAP2 SWAP1 PUSH2 0x2BAE JUMP JUMPDEST PUSH1 0x40 MLOAD DUP1 SWAP2 SUB SWAP1 RETURN JUMPDEST PUSH1 0x0 PUSH32 0x7965DB0B00000000000000000000000000000000000000000000000000000000 PUSH28 0xFFFFFFFFFFFFFFFFFFFFFFFFFFFFFFFFFFFFFFFFFFFFFFFFFFFFFFFF NOT AND DUP3 PUSH28 0xFFFFFFFFFFFFFFFFFFFFFFFFFFFFFFFFFFFFFFFFFFFFFFFFFFFFFFFF NOT AND EQ DUP1 PUSH2 0x782 JUMPI POP PUSH2 0x781 DUP3 PUSH2 0x1E7C JUMP JUMPDEST JUMPDEST SWAP1 POP SWAP2 SWAP1 POP JUMP JUMPDEST PUSH1 0xD PUSH1 0x0 SWAP1 SLOAD SWAP1 PUSH2 0x100 EXP SWAP1 DIV PUSH20 0xFFFFFFFFFFFFFFFFFFFFFFFFFFFFFFFFFFFFFFFF AND DUP2 JUMP JUMPDEST PUSH1 0x0 DUP1 PUSH1 0x0 DUP4 DUP2 MSTORE PUSH1 0x20 ADD SWAP1 DUP2 MSTORE PUSH1 0x20 ADD PUSH1 0x0 KECCAK256 PUSH1 0x1 ADD SLOAD SWAP1 POP SWAP2 SWAP1 POP JUMP JUMPDEST PUSH2 0x7D7 DUP3 PUSH2 0x7AF JUMP JUMPDEST PUSH2 0x7E0 DUP2 PUSH2 0x1EE6 JUMP JUMPDEST PUSH2 0x7EA DUP4 DUP4 PUSH2 0x1EFA JUMP JUMPDEST POP POP POP JUMP JUMPDEST PUSH32 0x65D7A28E3265B37A6474929F336521B332C1681B933F6CB9F3376673440D862A PUSH2 0x819 DUP2 PUSH2 0x1EE6 JUMP JUMPDEST PUSH2 0x821 PUSH2 0x1FDA JUMP JUMPDEST PUSH1 0x1A PUSH1 0x1 SWAP1 SLOAD SWAP1 PUSH2 0x100 EXP SWAP1 DIV PUSH1 0xFF AND PUSH1 0x1A PUSH1 0x0 PUSH2 0x100 EXP DUP2 SLOAD DUP2 PUSH1 0xFF MUL NOT AND SWAP1 DUP4 PUSH1 0x5 DUP2 GT ISZERO PUSH2 0x855 JUMPI PUSH2 0x854 PUSH2 0x2D23 JUMP JUMPDEST JUMPDEST MUL OR SWAP1 SSTORE POP PUSH2 0x862 PUSH2 0x2023 JUMP JUMPDEST POP JUMP JUMPDEST PUSH1 0x14 PUSH1 0x20 MSTORE DUP1 PUSH1 0x0 MSTORE PUSH1 0x40 PUSH1 0x0 KECCAK256 PUSH1 0x0 SWAP2 POP SWAP1 POP SLOAD DUP2 JUMP JUMPDEST PUSH2 0x885 PUSH2 0x2086 JUMP JUMPDEST PUSH20 0xFFFFFFFFFFFFFFFFFFFFFFFFFFFFFFFFFFFFFFFF AND DUP2 PUSH20 0xFFFFFFFFFFFFFFFFFFFFFFFFFFFFFFFFFFFFFFFF AND EQ PUSH2 0x8F2 JUMPI PUSH1 0x40 MLOAD PUSH32 0x8C379A000000000000000000000000000000000000000000000000000000000 DUP2 MSTORE PUSH1 0x4 ADD PUSH2 0x8E9 SWAP1 PUSH2 0x306E JUMP JUMPDEST PUSH1 0x40 MLOAD DUP1 SWAP2 SUB SWAP1 REVERT JUMPDEST PUSH2 0x8FC DUP3 DUP3 PUSH2 0x208E JUMP JUMPDEST POP POP JUMP JUMPDEST PUSH1 0x0 DUP1 PUSH1 0x0 DUP1 PUSH1 0x0 DUP1 PUSH1 0x0 PUSH1 0x1A PUSH1 0x0 SWAP1 SLOAD SWAP1 PUSH2 0x100 EXP SWAP1 DIV PUSH1 0xFF AND PUSH1 0x13 DUP1 SLOAD SWAP1 POP PUSH2 0x929 PUSH2 0x216F JUMP JUMPDEST PUSH1 0x3 PUSH1 0x4 ADD SLOAD PUSH1 0x3 PUSH1 0x5 ADD SLOAD PUSH1 0x3 PUSH1 0x6 ADD SLOAD PUSH1 0x3 PUSH1 0x7 ADD SLOAD SWAP7 POP SWAP7 POP SWAP7 POP SWAP7 POP SWAP7 POP SWAP7 POP SWAP7 POP SWAP1 SWAP2 SWAP3 SWAP4 SWAP5 SWAP6 SWAP7 JUMP JUMPDEST PUSH32 0x65D7A28E3265B37A6474929F336521B332C1681B933F6CB9F3376673440D862A PUSH2 0x982 DUP2 PUSH2 0x1EE6 JUMP JUMPDEST PUSH2 0x98A PUSH2 0x2271 JUMP JUMPDEST PUSH1 0x1A PUSH1 0x0 SWAP1 SLOAD SWAP1 PUSH2 0x100 EXP SWAP1 DIV PUSH1 0xFF AND PUSH1 0x1A PUSH1 0x1 PUSH2 0x100 EXP DUP2 SLOAD DUP2 PUSH1 0xFF MUL NOT AND SWAP1 DUP4 PUSH1 0x5 DUP2 GT ISZERO PUSH2 0x9BE JUMPI PUSH2 0x9BD PUSH2 0x2D23 JUMP JUMPDEST JUMPDEST MUL OR SWAP1 SSTORE POP PUSH1 0x3 PUSH1 0x1A PUSH1 0x0 PUSH2 0x100 EXP DUP2 SLOAD DUP2 PUSH1 0xFF MUL NOT AND SWAP1 DUP4 PUSH1 0x5 DUP2 GT ISZERO PUSH2 0x9E9 JUMPI PUSH2 0x9E8 PUSH2 0x2D23 JUMP JUMPDEST JUMPDEST MUL OR SWAP1 SSTORE POP PUSH2 0x9F6 PUSH2 0x22BB JUMP JUMPDEST POP JUMP JUMPDEST PUSH1 0x15 PUSH1 0x20 MSTORE DUP1 PUSH1 0x0 MSTORE PUSH1 0x40 PUSH1 0x0 KECCAK256 PUSH1 0x0 SWAP2 POP SWAP1 POP SLOAD DUP2 JUMP JUMPDEST PUSH1 0x12 PUSH1 0x0 SWAP1 SLOAD SWAP1 PUSH2 0x100 EXP SWAP1 DIV PUSH20 0xFFFFFFFFFFFFFFFFFFFFFFFFFFFFFFFFFFFFFFFF AND DUP2 JUMP JUMPDEST PUSH1 0x0 PUSH1 0x1 PUSH1 0x0 SWAP1 SLOAD SWAP1 PUSH2 0x100 EXP SWAP1 DIV PUSH1 0xFF AND SWAP1 POP SWAP1 JUMP JUMPDEST PUSH2 0xA56 PUSH2 0x2271 JUMP JUMPDEST PUSH2 0xA5E PUSH2 0x231D JUMP JUMPDEST PUSH1 0x1A PUSH1 0x0 SWAP1 SLOAD SWAP1 PUSH2 0x100 EXP SWAP1 DIV PUSH1 0xFF AND PUSH1 0x5 DUP2 GT ISZERO PUSH2 0xA80 JUMPI PUSH2 0xA7F PUSH2 0x2D23 JUMP JUMPDEST JUMPDEST PUSH1 0x4 PUSH1 0x5 DUP2 GT ISZERO PUSH2 0xA94 JUMPI PUSH2 0xA93 PUSH2 0x2D23 JUMP JUMPDEST JUMPDEST EQ PUSH2 0xA9E JUMPI PUSH1 0x0 DUP1 REVERT JUMPDEST DUP1 ISZERO PUSH2 0xCE6 JUMPI PUSH1 0x0 DUP1 JUMPDEST PUSH1 0x13 DUP1 SLOAD SWAP1 POP DUP2 LT ISZERO PUSH2 0xC94 JUMPI PUSH1 0x0 PUSH1 0x13 DUP3 DUP2 SLOAD DUP2 LT PUSH2 0xACB JUMPI PUSH2 0xACA PUSH2 0x308E JUMP JUMPDEST JUMPDEST SWAP1 PUSH1 0x0 MSTORE PUSH1 0x20 PUSH1 0x0 KECCAK256 SWAP1 PUSH1 0x2 MUL ADD PUSH1 0x1 ADD PUSH1 0x0 SWAP1 SLOAD SWAP1 PUSH2 0x100 EXP SWAP1 DIV PUSH20 0xFFFFFFFFFFFFFFFFFFFFFFFFFFFFFFFFFFFFFFFF AND SWAP1 POP PUSH1 0x0 PUSH1 0x14 PUSH1 0x0 DUP4 PUSH20 0xFFFFFFFFFFFFFFFFFFFFFFFFFFFFFFFFFFFFFFFF AND PUSH20 0xFFFFFFFFFFFFFFFFFFFFFFFFFFFFFFFFFFFFFFFF AND DUP2 MSTORE PUSH1 0x20 ADD SWAP1 DUP2 MSTORE PUSH1 0x20 ADD PUSH1 0x0 KECCAK256 SLOAD SWAP1 POP PUSH1 0x0 DUP2 GT ISZERO PUSH2 0xC7F JUMPI PUSH1 0x0 PUSH1 0x14 PUSH1 0x0 DUP5 PUSH20 0xFFFFFFFFFFFFFFFFFFFFFFFFFFFFFFFFFFFFFFFF AND PUSH20 0xFFFFFFFFFFFFFFFFFFFFFFFFFFFFFFFFFFFFFFFF AND DUP2 MSTORE PUSH1 0x20 ADD SWAP1 DUP2 MSTORE PUSH1 0x20 ADD PUSH1 0x0 KECCAK256 DUP2 SWAP1 SSTORE POP DUP1 PUSH1 0x16 PUSH1 0x0 DUP3 DUP3 SLOAD PUSH2 0xBA3 SWAP2 SWAP1 PUSH2 0x30EC JUMP JUMPDEST SWAP3 POP POP DUP2 SWAP1 SSTORE POP PUSH1 0x0 PUSH2 0xBB6 DUP4 DUP4 PUSH2 0x236A JUMP JUMPDEST SWAP1 POP DUP1 ISZERO PUSH2 0xC1F JUMPI DUP2 DUP6 PUSH2 0xBCA SWAP2 SWAP1 PUSH2 0x3120 JUMP JUMPDEST SWAP5 POP DUP3 PUSH20 0xFFFFFFFFFFFFFFFFFFFFFFFFFFFFFFFFFFFFFFFF AND PUSH32 0xBB28353E4598C3B9199101A66E0989549B659A59A54D2C27FBB183F1932C8E6D DUP4 PUSH1 0x40 MLOAD PUSH2 0xC12 SWAP2 SWAP1 PUSH2 0x2D08 JUMP JUMPDEST PUSH1 0x40 MLOAD DUP1 SWAP2 SUB SWAP1 LOG2 PUSH2 0xC7D JUMP JUMPDEST DUP2 PUSH1 0x14 PUSH1 0x0 DUP6 PUSH20 0xFFFFFFFFFFFFFFFFFFFFFFFFFFFFFFFFFFFFFFFF AND PUSH20 0xFFFFFFFFFFFFFFFFFFFFFFFFFFFFFFFFFFFFFFFF AND DUP2 MSTORE PUSH1 0x20 ADD SWAP1 DUP2 MSTORE PUSH1 0x20 ADD PUSH1 0x0 KECCAK256 DUP2 SWAP1 SSTORE POP DUP2 PUSH1 0x16 PUSH1 0x0 DUP3 DUP3 SLOAD PUSH2 0xC75 SWAP2 SWAP1 PUSH2 0x3120 JUMP JUMPDEST SWAP3 POP POP DUP2 SWAP1 SSTORE POP JUMPDEST POP JUMPDEST POP POP DUP1 DUP1 PUSH2 0xC8C SWAP1 PUSH2 0x3154 JUMP JUMPDEST SWAP2 POP POP PUSH2 0xAA8 JUMP JUMPDEST POP PUSH2 0xCE0 PUSH1 0xD PUSH1 0x0 SWAP1 SLOAD SWAP1 PUSH2 0x100 EXP SWAP1 DIV PUSH20 0xFFFFFFFFFFFFFFFFFFFFFFFFFFFFFFFFFFFFFFFF AND DUP3 PUSH1 0x16 SLOAD PUSH2 0xCC9 SWAP2 SWAP1 PUSH2 0x30EC JUMP JUMPDEST PUSH2 0xCD1 PUSH2 0x216F JUMP JUMPDEST PUSH2 0xCDB SWAP2 SWAP1 PUSH2 0x30EC JUMP JUMPDEST PUSH2 0x24E8 JUMP JUMPDEST POP PUSH2 0xD2A JUMP JUMPDEST PUSH1 0x0 PUSH1 0x16 SLOAD GT ISZERO PUSH2 0xCF6 JUMPI PUSH1 0x0 DUP1 REVERT JUMPDEST PUSH2 0xD29 PUSH1 0xD PUSH1 0x0 SWAP1 SLOAD SWAP1 PUSH2 0x100 EXP SWAP1 DIV PUSH20 0xFFFFFFFFFFFFFFFFFFFFFFFFFFFFFFFFFFFFFFFF AND PUSH2 0xD24 PUSH2 0x216F JUMP JUMPDEST PUSH2 0x24E8 JUMP JUMPDEST JUMPDEST PUSH2 0xD32 PUSH2 0x2645 JUMP JUMPDEST POP JUMP JUMPDEST PUSH2 0xD3D PUSH2 0x2271 JUMP JUMPDEST PUSH1 0x1A PUSH1 0x0 SWAP1 SLOAD SWAP1 PUSH2 0x100 EXP SWAP1 DIV PUSH1 0xFF AND PUSH1 0x5 DUP2 GT ISZERO PUSH2 0xD5F JUMPI PUSH2 0xD5E PUSH2 0x2D23 JUMP JUMPDEST JUMPDEST PUSH1 0x2 PUSH1 0x5 DUP2 GT ISZERO PUSH2 0xD73 JUMPI PUSH2 0xD72 PUSH2 0x2D23 JUMP JUMPDEST JUMPDEST EQ PUSH2 0xD7D JUMPI PUSH1 0x0 DUP1 REVERT JUMPDEST PUSH1 0x0 PUSH2 0xD87 PUSH2 0x216F JUMP JUMPDEST SWAP1 POP PUSH1 0x0 PUSH1 0x17 SLOAD GT ISZERO PUSH2 0xDA5 JUMPI PUSH1 0x17 SLOAD DUP2 PUSH2 0xDA2 SWAP2 SWAP1 PUSH2 0x30EC JUMP JUMPDEST SWAP1 POP JUMPDEST PUSH1 0x0 PUSH1 0x18 SLOAD GT ISZERO PUSH2 0xDC1 JUMPI PUSH1 0x18 SLOAD DUP2 PUSH2 0xDBE SWAP2 SWAP1 PUSH2 0x30EC JUMP JUMPDEST SWAP1 POP JUMPDEST PUSH1 0x0 PUSH1 0x19 SLOAD GT ISZERO PUSH2 0xDDD JUMPI PUSH1 0x19 SLOAD DUP2 PUSH2 0xDDA SWAP2 SWAP1 PUSH2 0x30EC JUMP JUMPDEST SWAP1 POP JUMPDEST PUSH1 0x5 PUSH1 0x1A PUSH1 0x0 PUSH2 0x100 EXP DUP2 SLOAD DUP2 PUSH1 0xFF MUL NOT AND SWAP1 DUP4 PUSH1 0x5 DUP2 GT ISZERO PUSH2 0xE03 JUMPI PUSH2 0xE02 PUSH2 0x2D23 JUMP JUMPDEST JUMPDEST MUL OR SWAP1 SSTORE POP PUSH32 0xE06452D00B2B58F14A1FA6D499EA982FF93EA827AE700EA9BA03F4DADDC94BC1 PUSH1 0x40 MLOAD PUSH1 0x40 MLOAD DUP1 SWAP2 SUB SWAP1 LOG1 PUSH2 0xE60 PUSH1 0xD PUSH1 0x0 SWAP1 SLOAD SWAP1 PUSH2 0x100 EXP SWAP1 DIV PUSH20 0xFFFFFFFFFFFFFFFFFFFFFFFFFFFFFFFFFFFFFFFF AND DUP3 PUSH2 0x24E8 JUMP JUMPDEST POP JUMP JUMPDEST PUSH1 0x0 DUP1 PUSH1 0x0 DUP5 DUP2 MSTORE PUSH1 0x20 ADD SWAP1 DUP2 MSTORE PUSH1 0x20 ADD PUSH1 0x0 KECCAK256 PUSH1 0x0 ADD PUSH1 0x0 DUP4 PUSH20 0xFFFFFFFFFFFFFFFFFFFFFFFFFFFFFFFFFFFFFFFF AND PUSH20 0xFFFFFFFFFFFFFFFFFFFFFFFFFFFFFFFFFFFFFFFF AND DUP2 MSTORE PUSH1 0x20 ADD SWAP1 DUP2 MSTORE PUSH1 0x20 ADD PUSH1 0x0 KECCAK256 PUSH1 0x0 SWAP1 SLOAD SWAP1 PUSH2 0x100 EXP SWAP1 DIV PUSH1 0xFF AND SWAP1 POP SWAP3 SWAP2 POP POP JUMP JUMPDEST PUSH1 0x10 PUSH1 0x0 SWAP1 SLOAD SWAP1 PUSH2 0x100 EXP SWAP1 DIV PUSH20 0xFFFFFFFFFFFFFFFFFFFFFFFFFFFFFFFFFFFFFFFF AND DUP2 JUMP JUMPDEST PUSH1 0x0 DUP1 SHL DUP2 JUMP JUMPDEST PUSH2 0xF02 PUSH2 0x2271 JUMP JUMPDEST PUSH1 0x1A PUSH1 0x0 SWAP1 SLOAD SWAP1 PUSH2 0x100 EXP SWAP1 DIV PUSH1 0xFF AND PUSH1 0x5 DUP2 GT ISZERO PUSH2 0xF24 JUMPI PUSH2 0xF23 PUSH2 0x2D23 JUMP JUMPDEST JUMPDEST PUSH1 0x4 PUSH1 0x5 DUP2 GT ISZERO PUSH2 0xF38 JUMPI PUSH2 0xF37 PUSH2 0x2D23 JUMP JUMPDEST JUMPDEST EQ PUSH2 0xF78 JUMPI PUSH1 0x40 MLOAD PUSH32 0x8C379A000000000000000000000000000000000000000000000000000000000 DUP2 MSTORE PUSH1 0x4 ADD PUSH2 0xF6F SWAP1 PUSH2 0x31E8 JUMP JUMPDEST PUSH1 0x40 MLOAD DUP1 SWAP2 SUB SWAP1 REVERT JUMPDEST PUSH1 0x0 PUSH1 0x16 SLOAD GT PUSH2 0xFBD JUMPI PUSH1 0x40 MLOAD PUSH32 0x8C379A000000000000000000000000000000000000000000000000000000000 DUP2 MSTORE PUSH1 0x4 ADD PUSH2 0xFB4 SWAP1 PUSH2 0x3254 JUMP JUMPDEST PUSH1 0x40 MLOAD DUP1 SWAP2 SUB SWAP1 REVERT JUMPDEST PUSH1 0x0 PUSH1 0x14 PUSH1 0x0 CALLER PUSH20 0xFFFFFFFFFFFFFFFFFFFFFFFFFFFFFFFFFFFFFFFF AND PUSH20 0xFFFFFFFFFFFFFFFFFFFFFFFFFFFFFFFFFFFFFFFF AND DUP2 MSTORE PUSH1 0x20 ADD SWAP1 DUP2 MSTORE PUSH1 0x20 ADD PUSH1 0x0 KECCAK256 SLOAD SWAP1 POP PUSH1 0x0 DUP2 GT PUSH2 0x1044 JUMPI PUSH1 0x40 MLOAD PUSH32 0x8C379A000000000000000000000000000000000000000000000000000000000 DUP2 MSTORE PUSH1 0x4 ADD PUSH2 0x103B SWAP1 PUSH2 0x32C0 JUMP JUMPDEST PUSH1 0x40 MLOAD DUP1 SWAP2 SUB SWAP1 REVERT JUMPDEST DUP1 PUSH1 0x16 PUSH1 0x0 DUP3 DUP3 SLOAD PUSH2 0x1056 SWAP2 SWAP1 PUSH2 0x30EC JUMP JUMPDEST SWAP3 POP POP DUP2 SWAP1 SSTORE POP PUSH1 0x0 PUSH1 0x14 PUSH1 0x0 CALLER PUSH20 0xFFFFFFFFFFFFFFFFFFFFFFFFFFFFFFFFFFFFFFFF AND PUSH20 0xFFFFFFFFFFFFFFFFFFFFFFFFFFFFFFFFFFFFFFFF AND DUP2 MSTORE PUSH1 0x20 ADD SWAP1 DUP2 MSTORE PUSH1 0x20 ADD PUSH1 0x0 KECCAK256 DUP2 SWAP1 SSTORE POP CALLER PUSH20 0xFFFFFFFFFFFFFFFFFFFFFFFFFFFFFFFFFFFFFFFF AND PUSH32 0xBB28353E4598C3B9199101A66E0989549B659A59A54D2C27FBB183F1932C8E6D DUP3 PUSH1 0x40 MLOAD PUSH2 0x10E8 SWAP2 SWAP1 PUSH2 0x2D08 JUMP JUMPDEST PUSH1 0x40 MLOAD DUP1 SWAP2 SUB SWAP1 LOG2 PUSH2 0x10FA CALLER DUP3 PUSH2 0x24E8 JUMP JUMPDEST POP JUMP JUMPDEST PUSH1 0x11 PUSH1 0x0 SWAP1 SLOAD SWAP1 PUSH2 0x100 EXP SWAP1 DIV PUSH20 0xFFFFFFFFFFFFFFFFFFFFFFFFFFFFFFFFFFFFFFFF AND DUP2 JUMP JUMPDEST PUSH1 0xC PUSH1 0x0 SWAP1 SLOAD SWAP1 PUSH2 0x100 EXP SWAP1 DIV PUSH20 0xFFFFFFFFFFFFFFFFFFFFFFFFFFFFFFFFFFFFFFFF AND DUP2 JUMP JUMPDEST PUSH2 0x1152 DUP3 PUSH2 0x7AF JUMP JUMPDEST PUSH2 0x115B DUP2 PUSH2 0x1EE6 JUMP JUMPDEST PUSH2 0x1165 DUP4 DUP4 PUSH2 0x208E JUMP JUMPDEST POP POP POP JUMP JUMPDEST PUSH2 0x1172 PUSH2 0x2271 JUMP JUMPDEST PUSH1 0x1A PUSH1 0x0 SWAP1 SLOAD SWAP1 PUSH2 0x100 EXP SWAP1 DIV PUSH1 0xFF AND PUSH1 0x5 DUP2 GT ISZERO PUSH2 0x1194 JUMPI PUSH2 0x1193 PUSH2 0x2D23 JUMP JUMPDEST JUMPDEST PUSH1 0x0 PUSH1 0x5 DUP2 GT ISZERO PUSH2 0x11A8 JUMPI PUSH2 0x11A7 PUSH2 0x2D23 JUMP JUMPDEST JUMPDEST EQ DUP1 ISZERO PUSH2 0x1202 JUMPI POP PUSH1 0xD PUSH1 0x0 SWAP1 SLOAD SWAP1 PUSH2 0x100 EXP SWAP1 DIV PUSH20 0xFFFFFFFFFFFFFFFFFFFFFFFFFFFFFFFFFFFFFFFF AND PUSH20 0xFFFFFFFFFFFFFFFFFFFFFFFFFFFFFFFFFFFFFFFF AND CALLER PUSH20 0xFFFFFFFFFFFFFFFFFFFFFFFFFFFFFFFFFFFFFFFF AND EQ JUMPDEST PUSH2 0x120B JUMPI PUSH1 0x0 DUP1 REVERT JUMPDEST PUSH2 0x1218 PUSH1 0x3 DUP1 ADD SLOAD PUSH2 0x264F JUMP JUMPDEST POP PUSH1 0x1 PUSH1 0x1A PUSH1 0x0 PUSH2 0x100 EXP DUP2 SLOAD DUP2 PUSH1 0xFF MUL NOT AND SWAP1 DUP4 PUSH1 0x5 DUP2 GT ISZERO PUSH2 0x123F JUMPI PUSH2 0x123E PUSH2 0x2D23 JUMP JUMPDEST JUMPDEST MUL OR SWAP1 SSTORE POP JUMP JUMPDEST PUSH2 0x124E PUSH2 0x2271 JUMP JUMPDEST PUSH1 0x0 PUSH1 0x17 SLOAD GT PUSH2 0x125D JUMPI PUSH1 0x0 DUP1 REVERT JUMPDEST PUSH1 0x0 PUSH1 0x17 SLOAD SWAP1 POP PUSH1 0x0 PUSH1 0x17 DUP2 SWAP1 SSTORE POP PUSH2 0x1298 PUSH1 0x10 PUSH1 0x0 SWAP1 SLOAD SWAP1 PUSH2 0x100 EXP SWAP1 DIV PUSH20 0xFFFFFFFFFFFFFFFFFFFFFFFFFFFFFFFFFFFFFFFF AND DUP3 PUSH2 0x24E8 JUMP JUMPDEST POP JUMP JUMPDEST PUSH2 0x12A3 PUSH2 0x2271 JUMP JUMPDEST PUSH1 0x1A PUSH1 0x0 SWAP1 SLOAD SWAP1 PUSH2 0x100 EXP SWAP1 DIV PUSH1 0xFF AND PUSH1 0x5 DUP2 GT ISZERO PUSH2 0x12C5 JUMPI PUSH2 0x12C4 PUSH2 0x2D23 JUMP JUMPDEST JUMPDEST PUSH1 0x5 DUP1 DUP2 GT ISZERO PUSH2 0x12D8 JUMPI PUSH2 0x12D7 PUSH2 0x2D23 JUMP JUMPDEST JUMPDEST EQ DUP1 PUSH2 0x1317 JUMPI POP PUSH1 0x1A PUSH1 0x0 SWAP1 SLOAD SWAP1 PUSH2 0x100 EXP SWAP1 DIV PUSH1 0xFF AND PUSH1 0x5 DUP2 GT ISZERO PUSH2 0x1301 JUMPI PUSH2 0x1300 PUSH2 0x2D23 JUMP JUMPDEST JUMPDEST PUSH1 0x2 PUSH1 0x5 DUP2 GT ISZERO PUSH2 0x1315 JUMPI PUSH2 0x1314 PUSH2 0x2D23 JUMP JUMPDEST JUMPDEST EQ JUMPDEST PUSH2 0x1356 JUMPI PUSH1 0x40 MLOAD PUSH32 0x8C379A000000000000000000000000000000000000000000000000000000000 DUP2 MSTORE PUSH1 0x4 ADD PUSH2 0x134D SWAP1 PUSH2 0x31E8 JUMP JUMPDEST PUSH1 0x40 MLOAD DUP1 SWAP2 SUB SWAP1 REVERT JUMPDEST PUSH1 0x0 PUSH1 0x19 SLOAD GT PUSH2 0x139B JUMPI PUSH1 0x40 MLOAD PUSH32 0x8C379A000000000000000000000000000000000000000000000000000000000 DUP2 MSTORE PUSH1 0x4 ADD PUSH2 0x1392 SWAP1 PUSH2 0x3254 JUMP JUMPDEST PUSH1 0x40 MLOAD DUP1 SWAP2 SUB SWAP1 REVERT JUMPDEST PUSH1 0x0 PUSH1 0x15 PUSH1 0x0 CALLER PUSH20 0xFFFFFFFFFFFFFFFFFFFFFFFFFFFFFFFFFFFFFFFF AND PUSH20 0xFFFFFFFFFFFFFFFFFFFFFFFFFFFFFFFFFFFFFFFF AND DUP2 MSTORE PUSH1 0x20 ADD SWAP1 DUP2 MSTORE PUSH1 0x20 ADD PUSH1 0x0 KECCAK256 SLOAD SWAP1 POP PUSH1 0x0 DUP2 GT PUSH2 0x1422 JUMPI PUSH1 0x40 MLOAD PUSH32 0x8C379A000000000000000000000000000000000000000000000000000000000 DUP2 MSTORE PUSH1 0x4 ADD PUSH2 0x1419 SWAP1 PUSH2 0x32C0 JUMP JUMPDEST PUSH1 0x40 MLOAD DUP1 SWAP2 SUB SWAP1 REVERT JUMPDEST DUP1 PUSH1 0x19 PUSH1 0x0 DUP3 DUP3 SLOAD PUSH2 0x1434 SWAP2 SWAP1 PUSH2 0x30EC JUMP JUMPDEST SWAP3 POP POP DUP2 SWAP1 SSTORE POP PUSH1 0x0 PUSH1 0x15 PUSH1 0x0 CALLER PUSH20 0xFFFFFFFFFFFFFFFFFFFFFFFFFFFFFFFFFFFFFFFF AND PUSH20 0xFFFFFFFFFFFFFFFFFFFFFFFFFFFFFFFFFFFFFFFF AND DUP2 MSTORE PUSH1 0x20 ADD SWAP1 DUP2 MSTORE PUSH1 0x20 ADD PUSH1 0x0 KECCAK256 DUP2 SWAP1 SSTORE POP PUSH2 0x148A CALLER DUP3 PUSH2 0x24E8 JUMP JUMPDEST POP JUMP JUMPDEST PUSH2 0x1495 PUSH2 0x2271 JUMP JUMPDEST PUSH1 0x1A PUSH1 0x0 SWAP1 SLOAD SWAP1 PUSH2 0x100 EXP SWAP1 DIV PUSH1 0xFF AND PUSH1 0x5 DUP2 GT ISZERO PUSH2 0x14B7 JUMPI PUSH2 0x14B6 PUSH2 0x2D23 JUMP JUMPDEST JUMPDEST PUSH1 0x1 PUSH1 0x5 DUP2 GT ISZERO PUSH2 0x14CB JUMPI PUSH2 0x14CA PUSH2 0x2D23 JUMP JUMPDEST JUMPDEST EQ DUP1 ISZERO PUSH2 0x14E1 JUMPI POP PUSH1 0x3 PUSH1 0x2 ADD SLOAD PUSH1 0x13 DUP1 SLOAD SWAP1 POP LT JUMPDEST DUP1 ISZERO PUSH2 0x153A JUMPI POP PUSH1 0xD PUSH1 0x0 SWAP1 SLOAD SWAP1 PUSH2 0x100 EXP SWAP1 DIV PUSH20 0xFFFFFFFFFFFFFFFFFFFFFFFFFFFFFFFFFFFFFFFF AND PUSH20 0xFFFFFFFFFFFFFFFFFFFFFFFFFFFFFFFFFFFFFFFF AND CALLER PUSH20 0xFFFFFFFFFFFFFFFFFFFFFFFFFFFFFFFFFFFFFFFF AND EQ JUMPDEST PUSH2 0x1543 JUMPI PUSH1 0x0 DUP1 REVERT JUMPDEST PUSH1 0x4 PUSH1 0x1A PUSH1 0x0 PUSH2 0x100 EXP DUP2 SLOAD DUP2 PUSH1 0xFF MUL NOT AND SWAP1 DUP4 PUSH1 0x5 DUP2 GT ISZERO PUSH2 0x1569 JUMPI PUSH2 0x1568 PUSH2 0x2D23 JUMP JUMPDEST JUMPDEST MUL OR SWAP1 SSTORE POP PUSH32 0x1AFB0AE590DF277BCB3A37F88612725BF1F7DF4755792B1548A7EFE77985FF77 PUSH1 0x40 MLOAD PUSH1 0x40 MLOAD DUP1 SWAP2 SUB SWAP1 LOG1 PUSH1 0x0 PUSH1 0x19 SLOAD GT ISZERO PUSH2 0x15B9 JUMPI PUSH1 0x0 PUSH1 0x19 DUP2 SWAP1 SSTORE POP PUSH1 0x0 PUSH1 0x3 PUSH1 0x7 ADD DUP2 SWAP1 SSTORE POP JUMPDEST JUMP JUMPDEST PUSH1 0x3 DUP1 PUSH1 0x0 ADD SLOAD SWAP1 DUP1 PUSH1 0x1 ADD SLOAD SWAP1 DUP1 PUSH1 0x2 ADD SLOAD SWAP1 DUP1 PUSH1 0x3 ADD SLOAD SWAP1 DUP1 PUSH1 0x4 ADD SLOAD SWAP1 DUP1 PUSH1 0x5 ADD SLOAD SWAP1 DUP1 PUSH1 0x6 ADD SLOAD SWAP1 DUP1 PUSH1 0x7 ADD SLOAD SWAP1 DUP1 PUSH1 0x8 ADD PUSH1 0x0 SWAP1 SLOAD SWAP1 PUSH2 0x100 EXP SWAP1 DIV PUSH1 0xFF AND SWAP1 DUP1 PUSH1 0x8 ADD PUSH1 0x1 SWAP1 SLOAD SWAP1 PUSH2 0x100 EXP SWAP1 DIV PUSH1 0xFF AND SWAP1 DUP1 PUSH1 0x8 ADD PUSH1 0x2 SWAP1 SLOAD SWAP1 PUSH2 0x100 EXP SWAP1 DIV PUSH1 0xFF AND SWAP1 POP DUP12 JUMP JUMPDEST PUSH1 0xF PUSH1 0x0 SWAP1 SLOAD SWAP1 PUSH2 0x100 EXP SWAP1 DIV PUSH20 0xFFFFFFFFFFFFFFFFFFFFFFFFFFFFFFFFFFFFFFFF AND DUP2 JUMP JUMPDEST PUSH2 0x1658 PUSH2 0x2271 JUMP JUMPDEST PUSH1 0x1A PUSH1 0x0 SWAP1 SLOAD SWAP1 PUSH2 0x100 EXP SWAP1 DIV PUSH1 0xFF AND PUSH1 0x5 DUP2 GT ISZERO PUSH2 0x167A JUMPI PUSH2 0x1679 PUSH2 0x2D23 JUMP JUMPDEST JUMPDEST PUSH1 0x1 PUSH1 0x5 DUP2 GT ISZERO PUSH2 0x168E JUMPI PUSH2 0x168D PUSH2 0x2D23 JUMP JUMPDEST JUMPDEST EQ DUP1 ISZERO PUSH2 0x16A5 JUMPI POP PUSH1 0x3 PUSH1 0x2 ADD SLOAD PUSH1 0x13 DUP1 SLOAD SWAP1 POP LT ISZERO JUMPDEST PUSH2 0x16AE JUMPI PUSH1 0x0 DUP1 REVERT JUMPDEST PUSH1 0x64 PUSH1 0x3 PUSH1 0x8 ADD PUSH1 0x0 SWAP1 SLOAD SWAP1 PUSH2 0x100 EXP SWAP1 DIV PUSH1 0xFF AND PUSH1 0xFF AND PUSH1 0x16 SLOAD PUSH2 0x16D3 SWAP2 SWAP1 PUSH2 0x32E0 JUMP JUMPDEST PUSH2 0x16DD SWAP2 SWAP1 PUSH2 0x3351 JUMP JUMPDEST PUSH1 0x17 DUP2 SWAP1 SSTORE PUSH1 0x3 PUSH1 0x5 ADD DUP2 SWAP1 SSTORE POP PUSH1 0x0 PUSH1 0x64 PUSH1 0x3 PUSH1 0x8 ADD PUSH1 0x2 SWAP1 SLOAD SWAP1 PUSH2 0x100 EXP SWAP1 DIV PUSH1 0xFF AND PUSH1 0xFF AND PUSH1 0x16 SLOAD PUSH2 0x1712 SWAP2 SWAP1 PUSH2 0x32E0 JUMP JUMPDEST PUSH2 0x171C SWAP2 SWAP1 PUSH2 0x3351 JUMP JUMPDEST SWAP1 POP PUSH1 0x0 PUSH2 0x172B PUSH1 0x16 SLOAD PUSH2 0x277D JUMP JUMPDEST SWAP1 POP PUSH1 0x0 DUP1 JUMPDEST PUSH1 0x13 DUP1 SLOAD SWAP1 POP DUP2 LT ISZERO PUSH2 0x19A0 JUMPI PUSH1 0x0 PUSH1 0x13 DUP3 DUP2 SLOAD DUP2 LT PUSH2 0x1754 JUMPI PUSH2 0x1753 PUSH2 0x308E JUMP JUMPDEST JUMPDEST SWAP1 PUSH1 0x0 MSTORE PUSH1 0x20 PUSH1 0x0 KECCAK256 SWAP1 PUSH1 0x2 MUL ADD PUSH1 0x40 MLOAD DUP1 PUSH1 0x40 ADD PUSH1 0x40 MSTORE SWAP1 DUP2 PUSH1 0x0 DUP3 ADD SLOAD DUP2 MSTORE PUSH1 0x20 ADD PUSH1 0x1 DUP3 ADD PUSH1 0x0 SWAP1 SLOAD SWAP1 PUSH2 0x100 EXP SWAP1 DIV PUSH20 0xFFFFFFFFFFFFFFFFFFFFFFFFFFFFFFFFFFFFFFFF AND PUSH20 0xFFFFFFFFFFFFFFFFFFFFFFFFFFFFFFFFFFFFFFFF AND PUSH20 0xFFFFFFFFFFFFFFFFFFFFFFFFFFFFFFFFFFFFFFFF AND DUP2 MSTORE POP POP SWAP1 POP PUSH1 0x13 DUP3 DUP2 SLOAD DUP2 LT PUSH2 0x17E3 JUMPI PUSH2 0x17E2 PUSH2 0x308E JUMP JUMPDEST JUMPDEST SWAP1 PUSH1 0x0 MSTORE PUSH1 0x20 PUSH1 0x0 KECCAK256 SWAP1 PUSH1 0x2 MUL ADD PUSH1 0x0 ADD SLOAD DUP4 PUSH2 0x1800 SWAP2 SWAP1 PUSH2 0x3120 JUMP JUMPDEST SWAP3 POP DUP4 DUP4 GT ISZERO PUSH2 0x198C JUMPI PUSH1 0x2 PUSH1 0x1A PUSH1 0x0 PUSH2 0x100 EXP DUP2 SLOAD DUP2 PUSH1 0xFF MUL NOT AND SWAP1 DUP4 PUSH1 0x5 DUP2 GT ISZERO PUSH2 0x1830 JUMPI PUSH2 0x182F PUSH2 0x2D23 JUMP JUMPDEST JUMPDEST MUL OR SWAP1 SSTORE POP DUP1 PUSH1 0x20 ADD MLOAD PUSH1 0xF PUSH1 0x0 PUSH2 0x100 EXP DUP2 SLOAD DUP2 PUSH20 0xFFFFFFFFFFFFFFFFFFFFFFFFFFFFFFFFFFFFFFFF MUL NOT AND SWAP1 DUP4 PUSH20 0xFFFFFFFFFFFFFFFFFFFFFFFFFFFFFFFFFFFFFFFF AND MUL OR SWAP1 SSTORE POP PUSH1 0x19 SLOAD DUP6 PUSH1 0x17 SLOAD PUSH1 0x16 SLOAD PUSH2 0x188E SWAP2 SWAP1 PUSH2 0x30EC JUMP JUMPDEST PUSH2 0x1898 SWAP2 SWAP1 PUSH2 0x30EC JUMP JUMPDEST PUSH2 0x18A2 SWAP2 SWAP1 PUSH2 0x30EC JUMP JUMPDEST PUSH1 0x18 DUP2 SWAP1 SSTORE PUSH1 0x3 PUSH1 0x6 ADD DUP2 SWAP1 SSTORE POP PUSH1 0xF PUSH1 0x0 SWAP1 SLOAD SWAP1 PUSH2 0x100 EXP SWAP1 DIV PUSH20 0xFFFFFFFFFFFFFFFFFFFFFFFFFFFFFFFFFFFFFFFF AND PUSH20 0xFFFFFFFFFFFFFFFFFFFFFFFFFFFFFFFFFFFFFFFF AND PUSH32 0x9C2270628A9B29D30AE96B6C4C14ED646EE134FEBDCE38A5B77F2BDE9CEA2E20 PUSH1 0x18 SLOAD PUSH1 0x40 MLOAD PUSH2 0x191A SWAP2 SWAP1 PUSH2 0x2D08 JUMP JUMPDEST PUSH1 0x40 MLOAD DUP1 SWAP2 SUB SWAP1 LOG2 PUSH1 0x0 PUSH2 0x192E CALLER DUP8 PUSH2 0x236A JUMP JUMPDEST SWAP1 POP DUP1 ISZERO PUSH2 0x1985 JUMPI CALLER PUSH20 0xFFFFFFFFFFFFFFFFFFFFFFFFFFFFFFFFFFFFFFFF AND PUSH32 0xB02CF27AC90D3C9A1463F579513B0D004FC6A7A2A47A45676196167B706949B7 DUP8 PUSH1 0x40 MLOAD PUSH2 0x197C SWAP2 SWAP1 PUSH2 0x2D08 JUMP JUMPDEST PUSH1 0x40 MLOAD DUP1 SWAP2 SUB SWAP1 LOG2 JUMPDEST POP POP PUSH2 0x19A0 JUMP JUMPDEST POP DUP1 DUP1 PUSH2 0x1998 SWAP1 PUSH2 0x3154 JUMP JUMPDEST SWAP2 POP POP PUSH2 0x1731 JUMP JUMPDEST POP POP POP POP JUMP JUMPDEST PUSH32 0x65D7A28E3265B37A6474929F336521B332C1681B933F6CB9F3376673440D862A DUP2 JUMP JUMPDEST PUSH2 0x19D2 PUSH2 0x2271 JUMP JUMPDEST PUSH1 0x0 PUSH1 0x18 SLOAD GT PUSH2 0x19E1 JUMPI PUSH1 0x0 DUP1 REVERT JUMPDEST PUSH1 0x0 PUSH1 0x18 SLOAD SWAP1 POP PUSH1 0x0 PUSH1 0x18 DUP2 SWAP1 SSTORE POP PUSH2 0x1A1C PUSH1 0xF PUSH1 0x0 SWAP1 SLOAD SWAP1 PUSH2 0x100 EXP SWAP1 DIV PUSH20 0xFFFFFFFFFFFFFFFFFFFFFFFFFFFFFFFFFFFFFFFF AND DUP3 PUSH2 0x24E8 JUMP JUMPDEST PUSH1 0x0 PUSH1 0x17 SLOAD GT ISZERO PUSH2 0x1AEC JUMPI PUSH1 0x0 PUSH1 0x17 SLOAD SWAP1 POP PUSH1 0x0 PUSH1 0x17 DUP2 SWAP1 SSTORE POP PUSH1 0x0 PUSH2 0x1A64 PUSH1 0x10 PUSH1 0x0 SWAP1 SLOAD SWAP1 PUSH2 0x100 EXP SWAP1 DIV PUSH20 0xFFFFFFFFFFFFFFFFFFFFFFFFFFFFFFFFFFFFFFFF AND DUP4 PUSH2 0x236A JUMP JUMPDEST SWAP1 POP DUP1 ISZERO PUSH2 0x1AE1 JUMPI PUSH1 0x10 PUSH1 0x0 SWAP1 SLOAD SWAP1 PUSH2 0x100 EXP SWAP1 DIV PUSH20 0xFFFFFFFFFFFFFFFFFFFFFFFFFFFFFFFFFFFFFFFF AND PUSH20 0xFFFFFFFFFFFFFFFFFFFFFFFFFFFFFFFFFFFFFFFF AND PUSH32 0x3107C1DB8334B554700BD3D959498D607593240CA76167F1503AA75770BD5320 DUP4 PUSH1 0x40 MLOAD PUSH2 0x1AD4 SWAP2 SWAP1 PUSH2 0x2D08 JUMP JUMPDEST PUSH1 0x40 MLOAD DUP1 SWAP2 SUB SWAP1 LOG2 PUSH2 0x1AE9 JUMP JUMPDEST DUP2 PUSH1 0x17 DUP2 SWAP1 SSTORE POP JUMPDEST POP POP JUMPDEST POP JUMP JUMPDEST PUSH2 0x1AF7 PUSH2 0x2271 JUMP JUMPDEST PUSH1 0x1A PUSH1 0x0 SWAP1 SLOAD SWAP1 PUSH2 0x100 EXP SWAP1 DIV PUSH1 0xFF AND PUSH1 0x5 DUP2 GT ISZERO PUSH2 0x1B19 JUMPI PUSH2 0x1B18 PUSH2 0x2D23 JUMP JUMPDEST JUMPDEST PUSH1 0x1 PUSH1 0x5 DUP2 GT ISZERO PUSH2 0x1B2D JUMPI PUSH2 0x1B2C PUSH2 0x2D23 JUMP JUMPDEST JUMPDEST EQ PUSH2 0x1B37 JUMPI PUSH1 0x0 DUP1 REVERT JUMPDEST PUSH2 0x1B40 DUP3 PUSH2 0x264F JUMP JUMPDEST SWAP2 POP CALLER PUSH20 0xFFFFFFFFFFFFFFFFFFFFFFFFFFFFFFFFFFFFFFFF AND PUSH32 0xB4E09949657F21548B58AFE74E7B86CD2295DA5FF1598AE1E5FAECB1CF19CA95 DUP4 PUSH1 0x40 MLOAD PUSH2 0x1B88 SWAP2 SWAP1 PUSH2 0x2D08 JUMP JUMPDEST PUSH1 0x40 MLOAD DUP1 SWAP2 SUB SWAP1 LOG2 DUP1 PUSH20 0xFFFFFFFFFFFFFFFFFFFFFFFFFFFFFFFFFFFFFFFF AND PUSH1 0x0 PUSH20 0xFFFFFFFFFFFFFFFFFFFFFFFFFFFFFFFFFFFFFFFF AND EQ PUSH2 0x1CDA JUMPI PUSH1 0x0 PUSH1 0x64 PUSH1 0x3 PUSH1 0x8 ADD PUSH1 0x1 SWAP1 SLOAD SWAP1 PUSH2 0x100 EXP SWAP1 DIV PUSH1 0xFF AND PUSH1 0xFF AND DUP5 PUSH2 0x1BE9 SWAP2 SWAP1 PUSH2 0x32E0 JUMP JUMPDEST PUSH2 0x1BF3 SWAP2 SWAP1 PUSH2 0x3351 JUMP JUMPDEST SWAP1 POP DUP1 PUSH1 0x0 LT ISZERO PUSH2 0x1CD8 JUMPI DUP1 PUSH1 0x19 PUSH1 0x0 DUP3 DUP3 SLOAD PUSH2 0x1C10 SWAP2 SWAP1 PUSH2 0x3120 JUMP JUMPDEST SWAP3 POP POP DUP2 SWAP1 SSTORE POP DUP1 PUSH1 0x15 PUSH1 0x0 DUP5 PUSH20 0xFFFFFFFFFFFFFFFFFFFFFFFFFFFFFFFFFFFFFFFF AND PUSH20 0xFFFFFFFFFFFFFFFFFFFFFFFFFFFFFFFFFFFFFFFF AND DUP2 MSTORE PUSH1 0x20 ADD SWAP1 DUP2 MSTORE PUSH1 0x20 ADD PUSH1 0x0 KECCAK256 PUSH1 0x0 DUP3 DUP3 SLOAD PUSH2 0x1C66 SWAP2 SWAP1 PUSH2 0x3120 JUMP JUMPDEST SWAP3 POP POP DUP2 SWAP1 SSTORE POP DUP1 PUSH1 0x3 PUSH1 0x7 ADD PUSH1 0x0 DUP3 DUP3 SLOAD PUSH2 0x1C82 SWAP2 SWAP1 PUSH2 0x3120 JUMP JUMPDEST SWAP3 POP POP DUP2 SWAP1 SSTORE POP DUP2 PUSH20 0xFFFFFFFFFFFFFFFFFFFFFFFFFFFFFFFFFFFFFFFF AND PUSH32 0x9F4D5CDFA29DF376C0CD1EAD03D27651F119D11CBB43B5A6A7B87CC02F6B414A DUP3 PUSH1 0x40 MLOAD PUSH2 0x1CCF SWAP2 SWAP1 PUSH2 0x2D08 JUMP JUMPDEST PUSH1 0x40 MLOAD DUP1 SWAP2 SUB SWAP1 LOG2 JUMPDEST POP JUMPDEST DUP2 PUSH1 0x16 PUSH1 0x0 DUP3 DUP3 SLOAD PUSH2 0x1CEC SWAP2 SWAP1 PUSH2 0x3120 JUMP JUMPDEST SWAP3 POP POP DUP2 SWAP1 SSTORE POP PUSH1 0x16 SLOAD PUSH1 0x3 PUSH1 0x4 ADD DUP2 SWAP1 SSTORE POP DUP2 PUSH1 0x14 PUSH1 0x0 CALLER PUSH20 0xFFFFFFFFFFFFFFFFFFFFFFFFFFFFFFFFFFFFFFFF AND PUSH20 0xFFFFFFFFFFFFFFFFFFFFFFFFFFFFFFFFFFFFFFFF AND DUP2 MSTORE PUSH1 0x20 ADD SWAP1 DUP2 MSTORE PUSH1 0x20 ADD PUSH1 0x0 KECCAK256 PUSH1 0x0 DUP3 DUP3 SLOAD PUSH2 0x1D4E SWAP2 SWAP1 PUSH2 0x3120 JUMP JUMPDEST SWAP3 POP POP DUP2 SWAP1 SSTORE POP PUSH1 0x13 PUSH1 0x40 MLOAD DUP1 PUSH1 0x40 ADD PUSH1 0x40 MSTORE DUP1 DUP5 DUP2 MSTORE PUSH1 0x20 ADD CALLER PUSH20 0xFFFFFFFFFFFFFFFFFFFFFFFFFFFFFFFFFFFFFFFF AND DUP2 MSTORE POP SWAP1 DUP1 PUSH1 0x1 DUP2 SLOAD ADD DUP1 DUP3 SSTORE DUP1 SWAP2 POP POP PUSH1 0x1 SWAP1 SUB SWAP1 PUSH1 0x0 MSTORE PUSH1 0x20 PUSH1 0x0 KECCAK256 SWAP1 PUSH1 0x2 MUL ADD PUSH1 0x0 SWAP1 SWAP2 SWAP1 SWAP2 SWAP1 SWAP2 POP PUSH1 0x0 DUP3 ADD MLOAD DUP2 PUSH1 0x0 ADD SSTORE PUSH1 0x20 DUP3 ADD MLOAD DUP2 PUSH1 0x1 ADD PUSH1 0x0 PUSH2 0x100 EXP DUP2 SLOAD DUP2 PUSH20 0xFFFFFFFFFFFFFFFFFFFFFFFFFFFFFFFFFFFFFFFF MUL NOT AND SWAP1 DUP4 PUSH20 0xFFFFFFFFFFFFFFFFFFFFFFFFFFFFFFFFFFFFFFFF AND MUL OR SWAP1 SSTORE POP POP POP POP POP JUMP JUMPDEST PUSH1 0x13 DUP2 DUP2 SLOAD DUP2 LT PUSH2 0x1E12 JUMPI PUSH1 0x0 DUP1 REVERT JUMPDEST SWAP1 PUSH1 0x0 MSTORE PUSH1 0x20 PUSH1 0x0 KECCAK256 SWAP1 PUSH1 0x2 MUL ADD PUSH1 0x0 SWAP2 POP SWAP1 POP DUP1 PUSH1 0x0 ADD SLOAD SWAP1 DUP1 PUSH1 0x1 ADD PUSH1 0x0 SWAP1 SLOAD SWAP1 PUSH2 0x100 EXP SWAP1 DIV PUSH20 0xFFFFFFFFFFFFFFFFFFFFFFFFFFFFFFFFFFFFFFFF AND SWAP1 POP DUP3 JUMP JUMPDEST PUSH1 0xE PUSH1 0x0 SWAP1 SLOAD SWAP1 PUSH2 0x100 EXP SWAP1 DIV PUSH20 0xFFFFFFFFFFFFFFFFFFFFFFFFFFFFFFFFFFFFFFFF AND DUP2 JUMP JUMPDEST PUSH1 0x0 PUSH32 0x1FFC9A700000000000000000000000000000000000000000000000000000000 PUSH28 0xFFFFFFFFFFFFFFFFFFFFFFFFFFFFFFFFFFFFFFFFFFFFFFFFFFFFFFFF NOT AND DUP3 PUSH28 0xFFFFFFFFFFFFFFFFFFFFFFFFFFFFFFFFFFFFFFFFFFFFFFFFFFFFFFFF NOT AND EQ SWAP1 POP SWAP2 SWAP1 POP JUMP JUMPDEST PUSH2 0x1EF7 DUP2 PUSH2 0x1EF2 PUSH2 0x2086 JUMP JUMPDEST PUSH2 0x27BF JUMP JUMPDEST POP JUMP JUMPDEST PUSH2 0x1F04 DUP3 DUP3 PUSH2 0xE63 JUMP JUMPDEST PUSH2 0x1FD6 JUMPI PUSH1 0x1 PUSH1 0x0 DUP1 DUP5 DUP2 MSTORE PUSH1 0x20 ADD SWAP1 DUP2 MSTORE PUSH1 0x20 ADD PUSH1 0x0 KECCAK256 PUSH1 0x0 ADD PUSH1 0x0 DUP4 PUSH20 0xFFFFFFFFFFFFFFFFFFFFFFFFFFFFFFFFFFFFFFFF AND PUSH20 0xFFFFFFFFFFFFFFFFFFFFFFFFFFFFFFFFFFFFFFFF AND DUP2 MSTORE PUSH1 0x20 ADD SWAP1 DUP2 MSTORE PUSH1 0x20 ADD PUSH1 0x0 KECCAK256 PUSH1 0x0 PUSH2 0x100 EXP DUP2 SLOAD DUP2 PUSH1 0xFF MUL NOT AND SWAP1 DUP4 ISZERO ISZERO MUL OR SWAP1 SSTORE POP PUSH2 0x1F7B PUSH2 0x2086 JUMP JUMPDEST PUSH20 0xFFFFFFFFFFFFFFFFFFFFFFFFFFFFFFFFFFFFFFFF AND DUP2 PUSH20 0xFFFFFFFFFFFFFFFFFFFFFFFFFFFFFFFFFFFFFFFF AND DUP4 PUSH32 0x2F8788117E7EFF1D82E926EC794901D17C78024A50270940304540A733656F0D PUSH1 0x40 MLOAD PUSH1 0x40 MLOAD DUP1 SWAP2 SUB SWAP1 LOG4 JUMPDEST POP POP JUMP JUMPDEST PUSH2 0x1FE2 PUSH2 0xA37 JUMP JUMPDEST PUSH2 0x2021 JUMPI PUSH1 0x40 MLOAD PUSH32 0x8C379A000000000000000000000000000000000000000000000000000000000 DUP2 MSTORE PUSH1 0x4 ADD PUSH2 0x2018 SWAP1 PUSH2 0x33CE JUMP JUMPDEST PUSH1 0x40 MLOAD DUP1 SWAP2 SUB SWAP1 REVERT JUMPDEST JUMP JUMPDEST PUSH2 0x202B PUSH2 0x1FDA JUMP JUMPDEST PUSH1 0x0 PUSH1 0x1 PUSH1 0x0 PUSH2 0x100 EXP DUP2 SLOAD DUP2 PUSH1 0xFF MUL NOT AND SWAP1 DUP4 ISZERO ISZERO MUL OR SWAP1 SSTORE POP PUSH32 0x5DB9EE0A495BF2E6FF9C91A7834C1BA4FDD244A5E8AA4E537BD38AEAE4B073AA PUSH2 0x206F PUSH2 0x2086 JUMP JUMPDEST PUSH1 0x40 MLOAD PUSH2 0x207C SWAP2 SWAP1 PUSH2 0x2BAE JUMP JUMPDEST PUSH1 0x40 MLOAD DUP1 SWAP2 SUB SWAP1 LOG1 JUMP JUMPDEST PUSH1 0x0 CALLER SWAP1 POP SWAP1 JUMP JUMPDEST PUSH2 0x2098 DUP3 DUP3 PUSH2 0xE63 JUMP JUMPDEST ISZERO PUSH2 0x216B JUMPI PUSH1 0x0 DUP1 PUSH1 0x0 DUP5 DUP2 MSTORE PUSH1 0x20 ADD SWAP1 DUP2 MSTORE PUSH1 0x20 ADD PUSH1 0x0 KECCAK256 PUSH1 0x0 ADD PUSH1 0x0 DUP4 PUSH20 0xFFFFFFFFFFFFFFFFFFFFFFFFFFFFFFFFFFFFFFFF AND PUSH20 0xFFFFFFFFFFFFFFFFFFFFFFFFFFFFFFFFFFFFFFFF AND DUP2 MSTORE PUSH1 0x20 ADD SWAP1 DUP2 MSTORE PUSH1 0x20 ADD PUSH1 0x0 KECCAK256 PUSH1 0x0 PUSH2 0x100 EXP DUP2 SLOAD DUP2 PUSH1 0xFF MUL NOT AND SWAP1 DUP4 ISZERO ISZERO MUL OR SWAP1 SSTORE POP PUSH2 0x2110 PUSH2 0x2086 JUMP JUMPDEST PUSH20 0xFFFFFFFFFFFFFFFFFFFFFFFFFFFFFFFFFFFFFFFF AND DUP2 PUSH20 0xFFFFFFFFFFFFFFFFFFFFFFFFFFFFFFFFFFFFFFFF AND DUP4 PUSH32 0xF6391F5C32D9C69D2A47EA670B442974B53935D1EDC7FD64EB21E047A839171B PUSH1 0x40 MLOAD PUSH1 0x40 MLOAD DUP1 SWAP2 SUB SWAP1 LOG4 JUMPDEST POP POP JUMP JUMPDEST PUSH1 0x0 PUSH1 0xE PUSH1 0x0 SWAP1 SLOAD SWAP1 PUSH2 0x100 EXP SWAP1 DIV PUSH20 0xFFFFFFFFFFFFFFFFFFFFFFFFFFFFFFFFFFFFFFFF AND PUSH20 0xFFFFFFFFFFFFFFFFFFFFFFFFFFFFFFFFFFFFFFFF AND PUSH1 0x0 PUSH20 0xFFFFFFFFFFFFFFFFFFFFFFFFFFFFFFFFFFFFFFFF AND EQ PUSH2 0x226A JUMPI PUSH1 0xE PUSH1 0x0 SWAP1 SLOAD SWAP1 PUSH2 0x100 EXP SWAP1 DIV PUSH20 0xFFFFFFFFFFFFFFFFFFFFFFFFFFFFFFFFFFFFFFFF AND PUSH20 0xFFFFFFFFFFFFFFFFFFFFFFFFFFFFFFFFFFFFFFFF AND PUSH4 0x70A08231 ADDRESS PUSH1 0x40 MLOAD DUP3 PUSH4 0xFFFFFFFF AND PUSH1 0xE0 SHL DUP2 MSTORE PUSH1 0x4 ADD PUSH2 0x2222 SWAP2 SWAP1 PUSH2 0x2BAE JUMP JUMPDEST PUSH1 0x20 PUSH1 0x40 MLOAD DUP1 DUP4 SUB DUP2 DUP7 GAS STATICCALL ISZERO DUP1 ISZERO PUSH2 0x223F JUMPI RETURNDATASIZE PUSH1 0x0 DUP1 RETURNDATACOPY RETURNDATASIZE PUSH1 0x0 REVERT JUMPDEST POP POP POP POP PUSH1 0x40 MLOAD RETURNDATASIZE PUSH1 0x1F NOT PUSH1 0x1F DUP3 ADD AND DUP3 ADD DUP1 PUSH1 0x40 MSTORE POP DUP2 ADD SWAP1 PUSH2 0x2263 SWAP2 SWAP1 PUSH2 0x3403 JUMP JUMPDEST SWAP1 POP PUSH2 0x226E JUMP JUMPDEST SELFBALANCE SWAP1 POP JUMPDEST SWAP1 JUMP JUMPDEST PUSH2 0x2279 PUSH2 0xA37 JUMP JUMPDEST ISZERO PUSH2 0x22B9 JUMPI PUSH1 0x40 MLOAD PUSH32 0x8C379A000000000000000000000000000000000000000000000000000000000 DUP2 MSTORE PUSH1 0x4 ADD PUSH2 0x22B0 SWAP1 PUSH2 0x347C JUMP JUMPDEST PUSH1 0x40 MLOAD DUP1 SWAP2 SUB SWAP1 REVERT JUMPDEST JUMP JUMPDEST PUSH2 0x22C3 PUSH2 0x2271 JUMP JUMPDEST PUSH1 0x1 DUP1 PUSH1 0x0 PUSH2 0x100 EXP DUP2 SLOAD DUP2 PUSH1 0xFF MUL NOT AND SWAP1 DUP4 ISZERO ISZERO MUL OR SWAP1 SSTORE POP PUSH32 0x62E78CEA01BEE320CD4E420270B5EA74000D11B0C9F74754EBDBFC544B05A258 PUSH2 0x2306 PUSH2 0x2086 JUMP JUMPDEST PUSH1 0x40 MLOAD PUSH2 0x2313 SWAP2 SWAP1 PUSH2 0x2BAE JUMP JUMPDEST PUSH1 0x40 MLOAD DUP1 SWAP2 SUB SWAP1 LOG1 JUMP JUMPDEST PUSH1 0x2 DUP1 SLOAD SUB PUSH2 0x2361 JUMPI PUSH1 0x40 MLOAD PUSH32 0x8C379A000000000000000000000000000000000000000000000000000000000 DUP2 MSTORE PUSH1 0x4 ADD PUSH2 0x2358 SWAP1 PUSH2 0x34E8 JUMP JUMPDEST PUSH1 0x40 MLOAD DUP1 SWAP2 SUB SWAP1 REVERT JUMPDEST PUSH1 0x2 DUP1 DUP2 SWAP1 SSTORE POP JUMP JUMPDEST PUSH1 0x0 PUSH1 0xE PUSH1 0x0 SWAP1 SLOAD SWAP1 PUSH2 0x100 EXP SWAP1 DIV PUSH20 0xFFFFFFFFFFFFFFFFFFFFFFFFFFFFFFFFFFFFFFFF AND PUSH20 0xFFFFFFFFFFFFFFFFFFFFFFFFFFFFFFFFFFFFFFFF AND PUSH1 0x0 PUSH20 0xFFFFFFFFFFFFFFFFFFFFFFFFFFFFFFFFFFFFFFFF AND EQ PUSH2 0x2471 JUMPI PUSH1 0xE PUSH1 0x0 SWAP1 SLOAD SWAP1 PUSH2 0x100 EXP SWAP1 DIV PUSH20 0xFFFFFFFFFFFFFFFFFFFFFFFFFFFFFFFFFFFFFFFF AND PUSH20 0xFFFFFFFFFFFFFFFFFFFFFFFFFFFFFFFFFFFFFFFF AND PUSH4 0xA9059CBB DUP5 DUP5 PUSH1 0x40 MLOAD DUP4 PUSH4 0xFFFFFFFF AND PUSH1 0xE0 SHL DUP2 MSTORE PUSH1 0x4 ADD PUSH2 0x241F SWAP3 SWAP2 SWAP1 PUSH2 0x3508 JUMP JUMPDEST PUSH1 0x20 PUSH1 0x40 MLOAD DUP1 DUP4 SUB DUP2 PUSH1 0x0 DUP8 GAS CALL SWAP3 POP POP POP DUP1 ISZERO PUSH2 0x245B JUMPI POP PUSH1 0x40 MLOAD RETURNDATASIZE PUSH1 0x1F NOT PUSH1 0x1F DUP3 ADD AND DUP3 ADD DUP1 PUSH1 0x40 MSTORE POP DUP2 ADD SWAP1 PUSH2 0x2458 SWAP2 SWAP1 PUSH2 0x3546 JUMP JUMPDEST PUSH1 0x1 JUMPDEST PUSH2 0x2468 JUMPI PUSH1 0x0 SWAP1 POP PUSH2 0x24E2 JUMP JUMPDEST DUP1 SWAP2 POP POP PUSH2 0x24E2 JUMP JUMPDEST PUSH1 0x0 DUP4 PUSH20 0xFFFFFFFFFFFFFFFFFFFFFFFFFFFFFFFFFFFFFFFF AND DUP4 PUSH1 0x40 MLOAD PUSH2 0x2497 SWAP1 PUSH2 0x35A4 JUMP JUMPDEST PUSH1 0x0 PUSH1 0x40 MLOAD DUP1 DUP4 SUB DUP2 DUP6 DUP8 GAS CALL SWAP3 POP POP POP RETURNDATASIZE DUP1 PUSH1 0x0 DUP2 EQ PUSH2 0x24D4 JUMPI PUSH1 0x40 MLOAD SWAP2 POP PUSH1 0x1F NOT PUSH1 0x3F RETURNDATASIZE ADD AND DUP3 ADD PUSH1 0x40 MSTORE RETURNDATASIZE DUP3 MSTORE RETURNDATASIZE PUSH1 0x0 PUSH1 0x20 DUP5 ADD RETURNDATACOPY PUSH2 0x24D9 JUMP JUMPDEST PUSH1 0x60 SWAP2 POP JUMPDEST POP POP SWAP1 POP DUP1 SWAP2 POP POP JUMPDEST SWAP3 SWAP2 POP POP JUMP JUMPDEST PUSH1 0xE PUSH1 0x0 SWAP1 SLOAD SWAP1 PUSH2 0x100 EXP SWAP1 DIV PUSH20 0xFFFFFFFFFFFFFFFFFFFFFFFFFFFFFFFFFFFFFFFF AND PUSH20 0xFFFFFFFFFFFFFFFFFFFFFFFFFFFFFFFFFFFFFFFF AND PUSH1 0x0 PUSH20 0xFFFFFFFFFFFFFFFFFFFFFFFFFFFFFFFFFFFFFFFF AND EQ PUSH2 0x25F9 JUMPI PUSH1 0x0 PUSH1 0xE PUSH1 0x0 SWAP1 SLOAD SWAP1 PUSH2 0x100 EXP SWAP1 DIV PUSH20 0xFFFFFFFFFFFFFFFFFFFFFFFFFFFFFFFFFFFFFFFF AND PUSH20 0xFFFFFFFFFFFFFFFFFFFFFFFFFFFFFFFFFFFFFFFF AND PUSH4 0xA9059CBB DUP5 DUP5 PUSH1 0x40 MLOAD DUP4 PUSH4 0xFFFFFFFF AND PUSH1 0xE0 SHL DUP2 MSTORE PUSH1 0x4 ADD PUSH2 0x259D SWAP3 SWAP2 SWAP1 PUSH2 0x3508 JUMP JUMPDEST PUSH1 0x20 PUSH1 0x40 MLOAD DUP1 DUP4 SUB DUP2 PUSH1 0x0 DUP8 GAS CALL ISZERO DUP1 ISZERO PUSH2 0x25BC JUMPI RETURNDATASIZE PUSH1 0x0 DUP1 RETURNDATACOPY RETURNDATASIZE PUSH1 0x0 REVERT JUMPDEST POP POP POP POP PUSH1 0x40 MLOAD RETURNDATASIZE PUSH1 0x1F NOT PUSH1 0x1F DUP3 ADD AND DUP3 ADD DUP1 PUSH1 0x40 MSTORE POP DUP2 ADD SWAP1 PUSH2 0x25E0 SWAP2 SWAP1 PUSH2 0x3546 JUMP JUMPDEST SWAP1 POP DUP1 ISZERO ISZERO PUSH1 0x1 ISZERO ISZERO EQ PUSH2 0x25F3 JUMPI PUSH1 0x0 DUP1 REVERT JUMPDEST POP PUSH2 0x2641 JUMP JUMPDEST DUP2 PUSH20 0xFFFFFFFFFFFFFFFFFFFFFFFFFFFFFFFFFFFFFFFF AND PUSH2 0x8FC DUP3 SWAP1 DUP2 ISZERO MUL SWAP1 PUSH1 0x40 MLOAD PUSH1 0x0 PUSH1 0x40 MLOAD DUP1 DUP4 SUB DUP2 DUP6 DUP9 DUP9 CALL SWAP4 POP POP POP POP ISZERO DUP1 ISZERO PUSH2 0x263F JUMPI RETURNDATASIZE PUSH1 0x0 DUP1 RETURNDATACOPY RETURNDATASIZE PUSH1 0x0 REVERT JUMPDEST POP JUMPDEST POP POP JUMP JUMPDEST PUSH1 0x1 PUSH1 0x2 DUP2 SWAP1 SSTORE POP JUMP JUMPDEST PUSH1 0x0 PUSH1 0xE PUSH1 0x0 SWAP1 SLOAD SWAP1 PUSH2 0x100 EXP SWAP1 DIV PUSH20 0xFFFFFFFFFFFFFFFFFFFFFFFFFFFFFFFFFFFFFFFF AND PUSH20 0xFFFFFFFFFFFFFFFFFFFFFFFFFFFFFFFFFFFFFFFF AND PUSH1 0x0 PUSH20 0xFFFFFFFFFFFFFFFFFFFFFFFFFFFFFFFFFFFFFFFF AND EQ PUSH2 0x2767 JUMPI PUSH1 0x0 PUSH1 0xE PUSH1 0x0 SWAP1 SLOAD SWAP1 PUSH2 0x100 EXP SWAP1 DIV PUSH20 0xFFFFFFFFFFFFFFFFFFFFFFFFFFFFFFFFFFFFFFFF AND PUSH20 0xFFFFFFFFFFFFFFFFFFFFFFFFFFFFFFFFFFFFFFFF AND PUSH4 0x23B872DD CALLER ADDRESS DUP7 PUSH1 0x40 MLOAD DUP5 PUSH4 0xFFFFFFFF AND PUSH1 0xE0 SHL DUP2 MSTORE PUSH1 0x4 ADD PUSH2 0x2708 SWAP4 SWAP3 SWAP2 SWAP1 PUSH2 0x35B9 JUMP JUMPDEST PUSH1 0x20 PUSH1 0x40 MLOAD DUP1 DUP4 SUB DUP2 PUSH1 0x0 DUP8 GAS CALL ISZERO DUP1 ISZERO PUSH2 0x2727 JUMPI RETURNDATASIZE PUSH1 0x0 DUP1 RETURNDATACOPY RETURNDATASIZE PUSH1 0x0 REVERT JUMPDEST POP POP POP POP PUSH1 0x40 MLOAD RETURNDATASIZE PUSH1 0x1F NOT PUSH1 0x1F DUP3 ADD AND DUP3 ADD DUP1 PUSH1 0x40 MSTORE POP DUP2 ADD SWAP1 PUSH2 0x274B SWAP2 SWAP1 PUSH2 0x3546 JUMP JUMPDEST SWAP1 POP DUP1 ISZERO ISZERO PUSH1 0x1 ISZERO ISZERO EQ PUSH2 0x275E JUMPI PUSH1 0x0 DUP1 REVERT JUMPDEST DUP3 SWAP2 POP POP PUSH2 0x2778 JUMP JUMPDEST DUP2 CALLVALUE LT ISZERO PUSH2 0x2774 JUMPI PUSH1 0x0 DUP1 REVERT JUMPDEST CALLVALUE SWAP1 POP JUMPDEST SWAP2 SWAP1 POP JUMP JUMPDEST PUSH1 0x0 DUP2 TIMESTAMP NUMBER CALLER PUSH1 0x40 MLOAD PUSH1 0x20 ADD PUSH2 0x2795 SWAP4 SWAP3 SWAP2 SWAP1 PUSH2 0x3659 JUMP JUMPDEST PUSH1 0x40 MLOAD PUSH1 0x20 DUP2 DUP4 SUB SUB DUP2 MSTORE SWAP1 PUSH1 0x40 MSTORE DUP1 MLOAD SWAP1 PUSH1 0x20 ADD KECCAK256 PUSH1 0x0 SHR PUSH2 0x27B8 SWAP2 SWAP1 PUSH2 0x3696 JUMP JUMPDEST SWAP1 POP SWAP2 SWAP1 POP JUMP JUMPDEST PUSH2 0x27C9 DUP3 DUP3 PUSH2 0xE63 JUMP JUMPDEST PUSH2 0x2840 JUMPI PUSH2 0x27D6 DUP2 PUSH2 0x2844 JUMP JUMPDEST PUSH2 0x27E4 DUP4 PUSH1 0x0 SHR PUSH1 0x20 PUSH2 0x2871 JUMP JUMPDEST PUSH1 0x40 MLOAD PUSH1 0x20 ADD PUSH2 0x27F5 SWAP3 SWAP2 SWAP1 PUSH2 0x37D0 JUMP JUMPDEST PUSH1 0x40 MLOAD PUSH1 0x20 DUP2 DUP4 SUB SUB DUP2 MSTORE SWAP1 PUSH1 0x40 MSTORE PUSH1 0x40 MLOAD PUSH32 0x8C379A000000000000000000000000000000000000000000000000000000000 DUP2 MSTORE PUSH1 0x4 ADD PUSH2 0x2837 SWAP2 SWAP1 PUSH2 0x3854 JUMP JUMPDEST PUSH1 0x40 MLOAD DUP1 SWAP2 SUB SWAP1 REVERT JUMPDEST POP POP JUMP JUMPDEST PUSH1 0x60 PUSH2 0x286A DUP3 PUSH20 0xFFFFFFFFFFFFFFFFFFFFFFFFFFFFFFFFFFFFFFFF AND PUSH1 0x14 PUSH1 0xFF AND PUSH2 0x2871 JUMP JUMPDEST SWAP1 POP SWAP2 SWAP1 POP JUMP JUMPDEST PUSH1 0x60 PUSH1 0x0 PUSH1 0x2 DUP4 PUSH1 0x2 PUSH2 0x2884 SWAP2 SWAP1 PUSH2 0x32E0 JUMP JUMPDEST PUSH2 0x288E SWAP2 SWAP1 PUSH2 0x3120 JUMP JUMPDEST PUSH8 0xFFFFFFFFFFFFFFFF DUP2 GT ISZERO PUSH2 0x28A7 JUMPI PUSH2 0x28A6 PUSH2 0x3876 JUMP JUMPDEST JUMPDEST PUSH1 0x40 MLOAD SWAP1 DUP1 DUP3 MSTORE DUP1 PUSH1 0x1F ADD PUSH1 0x1F NOT AND PUSH1 0x20 ADD DUP3 ADD PUSH1 0x40 MSTORE DUP1 ISZERO PUSH2 0x28D9 JUMPI DUP2 PUSH1 0x20 ADD PUSH1 0x1 DUP3 MUL DUP1 CALLDATASIZE DUP4 CALLDATACOPY DUP1 DUP3 ADD SWAP2 POP POP SWAP1 POP JUMPDEST POP SWAP1 POP PUSH32 0x3000000000000000000000000000000000000000000000000000000000000000 DUP2 PUSH1 0x0 DUP2 MLOAD DUP2 LT PUSH2 0x2911 JUMPI PUSH2 0x2910 PUSH2 0x308E JUMP JUMPDEST JUMPDEST PUSH1 0x20 ADD ADD SWAP1 PUSH31 0xFFFFFFFFFFFFFFFFFFFFFFFFFFFFFFFFFFFFFFFFFFFFFFFFFFFFFFFFFFFFFF NOT AND SWAP1 DUP2 PUSH1 0x0 BYTE SWAP1 MSTORE8 POP PUSH32 0x7800000000000000000000000000000000000000000000000000000000000000 DUP2 PUSH1 0x1 DUP2 MLOAD DUP2 LT PUSH2 0x2975 JUMPI PUSH2 0x2974 PUSH2 0x308E JUMP JUMPDEST JUMPDEST PUSH1 0x20 ADD ADD SWAP1 PUSH31 0xFFFFFFFFFFFFFFFFFFFFFFFFFFFFFFFFFFFFFFFFFFFFFFFFFFFFFFFFFFFFFF NOT AND SWAP1 DUP2 PUSH1 0x0 BYTE SWAP1 MSTORE8 POP PUSH1 0x0 PUSH1 0x1 DUP5 PUSH1 0x2 PUSH2 0x29B5 SWAP2 SWAP1 PUSH2 0x32E0 JUMP JUMPDEST PUSH2 0x29BF SWAP2 SWAP1 PUSH2 0x3120 JUMP JUMPDEST SWAP1 POP JUMPDEST PUSH1 0x1 DUP2 GT ISZERO PUSH2 0x2A5F JUMPI PUSH32 0x3031323334353637383961626364656600000000000000000000000000000000 PUSH1 0xF DUP7 AND PUSH1 0x10 DUP2 LT PUSH2 0x2A01 JUMPI PUSH2 0x2A00 PUSH2 0x308E JUMP JUMPDEST JUMPDEST BYTE PUSH1 0xF8 SHL DUP3 DUP3 DUP2 MLOAD DUP2 LT PUSH2 0x2A18 JUMPI PUSH2 0x2A17 PUSH2 0x308E JUMP JUMPDEST JUMPDEST PUSH1 0x20 ADD ADD SWAP1 PUSH31 0xFFFFFFFFFFFFFFFFFFFFFFFFFFFFFFFFFFFFFFFFFFFFFFFFFFFFFFFFFFFFFF NOT AND SWAP1 DUP2 PUSH1 0x0 BYTE SWAP1 MSTORE8 POP PUSH1 0x4 DUP6 SWAP1 SHR SWAP5 POP DUP1 PUSH2 0x2A58 SWAP1 PUSH2 0x38A5 JUMP JUMPDEST SWAP1 POP PUSH2 0x29C2 JUMP JUMPDEST POP PUSH1 0x0 DUP5 EQ PUSH2 0x2AA3 JUMPI PUSH1 0x40 MLOAD PUSH32 0x8C379A000000000000000000000000000000000000000000000000000000000 DUP2 MSTORE PUSH1 0x4 ADD PUSH2 0x2A9A SWAP1 PUSH2 0x391A JUMP JUMPDEST PUSH1 0x40 MLOAD DUP1 SWAP2 SUB SWAP1 REVERT JUMPDEST DUP1 SWAP2 POP POP SWAP3 SWAP2 POP POP JUMP JUMPDEST PUSH1 0x0 DUP1 REVERT JUMPDEST PUSH1 0x0 PUSH32 0xFFFFFFFF00000000000000000000000000000000000000000000000000000000 DUP3 AND SWAP1 POP SWAP2 SWAP1 POP JUMP JUMPDEST PUSH2 0x2AE7 DUP2 PUSH2 0x2AB2 JUMP JUMPDEST DUP2 EQ PUSH2 0x2AF2 JUMPI PUSH1 0x0 DUP1 REVERT JUMPDEST POP JUMP JUMPDEST PUSH1 0x0 DUP2 CALLDATALOAD SWAP1 POP PUSH2 0x2B04 DUP2 PUSH2 0x2ADE JUMP JUMPDEST SWAP3 SWAP2 POP POP JUMP JUMPDEST PUSH1 0x0 PUSH1 0x20 DUP3 DUP5 SUB SLT ISZERO PUSH2 0x2B20 JUMPI PUSH2 0x2B1F PUSH2 0x2AAD JUMP JUMPDEST JUMPDEST PUSH1 0x0 PUSH2 0x2B2E DUP5 DUP3 DUP6 ADD PUSH2 0x2AF5 JUMP JUMPDEST SWAP2 POP POP SWAP3 SWAP2 POP POP JUMP JUMPDEST PUSH1 0x0 DUP2 ISZERO ISZERO SWAP1 POP SWAP2 SWAP1 POP JUMP JUMPDEST PUSH2 0x2B4C DUP2 PUSH2 0x2B37 JUMP JUMPDEST DUP3 MSTORE POP POP JUMP JUMPDEST PUSH1 0x0 PUSH1 0x20 DUP3 ADD SWAP1 POP PUSH2 0x2B67 PUSH1 0x0 DUP4 ADD DUP5 PUSH2 0x2B43 JUMP JUMPDEST SWAP3 SWAP2 POP POP JUMP JUMPDEST PUSH1 0x0 PUSH20 0xFFFFFFFFFFFFFFFFFFFFFFFFFFFFFFFFFFFFFFFF DUP3 AND SWAP1 POP SWAP2 SWAP1 POP JUMP JUMPDEST PUSH1 0x0 PUSH2 0x2B98 DUP3 PUSH2 0x2B6D JUMP JUMPDEST SWAP1 POP SWAP2 SWAP1 POP JUMP JUMPDEST PUSH2 0x2BA8 DUP2 PUSH2 0x2B8D JUMP JUMPDEST DUP3 MSTORE POP POP JUMP JUMPDEST PUSH1 0x0 PUSH1 0x20 DUP3 ADD SWAP1 POP PUSH2 0x2BC3 PUSH1 0x0 DUP4 ADD DUP5 PUSH2 0x2B9F JUMP JUMPDEST SWAP3 SWAP2 POP POP JUMP JUMPDEST PUSH1 0x0 DUP2 SWAP1 POP SWAP2 SWAP1 POP JUMP JUMPDEST PUSH2 0x2BDC DUP2 PUSH2 0x2BC9 JUMP JUMPDEST DUP2 EQ PUSH2 0x2BE7 JUMPI PUSH1 0x0 DUP1 REVERT JUMPDEST POP JUMP JUMPDEST PUSH1 0x0 DUP2 CALLDATALOAD SWAP1 POP PUSH2 0x2BF9 DUP2 PUSH2 0x2BD3 JUMP JUMPDEST SWAP3 SWAP2 POP POP JUMP JUMPDEST PUSH1 0x0 PUSH1 0x20 DUP3 DUP5 SUB SLT ISZERO PUSH2 0x2C15 JUMPI PUSH2 0x2C14 PUSH2 0x2AAD JUMP JUMPDEST JUMPDEST PUSH1 0x0 PUSH2 0x2C23 DUP5 DUP3 DUP6 ADD PUSH2 0x2BEA JUMP JUMPDEST SWAP2 POP POP SWAP3 SWAP2 POP POP JUMP JUMPDEST PUSH2 0x2C35 DUP2 PUSH2 0x2BC9 JUMP JUMPDEST DUP3 MSTORE POP POP JUMP JUMPDEST PUSH1 0x0 PUSH1 0x20 DUP3 ADD SWAP1 POP PUSH2 0x2C50 PUSH1 0x0 DUP4 ADD DUP5 PUSH2 0x2C2C JUMP JUMPDEST SWAP3 SWAP2 POP POP JUMP JUMPDEST PUSH2 0x2C5F DUP2 PUSH2 0x2B8D JUMP JUMPDEST DUP2 EQ PUSH2 0x2C6A JUMPI PUSH1 0x0 DUP1 REVERT JUMPDEST POP JUMP JUMPDEST PUSH1 0x0 DUP2 CALLDATALOAD SWAP1 POP PUSH2 0x2C7C DUP2 PUSH2 0x2C56 JUMP JUMPDEST SWAP3 SWAP2 POP POP JUMP JUMPDEST PUSH1 0x0 DUP1 PUSH1 0x40 DUP4 DUP6 SUB SLT ISZERO PUSH2 0x2C99 JUMPI PUSH2 0x2C98 PUSH2 0x2AAD JUMP JUMPDEST JUMPDEST PUSH1 0x0 PUSH2 0x2CA7 DUP6 DUP3 DUP7 ADD PUSH2 0x2BEA JUMP JUMPDEST SWAP3 POP POP PUSH1 0x20 PUSH2 0x2CB8 DUP6 DUP3 DUP7 ADD PUSH2 0x2C6D JUMP JUMPDEST SWAP2 POP POP SWAP3 POP SWAP3 SWAP1 POP JUMP JUMPDEST PUSH1 0x0 PUSH1 0x20 DUP3 DUP5 SUB SLT ISZERO PUSH2 0x2CD8 JUMPI PUSH2 0x2CD7 PUSH2 0x2AAD JUMP JUMPDEST JUMPDEST PUSH1 0x0 PUSH2 0x2CE6 DUP5 DUP3 DUP6 ADD PUSH2 0x2C6D JUMP JUMPDEST SWAP2 POP POP SWAP3 SWAP2 POP POP JUMP JUMPDEST PUSH1 0x0 DUP2 SWAP1 POP SWAP2 SWAP1 POP JUMP JUMPDEST PUSH2 0x2D02 DUP2 PUSH2 0x2CEF JUMP JUMPDEST DUP3 MSTORE POP POP JUMP JUMPDEST PUSH1 0x0 PUSH1 0x20 DUP3 ADD SWAP1 POP PUSH2 0x2D1D PUSH1 0x0 DUP4 ADD DUP5 PUSH2 0x2CF9 JUMP JUMPDEST SWAP3 SWAP2 POP POP JUMP JUMPDEST PUSH32 0x4E487B7100000000000000000000000000000000000000000000000000000000 PUSH1 0x0 MSTORE PUSH1 0x21 PUSH1 0x4 MSTORE PUSH1 0x24 PUSH1 0x0 REVERT JUMPDEST PUSH1 0x6 DUP2 LT PUSH2 0x2D63 JUMPI PUSH2 0x2D62 PUSH2 0x2D23 JUMP JUMPDEST JUMPDEST POP JUMP JUMPDEST PUSH1 0x0 DUP2 SWAP1 POP PUSH2 0x2D74 DUP3 PUSH2 0x2D52 JUMP JUMPDEST SWAP2 SWAP1 POP JUMP JUMPDEST PUSH1 0x0 PUSH2 0x2D84 DUP3 PUSH2 0x2D66 JUMP JUMPDEST SWAP1 POP SWAP2 SWAP1 POP JUMP JUMPDEST PUSH2 0x2D94 DUP2 PUSH2 0x2D79 JUMP JUMPDEST DUP3 MSTORE POP POP JUMP JUMPDEST PUSH1 0x0 PUSH1 0xE0 DUP3 ADD SWAP1 POP PUSH2 0x2DAF PUSH1 0x0 DUP4 ADD DUP11 PUSH2 0x2D8B JUMP JUMPDEST PUSH2 0x2DBC PUSH1 0x20 DUP4 ADD DUP10 PUSH2 0x2CF9 JUMP JUMPDEST PUSH2 0x2DC9 PUSH1 0x40 DUP4 ADD DUP9 PUSH2 0x2CF9 JUMP JUMPDEST PUSH2 0x2DD6 PUSH1 0x60 DUP4 ADD DUP8 PUSH2 0x2CF9 JUMP JUMPDEST PUSH2 0x2DE3 PUSH1 0x80 DUP4 ADD DUP7 PUSH2 0x2CF9 JUMP JUMPDEST PUSH2 0x2DF0 PUSH1 0xA0 DUP4 ADD DUP6 PUSH2 0x2CF9 JUMP JUMPDEST PUSH2 0x2DFD PUSH1 0xC0 DUP4 ADD DUP5 PUSH2 0x2CF9 JUMP JUMPDEST SWAP9 SWAP8 POP POP POP POP POP POP POP POP JUMP JUMPDEST PUSH2 0x2E12 DUP2 PUSH2 0x2B37 JUMP JUMPDEST DUP2 EQ PUSH2 0x2E1D JUMPI PUSH1 0x0 DUP1 REVERT JUMPDEST POP JUMP JUMPDEST PUSH1 0x0 DUP2 CALLDATALOAD SWAP1 POP PUSH2 0x2E2F DUP2 PUSH2 0x2E09 JUMP JUMPDEST SWAP3 SWAP2 POP POP JUMP JUMPDEST PUSH1 0x0 PUSH1 0x20 DUP3 DUP5 SUB SLT ISZERO PUSH2 0x2E4B JUMPI PUSH2 0x2E4A PUSH2 0x2AAD JUMP JUMPDEST JUMPDEST PUSH1 0x0 PUSH2 0x2E59 DUP5 DUP3 DUP6 ADD PUSH2 0x2E20 JUMP JUMPDEST SWAP2 POP POP SWAP3 SWAP2 POP POP JUMP JUMPDEST PUSH1 0x0 PUSH1 0xFF DUP3 AND SWAP1 POP SWAP2 SWAP1 POP JUMP JUMPDEST PUSH2 0x2E78 DUP2 PUSH2 0x2E62 JUMP JUMPDEST DUP3 MSTORE POP POP JUMP JUMPDEST PUSH1 0x0 PUSH2 0x160 DUP3 ADD SWAP1 POP PUSH2 0x2E94 PUSH1 0x0 DUP4 ADD DUP15 PUSH2 0x2CF9 JUMP JUMPDEST PUSH2 0x2EA1 PUSH1 0x20 DUP4 ADD DUP14 PUSH2 0x2CF9 JUMP JUMPDEST PUSH2 0x2EAE PUSH1 0x40 DUP4 ADD DUP13 PUSH2 0x2CF9 JUMP JUMPDEST PUSH2 0x2EBB PUSH1 0x60 DUP4 ADD DUP12 PUSH2 0x2CF9 JUMP JUMPDEST PUSH2 0x2EC8 PUSH1 0x80 DUP4 ADD DUP11 PUSH2 0x2CF9 JUMP JUMPDEST PUSH2 0x2ED5 PUSH1 0xA0 DUP4 ADD DUP10 PUSH2 0x2CF9 JUMP JUMPDEST PUSH2 0x2EE2 PUSH1 0xC0 DUP4 ADD DUP9 PUSH2 0x2CF9 JUMP JUMPDEST PUSH2 0x2EEF PUSH1 0xE0 DUP4 ADD DUP8 PUSH2 0x2CF9 JUMP JUMPDEST PUSH2 0x2EFD PUSH2 0x100 DUP4 ADD DUP7 PUSH2 0x2E6F JUMP JUMPDEST PUSH2 0x2F0B PUSH2 0x120 DUP4 ADD DUP6 PUSH2 0x2E6F JUMP JUMPDEST PUSH2 0x2F19 PUSH2 0x140 DUP4 ADD DUP5 PUSH2 0x2E6F JUMP JUMPDEST SWAP13 SWAP12 POP POP POP POP POP POP POP POP POP POP POP POP JUMP JUMPDEST PUSH2 0x2F32 DUP2 PUSH2 0x2CEF JUMP JUMPDEST DUP2 EQ PUSH2 0x2F3D JUMPI PUSH1 0x0 DUP1 REVERT JUMPDEST POP JUMP JUMPDEST PUSH1 0x0 DUP2 CALLDATALOAD SWAP1 POP PUSH2 0x2F4F DUP2 PUSH2 0x2F29 JUMP JUMPDEST SWAP3 SWAP2 POP POP JUMP JUMPDEST PUSH1 0x0 DUP1 PUSH1 0x40 DUP4 DUP6 SUB SLT ISZERO PUSH2 0x2F6C JUMPI PUSH2 0x2F6B PUSH2 0x2AAD JUMP JUMPDEST JUMPDEST PUSH1 0x0 PUSH2 0x2F7A DUP6 DUP3 DUP7 ADD PUSH2 0x2F40 JUMP JUMPDEST SWAP3 POP POP PUSH1 0x20 PUSH2 0x2F8B DUP6 DUP3 DUP7 ADD PUSH2 0x2C6D JUMP JUMPDEST SWAP2 POP POP SWAP3 POP SWAP3 SWAP1 POP JUMP JUMPDEST PUSH1 0x0 PUSH1 0x20 DUP3 DUP5 SUB SLT ISZERO PUSH2 0x2FAB JUMPI PUSH2 0x2FAA PUSH2 0x2AAD JUMP JUMPDEST JUMPDEST PUSH1 0x0 PUSH2 0x2FB9 DUP5 DUP3 DUP6 ADD PUSH2 0x2F40 JUMP JUMPDEST SWAP2 POP POP SWAP3 SWAP2 POP POP JUMP JUMPDEST PUSH1 0x0 PUSH1 0x40 DUP3 ADD SWAP1 POP PUSH2 0x2FD7 PUSH1 0x0 DUP4 ADD DUP6 PUSH2 0x2CF9 JUMP JUMPDEST PUSH2 0x2FE4 PUSH1 0x20 DUP4 ADD DUP5 PUSH2 0x2B9F JUMP JUMPDEST SWAP4 SWAP3 POP POP POP JUMP JUMPDEST PUSH1 0x0 DUP3 DUP3 MSTORE PUSH1 0x20 DUP3 ADD SWAP1 POP SWAP3 SWAP2 POP POP JUMP JUMPDEST PUSH32 0x416363657373436F6E74726F6C3A2063616E206F6E6C792072656E6F756E6365 PUSH1 0x0 DUP3 ADD MSTORE PUSH32 0x20726F6C657320666F722073656C660000000000000000000000000000000000 PUSH1 0x20 DUP3 ADD MSTORE POP JUMP JUMPDEST PUSH1 0x0 PUSH2 0x3058 PUSH1 0x2F DUP4 PUSH2 0x2FEB JUMP JUMPDEST SWAP2 POP PUSH2 0x3063 DUP3 PUSH2 0x2FFC JUMP JUMPDEST PUSH1 0x40 DUP3 ADD SWAP1 POP SWAP2 SWAP1 POP JUMP JUMPDEST PUSH1 0x0 PUSH1 0x20 DUP3 ADD SWAP1 POP DUP2 DUP2 SUB PUSH1 0x0 DUP4 ADD MSTORE PUSH2 0x3087 DUP2 PUSH2 0x304B JUMP JUMPDEST SWAP1 POP SWAP2 SWAP1 POP JUMP JUMPDEST PUSH32 0x4E487B7100000000000000000000000000000000000000000000000000000000 PUSH1 0x0 MSTORE PUSH1 0x32 PUSH1 0x4 MSTORE PUSH1 0x24 PUSH1 0x0 REVERT JUMPDEST PUSH32 0x4E487B7100000000000000000000000000000000000000000000000000000000 PUSH1 0x0 MSTORE PUSH1 0x11 PUSH1 0x4 MSTORE PUSH1 0x24 PUSH1 0x0 REVERT JUMPDEST PUSH1 0x0 PUSH2 0x30F7 DUP3 PUSH2 0x2CEF JUMP JUMPDEST SWAP2 POP PUSH2 0x3102 DUP4 PUSH2 0x2CEF JUMP JUMPDEST SWAP3 POP DUP3 DUP3 SUB SWAP1 POP DUP2 DUP2 GT ISZERO PUSH2 0x311A JUMPI PUSH2 0x3119 PUSH2 0x30BD JUMP JUMPDEST JUMPDEST SWAP3 SWAP2 POP POP JUMP JUMPDEST PUSH1 0x0 PUSH2 0x312B DUP3 PUSH2 0x2CEF JUMP JUMPDEST SWAP2 POP PUSH2 0x3136 DUP4 PUSH2 0x2CEF JUMP JUMPDEST SWAP3 POP DUP3 DUP3 ADD SWAP1 POP DUP1 DUP3 GT ISZERO PUSH2 0x314E JUMPI PUSH2 0x314D PUSH2 0x30BD JUMP JUMPDEST JUMPDEST SWAP3 SWAP2 POP POP JUMP JUMPDEST PUSH1 0x0 PUSH2 0x315F DUP3 PUSH2 0x2CEF JUMP JUMPDEST SWAP2 POP PUSH32 0xFFFFFFFFFFFFFFFFFFFFFFFFFFFFFFFFFFFFFFFFFFFFFFFFFFFFFFFFFFFFFFFF DUP3 SUB PUSH2 0x3191 JUMPI PUSH2 0x3190 PUSH2 0x30BD JUMP JUMPDEST JUMPDEST PUSH1 0x1 DUP3 ADD SWAP1 POP SWAP2 SWAP1 POP JUMP JUMPDEST PUSH32 0x4531000000000000000000000000000000000000000000000000000000000000 PUSH1 0x0 DUP3 ADD MSTORE POP JUMP JUMPDEST PUSH1 0x0 PUSH2 0x31D2 PUSH1 0x2 DUP4 PUSH2 0x2FEB JUMP JUMPDEST SWAP2 POP PUSH2 0x31DD DUP3 PUSH2 0x319C JUMP JUMPDEST PUSH1 0x20 DUP3 ADD SWAP1 POP SWAP2 SWAP1 POP JUMP JUMPDEST PUSH1 0x0 PUSH1 0x20 DUP3 ADD SWAP1 POP DUP2 DUP2 SUB PUSH1 0x0 DUP4 ADD MSTORE PUSH2 0x3201 DUP2 PUSH2 0x31C5 JUMP JUMPDEST SWAP1 POP SWAP2 SWAP1 POP JUMP JUMPDEST PUSH32 0x4532000000000000000000000000000000000000000000000000000000000000 PUSH1 0x0 DUP3 ADD MSTORE POP JUMP JUMPDEST PUSH1 0x0 PUSH2 0x323E PUSH1 0x2 DUP4 PUSH2 0x2FEB JUMP JUMPDEST SWAP2 POP PUSH2 0x3249 DUP3 PUSH2 0x3208 JUMP JUMPDEST PUSH1 0x20 DUP3 ADD SWAP1 POP SWAP2 SWAP1 POP JUMP JUMPDEST PUSH1 0x0 PUSH1 0x20 DUP3 ADD SWAP1 POP DUP2 DUP2 SUB PUSH1 0x0 DUP4 ADD MSTORE PUSH2 0x326D DUP2 PUSH2 0x3231 JUMP JUMPDEST SWAP1 POP SWAP2 SWAP1 POP JUMP JUMPDEST PUSH32 0x4533000000000000000000000000000000000000000000000000000000000000 PUSH1 0x0 DUP3 ADD MSTORE POP JUMP JUMPDEST PUSH1 0x0 PUSH2 0x32AA PUSH1 0x2 DUP4 PUSH2 0x2FEB JUMP JUMPDEST SWAP2 POP PUSH2 0x32B5 DUP3 PUSH2 0x3274 JUMP JUMPDEST PUSH1 0x20 DUP3 ADD SWAP1 POP SWAP2 SWAP1 POP JUMP JUMPDEST PUSH1 0x0 PUSH1 0x20 DUP3 ADD SWAP1 POP DUP2 DUP2 SUB PUSH1 0x0 DUP4 ADD MSTORE PUSH2 0x32D9 DUP2 PUSH2 0x329D JUMP JUMPDEST SWAP1 POP SWAP2 SWAP1 POP JUMP JUMPDEST PUSH1 0x0 PUSH2 0x32EB DUP3 PUSH2 0x2CEF JUMP JUMPDEST SWAP2 POP PUSH2 0x32F6 DUP4 PUSH2 0x2CEF JUMP JUMPDEST SWAP3 POP DUP3 DUP3 MUL PUSH2 0x3304 DUP2 PUSH2 0x2CEF JUMP JUMPDEST SWAP2 POP DUP3 DUP3 DIV DUP5 EQ DUP4 ISZERO OR PUSH2 0x331B JUMPI PUSH2 0x331A PUSH2 0x30BD JUMP JUMPDEST JUMPDEST POP SWAP3 SWAP2 POP POP JUMP JUMPDEST PUSH32 0x4E487B7100000000000000000000000000000000000000000000000000000000 PUSH1 0x0 MSTORE PUSH1 0x12 PUSH1 0x4 MSTORE PUSH1 0x24 PUSH1 0x0 REVERT JUMPDEST PUSH1 0x0 PUSH2 0x335C DUP3 PUSH2 0x2CEF JUMP JUMPDEST SWAP2 POP PUSH2 0x3367 DUP4 PUSH2 0x2CEF JUMP JUMPDEST SWAP3 POP DUP3 PUSH2 0x3377 JUMPI PUSH2 0x3376 PUSH2 0x3322 JUMP JUMPDEST JUMPDEST DUP3 DUP3 DIV SWAP1 POP SWAP3 SWAP2 POP POP JUMP JUMPDEST PUSH32 0x5061757361626C653A206E6F7420706175736564000000000000000000000000 PUSH1 0x0 DUP3 ADD MSTORE POP JUMP JUMPDEST PUSH1 0x0 PUSH2 0x33B8 PUSH1 0x14 DUP4 PUSH2 0x2FEB JUMP JUMPDEST SWAP2 POP PUSH2 0x33C3 DUP3 PUSH2 0x3382 JUMP JUMPDEST PUSH1 0x20 DUP3 ADD SWAP1 POP SWAP2 SWAP1 POP JUMP JUMPDEST PUSH1 0x0 PUSH1 0x20 DUP3 ADD SWAP1 POP DUP2 DUP2 SUB PUSH1 0x0 DUP4 ADD MSTORE PUSH2 0x33E7 DUP2 PUSH2 0x33AB JUMP JUMPDEST SWAP1 POP SWAP2 SWAP1 POP JUMP JUMPDEST PUSH1 0x0 DUP2 MLOAD SWAP1 POP PUSH2 0x33FD DUP2 PUSH2 0x2F29 JUMP JUMPDEST SWAP3 SWAP2 POP POP JUMP JUMPDEST PUSH1 0x0 PUSH1 0x20 DUP3 DUP5 SUB SLT ISZERO PUSH2 0x3419 JUMPI PUSH2 0x3418 PUSH2 0x2AAD JUMP JUMPDEST JUMPDEST PUSH1 0x0 PUSH2 0x3427 DUP5 DUP3 DUP6 ADD PUSH2 0x33EE JUMP JUMPDEST SWAP2 POP POP SWAP3 SWAP2 POP POP JUMP JUMPDEST PUSH32 0x5061757361626C653A2070617573656400000000000000000000000000000000 PUSH1 0x0 DUP3 ADD MSTORE POP JUMP JUMPDEST PUSH1 0x0 PUSH2 0x3466 PUSH1 0x10 DUP4 PUSH2 0x2FEB JUMP JUMPDEST SWAP2 POP PUSH2 0x3471 DUP3 PUSH2 0x3430 JUMP JUMPDEST PUSH1 0x20 DUP3 ADD SWAP1 POP SWAP2 SWAP1 POP JUMP JUMPDEST PUSH1 0x0 PUSH1 0x20 DUP3 ADD SWAP1 POP DUP2 DUP2 SUB PUSH1 0x0 DUP4 ADD MSTORE PUSH2 0x3495 DUP2 PUSH2 0x3459 JUMP JUMPDEST SWAP1 POP SWAP2 SWAP1 POP JUMP JUMPDEST PUSH32 0x5265656E7472616E637947756172643A207265656E7472616E742063616C6C00 PUSH1 0x0 DUP3 ADD MSTORE POP JUMP JUMPDEST PUSH1 0x0 PUSH2 0x34D2 PUSH1 0x1F DUP4 PUSH2 0x2FEB JUMP JUMPDEST SWAP2 POP PUSH2 0x34DD DUP3 PUSH2 0x349C JUMP JUMPDEST PUSH1 0x20 DUP3 ADD SWAP1 POP SWAP2 SWAP1 POP JUMP JUMPDEST PUSH1 0x0 PUSH1 0x20 DUP3 ADD SWAP1 POP DUP2 DUP2 SUB PUSH1 0x0 DUP4 ADD MSTORE PUSH2 0x3501 DUP2 PUSH2 0x34C5 JUMP JUMPDEST SWAP1 POP SWAP2 SWAP1 POP JUMP JUMPDEST PUSH1 0x0 PUSH1 0x40 DUP3 ADD SWAP1 POP PUSH2 0x351D PUSH1 0x0 DUP4 ADD DUP6 PUSH2 0x2B9F JUMP JUMPDEST PUSH2 0x352A PUSH1 0x20 DUP4 ADD DUP5 PUSH2 0x2CF9 JUMP JUMPDEST SWAP4 SWAP3 POP POP POP JUMP JUMPDEST PUSH1 0x0 DUP2 MLOAD SWAP1 POP PUSH2 0x3540 DUP2 PUSH2 0x2E09 JUMP JUMPDEST SWAP3 SWAP2 POP POP JUMP JUMPDEST PUSH1 0x0 PUSH1 0x20 DUP3 DUP5 SUB SLT ISZERO PUSH2 0x355C JUMPI PUSH2 0x355B PUSH2 0x2AAD JUMP JUMPDEST JUMPDEST PUSH1 0x0 PUSH2 0x356A DUP5 DUP3 DUP6 ADD PUSH2 0x3531 JUMP JUMPDEST SWAP2 POP POP SWAP3 SWAP2 POP POP JUMP JUMPDEST PUSH1 0x0 DUP2 SWAP1 POP SWAP3 SWAP2 POP POP JUMP JUMPDEST POP JUMP JUMPDEST PUSH1 0x0 PUSH2 0x358E PUSH1 0x0 DUP4 PUSH2 0x3573 JUMP JUMPDEST SWAP2 POP PUSH2 0x3599 DUP3 PUSH2 0x357E JUMP JUMPDEST PUSH1 0x0 DUP3 ADD SWAP1 POP SWAP2 SWAP1 POP JUMP JUMPDEST PUSH1 0x0 PUSH2 0x35AF DUP3 PUSH2 0x3581 JUMP JUMPDEST SWAP2 POP DUP2 SWAP1 POP SWAP2 SWAP1 POP JUMP JUMPDEST PUSH1 0x0 PUSH1 0x60 DUP3 ADD SWAP1 POP PUSH2 0x35CE PUSH1 0x0 DUP4 ADD DUP7 PUSH2 0x2B9F JUMP JUMPDEST PUSH2 0x35DB PUSH1 0x20 DUP4 ADD DUP6 PUSH2 0x2B9F JUMP JUMPDEST PUSH2 0x35E8 PUSH1 0x40 DUP4 ADD DUP5 PUSH2 0x2CF9 JUMP JUMPDEST SWAP5 SWAP4 POP POP POP POP JUMP JUMPDEST PUSH1 0x0 DUP2 SWAP1 POP SWAP2 SWAP1 POP JUMP JUMPDEST PUSH2 0x360B PUSH2 0x3606 DUP3 PUSH2 0x2CEF JUMP JUMPDEST PUSH2 0x35F0 JUMP JUMPDEST DUP3 MSTORE POP POP JUMP JUMPDEST PUSH1 0x0 DUP2 PUSH1 0x60 SHL SWAP1 POP SWAP2 SWAP1 POP JUMP JUMPDEST PUSH1 0x0 PUSH2 0x3629 DUP3 PUSH2 0x3611 JUMP JUMPDEST SWAP1 POP SWAP2 SWAP1 POP JUMP JUMPDEST PUSH1 0x0 PUSH2 0x363B DUP3 PUSH2 0x361E JUMP JUMPDEST SWAP1 POP SWAP2 SWAP1 POP JUMP JUMPDEST PUSH2 0x3653 PUSH2 0x364E DUP3 PUSH2 0x2B8D JUMP JUMPDEST PUSH2 0x3630 JUMP JUMPDEST DUP3 MSTORE POP POP JUMP JUMPDEST PUSH1 0x0 PUSH2 0x3665 DUP3 DUP7 PUSH2 0x35FA JUMP JUMPDEST PUSH1 0x20 DUP3 ADD SWAP2 POP PUSH2 0x3675 DUP3 DUP6 PUSH2 0x35FA JUMP JUMPDEST PUSH1 0x20 DUP3 ADD SWAP2 POP PUSH2 0x3685 DUP3 DUP5 PUSH2 0x3642 JUMP JUMPDEST PUSH1 0x14 DUP3 ADD SWAP2 POP DUP2 SWAP1 POP SWAP5 SWAP4 POP POP POP POP JUMP JUMPDEST PUSH1 0x0 PUSH2 0x36A1 DUP3 PUSH2 0x2CEF JUMP JUMPDEST SWAP2 POP PUSH2 0x36AC DUP4 PUSH2 0x2CEF JUMP JUMPDEST SWAP3 POP DUP3 PUSH2 0x36BC JUMPI PUSH2 0x36BB PUSH2 0x3322 JUMP JUMPDEST JUMPDEST DUP3 DUP3 MOD SWAP1 POP SWAP3 SWAP2 POP POP JUMP JUMPDEST PUSH1 0x0 DUP2 SWAP1 POP SWAP3 SWAP2 POP POP JUMP JUMPDEST PUSH32 0x416363657373436F6E74726F6C3A206163636F756E7420000000000000000000 PUSH1 0x0 DUP3 ADD MSTORE POP JUMP JUMPDEST PUSH1 0x0 PUSH2 0x3708 PUSH1 0x17 DUP4 PUSH2 0x36C7 JUMP JUMPDEST SWAP2 POP PUSH2 0x3713 DUP3 PUSH2 0x36D2 JUMP JUMPDEST PUSH1 0x17 DUP3 ADD SWAP1 POP SWAP2 SWAP1 POP JUMP JUMPDEST PUSH1 0x0 DUP2 MLOAD SWAP1 POP SWAP2 SWAP1 POP JUMP JUMPDEST PUSH1 0x0 JUMPDEST DUP4 DUP2 LT ISZERO PUSH2 0x3747 JUMPI DUP1 DUP3 ADD MLOAD DUP2 DUP5 ADD MSTORE PUSH1 0x20 DUP2 ADD SWAP1 POP PUSH2 0x372C JUMP JUMPDEST PUSH1 0x0 DUP5 DUP5 ADD MSTORE POP POP POP POP JUMP JUMPDEST PUSH1 0x0 PUSH2 0x375E DUP3 PUSH2 0x371E JUMP JUMPDEST PUSH2 0x3768 DUP2 DUP6 PUSH2 0x36C7 JUMP JUMPDEST SWAP4 POP PUSH2 0x3778 DUP2 DUP6 PUSH1 0x20 DUP7 ADD PUSH2 0x3729 JUMP JUMPDEST DUP1 DUP5 ADD SWAP2 POP POP SWAP3 SWAP2 POP POP JUMP JUMPDEST PUSH32 0x206973206D697373696E6720726F6C6520000000000000000000000000000000 PUSH1 0x0 DUP3 ADD MSTORE POP JUMP JUMPDEST PUSH1 0x0 PUSH2 0x37BA PUSH1 0x11 DUP4 PUSH2 0x36C7 JUMP JUMPDEST SWAP2 POP PUSH2 0x37C5 DUP3 PUSH2 0x3784 JUMP JUMPDEST PUSH1 0x11 DUP3 ADD SWAP1 POP SWAP2 SWAP1 POP JUMP JUMPDEST PUSH1 0x0 PUSH2 0x37DB DUP3 PUSH2 0x36FB JUMP JUMPDEST SWAP2 POP PUSH2 0x37E7 DUP3 DUP6 PUSH2 0x3753 JUMP JUMPDEST SWAP2 POP PUSH2 0x37F2 DUP3 PUSH2 0x37AD JUMP JUMPDEST SWAP2 POP PUSH2 0x37FE DUP3 DUP5 PUSH2 0x3753 JUMP JUMPDEST SWAP2 POP DUP2 SWAP1 POP SWAP4 SWAP3 POP POP POP JUMP JUMPDEST PUSH1 0x0 PUSH1 0x1F NOT PUSH1 0x1F DUP4 ADD AND SWAP1 POP SWAP2 SWAP1 POP JUMP JUMPDEST PUSH1 0x0 PUSH2 0x3826 DUP3 PUSH2 0x371E JUMP JUMPDEST PUSH2 0x3830 DUP2 DUP6 PUSH2 0x2FEB JUMP JUMPDEST SWAP4 POP PUSH2 0x3840 DUP2 DUP6 PUSH1 0x20 DUP7 ADD PUSH2 0x3729 JUMP JUMPDEST PUSH2 0x3849 DUP2 PUSH2 0x380A JUMP JUMPDEST DUP5 ADD SWAP2 POP POP SWAP3 SWAP2 POP POP JUMP JUMPDEST PUSH1 0x0 PUSH1 0x20 DUP3 ADD SWAP1 POP DUP2 DUP2 SUB PUSH1 0x0 DUP4 ADD MSTORE PUSH2 0x386E DUP2 DUP5 PUSH2 0x381B JUMP JUMPDEST SWAP1 POP SWAP3 SWAP2 POP POP JUMP JUMPDEST PUSH32 0x4E487B7100000000000000000000000000000000000000000000000000000000 PUSH1 0x0 MSTORE PUSH1 0x41 PUSH1 0x4 MSTORE PUSH1 0x24 PUSH1 0x0 REVERT JUMPDEST PUSH1 0x0 PUSH2 0x38B0 DUP3 PUSH2 0x2CEF JUMP JUMPDEST SWAP2 POP PUSH1 0x0 DUP3 SUB PUSH2 0x38C3 JUMPI PUSH2 0x38C2 PUSH2 0x30BD JUMP JUMPDEST JUMPDEST PUSH1 0x1 DUP3 SUB SWAP1 POP SWAP2 SWAP1 POP JUMP JUMPDEST PUSH32 0x537472696E67733A20686578206C656E67746820696E73756666696369656E74 PUSH1 0x0 DUP3 ADD MSTORE POP JUMP JUMPDEST PUSH1 0x0 PUSH2 0x3904 PUSH1 0x20 DUP4 PUSH2 0x2FEB JUMP JUMPDEST SWAP2 POP PUSH2 0x390F DUP3 PUSH2 0x38CE JUMP JUMPDEST PUSH1 0x20 DUP3 ADD SWAP1 POP SWAP2 SWAP1 POP JUMP JUMPDEST PUSH1 0x0 PUSH1 0x20 DUP3 ADD SWAP1 POP DUP2 DUP2 SUB PUSH1 0x0 DUP4 ADD MSTORE PUSH2 0x3933 DUP2 PUSH2 0x38F7 JUMP JUMPDEST SWAP1 POP SWAP2 SWAP1 POP JUMP INVALID LOG2 PUSH5 0x6970667358 0x22 SLT KECCAK256 SHR RETURNDATASIZE 0xD3 0xD3 MUL GAS 0xE6 0xC3 0x23 DUP15 SWAP2 0xED 0x5E 0xA6 CALLDATACOPY 0x5D DUP1 0x5E SELFDESTRUCT EXTCODEHASH 0xD4 0xE4 SUB CODESIZE SSTORE SWAP14 SWAP6 DUP6 0xC1 0xB9 0x2A 0x1E PUSH5 0x736F6C6343 STOP ADDMOD SGT STOP CALLER "
				},
				"gasEstimates": {
					"creation": {
						"codeDepositCost": "2940800",
						"executionCost": "infinite",
						"totalCost": "infinite"
					},
					"external": {
						"DEFAULT_ADMIN_ROLE()": "381",
						"PAUSER_ROLE()": "373",
						"cancelGame()": "48262",
						"charity()": "2625",
						"completeGame()": "infinite",
						"creator()": "2583",
						"drawGame()": "infinite",
						"factory()": "2626",
						"gameInfo()": "infinite",
						"getCharity()": "infinite",
						"getGameStatus()": "infinite",
						"getGuarantee(bool)": "infinite",
						"getReferrerReward()": "infinite",
						"getRefund()": "infinite",
						"getRoleAdmin(bytes32)": "infinite",
						"getWinnerReward()": "infinite",
						"grantRole(bytes32,address)": "infinite",
						"hasRole(bytes32,address)": "3229",
						"joinGame(uint256,address)": "infinite",
						"joinGas()": "2604",
						"pauseGame()": "infinite",
						"paused()": "2591",
						"playerTotal(address)": "2882",
						"players(uint256)": "infinite",
						"referrers(address)": "2882",
						"refundGas()": "2604",
						"renounceRole(bytes32,address)": "infinite",
						"revokeRole(bytes32,address)": "infinite",
						"startGame()": "infinite",
						"supportsInterface(bytes4)": "774",
						"token()": "2646",
						"unpauseGame()": "infinite",
						"winner()": "2603"
					},
					"internal": {
						"_balance()": "infinite",
						"_getValueOrRevert(uint256)": "infinite",
						"_sendValue(address,uint256)": "infinite",
						"_sendValueOrRevert(address,uint256)": "infinite",
						"getRandom(uint256)": "infinite"
					}
				},
				"methodIdentifiers": {
					"DEFAULT_ADMIN_ROLE()": "a217fddf",
					"PAUSER_ROLE()": "e63ab1e9",
					"cancelGame()": "d84c1ac9",
					"charity()": "934aa023",
					"completeGame()": "7b51b4ad",
					"creator()": "02d05d3f",
					"drawGame()": "e2218de0",
					"factory()": "c45a0155",
					"gameInfo()": "db73bfce",
					"getCharity()": "d6f5ef0e",
					"getGameStatus()": "382396ee",
					"getGuarantee(bool)": "6ac3afce",
					"getReferrerReward()": "d72ad623",
					"getRefund()": "b2d5ae44",
					"getRoleAdmin(bytes32)": "248a9ca3",
					"getWinnerReward()": "e864e29b",
					"grantRole(bytes32,address)": "2f2ff15d",
					"hasRole(bytes32,address)": "91d14854",
					"joinGame(uint256,address)": "ead00e02",
					"joinGas()": "bbf24476",
					"pauseGame()": "499831f2",
					"paused()": "5c975abb",
					"playerTotal(address)": "30f95a56",
					"players(uint256)": "f71d96cb",
					"referrers(address)": "4a3b68cc",
					"refundGas()": "4f6d3aed",
					"renounceRole(bytes32,address)": "36568abe",
					"revokeRole(bytes32,address)": "d547741f",
					"startGame()": "d65ab5f2",
					"supportsInterface(bytes4)": "01ffc9a7",
					"token()": "fc0c546a",
					"unpauseGame()": "305243d9",
					"winner()": "dfbf53ae"
				}
			},
			"storageLayout": {
				"storage": [
					{
						"astId": 24,
						"contract": "CryptoFairHero/HeroV1Game.sol:HeroV1Game",
						"label": "_roles",
						"offset": 0,
						"slot": "0",
						"type": "t_mapping(t_bytes32,t_struct(RoleData)19_storage)"
					},
					{
						"astId": 406,
						"contract": "CryptoFairHero/HeroV1Game.sol:HeroV1Game",
						"label": "_paused",
						"offset": 0,
						"slot": "1",
						"type": "t_bool"
					},
					{
						"astId": 507,
						"contract": "CryptoFairHero/HeroV1Game.sol:HeroV1Game",
						"label": "_status",
						"offset": 0,
						"slot": "2",
						"type": "t_uint256"
					},
					{
						"astId": 1781,
						"contract": "CryptoFairHero/HeroV1Game.sol:HeroV1Game",
						"label": "gameInfo",
						"offset": 0,
						"slot": "3",
						"type": "t_struct(GameInfo)1767_storage"
					},
					{
						"astId": 1783,
						"contract": "CryptoFairHero/HeroV1Game.sol:HeroV1Game",
						"label": "factory",
						"offset": 0,
						"slot": "12",
						"type": "t_address"
					},
					{
						"astId": 1785,
						"contract": "CryptoFairHero/HeroV1Game.sol:HeroV1Game",
						"label": "creator",
						"offset": 0,
						"slot": "13",
						"type": "t_address"
					},
					{
						"astId": 1787,
						"contract": "CryptoFairHero/HeroV1Game.sol:HeroV1Game",
						"label": "token",
						"offset": 0,
						"slot": "14",
						"type": "t_address"
					},
					{
						"astId": 1789,
						"contract": "CryptoFairHero/HeroV1Game.sol:HeroV1Game",
						"label": "winner",
						"offset": 0,
						"slot": "15",
						"type": "t_address"
					},
					{
						"astId": 1791,
						"contract": "CryptoFairHero/HeroV1Game.sol:HeroV1Game",
						"label": "charity",
						"offset": 0,
						"slot": "16",
						"type": "t_address"
					},
					{
						"astId": 1793,
						"contract": "CryptoFairHero/HeroV1Game.sol:HeroV1Game",
						"label": "joinGas",
						"offset": 0,
						"slot": "17",
						"type": "t_address"
					},
					{
						"astId": 1795,
						"contract": "CryptoFairHero/HeroV1Game.sol:HeroV1Game",
						"label": "refundGas",
						"offset": 0,
						"slot": "18",
						"type": "t_address"
					},
					{
						"astId": 1799,
						"contract": "CryptoFairHero/HeroV1Game.sol:HeroV1Game",
						"label": "players",
						"offset": 0,
						"slot": "19",
						"type": "t_array(t_struct(PlayerInfo)1737_storage)dyn_storage"
					},
					{
						"astId": 1803,
						"contract": "CryptoFairHero/HeroV1Game.sol:HeroV1Game",
						"label": "playerTotal",
						"offset": 0,
						"slot": "20",
						"type": "t_mapping(t_address,t_uint256)"
					},
					{
						"astId": 1807,
						"contract": "CryptoFairHero/HeroV1Game.sol:HeroV1Game",
						"label": "referrers",
						"offset": 0,
						"slot": "21",
						"type": "t_mapping(t_address,t_uint256)"
					},
					{
						"astId": 1809,
						"contract": "CryptoFairHero/HeroV1Game.sol:HeroV1Game",
						"label": "_joinTotal",
						"offset": 0,
						"slot": "22",
						"type": "t_uint256"
					},
					{
						"astId": 1811,
						"contract": "CryptoFairHero/HeroV1Game.sol:HeroV1Game",
						"label": "_charityTotal",
						"offset": 0,
						"slot": "23",
						"type": "t_uint256"
					},
					{
						"astId": 1813,
						"contract": "CryptoFairHero/HeroV1Game.sol:HeroV1Game",
						"label": "_winnerReward",
						"offset": 0,
						"slot": "24",
						"type": "t_uint256"
					},
					{
						"astId": 1815,
						"contract": "CryptoFairHero/HeroV1Game.sol:HeroV1Game",
						"label": "_referrerReward",
						"offset": 0,
						"slot": "25",
						"type": "t_uint256"
					},
					{
						"astId": 1818,
						"contract": "CryptoFairHero/HeroV1Game.sol:HeroV1Game",
						"label": "_gameStatus",
						"offset": 0,
						"slot": "26",
						"type": "t_enum(GameStatus)1744"
					},
					{
						"astId": 1821,
						"contract": "CryptoFairHero/HeroV1Game.sol:HeroV1Game",
						"label": "_lastStatus",
						"offset": 1,
						"slot": "26",
						"type": "t_enum(GameStatus)1744"
					}
				],
				"types": {
					"t_address": {
						"encoding": "inplace",
						"label": "address",
						"numberOfBytes": "20"
					},
					"t_array(t_struct(PlayerInfo)1737_storage)dyn_storage": {
						"base": "t_struct(PlayerInfo)1737_storage",
						"encoding": "dynamic_array",
						"label": "struct PlayerInfo[]",
						"numberOfBytes": "32"
					},
					"t_bool": {
						"encoding": "inplace",
						"label": "bool",
						"numberOfBytes": "1"
					},
					"t_bytes32": {
						"encoding": "inplace",
						"label": "bytes32",
						"numberOfBytes": "32"
					},
					"t_enum(GameStatus)1744": {
						"encoding": "inplace",
						"label": "enum GameStatus",
						"numberOfBytes": "1"
					},
					"t_mapping(t_address,t_bool)": {
						"encoding": "mapping",
						"key": "t_address",
						"label": "mapping(address => bool)",
						"numberOfBytes": "32",
						"value": "t_bool"
					},
					"t_mapping(t_address,t_uint256)": {
						"encoding": "mapping",
						"key": "t_address",
						"label": "mapping(address => uint256)",
						"numberOfBytes": "32",
						"value": "t_uint256"
					},
					"t_mapping(t_bytes32,t_struct(RoleData)19_storage)": {
						"encoding": "mapping",
						"key": "t_bytes32",
						"label": "mapping(bytes32 => struct AccessControl.RoleData)",
						"numberOfBytes": "32",
						"value": "t_struct(RoleData)19_storage"
					},
					"t_struct(GameInfo)1767_storage": {
						"encoding": "inplace",
						"label": "struct GameInfo",
						"members": [
							{
								"astId": 1746,
								"contract": "CryptoFairHero/HeroV1Game.sol:HeroV1Game",
								"label": "id",
								"offset": 0,
								"slot": "0",
								"type": "t_uint256"
							},
							{
								"astId": 1748,
								"contract": "CryptoFairHero/HeroV1Game.sol:HeroV1Game",
								"label": "minJoinAmount",
								"offset": 0,
								"slot": "1",
								"type": "t_uint256"
							},
							{
								"astId": 1750,
								"contract": "CryptoFairHero/HeroV1Game.sol:HeroV1Game",
								"label": "minJoinPlayer",
								"offset": 0,
								"slot": "2",
								"type": "t_uint256"
							},
							{
								"astId": 1752,
								"contract": "CryptoFairHero/HeroV1Game.sol:HeroV1Game",
								"label": "guarantee",
								"offset": 0,
								"slot": "3",
								"type": "t_uint256"
							},
							{
								"astId": 1754,
								"contract": "CryptoFairHero/HeroV1Game.sol:HeroV1Game",
								"label": "_joinTotal",
								"offset": 0,
								"slot": "4",
								"type": "t_uint256"
							},
							{
								"astId": 1756,
								"contract": "CryptoFairHero/HeroV1Game.sol:HeroV1Game",
								"label": "_charityTotal",
								"offset": 0,
								"slot": "5",
								"type": "t_uint256"
							},
							{
								"astId": 1758,
								"contract": "CryptoFairHero/HeroV1Game.sol:HeroV1Game",
								"label": "_winnerReward",
								"offset": 0,
								"slot": "6",
								"type": "t_uint256"
							},
							{
								"astId": 1760,
								"contract": "CryptoFairHero/HeroV1Game.sol:HeroV1Game",
								"label": "_referrerReward",
								"offset": 0,
								"slot": "7",
								"type": "t_uint256"
							},
							{
								"astId": 1762,
								"contract": "CryptoFairHero/HeroV1Game.sol:HeroV1Game",
								"label": "charityPercentage",
								"offset": 0,
								"slot": "8",
								"type": "t_uint8"
							},
							{
								"astId": 1764,
								"contract": "CryptoFairHero/HeroV1Game.sol:HeroV1Game",
								"label": "referrPercentage",
								"offset": 1,
								"slot": "8",
								"type": "t_uint8"
							},
							{
								"astId": 1766,
								"contract": "CryptoFairHero/HeroV1Game.sol:HeroV1Game",
								"label": "drawPercentage",
								"offset": 2,
								"slot": "8",
								"type": "t_uint8"
							}
						],
						"numberOfBytes": "288"
					},
					"t_struct(PlayerInfo)1737_storage": {
						"encoding": "inplace",
						"label": "struct PlayerInfo",
						"members": [
							{
								"astId": 1734,
								"contract": "CryptoFairHero/HeroV1Game.sol:HeroV1Game",
								"label": "amount",
								"offset": 0,
								"slot": "0",
								"type": "t_uint256"
							},
							{
								"astId": 1736,
								"contract": "CryptoFairHero/HeroV1Game.sol:HeroV1Game",
								"label": "addr",
								"offset": 0,
								"slot": "1",
								"type": "t_address"
							}
						],
						"numberOfBytes": "64"
					},
					"t_struct(RoleData)19_storage": {
						"encoding": "inplace",
						"label": "struct AccessControl.RoleData",
						"members": [
							{
								"astId": 16,
								"contract": "CryptoFairHero/HeroV1Game.sol:HeroV1Game",
								"label": "members",
								"offset": 0,
								"slot": "0",
								"type": "t_mapping(t_address,t_bool)"
							},
							{
								"astId": 18,
								"contract": "CryptoFairHero/HeroV1Game.sol:HeroV1Game",
								"label": "adminRole",
								"offset": 0,
								"slot": "1",
								"type": "t_bytes32"
							}
						],
						"numberOfBytes": "64"
					},
					"t_uint256": {
						"encoding": "inplace",
						"label": "uint256",
						"numberOfBytes": "32"
					},
					"t_uint8": {
						"encoding": "inplace",
						"label": "uint8",
						"numberOfBytes": "1"
					}
				}
			},
			"userdoc": {
				"kind": "user",
				"methods": {},
				"version": 1
			}
		}
	}
}